{
	"data": {
		"bytecode": {
			"linkReferences": {},
			"object": "608060405234801561001057600080fd5b50615774806100206000396000f3fe608060405260043610620000b65760003560e01c80639d58b15d116200006d5780639d58b15d1462000227578063c07bacf31462000255578063eab3780e1462000299578063f22fe80714620002c7578063f2c298be14620002e7578063f6582333146200031557620000b6565b806305f9b4dc14620000bb57806316e5c41514620000ff5780632b97ce7314620001435780634ce24b4814620001715780637ab9a721146200019f5780638089a13814620001e3575b600080fd5b348015620000c857600080fd5b50620000e76004803603810190620000e1919062001a27565b62000359565b604051620000f6919062002102565b60405180910390f35b3480156200010c57600080fd5b506200012b600480360381019062000125919062001b74565b620003c1565b6040516200013a919062002079565b60405180910390f35b3480156200015057600080fd5b506200016f600480360381019062000169919062001ba6565b62000521565b005b3480156200017e57600080fd5b506200019d600480360381019062000197919062001b74565b620007d6565b005b348015620001ac57600080fd5b50620001cb6004803603810190620001c5919062001b74565b620009b7565b604051620001da9190620020e5565b60405180910390f35b348015620001f057600080fd5b506200020f600480360381019062000209919062001b74565b62000a61565b6040516200021e9190620020c1565b60405180910390f35b3480156200023457600080fd5b506200025360048036038101906200024d919062001a8b565b62000bc1565b005b3480156200026257600080fd5b506200028160048036038101906200027b919062001a27565b62000da4565b6040516200029091906200209d565b60405180910390f35b348015620002a657600080fd5b50620002c56004803603810190620002bf919062001c21565b62000e73565b005b620002e56004803603810190620002df919062001c87565b62001057565b005b348015620002f457600080fd5b506200031360048036038101906200030d919062001c87565b6200143e565b005b3480156200032257600080fd5b506200034160048036038101906200033b919062001b74565b620016bd565b60405162000350919062002079565b60405180910390f35b60008060008373ffffffffffffffffffffffffffffffffffffffff1673ffffffffffffffffffffffffffffffffffffffff16815260200190815260200160002060009054906101000a900473ffffffffffffffffffffffffffffffffffffffff169050919050565b60603373ffffffffffffffffffffffffffffffffffffffff16600260008473ffffffffffffffffffffffffffffffffffffffff1673ffffffffffffffffffffffffffffffffffffffff16815260200190815260200160002060009054906101000a900473ffffffffffffffffffffffffffffffffffffffff1673ffffffffffffffffffffffffffffffffffffffff161462000493576040517f08c379a00000000000000000000000000000000000000000000000000000000081526004016200048a906200211f565b60405180910390fd5b8173ffffffffffffffffffffffffffffffffffffffff16634a0dd0836040518163ffffffff1660e01b815260040160006040518083038186803b158015620004da57600080fd5b505afa158015620004ef573d6000803e3d6000fd5b505050506040513d6000823e3d601f19601f820116820180604052508101906200051a919062001ad2565b9050919050565b60006001905060005b6003805490508110156200064a573373ffffffffffffffffffffffffffffffffffffffff1660038281548110620005665762000565620024d1565b5b9060005260206000200160009054906101000a900473ffffffffffffffffffffffffffffffffffffffff1673ffffffffffffffffffffffffffffffffffffffff1663a74c2bb66040518163ffffffff1660e01b815260040160206040518083038186803b158015620005d757600080fd5b505afa158015620005ec573d6000803e3d6000fd5b505050506040513d601f19601f8201168201806040525081019062000612919062001a59565b73ffffffffffffffffffffffffffffffffffffffff1614156200063457600091505b8080620006419062002454565b9150506200052a565b5080156200068f576040517f08c379a0000000000000000000000000000000000000000000000000000000008152600401620006869062002185565b60405180910390fd5b3373ffffffffffffffffffffffffffffffffffffffff16600260008673ffffffffffffffffffffffffffffffffffffffff1673ffffffffffffffffffffffffffffffffffffffff16815260200190815260200160002060009054906101000a900473ffffffffffffffffffffffffffffffffffffffff1673ffffffffffffffffffffffffffffffffffffffff16146200075f576040517f08c379a000000000000000000000000000000000000000000000000000000000815260040162000756906200211f565b60405180910390fd5b8373ffffffffffffffffffffffffffffffffffffffff1663af8d148f84846040518363ffffffff1660e01b81526004016200079c92919062002045565b600060405180830381600087803b158015620007b757600080fd5b505af1158015620007cc573d6000803e3d6000fd5b5050505050505050565b60006001905060005b600380549050811015620008ff573373ffffffffffffffffffffffffffffffffffffffff16600382815481106200081b576200081a620024d1565b5b9060005260206000200160009054906101000a900473ffffffffffffffffffffffffffffffffffffffff1673ffffffffffffffffffffffffffffffffffffffff1663a74c2bb66040518163ffffffff1660e01b815260040160206040518083038186803b1580156200088c57600080fd5b505afa158015620008a1573d6000803e3d6000fd5b505050506040513d601f19601f82011682018060405250810190620008c7919062001a59565b73ffffffffffffffffffffffffffffffffffffffff161415620008e957600091505b8080620008f69062002454565b915050620007df565b50801562000944576040517f08c379a00000000000000000000000000000000000000000000000000000000081526004016200093b9062002185565b60405180910390fd5b8173ffffffffffffffffffffffffffffffffffffffff16634ce24b48336040518263ffffffff1660e01b81526004016200097f919062001ffb565b600060405180830381600087803b1580156200099a57600080fd5b505af1158015620009af573d6000803e3d6000fd5b505050505050565b60003373ffffffffffffffffffffffffffffffffffffffff16600260008473ffffffffffffffffffffffffffffffffffffffff1673ffffffffffffffffffffffffffffffffffffffff16815260200190815260200160002060009054906101000a900473ffffffffffffffffffffffffffffffffffffffff1673ffffffffffffffffffffffffffffffffffffffff16141562000a57576001905062000a5c565b600090505b919050565b60603373ffffffffffffffffffffffffffffffffffffffff16600260008473ffffffffffffffffffffffffffffffffffffffff1673ffffffffffffffffffffffffffffffffffffffff16815260200190815260200160002060009054906101000a900473ffffffffffffffffffffffffffffffffffffffff1673ffffffffffffffffffffffffffffffffffffffff161462000b33576040517f08c379a000000000000000000000000000000000000000000000000000000000815260040162000b2a906200211f565b60405180910390fd5b8173ffffffffffffffffffffffffffffffffffffffff1663878132866040518163ffffffff1660e01b815260040160006040518083038186803b15801562000b7a57600080fd5b505afa15801562000b8f573d6000803e3d6000fd5b505050506040513d6000823e3d601f19601f8201168201806040525081019062000bba919062001b23565b9050919050565b3373ffffffffffffffffffffffffffffffffffffffff16600260008373ffffffffffffffffffffffffffffffffffffffff1673ffffffffffffffffffffffffffffffffffffffff16815260200190815260200160002060009054906101000a900473ffffffffffffffffffffffffffffffffffffffff1673ffffffffffffffffffffffffffffffffffffffff161462000c91576040517f08c379a000000000000000000000000000000000000000000000000000000000815260040162000c88906200211f565b60405180910390fd5b600160008373ffffffffffffffffffffffffffffffffffffffff1673ffffffffffffffffffffffffffffffffffffffff168152602001908152602001600020819080600181540180825580915050600190039060005260206000200160009091909190916101000a81548173ffffffffffffffffffffffffffffffffffffffff021916908373ffffffffffffffffffffffffffffffffffffffff1602179055508073ffffffffffffffffffffffffffffffffffffffff1663ca6d56dc836040518263ffffffff1660e01b815260040162000d6c919062001ffb565b600060405180830381600087803b15801562000d8757600080fd5b505af115801562000d9c573d6000803e3d6000fd5b505050505050565b6060600160008373ffffffffffffffffffffffffffffffffffffffff1673ffffffffffffffffffffffffffffffffffffffff16815260200190815260200160002080548060200260200160405190810160405280929190818152602001828054801562000e6757602002820191906000526020600020905b8160009054906101000a900473ffffffffffffffffffffffffffffffffffffffff1673ffffffffffffffffffffffffffffffffffffffff168152602001906001019080831162000e1c575b50505050509050919050565b60006001905060005b60038054905081101562000f9c573373ffffffffffffffffffffffffffffffffffffffff166003828154811062000eb85762000eb7620024d1565b5b9060005260206000200160009054906101000a900473ffffffffffffffffffffffffffffffffffffffff1673ffffffffffffffffffffffffffffffffffffffff1663a74c2bb66040518163ffffffff1660e01b815260040160206040518083038186803b15801562000f2957600080fd5b505afa15801562000f3e573d6000803e3d6000fd5b505050506040513d601f19601f8201168201806040525081019062000f64919062001a59565b73ffffffffffffffffffffffffffffffffffffffff16141562000f8657600091505b808062000f939062002454565b91505062000e7c565b50801562000fe1576040517f08c379a000000000000000000000000000000000000000000000000000000000815260040162000fd89062002185565b60405180910390fd5b8273ffffffffffffffffffffffffffffffffffffffff1663eab3780e33846040518363ffffffff1660e01b81526004016200101e92919062002045565b600060405180830381600087803b1580156200103957600080fd5b505af11580156200104e573d6000803e3d6000fd5b50505050505050565b60006001905060005b60038054905081101562001180573373ffffffffffffffffffffffffffffffffffffffff16600382815481106200109c576200109b620024d1565b5b9060005260206000200160009054906101000a900473ffffffffffffffffffffffffffffffffffffffff1673ffffffffffffffffffffffffffffffffffffffff1663a74c2bb66040518163ffffffff1660e01b815260040160206040518083038186803b1580156200110d57600080fd5b505afa15801562001122573d6000803e3d6000fd5b505050506040513d601f19601f8201168201806040525081019062001148919062001a59565b73ffffffffffffffffffffffffffffffffffffffff1614156200116a57600091505b8080620011779062002454565b91505062001060565b508015620011c5576040517f08c379a0000000000000000000000000000000000000000000000000000000008152600401620011bc9062002185565b60405180910390fd5b670de0b6b3a76400003410620013b5576000343384604051620011e8906200174d565b620011f592919062002045565b6040518091039082f090508015801562001213573d6000803e3d6000fd5b509050600160003373ffffffffffffffffffffffffffffffffffffffff1673ffffffffffffffffffffffffffffffffffffffff168152602001908152602001600020819080600181540180825580915050600190039060005260206000200160009091909190916101000a81548173ffffffffffffffffffffffffffffffffffffffff021916908373ffffffffffffffffffffffffffffffffffffffff16021790555033600260008373ffffffffffffffffffffffffffffffffffffffff1673ffffffffffffffffffffffffffffffffffffffff16815260200190815260200160002060006101000a81548173ffffffffffffffffffffffffffffffffffffffff021916908373ffffffffffffffffffffffffffffffffffffffff1602179055506200133f3362000359565b73ffffffffffffffffffffffffffffffffffffffff1662affc2f33836040518363ffffffff1660e01b81526004016200137a92919062002018565b600060405180830381600087803b1580156200139557600080fd5b505af1158015620013aa573d6000803e3d6000fd5b50505050506200143a565b3373ffffffffffffffffffffffffffffffffffffffff166108fc349081150290604051600060405180830381858888f19350505050158015620013fc573d6000803e3d6000fd5b506040517f08c379a0000000000000000000000000000000000000000000000000000000008152600401620014319062002163565b60405180910390fd5b5050565b60005b60038054905081101562001599573373ffffffffffffffffffffffffffffffffffffffff16600382815481106200147d576200147c620024d1565b5b9060005260206000200160009054906101000a900473ffffffffffffffffffffffffffffffffffffffff1673ffffffffffffffffffffffffffffffffffffffff1663a74c2bb66040518163ffffffff1660e01b815260040160206040518083038186803b158015620014ee57600080fd5b505afa15801562001503573d6000803e3d6000fd5b505050506040513d601f19601f8201168201806040525081019062001529919062001a59565b73ffffffffffffffffffffffffffffffffffffffff16141562001583576040517f08c379a00000000000000000000000000000000000000000000000000000000081526004016200157a9062002141565b60405180910390fd5b8080620015909062002454565b91505062001441565b5060003382604051620015ac906200175b565b620015b992919062002045565b604051809103906000f080158015620015d6573d6000803e3d6000fd5b509050806000803373ffffffffffffffffffffffffffffffffffffffff1673ffffffffffffffffffffffffffffffffffffffff16815260200190815260200160002060006101000a81548173ffffffffffffffffffffffffffffffffffffffff021916908373ffffffffffffffffffffffffffffffffffffffff1602179055506003819080600181540180825580915050600190039060005260206000200160009091909190916101000a81548173ffffffffffffffffffffffffffffffffffffffff021916908373ffffffffffffffffffffffffffffffffffffffff1602179055505050565b60608173ffffffffffffffffffffffffffffffffffffffff16635c3e2e416040518163ffffffff1660e01b815260040160006040518083038186803b1580156200170657600080fd5b505afa1580156200171b573d6000803e3d6000fd5b505050506040513d6000823e3d601f19601f8201168201806040525081019062001746919062001ad2565b9050919050565b612637806200265883390190565b610ab08062004c8f83390190565b6000620017806200177a84620021d0565b620021a7565b90508083825260208201905082856020860282011115620017a657620017a562002534565b5b60005b85811015620017da5781620017bf88826200192d565b845260208401935060208301925050600181019050620017a9565b5050509392505050565b6000620017fb620017f584620021ff565b620021a7565b9050808382526020820190508285602086028201111562001821576200182062002534565b5b60005b858110156200187657815167ffffffffffffffff8111156200184b576200184a6200252f565b5b8086016200185a8982620019f4565b8552602085019450602084019350505060018101905062001824565b5050509392505050565b60006200189762001891846200222e565b620021a7565b905082815260208101848484011115620018b657620018b562002539565b5b620018c3848285620023d9565b509392505050565b6000620018e2620018dc846200222e565b620021a7565b90508281526020810184848401111562001901576200190062002539565b5b6200190e848285620023e8565b509392505050565b600081359050620019278162002623565b92915050565b6000815190506200193e8162002623565b92915050565b600082601f8301126200195c576200195b6200252f565b5b81516200196e84826020860162001769565b91505092915050565b600082601f8301126200198f576200198e6200252f565b5b8151620019a1848260208601620017e4565b91505092915050565b600081359050620019bb816200263d565b92915050565b600082601f830112620019d957620019d86200252f565b5b8135620019eb84826020860162001880565b91505092915050565b600082601f83011262001a0c5762001a0b6200252f565b5b815162001a1e848260208601620018cb565b91505092915050565b60006020828403121562001a405762001a3f62002543565b5b600062001a508482850162001916565b91505092915050565b60006020828403121562001a725762001a7162002543565b5b600062001a82848285016200192d565b91505092915050565b6000806040838503121562001aa55762001aa462002543565b5b600062001ab58582860162001916565b925050602062001ac885828601620019aa565b9150509250929050565b60006020828403121562001aeb5762001aea62002543565b5b600082015167ffffffffffffffff81111562001b0c5762001b0b6200253e565b5b62001b1a8482850162001944565b91505092915050565b60006020828403121562001b3c5762001b3b62002543565b5b600082015167ffffffffffffffff81111562001b5d5762001b5c6200253e565b5b62001b6b8482850162001977565b91505092915050565b60006020828403121562001b8d5762001b8c62002543565b5b600062001b9d84828501620019aa565b91505092915050565b60008060006060848603121562001bc25762001bc162002543565b5b600062001bd286828701620019aa565b935050602062001be58682870162001916565b925050604084013567ffffffffffffffff81111562001c095762001c086200253e565b5b62001c1786828701620019c1565b9150509250925092565b6000806040838503121562001c3b5762001c3a62002543565b5b600062001c4b85828601620019aa565b925050602083013567ffffffffffffffff81111562001c6f5762001c6e6200253e565b5b62001c7d85828601620019c1565b9150509250929050565b60006020828403121562001ca05762001c9f62002543565b5b600082013567ffffffffffffffff81111562001cc15762001cc06200253e565b5b62001ccf84828501620019c1565b91505092915050565b600062001ce6838362001d22565b60208301905092915050565b600062001d00838362001eaa565b60208301905092915050565b600062001d1a838362001edd565b905092915050565b62001d2d816200232b565b82525050565b62001d3e816200232b565b82525050565b600062001d518262002294565b62001d5d8185620022e7565b935062001d6a8362002264565b8060005b8381101562001da157815162001d85888262001cd8565b975062001d9283620022c0565b92505060018101905062001d6e565b5085935050505092915050565b600062001dbb826200229f565b62001dc78185620022e7565b935062001dd48362002274565b8060005b8381101562001e0b57815162001def888262001cf2565b975062001dfc83620022cd565b92505060018101905062001dd8565b5085935050505092915050565b600062001e2582620022aa565b62001e318185620022f8565b93508360208202850162001e458562002284565b8060005b8581101562001e87578484038952815162001e65858262001d0c565b945062001e7283620022da565b925060208a0199505060018101905062001e49565b50829750879550505050505092915050565b62001ea4816200233f565b82525050565b62001eb58162002389565b82525050565b62001ec68162002389565b82525050565b62001ed781620023b1565b82525050565b600062001eea82620022b5565b62001ef6818562002309565b935062001f08818560208601620023e8565b62001f138162002548565b840191505092915050565b600062001f2b82620022b5565b62001f3781856200231a565b935062001f49818560208601620023e8565b62001f548162002548565b840191505092915050565b600062001f6e6019836200231a565b915062001f7b8262002559565b602082019050919050565b600062001f95601b836200231a565b915062001fa28262002582565b602082019050919050565b600062001fbc6021836200231a565b915062001fc982620025ab565b604082019050919050565b600062001fe3600e836200231a565b915062001ff082620025fa565b602082019050919050565b600060208201905062002012600083018462001d33565b92915050565b60006040820190506200202f600083018562001d33565b6200203e602083018462001ebb565b9392505050565b60006040820190506200205c600083018562001d33565b818103602083015262002070818462001f1e565b90509392505050565b6000602082019050818103600083015262002095818462001d44565b905092915050565b60006020820190508181036000830152620020b9818462001dae565b905092915050565b60006020820190508181036000830152620020dd818462001e18565b905092915050565b6000602082019050620020fc600083018462001e99565b92915050565b600060208201905062002119600083018462001ecc565b92915050565b600060208201905081810360008301526200213a8162001f5f565b9050919050565b600060208201905081810360008301526200215c8162001f86565b9050919050565b600060208201905081810360008301526200217e8162001fad565b9050919050565b60006020820190508181036000830152620021a08162001fd4565b9050919050565b6000620021b3620021c6565b9050620021c182826200241e565b919050565b6000604051905090565b600067ffffffffffffffff821115620021ee57620021ed62002500565b5b602082029050602081019050919050565b600067ffffffffffffffff8211156200221d576200221c62002500565b5b602082029050602081019050919050565b600067ffffffffffffffff8211156200224c576200224b62002500565b5b620022578262002548565b9050602081019050919050565b6000819050602082019050919050565b6000819050602082019050919050565b6000819050602082019050919050565b600081519050919050565b600081519050919050565b600081519050919050565b600081519050919050565b6000602082019050919050565b6000602082019050919050565b6000602082019050919050565b600082825260208201905092915050565b600082825260208201905092915050565b600082825260208201905092915050565b600082825260208201905092915050565b600062002338826200235f565b9050919050565b60008115159050919050565b600062002358826200232b565b9050919050565b600073ffffffffffffffffffffffffffffffffffffffff82169050919050565b6000819050919050565b600062002396826200239d565b9050919050565b6000620023aa826200235f565b9050919050565b6000620023be82620023c5565b9050919050565b6000620023d2826200235f565b9050919050565b82818337600083830152505050565b60005b8381101562002408578082015181840152602081019050620023eb565b8381111562002418576000848401525b50505050565b620024298262002548565b810181811067ffffffffffffffff821117156200244b576200244a62002500565b5b80604052505050565b600062002461826200237f565b91507fffffffffffffffffffffffffffffffffffffffffffffffffffffffffffffffff821415620024975762002496620024a2565b5b600182019050919050565b7f4e487b7100000000000000000000000000000000000000000000000000000000600052601160045260246000fd5b7f4e487b7100000000000000000000000000000000000000000000000000000000600052603260045260246000fd5b7f4e487b7100000000000000000000000000000000000000000000000000000000600052604160045260246000fd5b600080fd5b600080fd5b600080fd5b600080fd5b600080fd5b6000601f19601f8301169050919050565b7f796f7520617265206e6f742070726f6a656374206f776e657200000000000000600082015250565b7f796f75206861766520616c726561647920726567697374657265640000000000600082015250565b7f796f75206e65656420746f20706179206d6f7265207468616e2031206574686560008201527f7200000000000000000000000000000000000000000000000000000000000000602082015250565b7f506c65617365207369676e207570000000000000000000000000000000000000600082015250565b6200262e816200232b565b81146200263a57600080fd5b50565b62002648816200234b565b81146200265457600080fd5b5056fe60806040526040516200263738038062002637833981810160405281019062000029919062000239565b816000806101000a81548173ffffffffffffffffffffffffffffffffffffffff021916908373ffffffffffffffffffffffffffffffffffffffff160217905550806001908051906020019062000081929190620000f4565b50426002819055506006829080600181540180825580915050600190039060005260206000200160009091909190916101000a81548173ffffffffffffffffffffffffffffffffffffffff021916908373ffffffffffffffffffffffffffffffffffffffff160217905550505062000471565b828054620001029062000368565b90600052602060002090601f01602090048101928262000126576000855562000172565b82601f106200014157805160ff191683800117855562000172565b8280016001018555821562000172579182015b828111156200017157825182559160200191906001019062000154565b5b50905062000181919062000185565b5090565b5b80821115620001a057600081600090555060010162000186565b5090565b6000620001bb620001b584620002c8565b6200029f565b905082815260208101848484011115620001da57620001d962000437565b5b620001e784828562000332565b509392505050565b600081519050620002008162000457565b92915050565b600082601f8301126200021e576200021d62000432565b5b815162000230848260208601620001a4565b91505092915050565b6000806040838503121562000253576200025262000441565b5b60006200026385828601620001ef565b925050602083015167ffffffffffffffff8111156200028757620002866200043c565b5b620002958582860162000206565b9150509250929050565b6000620002ab620002be565b9050620002b982826200039e565b919050565b6000604051905090565b600067ffffffffffffffff821115620002e657620002e562000403565b5b620002f18262000446565b9050602081019050919050565b60006200030b8262000312565b9050919050565b600073ffffffffffffffffffffffffffffffffffffffff82169050919050565b60005b838110156200035257808201518184015260208101905062000335565b8381111562000362576000848401525b50505050565b600060028204905060018216806200038157607f821691505b60208210811415620003985762000397620003d4565b5b50919050565b620003a98262000446565b810181811067ffffffffffffffff82111715620003cb57620003ca62000403565b5b80604052505050565b7f4e487b7100000000000000000000000000000000000000000000000000000000600052602260045260246000fd5b7f4e487b7100000000000000000000000000000000000000000000000000000000600052604160045260246000fd5b600080fd5b600080fd5b600080fd5b600080fd5b6000601f19601f8301169050919050565b6200046281620002fe565b81146200046e57600080fd5b50565b6121b680620004816000396000f3fe608060405234801561001057600080fd5b50600436106100a95760003560e01c80635c3e2e41116100715780635c3e2e41146101525780635e4eff991461017057806387813286146101a0578063af8d148f146101be578063ca6d56dc146101da578063eab3780e146101f6576100a9565b806307e1c7f7146100ae57806317c0cb1c146100de578063274edc3a146100fc5780634a0dd083146101185780634ce24b4814610136575b600080fd5b6100c860048036038101906100c3919061148c565b610212565b6040516100d591906119dc565b60405180910390f35b6100e661032a565b6040516100f391906119dc565b60405180910390f35b61011660048036038101906101119190611542565b610403565b005b610120610770565b60405161012d91906119ba565b60405180910390f35b610150600480360381019061014b919061148c565b6107fe565b005b61015a610984565b60405161016791906119ba565b60405180910390f35b61018a60048036038101906101859190611582565b610a12565b6040516101979190611afe565b60405180910390f35b6101a8610ac9565b6040516101b591906119dc565b60405180910390f35b6101d860048036038101906101d391906114e6565b610ba2565b005b6101f460048036038101906101ef919061148c565b610d50565b005b610210600480360381019061020b91906114e6565b610f09565b005b6060600360008373ffffffffffffffffffffffffffffffffffffffff1673ffffffffffffffffffffffffffffffffffffffff168152602001908152602001600020805480602002602001604051908101604052809291908181526020016000905b8282101561031f57838290600052602060002001805461029290611dee565b80601f01602080910402602001604051908101604052809291908181526020018280546102be90611dee565b801561030b5780601f106102e05761010080835404028352916020019161030b565b820191906000526020600020905b8154815290600101906020018083116102ee57829003601f168201915b505050505081526020019060010190610273565b505050509050919050565b60606004805480602002602001604051908101604052809291908181526020016000905b828210156103fa57838290600052602060002001805461036d90611dee565b80601f016020809104026020016040519081016040528092919081815260200182805461039990611dee565b80156103e65780601f106103bb576101008083540402835291602001916103e6565b820191906000526020600020905b8154815290600101906020018083116103c957829003601f168201915b50505050508152602001906001019061034e565b50505050905090565b6104898273ffffffffffffffffffffffffffffffffffffffff1663a74c2bb66040518163ffffffff1660e01b815260040160206040518083038186803b15801561044c57600080fd5b505afa158015610460573d6000803e3d6000fd5b505050506040513d601f19601f8201168201806040525081019061048491906114b9565b61107c565b506105108173ffffffffffffffffffffffffffffffffffffffff1663a74c2bb66040518163ffffffff1660e01b815260040160206040518083038186803b1580156104d357600080fd5b505afa1580156104e7573d6000803e3d6000fd5b505050506040513d601f19601f8201168201806040525081019061050b91906114b9565b61107c565b506009829080600181540180825580915050600190039060005260206000200160009091909190916101000a81548173ffffffffffffffffffffffffffffffffffffffff021916908373ffffffffffffffffffffffffffffffffffffffff1602179055506009819080600181540180825580915050600190039060005260206000200160009091909190916101000a81548173ffffffffffffffffffffffffffffffffffffffff021916908373ffffffffffffffffffffffffffffffffffffffff16021790555060005b6008805490508110156106a55760096040516020016105f99190611975565b604051602081830303815290604052805190602001206008828154811061062357610622611f41565b5b9060005260206000200160405160200161063d9190611975565b604051602081830303815290604052805190602001201415610694576040517f08c379a000000000000000000000000000000000000000000000000000000000815260040161068b906119fe565b60405180910390fd5b8061069e90611e6b565b90506105da565b5060086009908060018154018082558091505060019003906000526020600020016000909190919091509080546106dd92919061121b565b5060098054806106f0576106ef611f12565b5b6001900381819060005260206000200160006101000a81549073ffffffffffffffffffffffffffffffffffffffff02191690559055600980548061073757610736611f12565b5b6001900381819060005260206000200160006101000a81549073ffffffffffffffffffffffffffffffffffffffff021916905590555050565b606060078054806020026020016040519081016040528092919081815260200182805480156107f457602002820191906000526020600020905b8160009054906101000a900473ffffffffffffffffffffffffffffffffffffffff1673ffffffffffffffffffffffffffffffffffffffff16815260200190600101908083116107aa575b5050505050905090565b600061080982611163565b90506000811461084e576040517f08c379a000000000000000000000000000000000000000000000000000000000815260040161084590611a1e565b60405180910390fd5b60005b60068054905081101561091c578273ffffffffffffffffffffffffffffffffffffffff166006828154811061088957610888611f41565b5b9060005260206000200160009054906101000a900473ffffffffffffffffffffffffffffffffffffffff1673ffffffffffffffffffffffffffffffffffffffff16141561090b576040517f08c379a000000000000000000000000000000000000000000000000000000000815260040161090290611a7e565b60405180910390fd5b8061091590611e6b565b9050610851565b506007829080600181540180825580915050600190039060005260206000200160009091909190916101000a81548173ffffffffffffffffffffffffffffffffffffffff021916908373ffffffffffffffffffffffffffffffffffffffff1602179055505050565b60606006805480602002602001604051908101604052809291908181526020018280548015610a0857602002820191906000526020600020905b8160009054906101000a900473ffffffffffffffffffffffffffffffffffffffff1673ffffffffffffffffffffffffffffffffffffffff16815260200190600101908083116109be575b5050505050905090565b600080600090505b600580549050811015610abe5782604051602001610a38919061198c565b6040516020818303038152906040528051906020012060058281548110610a6257610a61611f41565b5b90600052602060002001604051602001610a7c91906119a3565b604051602081830303815290604052805190602001201415610aad57600181610aa59190611c66565b915050610ac4565b80610ab790611e6b565b9050610a1a565b50600090505b919050565b60606005805480602002602001604051908101604052809291908181526020016000905b82821015610b99578382906000526020600020018054610b0c90611dee565b80601f0160208091040260200160405190810160405280929190818152602001828054610b3890611dee565b8015610b855780601f10610b5a57610100808354040283529160200191610b85565b820191906000526020600020905b815481529060010190602001808311610b6857829003601f168201915b505050505081526020019060010190610aed565b50505050905090565b6000610bad82610a12565b90506000811415610bf3576040517f08c379a0000000000000000000000000000000000000000000000000000000008152600401610bea90611abe565b60405180910390fd5b8080610bfe90611dc4565b915050600360008473ffffffffffffffffffffffffffffffffffffffff1673ffffffffffffffffffffffffffffffffffffffff16815260200190815260200160002082908060018154018082558091505060019003906000526020600020016000909190919091509080519060200190610c7992919061126d565b50600482908060018154018082558091505060019003906000526020600020016000909190919091509080519060200190610cb592919061126d565b5060056001600580549050610cca9190611cbc565b81548110610cdb57610cda611f41565b5b9060005260206000200160058281548110610cf957610cf8611f41565b5b90600052602060002001908054610d0f90611dee565b610d1a9291906112f3565b506005805480610d2d57610d2c611f12565b5b600190038181906000526020600020016000610d499190611380565b9055505050565b6000610d5b82611163565b90506000811415610da1576040517f08c379a0000000000000000000000000000000000000000000000000000000008152600401610d9890611ade565b60405180910390fd5b8080610dac90611dc4565b9150506006829080600181540180825580915050600190039060005260206000200160009091909190916101000a81548173ffffffffffffffffffffffffffffffffffffffff021916908373ffffffffffffffffffffffffffffffffffffffff16021790555060076001600780549050610e269190611cbc565b81548110610e3757610e36611f41565b5b9060005260206000200160009054906101000a900473ffffffffffffffffffffffffffffffffffffffff1660078281548110610e7657610e75611f41565b5b9060005260206000200160006101000a81548173ffffffffffffffffffffffffffffffffffffffff021916908373ffffffffffffffffffffffffffffffffffffffff1602179055506007805480610ed057610ecf611f12565b5b6001900381819060005260206000200160006101000a81549073ffffffffffffffffffffffffffffffffffffffff021916905590555050565b6000610f148361107c565b905080611077576000610f2683610a12565b905060008114610f6b576040517f08c379a0000000000000000000000000000000000000000000000000000000008152600401610f6290611a5e565b60405180910390fd5b60005b6004805490508110156110385783604051602001610f8c919061198c565b6040516020818303038152906040528051906020012060048281548110610fb657610fb5611f41565b5b90600052602060002001604051602001610fd091906119a3565b604051602081830303815290604052805190602001201415611027576040517f08c379a000000000000000000000000000000000000000000000000000000000815260040161101e90611a3e565b60405180910390fd5b8061103190611e6b565b9050610f6e565b5060058390806001815401808255809150506001900390600052602060002001600090919091909150908051906020019061107492919061126d565b50505b505050565b60006001905060005b60068054905081101561111c578273ffffffffffffffffffffffffffffffffffffffff16600682815481106110bd576110bc611f41565b5b9060005260206000200160009054906101000a900473ffffffffffffffffffffffffffffffffffffffff1673ffffffffffffffffffffffffffffffffffffffff16141561110957600091505b808061111490611e6b565b915050611085565b50801561115e576040517f08c379a000000000000000000000000000000000000000000000000000000000815260040161115590611a9e565b60405180910390fd5b919050565b600080600090505b600780549050811015611210578273ffffffffffffffffffffffffffffffffffffffff16600782815481106111a3576111a2611f41565b5b9060005260206000200160009054906101000a900473ffffffffffffffffffffffffffffffffffffffff1673ffffffffffffffffffffffffffffffffffffffff1614156111ff576001816111f79190611c66565b915050611216565b8061120990611e6b565b905061116b565b50600090505b919050565b82805482825590600052602060002090810192821561125c5760005260206000209182015b8281111561125b578254825591600101919060010190611240565b5b50905061126991906113c0565b5090565b82805461127990611dee565b90600052602060002090601f01602090048101928261129b57600085556112e2565b82601f106112b457805160ff19168380011785556112e2565b828001600101855582156112e2579182015b828111156112e15782518255916020019190600101906112c6565b5b5090506112ef91906113c0565b5090565b8280546112ff90611dee565b90600052602060002090601f016020900481019282611321576000855561136f565b82601f10611332578054855561136f565b8280016001018555821561136f57600052602060002091601f016020900482015b8281111561136e578254825591600101919060010190611353565b5b50905061137c91906113c0565b5090565b50805461138c90611dee565b6000825580601f1061139e57506113bd565b601f0160209004906000526020600020908101906113bc91906113c0565b5b50565b5b808211156113d95760008160009055506001016113c1565b5090565b60006113f06113eb84611b3e565b611b19565b90508281526020810184848401111561140c5761140b611fb7565b5b611417848285611d82565b509392505050565b60008135905061142e81612152565b92915050565b60008151905061144381612152565b92915050565b60008135905061145881612169565b92915050565b600082601f83011261147357611472611fb2565b5b81356114838482602086016113dd565b91505092915050565b6000602082840312156114a2576114a1611fc1565b5b60006114b08482850161141f565b91505092915050565b6000602082840312156114cf576114ce611fc1565b5b60006114dd84828501611434565b91505092915050565b600080604083850312156114fd576114fc611fc1565b5b600061150b8582860161141f565b925050602083013567ffffffffffffffff81111561152c5761152b611fbc565b5b6115388582860161145e565b9150509250929050565b6000806040838503121561155957611558611fc1565b5b600061156785828601611449565b925050602061157885828601611449565b9150509250929050565b60006020828403121561159857611597611fc1565b5b600082013567ffffffffffffffff8111156115b6576115b5611fbc565b5b6115c28482850161145e565b91505092915050565b60006115d7838361160f565b60208301905092915050565b60006115ef8383611756565b60208301905092915050565b60006116078383611765565b905092915050565b61161881611d10565b82525050565b600061162982611bb9565b6116338185611c0c565b935061163e83611b6f565b8060005b8381101561166f57815161165688826115cb565b975061166183611be5565b925050600181019050611642565b5085935050505092915050565b600061168782611bc4565b6116918185611c1d565b935061169c83611b7f565b8060005b838110156116d4576116b182611f9f565b6116bb88826115e3565b97506116c683611bf2565b9250506001810190506116a0565b5085935050505092915050565b60006116ec82611bcf565b6116f68185611c28565b93508360208202850161170885611b94565b8060005b85811015611744578484038952815161172585826115fb565b945061173083611bff565b925060208a0199505060018101905061170c565b50829750879550505050505092915050565b61175f81611d5e565b82525050565b600061177082611bda565b61177a8185611c39565b935061178a818560208601611d91565b61179381611fc6565b840191505092915050565b60006117a982611bda565b6117b38185611c5b565b93506117c3818560208601611d91565b80840191505092915050565b600081546117dc81611dee565b6117e68186611c5b565b94506001821660008114611801576001811461181257611845565b60ff19831686528186019350611845565b61181b85611ba4565b60005b8381101561183d5781548189015260018201915060208101905061181e565b838801955050505b50505092915050565b600061185b600e83611c4a565b915061186682611fe4565b602082019050919050565b600061187e601d83611c4a565b91506118898261200d565b602082019050919050565b60006118a1601a83611c4a565b91506118ac82612036565b602082019050919050565b60006118c4602283611c4a565b91506118cf8261205f565b604082019050919050565b60006118e7601683611c4a565b91506118f2826120ae565b602082019050919050565b600061190a601283611c4a565b9150611915826120d7565b602082019050919050565b600061192d601e83611c4a565b915061193882612100565b602082019050919050565b6000611950601983611c4a565b915061195b82612129565b602082019050919050565b61196f81611d54565b82525050565b6000611981828461167c565b915081905092915050565b6000611998828461179e565b915081905092915050565b60006119af82846117cf565b915081905092915050565b600060208201905081810360008301526119d4818461161e565b905092915050565b600060208201905081810360008301526119f681846116e1565b905092915050565b60006020820190508181036000830152611a178161184e565b9050919050565b60006020820190508181036000830152611a3781611871565b9050919050565b60006020820190508181036000830152611a5781611894565b9050919050565b60006020820190508181036000830152611a77816118b7565b9050919050565b60006020820190508181036000830152611a97816118da565b9050919050565b60006020820190508181036000830152611ab7816118fd565b9050919050565b60006020820190508181036000830152611ad781611920565b9050919050565b60006020820190508181036000830152611af781611943565b9050919050565b6000602082019050611b136000830184611966565b92915050565b6000611b23611b34565b9050611b2f8282611e3a565b919050565b6000604051905090565b600067ffffffffffffffff821115611b5957611b58611f70565b5b611b6282611fc6565b9050602081019050919050565b6000819050602082019050919050565b60008190508160005260206000209050919050565b6000819050602082019050919050565b60008190508160005260206000209050919050565b600081519050919050565b600081549050919050565b600081519050919050565b600081519050919050565b6000602082019050919050565b6000600182019050919050565b6000602082019050919050565b600082825260208201905092915050565b600081905092915050565b600082825260208201905092915050565b600082825260208201905092915050565b600082825260208201905092915050565b600081905092915050565b6000611c7182611d54565b9150611c7c83611d54565b9250827fffffffffffffffffffffffffffffffffffffffffffffffffffffffffffffffff03821115611cb157611cb0611eb4565b5b828201905092915050565b6000611cc782611d54565b9150611cd283611d54565b925082821015611ce557611ce4611eb4565b5b828203905092915050565b600073ffffffffffffffffffffffffffffffffffffffff82169050919050565b6000611d1b82611d34565b9050919050565b6000611d2d82611d10565b9050919050565b600073ffffffffffffffffffffffffffffffffffffffff82169050919050565b6000819050919050565b6000611d6982611d70565b9050919050565b6000611d7b82611d34565b9050919050565b82818337600083830152505050565b60005b83811015611daf578082015181840152602081019050611d94565b83811115611dbe576000848401525b50505050565b6000611dcf82611d54565b91506000821415611de357611de2611eb4565b5b600182039050919050565b60006002820490506001821680611e0657607f821691505b60208210811415611e1a57611e19611ee3565b5b50919050565b6000611e33611e2e83611fd7565b611cf0565b9050919050565b611e4382611fc6565b810181811067ffffffffffffffff82111715611e6257611e61611f70565b5b80604052505050565b6000611e7682611d54565b91507fffffffffffffffffffffffffffffffffffffffffffffffffffffffffffffffff821415611ea957611ea8611eb4565b5b600182019050919050565b7f4e487b7100000000000000000000000000000000000000000000000000000000600052601160045260246000fd5b7f4e487b7100000000000000000000000000000000000000000000000000000000600052602260045260246000fd5b7f4e487b7100000000000000000000000000000000000000000000000000000000600052603160045260246000fd5b7f4e487b7100000000000000000000000000000000000000000000000000000000600052603260045260246000fd5b7f4e487b7100000000000000000000000000000000000000000000000000000000600052604160045260246000fd5b6000611fab8254611e20565b9050919050565b600080fd5b600080fd5b600080fd5b600080fd5b6000601f19601f8301169050919050565b60008160001c9050919050565b7f616c72656164792073636f726564000000000000000000000000000000000000600082015250565b7f7573657220616c726561647920696e2077616974696e67206172726179000000600082015250565b7f69706673206861736820616c726561647920696e206172726179000000000000600082015250565b7f69706673206861736820616c726561647920696e2077616974696e672061727260008201527f6179000000000000000000000000000000000000000000000000000000000000602082015250565b7f796f75206172652070726f6a656374206d656d62657200000000000000000000600082015250565b7f6e6f742070726f6a656374206d656d6265720000000000000000000000000000600082015250565b7f697066732068617368206e6f7420696e2077616974696e672061727261790000600082015250565b7f75736572206e6f7420696e2077616974696e6720617272617900000000000000600082015250565b61215b81611d10565b811461216657600080fd5b50565b61217281611d22565b811461217d57600080fd5b5056fea2646970667358221220947c2cab9bce1986b42c56d3f6e33425441027aa516e38fa020cd880cc6f330d64736f6c6343000806003360806040523480156200001157600080fd5b5060405162000ab038038062000ab08339818101604052810190620000379190620001ed565b816000806101000a81548173ffffffffffffffffffffffffffffffffffffffff021916908373ffffffffffffffffffffffffffffffffffffffff16021790555080600190805190602001906200008f929190620000a8565b5060016002819055506001600381905550505062000425565b828054620000b6906200031c565b90600052602060002090601f016020900481019282620000da576000855562000126565b82601f10620000f557805160ff191683800117855562000126565b8280016001018555821562000126579182015b828111156200012557825182559160200191906001019062000108565b5b50905062000135919062000139565b5090565b5b80821115620001545760008160009055506001016200013a565b5090565b60006200016f62000169846200027c565b62000253565b9050828152602081018484840111156200018e576200018d620003eb565b5b6200019b848285620002e6565b509392505050565b600081519050620001b4816200040b565b92915050565b600082601f830112620001d257620001d1620003e6565b5b8151620001e484826020860162000158565b91505092915050565b60008060408385031215620002075762000206620003f5565b5b60006200021785828601620001a3565b925050602083015167ffffffffffffffff8111156200023b576200023a620003f0565b5b6200024985828601620001ba565b9150509250929050565b60006200025f62000272565b90506200026d828262000352565b919050565b6000604051905090565b600067ffffffffffffffff8211156200029a5762000299620003b7565b5b620002a582620003fa565b9050602081019050919050565b6000620002bf82620002c6565b9050919050565b600073ffffffffffffffffffffffffffffffffffffffff82169050919050565b60005b8381101562000306578082015181840152602081019050620002e9565b8381111562000316576000848401525b50505050565b600060028204905060018216806200033557607f821691505b602082108114156200034c576200034b62000388565b5b50919050565b6200035d82620003fa565b810181811067ffffffffffffffff821117156200037f576200037e620003b7565b5b80604052505050565b7f4e487b7100000000000000000000000000000000000000000000000000000000600052602260045260246000fd5b7f4e487b7100000000000000000000000000000000000000000000000000000000600052604160045260246000fd5b600080fd5b600080fd5b600080fd5b600080fd5b6000601f19601f8301169050919050565b6200041681620002b2565b81146200042257600080fd5b50565b61067b80620004356000396000f3fe608060405234801561001057600080fd5b506004361061007c5760003560e01c80632db9a5121161005b5780632db9a512146100d9578063a74c2bb6146100f7578063be4a92ab14610115578063cf91b3b5146101315761007c565b8062affc2f14610081578063085710111461009d57806317d7de7c146100bb575b600080fd5b61009b60048036038101906100969190610364565b61014d565b005b6100a5610242565b6040516100b291906104a8565b60405180910390f35b6100c361024c565b6040516100d09190610466565b60405180910390f35b6100e16102de565b6040516100ee91906104a8565b60405180910390f35b6100ff6102e8565b60405161010c919061044b565b60405180910390f35b61012f600480360381019061012a91906103a4565b610311565b005b61014b600480360381019061014691906103a4565b61031b565b005b8173ffffffffffffffffffffffffffffffffffffffff1660008054906101000a900473ffffffffffffffffffffffffffffffffffffffff1673ffffffffffffffffffffffffffffffffffffffff16146101db576040517f08c379a00000000000000000000000000000000000000000000000000000000081526004016101d290610488565b60405180910390fd5b6004819080600181540180825580915050600190039060005260206000200160009091909190916101000a81548173ffffffffffffffffffffffffffffffffffffffff021916908373ffffffffffffffffffffffffffffffffffffffff1602179055505050565b6000600354905090565b60606001805461025b90610560565b80601f016020809104026020016040519081016040528092919081815260200182805461028790610560565b80156102d45780601f106102a9576101008083540402835291602001916102d4565b820191906000526020600020905b8154815290600101906020018083116102b757829003601f168201915b5050505050905090565b6000600254905090565b60008060009054906101000a900473ffffffffffffffffffffffffffffffffffffffff16905090565b8060038190555050565b8060028190555050565b60008135905061033481610600565b92915050565b60008135905061034981610617565b92915050565b60008135905061035e8161062e565b92915050565b6000806040838503121561037b5761037a6105c1565b5b600061038985828601610325565b925050602061039a8582860161033a565b9150509250929050565b6000602082840312156103ba576103b96105c1565b5b60006103c88482850161034f565b91505092915050565b6103da816104df565b82525050565b60006103eb826104c3565b6103f581856104ce565b935061040581856020860161052d565b61040e816105c6565b840191505092915050565b60006104266010836104ce565b9150610431826105d7565b602082019050919050565b61044581610523565b82525050565b600060208201905061046060008301846103d1565b92915050565b6000602082019050818103600083015261048081846103e0565b905092915050565b600060208201905081810360008301526104a181610419565b9050919050565b60006020820190506104bd600083018461043c565b92915050565b600081519050919050565b600082825260208201905092915050565b60006104ea82610503565b9050919050565b60006104fc826104df565b9050919050565b600073ffffffffffffffffffffffffffffffffffffffff82169050919050565b6000819050919050565b60005b8381101561054b578082015181840152602081019050610530565b8381111561055a576000848401525b50505050565b6000600282049050600182168061057857607f821691505b6020821081141561058c5761058b610592565b5b50919050565b7f4e487b7100000000000000000000000000000000000000000000000000000000600052602260045260246000fd5b600080fd5b6000601f19601f8301169050919050565b7f796f7520617265206e6f74207573657200000000000000000000000000000000600082015250565b610609816104df565b811461061457600080fd5b50565b610620816104f1565b811461062b57600080fd5b50565b61063781610523565b811461064257600080fd5b5056fea26469706673582212209ef2888728a4a9008b3756551f46426705d8948a3c8b4e6fe0c2a8179ac2462164736f6c63430008060033a2646970667358221220ab742265b7da7b571d9a5707e4d8504dbe206be4e8155486f13f1247f11e014964736f6c63430008060033",
			"opcodes": "PUSH1 0x80 PUSH1 0x40 MSTORE CALLVALUE DUP1 ISZERO PUSH2 0x10 JUMPI PUSH1 0x0 DUP1 REVERT JUMPDEST POP PUSH2 0x5774 DUP1 PUSH2 0x20 PUSH1 0x0 CODECOPY PUSH1 0x0 RETURN INVALID PUSH1 0x80 PUSH1 0x40 MSTORE PUSH1 0x4 CALLDATASIZE LT PUSH3 0xB6 JUMPI PUSH1 0x0 CALLDATALOAD PUSH1 0xE0 SHR DUP1 PUSH4 0x9D58B15D GT PUSH3 0x6D JUMPI DUP1 PUSH4 0x9D58B15D EQ PUSH3 0x227 JUMPI DUP1 PUSH4 0xC07BACF3 EQ PUSH3 0x255 JUMPI DUP1 PUSH4 0xEAB3780E EQ PUSH3 0x299 JUMPI DUP1 PUSH4 0xF22FE807 EQ PUSH3 0x2C7 JUMPI DUP1 PUSH4 0xF2C298BE EQ PUSH3 0x2E7 JUMPI DUP1 PUSH4 0xF6582333 EQ PUSH3 0x315 JUMPI PUSH3 0xB6 JUMP JUMPDEST DUP1 PUSH4 0x5F9B4DC EQ PUSH3 0xBB JUMPI DUP1 PUSH4 0x16E5C415 EQ PUSH3 0xFF JUMPI DUP1 PUSH4 0x2B97CE73 EQ PUSH3 0x143 JUMPI DUP1 PUSH4 0x4CE24B48 EQ PUSH3 0x171 JUMPI DUP1 PUSH4 0x7AB9A721 EQ PUSH3 0x19F JUMPI DUP1 PUSH4 0x8089A138 EQ PUSH3 0x1E3 JUMPI JUMPDEST PUSH1 0x0 DUP1 REVERT JUMPDEST CALLVALUE DUP1 ISZERO PUSH3 0xC8 JUMPI PUSH1 0x0 DUP1 REVERT JUMPDEST POP PUSH3 0xE7 PUSH1 0x4 DUP1 CALLDATASIZE SUB DUP2 ADD SWAP1 PUSH3 0xE1 SWAP2 SWAP1 PUSH3 0x1A27 JUMP JUMPDEST PUSH3 0x359 JUMP JUMPDEST PUSH1 0x40 MLOAD PUSH3 0xF6 SWAP2 SWAP1 PUSH3 0x2102 JUMP JUMPDEST PUSH1 0x40 MLOAD DUP1 SWAP2 SUB SWAP1 RETURN JUMPDEST CALLVALUE DUP1 ISZERO PUSH3 0x10C JUMPI PUSH1 0x0 DUP1 REVERT JUMPDEST POP PUSH3 0x12B PUSH1 0x4 DUP1 CALLDATASIZE SUB DUP2 ADD SWAP1 PUSH3 0x125 SWAP2 SWAP1 PUSH3 0x1B74 JUMP JUMPDEST PUSH3 0x3C1 JUMP JUMPDEST PUSH1 0x40 MLOAD PUSH3 0x13A SWAP2 SWAP1 PUSH3 0x2079 JUMP JUMPDEST PUSH1 0x40 MLOAD DUP1 SWAP2 SUB SWAP1 RETURN JUMPDEST CALLVALUE DUP1 ISZERO PUSH3 0x150 JUMPI PUSH1 0x0 DUP1 REVERT JUMPDEST POP PUSH3 0x16F PUSH1 0x4 DUP1 CALLDATASIZE SUB DUP2 ADD SWAP1 PUSH3 0x169 SWAP2 SWAP1 PUSH3 0x1BA6 JUMP JUMPDEST PUSH3 0x521 JUMP JUMPDEST STOP JUMPDEST CALLVALUE DUP1 ISZERO PUSH3 0x17E JUMPI PUSH1 0x0 DUP1 REVERT JUMPDEST POP PUSH3 0x19D PUSH1 0x4 DUP1 CALLDATASIZE SUB DUP2 ADD SWAP1 PUSH3 0x197 SWAP2 SWAP1 PUSH3 0x1B74 JUMP JUMPDEST PUSH3 0x7D6 JUMP JUMPDEST STOP JUMPDEST CALLVALUE DUP1 ISZERO PUSH3 0x1AC JUMPI PUSH1 0x0 DUP1 REVERT JUMPDEST POP PUSH3 0x1CB PUSH1 0x4 DUP1 CALLDATASIZE SUB DUP2 ADD SWAP1 PUSH3 0x1C5 SWAP2 SWAP1 PUSH3 0x1B74 JUMP JUMPDEST PUSH3 0x9B7 JUMP JUMPDEST PUSH1 0x40 MLOAD PUSH3 0x1DA SWAP2 SWAP1 PUSH3 0x20E5 JUMP JUMPDEST PUSH1 0x40 MLOAD DUP1 SWAP2 SUB SWAP1 RETURN JUMPDEST CALLVALUE DUP1 ISZERO PUSH3 0x1F0 JUMPI PUSH1 0x0 DUP1 REVERT JUMPDEST POP PUSH3 0x20F PUSH1 0x4 DUP1 CALLDATASIZE SUB DUP2 ADD SWAP1 PUSH3 0x209 SWAP2 SWAP1 PUSH3 0x1B74 JUMP JUMPDEST PUSH3 0xA61 JUMP JUMPDEST PUSH1 0x40 MLOAD PUSH3 0x21E SWAP2 SWAP1 PUSH3 0x20C1 JUMP JUMPDEST PUSH1 0x40 MLOAD DUP1 SWAP2 SUB SWAP1 RETURN JUMPDEST CALLVALUE DUP1 ISZERO PUSH3 0x234 JUMPI PUSH1 0x0 DUP1 REVERT JUMPDEST POP PUSH3 0x253 PUSH1 0x4 DUP1 CALLDATASIZE SUB DUP2 ADD SWAP1 PUSH3 0x24D SWAP2 SWAP1 PUSH3 0x1A8B JUMP JUMPDEST PUSH3 0xBC1 JUMP JUMPDEST STOP JUMPDEST CALLVALUE DUP1 ISZERO PUSH3 0x262 JUMPI PUSH1 0x0 DUP1 REVERT JUMPDEST POP PUSH3 0x281 PUSH1 0x4 DUP1 CALLDATASIZE SUB DUP2 ADD SWAP1 PUSH3 0x27B SWAP2 SWAP1 PUSH3 0x1A27 JUMP JUMPDEST PUSH3 0xDA4 JUMP JUMPDEST PUSH1 0x40 MLOAD PUSH3 0x290 SWAP2 SWAP1 PUSH3 0x209D JUMP JUMPDEST PUSH1 0x40 MLOAD DUP1 SWAP2 SUB SWAP1 RETURN JUMPDEST CALLVALUE DUP1 ISZERO PUSH3 0x2A6 JUMPI PUSH1 0x0 DUP1 REVERT JUMPDEST POP PUSH3 0x2C5 PUSH1 0x4 DUP1 CALLDATASIZE SUB DUP2 ADD SWAP1 PUSH3 0x2BF SWAP2 SWAP1 PUSH3 0x1C21 JUMP JUMPDEST PUSH3 0xE73 JUMP JUMPDEST STOP JUMPDEST PUSH3 0x2E5 PUSH1 0x4 DUP1 CALLDATASIZE SUB DUP2 ADD SWAP1 PUSH3 0x2DF SWAP2 SWAP1 PUSH3 0x1C87 JUMP JUMPDEST PUSH3 0x1057 JUMP JUMPDEST STOP JUMPDEST CALLVALUE DUP1 ISZERO PUSH3 0x2F4 JUMPI PUSH1 0x0 DUP1 REVERT JUMPDEST POP PUSH3 0x313 PUSH1 0x4 DUP1 CALLDATASIZE SUB DUP2 ADD SWAP1 PUSH3 0x30D SWAP2 SWAP1 PUSH3 0x1C87 JUMP JUMPDEST PUSH3 0x143E JUMP JUMPDEST STOP JUMPDEST CALLVALUE DUP1 ISZERO PUSH3 0x322 JUMPI PUSH1 0x0 DUP1 REVERT JUMPDEST POP PUSH3 0x341 PUSH1 0x4 DUP1 CALLDATASIZE SUB DUP2 ADD SWAP1 PUSH3 0x33B SWAP2 SWAP1 PUSH3 0x1B74 JUMP JUMPDEST PUSH3 0x16BD JUMP JUMPDEST PUSH1 0x40 MLOAD PUSH3 0x350 SWAP2 SWAP1 PUSH3 0x2079 JUMP JUMPDEST PUSH1 0x40 MLOAD DUP1 SWAP2 SUB SWAP1 RETURN JUMPDEST PUSH1 0x0 DUP1 PUSH1 0x0 DUP4 PUSH20 0xFFFFFFFFFFFFFFFFFFFFFFFFFFFFFFFFFFFFFFFF AND PUSH20 0xFFFFFFFFFFFFFFFFFFFFFFFFFFFFFFFFFFFFFFFF AND DUP2 MSTORE PUSH1 0x20 ADD SWAP1 DUP2 MSTORE PUSH1 0x20 ADD PUSH1 0x0 KECCAK256 PUSH1 0x0 SWAP1 SLOAD SWAP1 PUSH2 0x100 EXP SWAP1 DIV PUSH20 0xFFFFFFFFFFFFFFFFFFFFFFFFFFFFFFFFFFFFFFFF AND SWAP1 POP SWAP2 SWAP1 POP JUMP JUMPDEST PUSH1 0x60 CALLER PUSH20 0xFFFFFFFFFFFFFFFFFFFFFFFFFFFFFFFFFFFFFFFF AND PUSH1 0x2 PUSH1 0x0 DUP5 PUSH20 0xFFFFFFFFFFFFFFFFFFFFFFFFFFFFFFFFFFFFFFFF AND PUSH20 0xFFFFFFFFFFFFFFFFFFFFFFFFFFFFFFFFFFFFFFFF AND DUP2 MSTORE PUSH1 0x20 ADD SWAP1 DUP2 MSTORE PUSH1 0x20 ADD PUSH1 0x0 KECCAK256 PUSH1 0x0 SWAP1 SLOAD SWAP1 PUSH2 0x100 EXP SWAP1 DIV PUSH20 0xFFFFFFFFFFFFFFFFFFFFFFFFFFFFFFFFFFFFFFFF AND PUSH20 0xFFFFFFFFFFFFFFFFFFFFFFFFFFFFFFFFFFFFFFFF AND EQ PUSH3 0x493 JUMPI PUSH1 0x40 MLOAD PUSH32 0x8C379A000000000000000000000000000000000000000000000000000000000 DUP2 MSTORE PUSH1 0x4 ADD PUSH3 0x48A SWAP1 PUSH3 0x211F JUMP JUMPDEST PUSH1 0x40 MLOAD DUP1 SWAP2 SUB SWAP1 REVERT JUMPDEST DUP2 PUSH20 0xFFFFFFFFFFFFFFFFFFFFFFFFFFFFFFFFFFFFFFFF AND PUSH4 0x4A0DD083 PUSH1 0x40 MLOAD DUP2 PUSH4 0xFFFFFFFF AND PUSH1 0xE0 SHL DUP2 MSTORE PUSH1 0x4 ADD PUSH1 0x0 PUSH1 0x40 MLOAD DUP1 DUP4 SUB DUP2 DUP7 DUP1 EXTCODESIZE ISZERO DUP1 ISZERO PUSH3 0x4DA JUMPI PUSH1 0x0 DUP1 REVERT JUMPDEST POP GAS STATICCALL ISZERO DUP1 ISZERO PUSH3 0x4EF JUMPI RETURNDATASIZE PUSH1 0x0 DUP1 RETURNDATACOPY RETURNDATASIZE PUSH1 0x0 REVERT JUMPDEST POP POP POP POP PUSH1 0x40 MLOAD RETURNDATASIZE PUSH1 0x0 DUP3 RETURNDATACOPY RETURNDATASIZE PUSH1 0x1F NOT PUSH1 0x1F DUP3 ADD AND DUP3 ADD DUP1 PUSH1 0x40 MSTORE POP DUP2 ADD SWAP1 PUSH3 0x51A SWAP2 SWAP1 PUSH3 0x1AD2 JUMP JUMPDEST SWAP1 POP SWAP2 SWAP1 POP JUMP JUMPDEST PUSH1 0x0 PUSH1 0x1 SWAP1 POP PUSH1 0x0 JUMPDEST PUSH1 0x3 DUP1 SLOAD SWAP1 POP DUP2 LT ISZERO PUSH3 0x64A JUMPI CALLER PUSH20 0xFFFFFFFFFFFFFFFFFFFFFFFFFFFFFFFFFFFFFFFF AND PUSH1 0x3 DUP3 DUP2 SLOAD DUP2 LT PUSH3 0x566 JUMPI PUSH3 0x565 PUSH3 0x24D1 JUMP JUMPDEST JUMPDEST SWAP1 PUSH1 0x0 MSTORE PUSH1 0x20 PUSH1 0x0 KECCAK256 ADD PUSH1 0x0 SWAP1 SLOAD SWAP1 PUSH2 0x100 EXP SWAP1 DIV PUSH20 0xFFFFFFFFFFFFFFFFFFFFFFFFFFFFFFFFFFFFFFFF AND PUSH20 0xFFFFFFFFFFFFFFFFFFFFFFFFFFFFFFFFFFFFFFFF AND PUSH4 0xA74C2BB6 PUSH1 0x40 MLOAD DUP2 PUSH4 0xFFFFFFFF AND PUSH1 0xE0 SHL DUP2 MSTORE PUSH1 0x4 ADD PUSH1 0x20 PUSH1 0x40 MLOAD DUP1 DUP4 SUB DUP2 DUP7 DUP1 EXTCODESIZE ISZERO DUP1 ISZERO PUSH3 0x5D7 JUMPI PUSH1 0x0 DUP1 REVERT JUMPDEST POP GAS STATICCALL ISZERO DUP1 ISZERO PUSH3 0x5EC JUMPI RETURNDATASIZE PUSH1 0x0 DUP1 RETURNDATACOPY RETURNDATASIZE PUSH1 0x0 REVERT JUMPDEST POP POP POP POP PUSH1 0x40 MLOAD RETURNDATASIZE PUSH1 0x1F NOT PUSH1 0x1F DUP3 ADD AND DUP3 ADD DUP1 PUSH1 0x40 MSTORE POP DUP2 ADD SWAP1 PUSH3 0x612 SWAP2 SWAP1 PUSH3 0x1A59 JUMP JUMPDEST PUSH20 0xFFFFFFFFFFFFFFFFFFFFFFFFFFFFFFFFFFFFFFFF AND EQ ISZERO PUSH3 0x634 JUMPI PUSH1 0x0 SWAP2 POP JUMPDEST DUP1 DUP1 PUSH3 0x641 SWAP1 PUSH3 0x2454 JUMP JUMPDEST SWAP2 POP POP PUSH3 0x52A JUMP JUMPDEST POP DUP1 ISZERO PUSH3 0x68F JUMPI PUSH1 0x40 MLOAD PUSH32 0x8C379A000000000000000000000000000000000000000000000000000000000 DUP2 MSTORE PUSH1 0x4 ADD PUSH3 0x686 SWAP1 PUSH3 0x2185 JUMP JUMPDEST PUSH1 0x40 MLOAD DUP1 SWAP2 SUB SWAP1 REVERT JUMPDEST CALLER PUSH20 0xFFFFFFFFFFFFFFFFFFFFFFFFFFFFFFFFFFFFFFFF AND PUSH1 0x2 PUSH1 0x0 DUP7 PUSH20 0xFFFFFFFFFFFFFFFFFFFFFFFFFFFFFFFFFFFFFFFF AND PUSH20 0xFFFFFFFFFFFFFFFFFFFFFFFFFFFFFFFFFFFFFFFF AND DUP2 MSTORE PUSH1 0x20 ADD SWAP1 DUP2 MSTORE PUSH1 0x20 ADD PUSH1 0x0 KECCAK256 PUSH1 0x0 SWAP1 SLOAD SWAP1 PUSH2 0x100 EXP SWAP1 DIV PUSH20 0xFFFFFFFFFFFFFFFFFFFFFFFFFFFFFFFFFFFFFFFF AND PUSH20 0xFFFFFFFFFFFFFFFFFFFFFFFFFFFFFFFFFFFFFFFF AND EQ PUSH3 0x75F JUMPI PUSH1 0x40 MLOAD PUSH32 0x8C379A000000000000000000000000000000000000000000000000000000000 DUP2 MSTORE PUSH1 0x4 ADD PUSH3 0x756 SWAP1 PUSH3 0x211F JUMP JUMPDEST PUSH1 0x40 MLOAD DUP1 SWAP2 SUB SWAP1 REVERT JUMPDEST DUP4 PUSH20 0xFFFFFFFFFFFFFFFFFFFFFFFFFFFFFFFFFFFFFFFF AND PUSH4 0xAF8D148F DUP5 DUP5 PUSH1 0x40 MLOAD DUP4 PUSH4 0xFFFFFFFF AND PUSH1 0xE0 SHL DUP2 MSTORE PUSH1 0x4 ADD PUSH3 0x79C SWAP3 SWAP2 SWAP1 PUSH3 0x2045 JUMP JUMPDEST PUSH1 0x0 PUSH1 0x40 MLOAD DUP1 DUP4 SUB DUP2 PUSH1 0x0 DUP8 DUP1 EXTCODESIZE ISZERO DUP1 ISZERO PUSH3 0x7B7 JUMPI PUSH1 0x0 DUP1 REVERT JUMPDEST POP GAS CALL ISZERO DUP1 ISZERO PUSH3 0x7CC JUMPI RETURNDATASIZE PUSH1 0x0 DUP1 RETURNDATACOPY RETURNDATASIZE PUSH1 0x0 REVERT JUMPDEST POP POP POP POP POP POP POP POP JUMP JUMPDEST PUSH1 0x0 PUSH1 0x1 SWAP1 POP PUSH1 0x0 JUMPDEST PUSH1 0x3 DUP1 SLOAD SWAP1 POP DUP2 LT ISZERO PUSH3 0x8FF JUMPI CALLER PUSH20 0xFFFFFFFFFFFFFFFFFFFFFFFFFFFFFFFFFFFFFFFF AND PUSH1 0x3 DUP3 DUP2 SLOAD DUP2 LT PUSH3 0x81B JUMPI PUSH3 0x81A PUSH3 0x24D1 JUMP JUMPDEST JUMPDEST SWAP1 PUSH1 0x0 MSTORE PUSH1 0x20 PUSH1 0x0 KECCAK256 ADD PUSH1 0x0 SWAP1 SLOAD SWAP1 PUSH2 0x100 EXP SWAP1 DIV PUSH20 0xFFFFFFFFFFFFFFFFFFFFFFFFFFFFFFFFFFFFFFFF AND PUSH20 0xFFFFFFFFFFFFFFFFFFFFFFFFFFFFFFFFFFFFFFFF AND PUSH4 0xA74C2BB6 PUSH1 0x40 MLOAD DUP2 PUSH4 0xFFFFFFFF AND PUSH1 0xE0 SHL DUP2 MSTORE PUSH1 0x4 ADD PUSH1 0x20 PUSH1 0x40 MLOAD DUP1 DUP4 SUB DUP2 DUP7 DUP1 EXTCODESIZE ISZERO DUP1 ISZERO PUSH3 0x88C JUMPI PUSH1 0x0 DUP1 REVERT JUMPDEST POP GAS STATICCALL ISZERO DUP1 ISZERO PUSH3 0x8A1 JUMPI RETURNDATASIZE PUSH1 0x0 DUP1 RETURNDATACOPY RETURNDATASIZE PUSH1 0x0 REVERT JUMPDEST POP POP POP POP PUSH1 0x40 MLOAD RETURNDATASIZE PUSH1 0x1F NOT PUSH1 0x1F DUP3 ADD AND DUP3 ADD DUP1 PUSH1 0x40 MSTORE POP DUP2 ADD SWAP1 PUSH3 0x8C7 SWAP2 SWAP1 PUSH3 0x1A59 JUMP JUMPDEST PUSH20 0xFFFFFFFFFFFFFFFFFFFFFFFFFFFFFFFFFFFFFFFF AND EQ ISZERO PUSH3 0x8E9 JUMPI PUSH1 0x0 SWAP2 POP JUMPDEST DUP1 DUP1 PUSH3 0x8F6 SWAP1 PUSH3 0x2454 JUMP JUMPDEST SWAP2 POP POP PUSH3 0x7DF JUMP JUMPDEST POP DUP1 ISZERO PUSH3 0x944 JUMPI PUSH1 0x40 MLOAD PUSH32 0x8C379A000000000000000000000000000000000000000000000000000000000 DUP2 MSTORE PUSH1 0x4 ADD PUSH3 0x93B SWAP1 PUSH3 0x2185 JUMP JUMPDEST PUSH1 0x40 MLOAD DUP1 SWAP2 SUB SWAP1 REVERT JUMPDEST DUP2 PUSH20 0xFFFFFFFFFFFFFFFFFFFFFFFFFFFFFFFFFFFFFFFF AND PUSH4 0x4CE24B48 CALLER PUSH1 0x40 MLOAD DUP3 PUSH4 0xFFFFFFFF AND PUSH1 0xE0 SHL DUP2 MSTORE PUSH1 0x4 ADD PUSH3 0x97F SWAP2 SWAP1 PUSH3 0x1FFB JUMP JUMPDEST PUSH1 0x0 PUSH1 0x40 MLOAD DUP1 DUP4 SUB DUP2 PUSH1 0x0 DUP8 DUP1 EXTCODESIZE ISZERO DUP1 ISZERO PUSH3 0x99A JUMPI PUSH1 0x0 DUP1 REVERT JUMPDEST POP GAS CALL ISZERO DUP1 ISZERO PUSH3 0x9AF JUMPI RETURNDATASIZE PUSH1 0x0 DUP1 RETURNDATACOPY RETURNDATASIZE PUSH1 0x0 REVERT JUMPDEST POP POP POP POP POP POP JUMP JUMPDEST PUSH1 0x0 CALLER PUSH20 0xFFFFFFFFFFFFFFFFFFFFFFFFFFFFFFFFFFFFFFFF AND PUSH1 0x2 PUSH1 0x0 DUP5 PUSH20 0xFFFFFFFFFFFFFFFFFFFFFFFFFFFFFFFFFFFFFFFF AND PUSH20 0xFFFFFFFFFFFFFFFFFFFFFFFFFFFFFFFFFFFFFFFF AND DUP2 MSTORE PUSH1 0x20 ADD SWAP1 DUP2 MSTORE PUSH1 0x20 ADD PUSH1 0x0 KECCAK256 PUSH1 0x0 SWAP1 SLOAD SWAP1 PUSH2 0x100 EXP SWAP1 DIV PUSH20 0xFFFFFFFFFFFFFFFFFFFFFFFFFFFFFFFFFFFFFFFF AND PUSH20 0xFFFFFFFFFFFFFFFFFFFFFFFFFFFFFFFFFFFFFFFF AND EQ ISZERO PUSH3 0xA57 JUMPI PUSH1 0x1 SWAP1 POP PUSH3 0xA5C JUMP JUMPDEST PUSH1 0x0 SWAP1 POP JUMPDEST SWAP2 SWAP1 POP JUMP JUMPDEST PUSH1 0x60 CALLER PUSH20 0xFFFFFFFFFFFFFFFFFFFFFFFFFFFFFFFFFFFFFFFF AND PUSH1 0x2 PUSH1 0x0 DUP5 PUSH20 0xFFFFFFFFFFFFFFFFFFFFFFFFFFFFFFFFFFFFFFFF AND PUSH20 0xFFFFFFFFFFFFFFFFFFFFFFFFFFFFFFFFFFFFFFFF AND DUP2 MSTORE PUSH1 0x20 ADD SWAP1 DUP2 MSTORE PUSH1 0x20 ADD PUSH1 0x0 KECCAK256 PUSH1 0x0 SWAP1 SLOAD SWAP1 PUSH2 0x100 EXP SWAP1 DIV PUSH20 0xFFFFFFFFFFFFFFFFFFFFFFFFFFFFFFFFFFFFFFFF AND PUSH20 0xFFFFFFFFFFFFFFFFFFFFFFFFFFFFFFFFFFFFFFFF AND EQ PUSH3 0xB33 JUMPI PUSH1 0x40 MLOAD PUSH32 0x8C379A000000000000000000000000000000000000000000000000000000000 DUP2 MSTORE PUSH1 0x4 ADD PUSH3 0xB2A SWAP1 PUSH3 0x211F JUMP JUMPDEST PUSH1 0x40 MLOAD DUP1 SWAP2 SUB SWAP1 REVERT JUMPDEST DUP2 PUSH20 0xFFFFFFFFFFFFFFFFFFFFFFFFFFFFFFFFFFFFFFFF AND PUSH4 0x87813286 PUSH1 0x40 MLOAD DUP2 PUSH4 0xFFFFFFFF AND PUSH1 0xE0 SHL DUP2 MSTORE PUSH1 0x4 ADD PUSH1 0x0 PUSH1 0x40 MLOAD DUP1 DUP4 SUB DUP2 DUP7 DUP1 EXTCODESIZE ISZERO DUP1 ISZERO PUSH3 0xB7A JUMPI PUSH1 0x0 DUP1 REVERT JUMPDEST POP GAS STATICCALL ISZERO DUP1 ISZERO PUSH3 0xB8F JUMPI RETURNDATASIZE PUSH1 0x0 DUP1 RETURNDATACOPY RETURNDATASIZE PUSH1 0x0 REVERT JUMPDEST POP POP POP POP PUSH1 0x40 MLOAD RETURNDATASIZE PUSH1 0x0 DUP3 RETURNDATACOPY RETURNDATASIZE PUSH1 0x1F NOT PUSH1 0x1F DUP3 ADD AND DUP3 ADD DUP1 PUSH1 0x40 MSTORE POP DUP2 ADD SWAP1 PUSH3 0xBBA SWAP2 SWAP1 PUSH3 0x1B23 JUMP JUMPDEST SWAP1 POP SWAP2 SWAP1 POP JUMP JUMPDEST CALLER PUSH20 0xFFFFFFFFFFFFFFFFFFFFFFFFFFFFFFFFFFFFFFFF AND PUSH1 0x2 PUSH1 0x0 DUP4 PUSH20 0xFFFFFFFFFFFFFFFFFFFFFFFFFFFFFFFFFFFFFFFF AND PUSH20 0xFFFFFFFFFFFFFFFFFFFFFFFFFFFFFFFFFFFFFFFF AND DUP2 MSTORE PUSH1 0x20 ADD SWAP1 DUP2 MSTORE PUSH1 0x20 ADD PUSH1 0x0 KECCAK256 PUSH1 0x0 SWAP1 SLOAD SWAP1 PUSH2 0x100 EXP SWAP1 DIV PUSH20 0xFFFFFFFFFFFFFFFFFFFFFFFFFFFFFFFFFFFFFFFF AND PUSH20 0xFFFFFFFFFFFFFFFFFFFFFFFFFFFFFFFFFFFFFFFF AND EQ PUSH3 0xC91 JUMPI PUSH1 0x40 MLOAD PUSH32 0x8C379A000000000000000000000000000000000000000000000000000000000 DUP2 MSTORE PUSH1 0x4 ADD PUSH3 0xC88 SWAP1 PUSH3 0x211F JUMP JUMPDEST PUSH1 0x40 MLOAD DUP1 SWAP2 SUB SWAP1 REVERT JUMPDEST PUSH1 0x1 PUSH1 0x0 DUP4 PUSH20 0xFFFFFFFFFFFFFFFFFFFFFFFFFFFFFFFFFFFFFFFF AND PUSH20 0xFFFFFFFFFFFFFFFFFFFFFFFFFFFFFFFFFFFFFFFF AND DUP2 MSTORE PUSH1 0x20 ADD SWAP1 DUP2 MSTORE PUSH1 0x20 ADD PUSH1 0x0 KECCAK256 DUP2 SWAP1 DUP1 PUSH1 0x1 DUP2 SLOAD ADD DUP1 DUP3 SSTORE DUP1 SWAP2 POP POP PUSH1 0x1 SWAP1 SUB SWAP1 PUSH1 0x0 MSTORE PUSH1 0x20 PUSH1 0x0 KECCAK256 ADD PUSH1 0x0 SWAP1 SWAP2 SWAP1 SWAP2 SWAP1 SWAP2 PUSH2 0x100 EXP DUP2 SLOAD DUP2 PUSH20 0xFFFFFFFFFFFFFFFFFFFFFFFFFFFFFFFFFFFFFFFF MUL NOT AND SWAP1 DUP4 PUSH20 0xFFFFFFFFFFFFFFFFFFFFFFFFFFFFFFFFFFFFFFFF AND MUL OR SWAP1 SSTORE POP DUP1 PUSH20 0xFFFFFFFFFFFFFFFFFFFFFFFFFFFFFFFFFFFFFFFF AND PUSH4 0xCA6D56DC DUP4 PUSH1 0x40 MLOAD DUP3 PUSH4 0xFFFFFFFF AND PUSH1 0xE0 SHL DUP2 MSTORE PUSH1 0x4 ADD PUSH3 0xD6C SWAP2 SWAP1 PUSH3 0x1FFB JUMP JUMPDEST PUSH1 0x0 PUSH1 0x40 MLOAD DUP1 DUP4 SUB DUP2 PUSH1 0x0 DUP8 DUP1 EXTCODESIZE ISZERO DUP1 ISZERO PUSH3 0xD87 JUMPI PUSH1 0x0 DUP1 REVERT JUMPDEST POP GAS CALL ISZERO DUP1 ISZERO PUSH3 0xD9C JUMPI RETURNDATASIZE PUSH1 0x0 DUP1 RETURNDATACOPY RETURNDATASIZE PUSH1 0x0 REVERT JUMPDEST POP POP POP POP POP POP JUMP JUMPDEST PUSH1 0x60 PUSH1 0x1 PUSH1 0x0 DUP4 PUSH20 0xFFFFFFFFFFFFFFFFFFFFFFFFFFFFFFFFFFFFFFFF AND PUSH20 0xFFFFFFFFFFFFFFFFFFFFFFFFFFFFFFFFFFFFFFFF AND DUP2 MSTORE PUSH1 0x20 ADD SWAP1 DUP2 MSTORE PUSH1 0x20 ADD PUSH1 0x0 KECCAK256 DUP1 SLOAD DUP1 PUSH1 0x20 MUL PUSH1 0x20 ADD PUSH1 0x40 MLOAD SWAP1 DUP2 ADD PUSH1 0x40 MSTORE DUP1 SWAP3 SWAP2 SWAP1 DUP2 DUP2 MSTORE PUSH1 0x20 ADD DUP3 DUP1 SLOAD DUP1 ISZERO PUSH3 0xE67 JUMPI PUSH1 0x20 MUL DUP3 ADD SWAP2 SWAP1 PUSH1 0x0 MSTORE PUSH1 0x20 PUSH1 0x0 KECCAK256 SWAP1 JUMPDEST DUP2 PUSH1 0x0 SWAP1 SLOAD SWAP1 PUSH2 0x100 EXP SWAP1 DIV PUSH20 0xFFFFFFFFFFFFFFFFFFFFFFFFFFFFFFFFFFFFFFFF AND PUSH20 0xFFFFFFFFFFFFFFFFFFFFFFFFFFFFFFFFFFFFFFFF AND DUP2 MSTORE PUSH1 0x20 ADD SWAP1 PUSH1 0x1 ADD SWAP1 DUP1 DUP4 GT PUSH3 0xE1C JUMPI JUMPDEST POP POP POP POP POP SWAP1 POP SWAP2 SWAP1 POP JUMP JUMPDEST PUSH1 0x0 PUSH1 0x1 SWAP1 POP PUSH1 0x0 JUMPDEST PUSH1 0x3 DUP1 SLOAD SWAP1 POP DUP2 LT ISZERO PUSH3 0xF9C JUMPI CALLER PUSH20 0xFFFFFFFFFFFFFFFFFFFFFFFFFFFFFFFFFFFFFFFF AND PUSH1 0x3 DUP3 DUP2 SLOAD DUP2 LT PUSH3 0xEB8 JUMPI PUSH3 0xEB7 PUSH3 0x24D1 JUMP JUMPDEST JUMPDEST SWAP1 PUSH1 0x0 MSTORE PUSH1 0x20 PUSH1 0x0 KECCAK256 ADD PUSH1 0x0 SWAP1 SLOAD SWAP1 PUSH2 0x100 EXP SWAP1 DIV PUSH20 0xFFFFFFFFFFFFFFFFFFFFFFFFFFFFFFFFFFFFFFFF AND PUSH20 0xFFFFFFFFFFFFFFFFFFFFFFFFFFFFFFFFFFFFFFFF AND PUSH4 0xA74C2BB6 PUSH1 0x40 MLOAD DUP2 PUSH4 0xFFFFFFFF AND PUSH1 0xE0 SHL DUP2 MSTORE PUSH1 0x4 ADD PUSH1 0x20 PUSH1 0x40 MLOAD DUP1 DUP4 SUB DUP2 DUP7 DUP1 EXTCODESIZE ISZERO DUP1 ISZERO PUSH3 0xF29 JUMPI PUSH1 0x0 DUP1 REVERT JUMPDEST POP GAS STATICCALL ISZERO DUP1 ISZERO PUSH3 0xF3E JUMPI RETURNDATASIZE PUSH1 0x0 DUP1 RETURNDATACOPY RETURNDATASIZE PUSH1 0x0 REVERT JUMPDEST POP POP POP POP PUSH1 0x40 MLOAD RETURNDATASIZE PUSH1 0x1F NOT PUSH1 0x1F DUP3 ADD AND DUP3 ADD DUP1 PUSH1 0x40 MSTORE POP DUP2 ADD SWAP1 PUSH3 0xF64 SWAP2 SWAP1 PUSH3 0x1A59 JUMP JUMPDEST PUSH20 0xFFFFFFFFFFFFFFFFFFFFFFFFFFFFFFFFFFFFFFFF AND EQ ISZERO PUSH3 0xF86 JUMPI PUSH1 0x0 SWAP2 POP JUMPDEST DUP1 DUP1 PUSH3 0xF93 SWAP1 PUSH3 0x2454 JUMP JUMPDEST SWAP2 POP POP PUSH3 0xE7C JUMP JUMPDEST POP DUP1 ISZERO PUSH3 0xFE1 JUMPI PUSH1 0x40 MLOAD PUSH32 0x8C379A000000000000000000000000000000000000000000000000000000000 DUP2 MSTORE PUSH1 0x4 ADD PUSH3 0xFD8 SWAP1 PUSH3 0x2185 JUMP JUMPDEST PUSH1 0x40 MLOAD DUP1 SWAP2 SUB SWAP1 REVERT JUMPDEST DUP3 PUSH20 0xFFFFFFFFFFFFFFFFFFFFFFFFFFFFFFFFFFFFFFFF AND PUSH4 0xEAB3780E CALLER DUP5 PUSH1 0x40 MLOAD DUP4 PUSH4 0xFFFFFFFF AND PUSH1 0xE0 SHL DUP2 MSTORE PUSH1 0x4 ADD PUSH3 0x101E SWAP3 SWAP2 SWAP1 PUSH3 0x2045 JUMP JUMPDEST PUSH1 0x0 PUSH1 0x40 MLOAD DUP1 DUP4 SUB DUP2 PUSH1 0x0 DUP8 DUP1 EXTCODESIZE ISZERO DUP1 ISZERO PUSH3 0x1039 JUMPI PUSH1 0x0 DUP1 REVERT JUMPDEST POP GAS CALL ISZERO DUP1 ISZERO PUSH3 0x104E JUMPI RETURNDATASIZE PUSH1 0x0 DUP1 RETURNDATACOPY RETURNDATASIZE PUSH1 0x0 REVERT JUMPDEST POP POP POP POP POP POP POP JUMP JUMPDEST PUSH1 0x0 PUSH1 0x1 SWAP1 POP PUSH1 0x0 JUMPDEST PUSH1 0x3 DUP1 SLOAD SWAP1 POP DUP2 LT ISZERO PUSH3 0x1180 JUMPI CALLER PUSH20 0xFFFFFFFFFFFFFFFFFFFFFFFFFFFFFFFFFFFFFFFF AND PUSH1 0x3 DUP3 DUP2 SLOAD DUP2 LT PUSH3 0x109C JUMPI PUSH3 0x109B PUSH3 0x24D1 JUMP JUMPDEST JUMPDEST SWAP1 PUSH1 0x0 MSTORE PUSH1 0x20 PUSH1 0x0 KECCAK256 ADD PUSH1 0x0 SWAP1 SLOAD SWAP1 PUSH2 0x100 EXP SWAP1 DIV PUSH20 0xFFFFFFFFFFFFFFFFFFFFFFFFFFFFFFFFFFFFFFFF AND PUSH20 0xFFFFFFFFFFFFFFFFFFFFFFFFFFFFFFFFFFFFFFFF AND PUSH4 0xA74C2BB6 PUSH1 0x40 MLOAD DUP2 PUSH4 0xFFFFFFFF AND PUSH1 0xE0 SHL DUP2 MSTORE PUSH1 0x4 ADD PUSH1 0x20 PUSH1 0x40 MLOAD DUP1 DUP4 SUB DUP2 DUP7 DUP1 EXTCODESIZE ISZERO DUP1 ISZERO PUSH3 0x110D JUMPI PUSH1 0x0 DUP1 REVERT JUMPDEST POP GAS STATICCALL ISZERO DUP1 ISZERO PUSH3 0x1122 JUMPI RETURNDATASIZE PUSH1 0x0 DUP1 RETURNDATACOPY RETURNDATASIZE PUSH1 0x0 REVERT JUMPDEST POP POP POP POP PUSH1 0x40 MLOAD RETURNDATASIZE PUSH1 0x1F NOT PUSH1 0x1F DUP3 ADD AND DUP3 ADD DUP1 PUSH1 0x40 MSTORE POP DUP2 ADD SWAP1 PUSH3 0x1148 SWAP2 SWAP1 PUSH3 0x1A59 JUMP JUMPDEST PUSH20 0xFFFFFFFFFFFFFFFFFFFFFFFFFFFFFFFFFFFFFFFF AND EQ ISZERO PUSH3 0x116A JUMPI PUSH1 0x0 SWAP2 POP JUMPDEST DUP1 DUP1 PUSH3 0x1177 SWAP1 PUSH3 0x2454 JUMP JUMPDEST SWAP2 POP POP PUSH3 0x1060 JUMP JUMPDEST POP DUP1 ISZERO PUSH3 0x11C5 JUMPI PUSH1 0x40 MLOAD PUSH32 0x8C379A000000000000000000000000000000000000000000000000000000000 DUP2 MSTORE PUSH1 0x4 ADD PUSH3 0x11BC SWAP1 PUSH3 0x2185 JUMP JUMPDEST PUSH1 0x40 MLOAD DUP1 SWAP2 SUB SWAP1 REVERT JUMPDEST PUSH8 0xDE0B6B3A7640000 CALLVALUE LT PUSH3 0x13B5 JUMPI PUSH1 0x0 CALLVALUE CALLER DUP5 PUSH1 0x40 MLOAD PUSH3 0x11E8 SWAP1 PUSH3 0x174D JUMP JUMPDEST PUSH3 0x11F5 SWAP3 SWAP2 SWAP1 PUSH3 0x2045 JUMP JUMPDEST PUSH1 0x40 MLOAD DUP1 SWAP2 SUB SWAP1 DUP3 CREATE SWAP1 POP DUP1 ISZERO DUP1 ISZERO PUSH3 0x1213 JUMPI RETURNDATASIZE PUSH1 0x0 DUP1 RETURNDATACOPY RETURNDATASIZE PUSH1 0x0 REVERT JUMPDEST POP SWAP1 POP PUSH1 0x1 PUSH1 0x0 CALLER PUSH20 0xFFFFFFFFFFFFFFFFFFFFFFFFFFFFFFFFFFFFFFFF AND PUSH20 0xFFFFFFFFFFFFFFFFFFFFFFFFFFFFFFFFFFFFFFFF AND DUP2 MSTORE PUSH1 0x20 ADD SWAP1 DUP2 MSTORE PUSH1 0x20 ADD PUSH1 0x0 KECCAK256 DUP2 SWAP1 DUP1 PUSH1 0x1 DUP2 SLOAD ADD DUP1 DUP3 SSTORE DUP1 SWAP2 POP POP PUSH1 0x1 SWAP1 SUB SWAP1 PUSH1 0x0 MSTORE PUSH1 0x20 PUSH1 0x0 KECCAK256 ADD PUSH1 0x0 SWAP1 SWAP2 SWAP1 SWAP2 SWAP1 SWAP2 PUSH2 0x100 EXP DUP2 SLOAD DUP2 PUSH20 0xFFFFFFFFFFFFFFFFFFFFFFFFFFFFFFFFFFFFFFFF MUL NOT AND SWAP1 DUP4 PUSH20 0xFFFFFFFFFFFFFFFFFFFFFFFFFFFFFFFFFFFFFFFF AND MUL OR SWAP1 SSTORE POP CALLER PUSH1 0x2 PUSH1 0x0 DUP4 PUSH20 0xFFFFFFFFFFFFFFFFFFFFFFFFFFFFFFFFFFFFFFFF AND PUSH20 0xFFFFFFFFFFFFFFFFFFFFFFFFFFFFFFFFFFFFFFFF AND DUP2 MSTORE PUSH1 0x20 ADD SWAP1 DUP2 MSTORE PUSH1 0x20 ADD PUSH1 0x0 KECCAK256 PUSH1 0x0 PUSH2 0x100 EXP DUP2 SLOAD DUP2 PUSH20 0xFFFFFFFFFFFFFFFFFFFFFFFFFFFFFFFFFFFFFFFF MUL NOT AND SWAP1 DUP4 PUSH20 0xFFFFFFFFFFFFFFFFFFFFFFFFFFFFFFFFFFFFFFFF AND MUL OR SWAP1 SSTORE POP PUSH3 0x133F CALLER PUSH3 0x359 JUMP JUMPDEST PUSH20 0xFFFFFFFFFFFFFFFFFFFFFFFFFFFFFFFFFFFFFFFF AND PUSH3 0xAFFC2F CALLER DUP4 PUSH1 0x40 MLOAD DUP4 PUSH4 0xFFFFFFFF AND PUSH1 0xE0 SHL DUP2 MSTORE PUSH1 0x4 ADD PUSH3 0x137A SWAP3 SWAP2 SWAP1 PUSH3 0x2018 JUMP JUMPDEST PUSH1 0x0 PUSH1 0x40 MLOAD DUP1 DUP4 SUB DUP2 PUSH1 0x0 DUP8 DUP1 EXTCODESIZE ISZERO DUP1 ISZERO PUSH3 0x1395 JUMPI PUSH1 0x0 DUP1 REVERT JUMPDEST POP GAS CALL ISZERO DUP1 ISZERO PUSH3 0x13AA JUMPI RETURNDATASIZE PUSH1 0x0 DUP1 RETURNDATACOPY RETURNDATASIZE PUSH1 0x0 REVERT JUMPDEST POP POP POP POP POP PUSH3 0x143A JUMP JUMPDEST CALLER PUSH20 0xFFFFFFFFFFFFFFFFFFFFFFFFFFFFFFFFFFFFFFFF AND PUSH2 0x8FC CALLVALUE SWAP1 DUP2 ISZERO MUL SWAP1 PUSH1 0x40 MLOAD PUSH1 0x0 PUSH1 0x40 MLOAD DUP1 DUP4 SUB DUP2 DUP6 DUP9 DUP9 CALL SWAP4 POP POP POP POP ISZERO DUP1 ISZERO PUSH3 0x13FC JUMPI RETURNDATASIZE PUSH1 0x0 DUP1 RETURNDATACOPY RETURNDATASIZE PUSH1 0x0 REVERT JUMPDEST POP PUSH1 0x40 MLOAD PUSH32 0x8C379A000000000000000000000000000000000000000000000000000000000 DUP2 MSTORE PUSH1 0x4 ADD PUSH3 0x1431 SWAP1 PUSH3 0x2163 JUMP JUMPDEST PUSH1 0x40 MLOAD DUP1 SWAP2 SUB SWAP1 REVERT JUMPDEST POP POP JUMP JUMPDEST PUSH1 0x0 JUMPDEST PUSH1 0x3 DUP1 SLOAD SWAP1 POP DUP2 LT ISZERO PUSH3 0x1599 JUMPI CALLER PUSH20 0xFFFFFFFFFFFFFFFFFFFFFFFFFFFFFFFFFFFFFFFF AND PUSH1 0x3 DUP3 DUP2 SLOAD DUP2 LT PUSH3 0x147D JUMPI PUSH3 0x147C PUSH3 0x24D1 JUMP JUMPDEST JUMPDEST SWAP1 PUSH1 0x0 MSTORE PUSH1 0x20 PUSH1 0x0 KECCAK256 ADD PUSH1 0x0 SWAP1 SLOAD SWAP1 PUSH2 0x100 EXP SWAP1 DIV PUSH20 0xFFFFFFFFFFFFFFFFFFFFFFFFFFFFFFFFFFFFFFFF AND PUSH20 0xFFFFFFFFFFFFFFFFFFFFFFFFFFFFFFFFFFFFFFFF AND PUSH4 0xA74C2BB6 PUSH1 0x40 MLOAD DUP2 PUSH4 0xFFFFFFFF AND PUSH1 0xE0 SHL DUP2 MSTORE PUSH1 0x4 ADD PUSH1 0x20 PUSH1 0x40 MLOAD DUP1 DUP4 SUB DUP2 DUP7 DUP1 EXTCODESIZE ISZERO DUP1 ISZERO PUSH3 0x14EE JUMPI PUSH1 0x0 DUP1 REVERT JUMPDEST POP GAS STATICCALL ISZERO DUP1 ISZERO PUSH3 0x1503 JUMPI RETURNDATASIZE PUSH1 0x0 DUP1 RETURNDATACOPY RETURNDATASIZE PUSH1 0x0 REVERT JUMPDEST POP POP POP POP PUSH1 0x40 MLOAD RETURNDATASIZE PUSH1 0x1F NOT PUSH1 0x1F DUP3 ADD AND DUP3 ADD DUP1 PUSH1 0x40 MSTORE POP DUP2 ADD SWAP1 PUSH3 0x1529 SWAP2 SWAP1 PUSH3 0x1A59 JUMP JUMPDEST PUSH20 0xFFFFFFFFFFFFFFFFFFFFFFFFFFFFFFFFFFFFFFFF AND EQ ISZERO PUSH3 0x1583 JUMPI PUSH1 0x40 MLOAD PUSH32 0x8C379A000000000000000000000000000000000000000000000000000000000 DUP2 MSTORE PUSH1 0x4 ADD PUSH3 0x157A SWAP1 PUSH3 0x2141 JUMP JUMPDEST PUSH1 0x40 MLOAD DUP1 SWAP2 SUB SWAP1 REVERT JUMPDEST DUP1 DUP1 PUSH3 0x1590 SWAP1 PUSH3 0x2454 JUMP JUMPDEST SWAP2 POP POP PUSH3 0x1441 JUMP JUMPDEST POP PUSH1 0x0 CALLER DUP3 PUSH1 0x40 MLOAD PUSH3 0x15AC SWAP1 PUSH3 0x175B JUMP JUMPDEST PUSH3 0x15B9 SWAP3 SWAP2 SWAP1 PUSH3 0x2045 JUMP JUMPDEST PUSH1 0x40 MLOAD DUP1 SWAP2 SUB SWAP1 PUSH1 0x0 CREATE DUP1 ISZERO DUP1 ISZERO PUSH3 0x15D6 JUMPI RETURNDATASIZE PUSH1 0x0 DUP1 RETURNDATACOPY RETURNDATASIZE PUSH1 0x0 REVERT JUMPDEST POP SWAP1 POP DUP1 PUSH1 0x0 DUP1 CALLER PUSH20 0xFFFFFFFFFFFFFFFFFFFFFFFFFFFFFFFFFFFFFFFF AND PUSH20 0xFFFFFFFFFFFFFFFFFFFFFFFFFFFFFFFFFFFFFFFF AND DUP2 MSTORE PUSH1 0x20 ADD SWAP1 DUP2 MSTORE PUSH1 0x20 ADD PUSH1 0x0 KECCAK256 PUSH1 0x0 PUSH2 0x100 EXP DUP2 SLOAD DUP2 PUSH20 0xFFFFFFFFFFFFFFFFFFFFFFFFFFFFFFFFFFFFFFFF MUL NOT AND SWAP1 DUP4 PUSH20 0xFFFFFFFFFFFFFFFFFFFFFFFFFFFFFFFFFFFFFFFF AND MUL OR SWAP1 SSTORE POP PUSH1 0x3 DUP2 SWAP1 DUP1 PUSH1 0x1 DUP2 SLOAD ADD DUP1 DUP3 SSTORE DUP1 SWAP2 POP POP PUSH1 0x1 SWAP1 SUB SWAP1 PUSH1 0x0 MSTORE PUSH1 0x20 PUSH1 0x0 KECCAK256 ADD PUSH1 0x0 SWAP1 SWAP2 SWAP1 SWAP2 SWAP1 SWAP2 PUSH2 0x100 EXP DUP2 SLOAD DUP2 PUSH20 0xFFFFFFFFFFFFFFFFFFFFFFFFFFFFFFFFFFFFFFFF MUL NOT AND SWAP1 DUP4 PUSH20 0xFFFFFFFFFFFFFFFFFFFFFFFFFFFFFFFFFFFFFFFF AND MUL OR SWAP1 SSTORE POP POP POP JUMP JUMPDEST PUSH1 0x60 DUP2 PUSH20 0xFFFFFFFFFFFFFFFFFFFFFFFFFFFFFFFFFFFFFFFF AND PUSH4 0x5C3E2E41 PUSH1 0x40 MLOAD DUP2 PUSH4 0xFFFFFFFF AND PUSH1 0xE0 SHL DUP2 MSTORE PUSH1 0x4 ADD PUSH1 0x0 PUSH1 0x40 MLOAD DUP1 DUP4 SUB DUP2 DUP7 DUP1 EXTCODESIZE ISZERO DUP1 ISZERO PUSH3 0x1706 JUMPI PUSH1 0x0 DUP1 REVERT JUMPDEST POP GAS STATICCALL ISZERO DUP1 ISZERO PUSH3 0x171B JUMPI RETURNDATASIZE PUSH1 0x0 DUP1 RETURNDATACOPY RETURNDATASIZE PUSH1 0x0 REVERT JUMPDEST POP POP POP POP PUSH1 0x40 MLOAD RETURNDATASIZE PUSH1 0x0 DUP3 RETURNDATACOPY RETURNDATASIZE PUSH1 0x1F NOT PUSH1 0x1F DUP3 ADD AND DUP3 ADD DUP1 PUSH1 0x40 MSTORE POP DUP2 ADD SWAP1 PUSH3 0x1746 SWAP2 SWAP1 PUSH3 0x1AD2 JUMP JUMPDEST SWAP1 POP SWAP2 SWAP1 POP JUMP JUMPDEST PUSH2 0x2637 DUP1 PUSH3 0x2658 DUP4 CODECOPY ADD SWAP1 JUMP JUMPDEST PUSH2 0xAB0 DUP1 PUSH3 0x4C8F DUP4 CODECOPY ADD SWAP1 JUMP JUMPDEST PUSH1 0x0 PUSH3 0x1780 PUSH3 0x177A DUP5 PUSH3 0x21D0 JUMP JUMPDEST PUSH3 0x21A7 JUMP JUMPDEST SWAP1 POP DUP1 DUP4 DUP3 MSTORE PUSH1 0x20 DUP3 ADD SWAP1 POP DUP3 DUP6 PUSH1 0x20 DUP7 MUL DUP3 ADD GT ISZERO PUSH3 0x17A6 JUMPI PUSH3 0x17A5 PUSH3 0x2534 JUMP JUMPDEST JUMPDEST PUSH1 0x0 JUMPDEST DUP6 DUP2 LT ISZERO PUSH3 0x17DA JUMPI DUP2 PUSH3 0x17BF DUP9 DUP3 PUSH3 0x192D JUMP JUMPDEST DUP5 MSTORE PUSH1 0x20 DUP5 ADD SWAP4 POP PUSH1 0x20 DUP4 ADD SWAP3 POP POP PUSH1 0x1 DUP2 ADD SWAP1 POP PUSH3 0x17A9 JUMP JUMPDEST POP POP POP SWAP4 SWAP3 POP POP POP JUMP JUMPDEST PUSH1 0x0 PUSH3 0x17FB PUSH3 0x17F5 DUP5 PUSH3 0x21FF JUMP JUMPDEST PUSH3 0x21A7 JUMP JUMPDEST SWAP1 POP DUP1 DUP4 DUP3 MSTORE PUSH1 0x20 DUP3 ADD SWAP1 POP DUP3 DUP6 PUSH1 0x20 DUP7 MUL DUP3 ADD GT ISZERO PUSH3 0x1821 JUMPI PUSH3 0x1820 PUSH3 0x2534 JUMP JUMPDEST JUMPDEST PUSH1 0x0 JUMPDEST DUP6 DUP2 LT ISZERO PUSH3 0x1876 JUMPI DUP2 MLOAD PUSH8 0xFFFFFFFFFFFFFFFF DUP2 GT ISZERO PUSH3 0x184B JUMPI PUSH3 0x184A PUSH3 0x252F JUMP JUMPDEST JUMPDEST DUP1 DUP7 ADD PUSH3 0x185A DUP10 DUP3 PUSH3 0x19F4 JUMP JUMPDEST DUP6 MSTORE PUSH1 0x20 DUP6 ADD SWAP5 POP PUSH1 0x20 DUP5 ADD SWAP4 POP POP POP PUSH1 0x1 DUP2 ADD SWAP1 POP PUSH3 0x1824 JUMP JUMPDEST POP POP POP SWAP4 SWAP3 POP POP POP JUMP JUMPDEST PUSH1 0x0 PUSH3 0x1897 PUSH3 0x1891 DUP5 PUSH3 0x222E JUMP JUMPDEST PUSH3 0x21A7 JUMP JUMPDEST SWAP1 POP DUP3 DUP2 MSTORE PUSH1 0x20 DUP2 ADD DUP5 DUP5 DUP5 ADD GT ISZERO PUSH3 0x18B6 JUMPI PUSH3 0x18B5 PUSH3 0x2539 JUMP JUMPDEST JUMPDEST PUSH3 0x18C3 DUP5 DUP3 DUP6 PUSH3 0x23D9 JUMP JUMPDEST POP SWAP4 SWAP3 POP POP POP JUMP JUMPDEST PUSH1 0x0 PUSH3 0x18E2 PUSH3 0x18DC DUP5 PUSH3 0x222E JUMP JUMPDEST PUSH3 0x21A7 JUMP JUMPDEST SWAP1 POP DUP3 DUP2 MSTORE PUSH1 0x20 DUP2 ADD DUP5 DUP5 DUP5 ADD GT ISZERO PUSH3 0x1901 JUMPI PUSH3 0x1900 PUSH3 0x2539 JUMP JUMPDEST JUMPDEST PUSH3 0x190E DUP5 DUP3 DUP6 PUSH3 0x23E8 JUMP JUMPDEST POP SWAP4 SWAP3 POP POP POP JUMP JUMPDEST PUSH1 0x0 DUP2 CALLDATALOAD SWAP1 POP PUSH3 0x1927 DUP2 PUSH3 0x2623 JUMP JUMPDEST SWAP3 SWAP2 POP POP JUMP JUMPDEST PUSH1 0x0 DUP2 MLOAD SWAP1 POP PUSH3 0x193E DUP2 PUSH3 0x2623 JUMP JUMPDEST SWAP3 SWAP2 POP POP JUMP JUMPDEST PUSH1 0x0 DUP3 PUSH1 0x1F DUP4 ADD SLT PUSH3 0x195C JUMPI PUSH3 0x195B PUSH3 0x252F JUMP JUMPDEST JUMPDEST DUP2 MLOAD PUSH3 0x196E DUP5 DUP3 PUSH1 0x20 DUP7 ADD PUSH3 0x1769 JUMP JUMPDEST SWAP2 POP POP SWAP3 SWAP2 POP POP JUMP JUMPDEST PUSH1 0x0 DUP3 PUSH1 0x1F DUP4 ADD SLT PUSH3 0x198F JUMPI PUSH3 0x198E PUSH3 0x252F JUMP JUMPDEST JUMPDEST DUP2 MLOAD PUSH3 0x19A1 DUP5 DUP3 PUSH1 0x20 DUP7 ADD PUSH3 0x17E4 JUMP JUMPDEST SWAP2 POP POP SWAP3 SWAP2 POP POP JUMP JUMPDEST PUSH1 0x0 DUP2 CALLDATALOAD SWAP1 POP PUSH3 0x19BB DUP2 PUSH3 0x263D JUMP JUMPDEST SWAP3 SWAP2 POP POP JUMP JUMPDEST PUSH1 0x0 DUP3 PUSH1 0x1F DUP4 ADD SLT PUSH3 0x19D9 JUMPI PUSH3 0x19D8 PUSH3 0x252F JUMP JUMPDEST JUMPDEST DUP2 CALLDATALOAD PUSH3 0x19EB DUP5 DUP3 PUSH1 0x20 DUP7 ADD PUSH3 0x1880 JUMP JUMPDEST SWAP2 POP POP SWAP3 SWAP2 POP POP JUMP JUMPDEST PUSH1 0x0 DUP3 PUSH1 0x1F DUP4 ADD SLT PUSH3 0x1A0C JUMPI PUSH3 0x1A0B PUSH3 0x252F JUMP JUMPDEST JUMPDEST DUP2 MLOAD PUSH3 0x1A1E DUP5 DUP3 PUSH1 0x20 DUP7 ADD PUSH3 0x18CB JUMP JUMPDEST SWAP2 POP POP SWAP3 SWAP2 POP POP JUMP JUMPDEST PUSH1 0x0 PUSH1 0x20 DUP3 DUP5 SUB SLT ISZERO PUSH3 0x1A40 JUMPI PUSH3 0x1A3F PUSH3 0x2543 JUMP JUMPDEST JUMPDEST PUSH1 0x0 PUSH3 0x1A50 DUP5 DUP3 DUP6 ADD PUSH3 0x1916 JUMP JUMPDEST SWAP2 POP POP SWAP3 SWAP2 POP POP JUMP JUMPDEST PUSH1 0x0 PUSH1 0x20 DUP3 DUP5 SUB SLT ISZERO PUSH3 0x1A72 JUMPI PUSH3 0x1A71 PUSH3 0x2543 JUMP JUMPDEST JUMPDEST PUSH1 0x0 PUSH3 0x1A82 DUP5 DUP3 DUP6 ADD PUSH3 0x192D JUMP JUMPDEST SWAP2 POP POP SWAP3 SWAP2 POP POP JUMP JUMPDEST PUSH1 0x0 DUP1 PUSH1 0x40 DUP4 DUP6 SUB SLT ISZERO PUSH3 0x1AA5 JUMPI PUSH3 0x1AA4 PUSH3 0x2543 JUMP JUMPDEST JUMPDEST PUSH1 0x0 PUSH3 0x1AB5 DUP6 DUP3 DUP7 ADD PUSH3 0x1916 JUMP JUMPDEST SWAP3 POP POP PUSH1 0x20 PUSH3 0x1AC8 DUP6 DUP3 DUP7 ADD PUSH3 0x19AA JUMP JUMPDEST SWAP2 POP POP SWAP3 POP SWAP3 SWAP1 POP JUMP JUMPDEST PUSH1 0x0 PUSH1 0x20 DUP3 DUP5 SUB SLT ISZERO PUSH3 0x1AEB JUMPI PUSH3 0x1AEA PUSH3 0x2543 JUMP JUMPDEST JUMPDEST PUSH1 0x0 DUP3 ADD MLOAD PUSH8 0xFFFFFFFFFFFFFFFF DUP2 GT ISZERO PUSH3 0x1B0C JUMPI PUSH3 0x1B0B PUSH3 0x253E JUMP JUMPDEST JUMPDEST PUSH3 0x1B1A DUP5 DUP3 DUP6 ADD PUSH3 0x1944 JUMP JUMPDEST SWAP2 POP POP SWAP3 SWAP2 POP POP JUMP JUMPDEST PUSH1 0x0 PUSH1 0x20 DUP3 DUP5 SUB SLT ISZERO PUSH3 0x1B3C JUMPI PUSH3 0x1B3B PUSH3 0x2543 JUMP JUMPDEST JUMPDEST PUSH1 0x0 DUP3 ADD MLOAD PUSH8 0xFFFFFFFFFFFFFFFF DUP2 GT ISZERO PUSH3 0x1B5D JUMPI PUSH3 0x1B5C PUSH3 0x253E JUMP JUMPDEST JUMPDEST PUSH3 0x1B6B DUP5 DUP3 DUP6 ADD PUSH3 0x1977 JUMP JUMPDEST SWAP2 POP POP SWAP3 SWAP2 POP POP JUMP JUMPDEST PUSH1 0x0 PUSH1 0x20 DUP3 DUP5 SUB SLT ISZERO PUSH3 0x1B8D JUMPI PUSH3 0x1B8C PUSH3 0x2543 JUMP JUMPDEST JUMPDEST PUSH1 0x0 PUSH3 0x1B9D DUP5 DUP3 DUP6 ADD PUSH3 0x19AA JUMP JUMPDEST SWAP2 POP POP SWAP3 SWAP2 POP POP JUMP JUMPDEST PUSH1 0x0 DUP1 PUSH1 0x0 PUSH1 0x60 DUP5 DUP7 SUB SLT ISZERO PUSH3 0x1BC2 JUMPI PUSH3 0x1BC1 PUSH3 0x2543 JUMP JUMPDEST JUMPDEST PUSH1 0x0 PUSH3 0x1BD2 DUP7 DUP3 DUP8 ADD PUSH3 0x19AA JUMP JUMPDEST SWAP4 POP POP PUSH1 0x20 PUSH3 0x1BE5 DUP7 DUP3 DUP8 ADD PUSH3 0x1916 JUMP JUMPDEST SWAP3 POP POP PUSH1 0x40 DUP5 ADD CALLDATALOAD PUSH8 0xFFFFFFFFFFFFFFFF DUP2 GT ISZERO PUSH3 0x1C09 JUMPI PUSH3 0x1C08 PUSH3 0x253E JUMP JUMPDEST JUMPDEST PUSH3 0x1C17 DUP7 DUP3 DUP8 ADD PUSH3 0x19C1 JUMP JUMPDEST SWAP2 POP POP SWAP3 POP SWAP3 POP SWAP3 JUMP JUMPDEST PUSH1 0x0 DUP1 PUSH1 0x40 DUP4 DUP6 SUB SLT ISZERO PUSH3 0x1C3B JUMPI PUSH3 0x1C3A PUSH3 0x2543 JUMP JUMPDEST JUMPDEST PUSH1 0x0 PUSH3 0x1C4B DUP6 DUP3 DUP7 ADD PUSH3 0x19AA JUMP JUMPDEST SWAP3 POP POP PUSH1 0x20 DUP4 ADD CALLDATALOAD PUSH8 0xFFFFFFFFFFFFFFFF DUP2 GT ISZERO PUSH3 0x1C6F JUMPI PUSH3 0x1C6E PUSH3 0x253E JUMP JUMPDEST JUMPDEST PUSH3 0x1C7D DUP6 DUP3 DUP7 ADD PUSH3 0x19C1 JUMP JUMPDEST SWAP2 POP POP SWAP3 POP SWAP3 SWAP1 POP JUMP JUMPDEST PUSH1 0x0 PUSH1 0x20 DUP3 DUP5 SUB SLT ISZERO PUSH3 0x1CA0 JUMPI PUSH3 0x1C9F PUSH3 0x2543 JUMP JUMPDEST JUMPDEST PUSH1 0x0 DUP3 ADD CALLDATALOAD PUSH8 0xFFFFFFFFFFFFFFFF DUP2 GT ISZERO PUSH3 0x1CC1 JUMPI PUSH3 0x1CC0 PUSH3 0x253E JUMP JUMPDEST JUMPDEST PUSH3 0x1CCF DUP5 DUP3 DUP6 ADD PUSH3 0x19C1 JUMP JUMPDEST SWAP2 POP POP SWAP3 SWAP2 POP POP JUMP JUMPDEST PUSH1 0x0 PUSH3 0x1CE6 DUP4 DUP4 PUSH3 0x1D22 JUMP JUMPDEST PUSH1 0x20 DUP4 ADD SWAP1 POP SWAP3 SWAP2 POP POP JUMP JUMPDEST PUSH1 0x0 PUSH3 0x1D00 DUP4 DUP4 PUSH3 0x1EAA JUMP JUMPDEST PUSH1 0x20 DUP4 ADD SWAP1 POP SWAP3 SWAP2 POP POP JUMP JUMPDEST PUSH1 0x0 PUSH3 0x1D1A DUP4 DUP4 PUSH3 0x1EDD JUMP JUMPDEST SWAP1 POP SWAP3 SWAP2 POP POP JUMP JUMPDEST PUSH3 0x1D2D DUP2 PUSH3 0x232B JUMP JUMPDEST DUP3 MSTORE POP POP JUMP JUMPDEST PUSH3 0x1D3E DUP2 PUSH3 0x232B JUMP JUMPDEST DUP3 MSTORE POP POP JUMP JUMPDEST PUSH1 0x0 PUSH3 0x1D51 DUP3 PUSH3 0x2294 JUMP JUMPDEST PUSH3 0x1D5D DUP2 DUP6 PUSH3 0x22E7 JUMP JUMPDEST SWAP4 POP PUSH3 0x1D6A DUP4 PUSH3 0x2264 JUMP JUMPDEST DUP1 PUSH1 0x0 JUMPDEST DUP4 DUP2 LT ISZERO PUSH3 0x1DA1 JUMPI DUP2 MLOAD PUSH3 0x1D85 DUP9 DUP3 PUSH3 0x1CD8 JUMP JUMPDEST SWAP8 POP PUSH3 0x1D92 DUP4 PUSH3 0x22C0 JUMP JUMPDEST SWAP3 POP POP PUSH1 0x1 DUP2 ADD SWAP1 POP PUSH3 0x1D6E JUMP JUMPDEST POP DUP6 SWAP4 POP POP POP POP SWAP3 SWAP2 POP POP JUMP JUMPDEST PUSH1 0x0 PUSH3 0x1DBB DUP3 PUSH3 0x229F JUMP JUMPDEST PUSH3 0x1DC7 DUP2 DUP6 PUSH3 0x22E7 JUMP JUMPDEST SWAP4 POP PUSH3 0x1DD4 DUP4 PUSH3 0x2274 JUMP JUMPDEST DUP1 PUSH1 0x0 JUMPDEST DUP4 DUP2 LT ISZERO PUSH3 0x1E0B JUMPI DUP2 MLOAD PUSH3 0x1DEF DUP9 DUP3 PUSH3 0x1CF2 JUMP JUMPDEST SWAP8 POP PUSH3 0x1DFC DUP4 PUSH3 0x22CD JUMP JUMPDEST SWAP3 POP POP PUSH1 0x1 DUP2 ADD SWAP1 POP PUSH3 0x1DD8 JUMP JUMPDEST POP DUP6 SWAP4 POP POP POP POP SWAP3 SWAP2 POP POP JUMP JUMPDEST PUSH1 0x0 PUSH3 0x1E25 DUP3 PUSH3 0x22AA JUMP JUMPDEST PUSH3 0x1E31 DUP2 DUP6 PUSH3 0x22F8 JUMP JUMPDEST SWAP4 POP DUP4 PUSH1 0x20 DUP3 MUL DUP6 ADD PUSH3 0x1E45 DUP6 PUSH3 0x2284 JUMP JUMPDEST DUP1 PUSH1 0x0 JUMPDEST DUP6 DUP2 LT ISZERO PUSH3 0x1E87 JUMPI DUP5 DUP5 SUB DUP10 MSTORE DUP2 MLOAD PUSH3 0x1E65 DUP6 DUP3 PUSH3 0x1D0C JUMP JUMPDEST SWAP5 POP PUSH3 0x1E72 DUP4 PUSH3 0x22DA JUMP JUMPDEST SWAP3 POP PUSH1 0x20 DUP11 ADD SWAP10 POP POP PUSH1 0x1 DUP2 ADD SWAP1 POP PUSH3 0x1E49 JUMP JUMPDEST POP DUP3 SWAP8 POP DUP8 SWAP6 POP POP POP POP POP POP SWAP3 SWAP2 POP POP JUMP JUMPDEST PUSH3 0x1EA4 DUP2 PUSH3 0x233F JUMP JUMPDEST DUP3 MSTORE POP POP JUMP JUMPDEST PUSH3 0x1EB5 DUP2 PUSH3 0x2389 JUMP JUMPDEST DUP3 MSTORE POP POP JUMP JUMPDEST PUSH3 0x1EC6 DUP2 PUSH3 0x2389 JUMP JUMPDEST DUP3 MSTORE POP POP JUMP JUMPDEST PUSH3 0x1ED7 DUP2 PUSH3 0x23B1 JUMP JUMPDEST DUP3 MSTORE POP POP JUMP JUMPDEST PUSH1 0x0 PUSH3 0x1EEA DUP3 PUSH3 0x22B5 JUMP JUMPDEST PUSH3 0x1EF6 DUP2 DUP6 PUSH3 0x2309 JUMP JUMPDEST SWAP4 POP PUSH3 0x1F08 DUP2 DUP6 PUSH1 0x20 DUP7 ADD PUSH3 0x23E8 JUMP JUMPDEST PUSH3 0x1F13 DUP2 PUSH3 0x2548 JUMP JUMPDEST DUP5 ADD SWAP2 POP POP SWAP3 SWAP2 POP POP JUMP JUMPDEST PUSH1 0x0 PUSH3 0x1F2B DUP3 PUSH3 0x22B5 JUMP JUMPDEST PUSH3 0x1F37 DUP2 DUP6 PUSH3 0x231A JUMP JUMPDEST SWAP4 POP PUSH3 0x1F49 DUP2 DUP6 PUSH1 0x20 DUP7 ADD PUSH3 0x23E8 JUMP JUMPDEST PUSH3 0x1F54 DUP2 PUSH3 0x2548 JUMP JUMPDEST DUP5 ADD SWAP2 POP POP SWAP3 SWAP2 POP POP JUMP JUMPDEST PUSH1 0x0 PUSH3 0x1F6E PUSH1 0x19 DUP4 PUSH3 0x231A JUMP JUMPDEST SWAP2 POP PUSH3 0x1F7B DUP3 PUSH3 0x2559 JUMP JUMPDEST PUSH1 0x20 DUP3 ADD SWAP1 POP SWAP2 SWAP1 POP JUMP JUMPDEST PUSH1 0x0 PUSH3 0x1F95 PUSH1 0x1B DUP4 PUSH3 0x231A JUMP JUMPDEST SWAP2 POP PUSH3 0x1FA2 DUP3 PUSH3 0x2582 JUMP JUMPDEST PUSH1 0x20 DUP3 ADD SWAP1 POP SWAP2 SWAP1 POP JUMP JUMPDEST PUSH1 0x0 PUSH3 0x1FBC PUSH1 0x21 DUP4 PUSH3 0x231A JUMP JUMPDEST SWAP2 POP PUSH3 0x1FC9 DUP3 PUSH3 0x25AB JUMP JUMPDEST PUSH1 0x40 DUP3 ADD SWAP1 POP SWAP2 SWAP1 POP JUMP JUMPDEST PUSH1 0x0 PUSH3 0x1FE3 PUSH1 0xE DUP4 PUSH3 0x231A JUMP JUMPDEST SWAP2 POP PUSH3 0x1FF0 DUP3 PUSH3 0x25FA JUMP JUMPDEST PUSH1 0x20 DUP3 ADD SWAP1 POP SWAP2 SWAP1 POP JUMP JUMPDEST PUSH1 0x0 PUSH1 0x20 DUP3 ADD SWAP1 POP PUSH3 0x2012 PUSH1 0x0 DUP4 ADD DUP5 PUSH3 0x1D33 JUMP JUMPDEST SWAP3 SWAP2 POP POP JUMP JUMPDEST PUSH1 0x0 PUSH1 0x40 DUP3 ADD SWAP1 POP PUSH3 0x202F PUSH1 0x0 DUP4 ADD DUP6 PUSH3 0x1D33 JUMP JUMPDEST PUSH3 0x203E PUSH1 0x20 DUP4 ADD DUP5 PUSH3 0x1EBB JUMP JUMPDEST SWAP4 SWAP3 POP POP POP JUMP JUMPDEST PUSH1 0x0 PUSH1 0x40 DUP3 ADD SWAP1 POP PUSH3 0x205C PUSH1 0x0 DUP4 ADD DUP6 PUSH3 0x1D33 JUMP JUMPDEST DUP2 DUP2 SUB PUSH1 0x20 DUP4 ADD MSTORE PUSH3 0x2070 DUP2 DUP5 PUSH3 0x1F1E JUMP JUMPDEST SWAP1 POP SWAP4 SWAP3 POP POP POP JUMP JUMPDEST PUSH1 0x0 PUSH1 0x20 DUP3 ADD SWAP1 POP DUP2 DUP2 SUB PUSH1 0x0 DUP4 ADD MSTORE PUSH3 0x2095 DUP2 DUP5 PUSH3 0x1D44 JUMP JUMPDEST SWAP1 POP SWAP3 SWAP2 POP POP JUMP JUMPDEST PUSH1 0x0 PUSH1 0x20 DUP3 ADD SWAP1 POP DUP2 DUP2 SUB PUSH1 0x0 DUP4 ADD MSTORE PUSH3 0x20B9 DUP2 DUP5 PUSH3 0x1DAE JUMP JUMPDEST SWAP1 POP SWAP3 SWAP2 POP POP JUMP JUMPDEST PUSH1 0x0 PUSH1 0x20 DUP3 ADD SWAP1 POP DUP2 DUP2 SUB PUSH1 0x0 DUP4 ADD MSTORE PUSH3 0x20DD DUP2 DUP5 PUSH3 0x1E18 JUMP JUMPDEST SWAP1 POP SWAP3 SWAP2 POP POP JUMP JUMPDEST PUSH1 0x0 PUSH1 0x20 DUP3 ADD SWAP1 POP PUSH3 0x20FC PUSH1 0x0 DUP4 ADD DUP5 PUSH3 0x1E99 JUMP JUMPDEST SWAP3 SWAP2 POP POP JUMP JUMPDEST PUSH1 0x0 PUSH1 0x20 DUP3 ADD SWAP1 POP PUSH3 0x2119 PUSH1 0x0 DUP4 ADD DUP5 PUSH3 0x1ECC JUMP JUMPDEST SWAP3 SWAP2 POP POP JUMP JUMPDEST PUSH1 0x0 PUSH1 0x20 DUP3 ADD SWAP1 POP DUP2 DUP2 SUB PUSH1 0x0 DUP4 ADD MSTORE PUSH3 0x213A DUP2 PUSH3 0x1F5F JUMP JUMPDEST SWAP1 POP SWAP2 SWAP1 POP JUMP JUMPDEST PUSH1 0x0 PUSH1 0x20 DUP3 ADD SWAP1 POP DUP2 DUP2 SUB PUSH1 0x0 DUP4 ADD MSTORE PUSH3 0x215C DUP2 PUSH3 0x1F86 JUMP JUMPDEST SWAP1 POP SWAP2 SWAP1 POP JUMP JUMPDEST PUSH1 0x0 PUSH1 0x20 DUP3 ADD SWAP1 POP DUP2 DUP2 SUB PUSH1 0x0 DUP4 ADD MSTORE PUSH3 0x217E DUP2 PUSH3 0x1FAD JUMP JUMPDEST SWAP1 POP SWAP2 SWAP1 POP JUMP JUMPDEST PUSH1 0x0 PUSH1 0x20 DUP3 ADD SWAP1 POP DUP2 DUP2 SUB PUSH1 0x0 DUP4 ADD MSTORE PUSH3 0x21A0 DUP2 PUSH3 0x1FD4 JUMP JUMPDEST SWAP1 POP SWAP2 SWAP1 POP JUMP JUMPDEST PUSH1 0x0 PUSH3 0x21B3 PUSH3 0x21C6 JUMP JUMPDEST SWAP1 POP PUSH3 0x21C1 DUP3 DUP3 PUSH3 0x241E JUMP JUMPDEST SWAP2 SWAP1 POP JUMP JUMPDEST PUSH1 0x0 PUSH1 0x40 MLOAD SWAP1 POP SWAP1 JUMP JUMPDEST PUSH1 0x0 PUSH8 0xFFFFFFFFFFFFFFFF DUP3 GT ISZERO PUSH3 0x21EE JUMPI PUSH3 0x21ED PUSH3 0x2500 JUMP JUMPDEST JUMPDEST PUSH1 0x20 DUP3 MUL SWAP1 POP PUSH1 0x20 DUP2 ADD SWAP1 POP SWAP2 SWAP1 POP JUMP JUMPDEST PUSH1 0x0 PUSH8 0xFFFFFFFFFFFFFFFF DUP3 GT ISZERO PUSH3 0x221D JUMPI PUSH3 0x221C PUSH3 0x2500 JUMP JUMPDEST JUMPDEST PUSH1 0x20 DUP3 MUL SWAP1 POP PUSH1 0x20 DUP2 ADD SWAP1 POP SWAP2 SWAP1 POP JUMP JUMPDEST PUSH1 0x0 PUSH8 0xFFFFFFFFFFFFFFFF DUP3 GT ISZERO PUSH3 0x224C JUMPI PUSH3 0x224B PUSH3 0x2500 JUMP JUMPDEST JUMPDEST PUSH3 0x2257 DUP3 PUSH3 0x2548 JUMP JUMPDEST SWAP1 POP PUSH1 0x20 DUP2 ADD SWAP1 POP SWAP2 SWAP1 POP JUMP JUMPDEST PUSH1 0x0 DUP2 SWAP1 POP PUSH1 0x20 DUP3 ADD SWAP1 POP SWAP2 SWAP1 POP JUMP JUMPDEST PUSH1 0x0 DUP2 SWAP1 POP PUSH1 0x20 DUP3 ADD SWAP1 POP SWAP2 SWAP1 POP JUMP JUMPDEST PUSH1 0x0 DUP2 SWAP1 POP PUSH1 0x20 DUP3 ADD SWAP1 POP SWAP2 SWAP1 POP JUMP JUMPDEST PUSH1 0x0 DUP2 MLOAD SWAP1 POP SWAP2 SWAP1 POP JUMP JUMPDEST PUSH1 0x0 DUP2 MLOAD SWAP1 POP SWAP2 SWAP1 POP JUMP JUMPDEST PUSH1 0x0 DUP2 MLOAD SWAP1 POP SWAP2 SWAP1 POP JUMP JUMPDEST PUSH1 0x0 DUP2 MLOAD SWAP1 POP SWAP2 SWAP1 POP JUMP JUMPDEST PUSH1 0x0 PUSH1 0x20 DUP3 ADD SWAP1 POP SWAP2 SWAP1 POP JUMP JUMPDEST PUSH1 0x0 PUSH1 0x20 DUP3 ADD SWAP1 POP SWAP2 SWAP1 POP JUMP JUMPDEST PUSH1 0x0 PUSH1 0x20 DUP3 ADD SWAP1 POP SWAP2 SWAP1 POP JUMP JUMPDEST PUSH1 0x0 DUP3 DUP3 MSTORE PUSH1 0x20 DUP3 ADD SWAP1 POP SWAP3 SWAP2 POP POP JUMP JUMPDEST PUSH1 0x0 DUP3 DUP3 MSTORE PUSH1 0x20 DUP3 ADD SWAP1 POP SWAP3 SWAP2 POP POP JUMP JUMPDEST PUSH1 0x0 DUP3 DUP3 MSTORE PUSH1 0x20 DUP3 ADD SWAP1 POP SWAP3 SWAP2 POP POP JUMP JUMPDEST PUSH1 0x0 DUP3 DUP3 MSTORE PUSH1 0x20 DUP3 ADD SWAP1 POP SWAP3 SWAP2 POP POP JUMP JUMPDEST PUSH1 0x0 PUSH3 0x2338 DUP3 PUSH3 0x235F JUMP JUMPDEST SWAP1 POP SWAP2 SWAP1 POP JUMP JUMPDEST PUSH1 0x0 DUP2 ISZERO ISZERO SWAP1 POP SWAP2 SWAP1 POP JUMP JUMPDEST PUSH1 0x0 PUSH3 0x2358 DUP3 PUSH3 0x232B JUMP JUMPDEST SWAP1 POP SWAP2 SWAP1 POP JUMP JUMPDEST PUSH1 0x0 PUSH20 0xFFFFFFFFFFFFFFFFFFFFFFFFFFFFFFFFFFFFFFFF DUP3 AND SWAP1 POP SWAP2 SWAP1 POP JUMP JUMPDEST PUSH1 0x0 DUP2 SWAP1 POP SWAP2 SWAP1 POP JUMP JUMPDEST PUSH1 0x0 PUSH3 0x2396 DUP3 PUSH3 0x239D JUMP JUMPDEST SWAP1 POP SWAP2 SWAP1 POP JUMP JUMPDEST PUSH1 0x0 PUSH3 0x23AA DUP3 PUSH3 0x235F JUMP JUMPDEST SWAP1 POP SWAP2 SWAP1 POP JUMP JUMPDEST PUSH1 0x0 PUSH3 0x23BE DUP3 PUSH3 0x23C5 JUMP JUMPDEST SWAP1 POP SWAP2 SWAP1 POP JUMP JUMPDEST PUSH1 0x0 PUSH3 0x23D2 DUP3 PUSH3 0x235F JUMP JUMPDEST SWAP1 POP SWAP2 SWAP1 POP JUMP JUMPDEST DUP3 DUP2 DUP4 CALLDATACOPY PUSH1 0x0 DUP4 DUP4 ADD MSTORE POP POP POP JUMP JUMPDEST PUSH1 0x0 JUMPDEST DUP4 DUP2 LT ISZERO PUSH3 0x2408 JUMPI DUP1 DUP3 ADD MLOAD DUP2 DUP5 ADD MSTORE PUSH1 0x20 DUP2 ADD SWAP1 POP PUSH3 0x23EB JUMP JUMPDEST DUP4 DUP2 GT ISZERO PUSH3 0x2418 JUMPI PUSH1 0x0 DUP5 DUP5 ADD MSTORE JUMPDEST POP POP POP POP JUMP JUMPDEST PUSH3 0x2429 DUP3 PUSH3 0x2548 JUMP JUMPDEST DUP2 ADD DUP2 DUP2 LT PUSH8 0xFFFFFFFFFFFFFFFF DUP3 GT OR ISZERO PUSH3 0x244B JUMPI PUSH3 0x244A PUSH3 0x2500 JUMP JUMPDEST JUMPDEST DUP1 PUSH1 0x40 MSTORE POP POP POP JUMP JUMPDEST PUSH1 0x0 PUSH3 0x2461 DUP3 PUSH3 0x237F JUMP JUMPDEST SWAP2 POP PUSH32 0xFFFFFFFFFFFFFFFFFFFFFFFFFFFFFFFFFFFFFFFFFFFFFFFFFFFFFFFFFFFFFFFF DUP3 EQ ISZERO PUSH3 0x2497 JUMPI PUSH3 0x2496 PUSH3 0x24A2 JUMP JUMPDEST JUMPDEST PUSH1 0x1 DUP3 ADD SWAP1 POP SWAP2 SWAP1 POP JUMP JUMPDEST PUSH32 0x4E487B7100000000000000000000000000000000000000000000000000000000 PUSH1 0x0 MSTORE PUSH1 0x11 PUSH1 0x4 MSTORE PUSH1 0x24 PUSH1 0x0 REVERT JUMPDEST PUSH32 0x4E487B7100000000000000000000000000000000000000000000000000000000 PUSH1 0x0 MSTORE PUSH1 0x32 PUSH1 0x4 MSTORE PUSH1 0x24 PUSH1 0x0 REVERT JUMPDEST PUSH32 0x4E487B7100000000000000000000000000000000000000000000000000000000 PUSH1 0x0 MSTORE PUSH1 0x41 PUSH1 0x4 MSTORE PUSH1 0x24 PUSH1 0x0 REVERT JUMPDEST PUSH1 0x0 DUP1 REVERT JUMPDEST PUSH1 0x0 DUP1 REVERT JUMPDEST PUSH1 0x0 DUP1 REVERT JUMPDEST PUSH1 0x0 DUP1 REVERT JUMPDEST PUSH1 0x0 DUP1 REVERT JUMPDEST PUSH1 0x0 PUSH1 0x1F NOT PUSH1 0x1F DUP4 ADD AND SWAP1 POP SWAP2 SWAP1 POP JUMP JUMPDEST PUSH32 0x796F7520617265206E6F742070726F6A656374206F776E657200000000000000 PUSH1 0x0 DUP3 ADD MSTORE POP JUMP JUMPDEST PUSH32 0x796F75206861766520616C726561647920726567697374657265640000000000 PUSH1 0x0 DUP3 ADD MSTORE POP JUMP JUMPDEST PUSH32 0x796F75206E65656420746F20706179206D6F7265207468616E20312065746865 PUSH1 0x0 DUP3 ADD MSTORE PUSH32 0x7200000000000000000000000000000000000000000000000000000000000000 PUSH1 0x20 DUP3 ADD MSTORE POP JUMP JUMPDEST PUSH32 0x506C65617365207369676E207570000000000000000000000000000000000000 PUSH1 0x0 DUP3 ADD MSTORE POP JUMP JUMPDEST PUSH3 0x262E DUP2 PUSH3 0x232B JUMP JUMPDEST DUP2 EQ PUSH3 0x263A JUMPI PUSH1 0x0 DUP1 REVERT JUMPDEST POP JUMP JUMPDEST PUSH3 0x2648 DUP2 PUSH3 0x234B JUMP JUMPDEST DUP2 EQ PUSH3 0x2654 JUMPI PUSH1 0x0 DUP1 REVERT JUMPDEST POP JUMP INVALID PUSH1 0x80 PUSH1 0x40 MSTORE PUSH1 0x40 MLOAD PUSH3 0x2637 CODESIZE SUB DUP1 PUSH3 0x2637 DUP4 CODECOPY DUP2 DUP2 ADD PUSH1 0x40 MSTORE DUP2 ADD SWAP1 PUSH3 0x29 SWAP2 SWAP1 PUSH3 0x239 JUMP JUMPDEST DUP2 PUSH1 0x0 DUP1 PUSH2 0x100 EXP DUP2 SLOAD DUP2 PUSH20 0xFFFFFFFFFFFFFFFFFFFFFFFFFFFFFFFFFFFFFFFF MUL NOT AND SWAP1 DUP4 PUSH20 0xFFFFFFFFFFFFFFFFFFFFFFFFFFFFFFFFFFFFFFFF AND MUL OR SWAP1 SSTORE POP DUP1 PUSH1 0x1 SWAP1 DUP1 MLOAD SWAP1 PUSH1 0x20 ADD SWAP1 PUSH3 0x81 SWAP3 SWAP2 SWAP1 PUSH3 0xF4 JUMP JUMPDEST POP TIMESTAMP PUSH1 0x2 DUP2 SWAP1 SSTORE POP PUSH1 0x6 DUP3 SWAP1 DUP1 PUSH1 0x1 DUP2 SLOAD ADD DUP1 DUP3 SSTORE DUP1 SWAP2 POP POP PUSH1 0x1 SWAP1 SUB SWAP1 PUSH1 0x0 MSTORE PUSH1 0x20 PUSH1 0x0 KECCAK256 ADD PUSH1 0x0 SWAP1 SWAP2 SWAP1 SWAP2 SWAP1 SWAP2 PUSH2 0x100 EXP DUP2 SLOAD DUP2 PUSH20 0xFFFFFFFFFFFFFFFFFFFFFFFFFFFFFFFFFFFFFFFF MUL NOT AND SWAP1 DUP4 PUSH20 0xFFFFFFFFFFFFFFFFFFFFFFFFFFFFFFFFFFFFFFFF AND MUL OR SWAP1 SSTORE POP POP POP PUSH3 0x471 JUMP JUMPDEST DUP3 DUP1 SLOAD PUSH3 0x102 SWAP1 PUSH3 0x368 JUMP JUMPDEST SWAP1 PUSH1 0x0 MSTORE PUSH1 0x20 PUSH1 0x0 KECCAK256 SWAP1 PUSH1 0x1F ADD PUSH1 0x20 SWAP1 DIV DUP2 ADD SWAP3 DUP3 PUSH3 0x126 JUMPI PUSH1 0x0 DUP6 SSTORE PUSH3 0x172 JUMP JUMPDEST DUP3 PUSH1 0x1F LT PUSH3 0x141 JUMPI DUP1 MLOAD PUSH1 0xFF NOT AND DUP4 DUP1 ADD OR DUP6 SSTORE PUSH3 0x172 JUMP JUMPDEST DUP3 DUP1 ADD PUSH1 0x1 ADD DUP6 SSTORE DUP3 ISZERO PUSH3 0x172 JUMPI SWAP2 DUP3 ADD JUMPDEST DUP3 DUP2 GT ISZERO PUSH3 0x171 JUMPI DUP3 MLOAD DUP3 SSTORE SWAP2 PUSH1 0x20 ADD SWAP2 SWAP1 PUSH1 0x1 ADD SWAP1 PUSH3 0x154 JUMP JUMPDEST JUMPDEST POP SWAP1 POP PUSH3 0x181 SWAP2 SWAP1 PUSH3 0x185 JUMP JUMPDEST POP SWAP1 JUMP JUMPDEST JUMPDEST DUP1 DUP3 GT ISZERO PUSH3 0x1A0 JUMPI PUSH1 0x0 DUP2 PUSH1 0x0 SWAP1 SSTORE POP PUSH1 0x1 ADD PUSH3 0x186 JUMP JUMPDEST POP SWAP1 JUMP JUMPDEST PUSH1 0x0 PUSH3 0x1BB PUSH3 0x1B5 DUP5 PUSH3 0x2C8 JUMP JUMPDEST PUSH3 0x29F JUMP JUMPDEST SWAP1 POP DUP3 DUP2 MSTORE PUSH1 0x20 DUP2 ADD DUP5 DUP5 DUP5 ADD GT ISZERO PUSH3 0x1DA JUMPI PUSH3 0x1D9 PUSH3 0x437 JUMP JUMPDEST JUMPDEST PUSH3 0x1E7 DUP5 DUP3 DUP6 PUSH3 0x332 JUMP JUMPDEST POP SWAP4 SWAP3 POP POP POP JUMP JUMPDEST PUSH1 0x0 DUP2 MLOAD SWAP1 POP PUSH3 0x200 DUP2 PUSH3 0x457 JUMP JUMPDEST SWAP3 SWAP2 POP POP JUMP JUMPDEST PUSH1 0x0 DUP3 PUSH1 0x1F DUP4 ADD SLT PUSH3 0x21E JUMPI PUSH3 0x21D PUSH3 0x432 JUMP JUMPDEST JUMPDEST DUP2 MLOAD PUSH3 0x230 DUP5 DUP3 PUSH1 0x20 DUP7 ADD PUSH3 0x1A4 JUMP JUMPDEST SWAP2 POP POP SWAP3 SWAP2 POP POP JUMP JUMPDEST PUSH1 0x0 DUP1 PUSH1 0x40 DUP4 DUP6 SUB SLT ISZERO PUSH3 0x253 JUMPI PUSH3 0x252 PUSH3 0x441 JUMP JUMPDEST JUMPDEST PUSH1 0x0 PUSH3 0x263 DUP6 DUP3 DUP7 ADD PUSH3 0x1EF JUMP JUMPDEST SWAP3 POP POP PUSH1 0x20 DUP4 ADD MLOAD PUSH8 0xFFFFFFFFFFFFFFFF DUP2 GT ISZERO PUSH3 0x287 JUMPI PUSH3 0x286 PUSH3 0x43C JUMP JUMPDEST JUMPDEST PUSH3 0x295 DUP6 DUP3 DUP7 ADD PUSH3 0x206 JUMP JUMPDEST SWAP2 POP POP SWAP3 POP SWAP3 SWAP1 POP JUMP JUMPDEST PUSH1 0x0 PUSH3 0x2AB PUSH3 0x2BE JUMP JUMPDEST SWAP1 POP PUSH3 0x2B9 DUP3 DUP3 PUSH3 0x39E JUMP JUMPDEST SWAP2 SWAP1 POP JUMP JUMPDEST PUSH1 0x0 PUSH1 0x40 MLOAD SWAP1 POP SWAP1 JUMP JUMPDEST PUSH1 0x0 PUSH8 0xFFFFFFFFFFFFFFFF DUP3 GT ISZERO PUSH3 0x2E6 JUMPI PUSH3 0x2E5 PUSH3 0x403 JUMP JUMPDEST JUMPDEST PUSH3 0x2F1 DUP3 PUSH3 0x446 JUMP JUMPDEST SWAP1 POP PUSH1 0x20 DUP2 ADD SWAP1 POP SWAP2 SWAP1 POP JUMP JUMPDEST PUSH1 0x0 PUSH3 0x30B DUP3 PUSH3 0x312 JUMP JUMPDEST SWAP1 POP SWAP2 SWAP1 POP JUMP JUMPDEST PUSH1 0x0 PUSH20 0xFFFFFFFFFFFFFFFFFFFFFFFFFFFFFFFFFFFFFFFF DUP3 AND SWAP1 POP SWAP2 SWAP1 POP JUMP JUMPDEST PUSH1 0x0 JUMPDEST DUP4 DUP2 LT ISZERO PUSH3 0x352 JUMPI DUP1 DUP3 ADD MLOAD DUP2 DUP5 ADD MSTORE PUSH1 0x20 DUP2 ADD SWAP1 POP PUSH3 0x335 JUMP JUMPDEST DUP4 DUP2 GT ISZERO PUSH3 0x362 JUMPI PUSH1 0x0 DUP5 DUP5 ADD MSTORE JUMPDEST POP POP POP POP JUMP JUMPDEST PUSH1 0x0 PUSH1 0x2 DUP3 DIV SWAP1 POP PUSH1 0x1 DUP3 AND DUP1 PUSH3 0x381 JUMPI PUSH1 0x7F DUP3 AND SWAP2 POP JUMPDEST PUSH1 0x20 DUP3 LT DUP2 EQ ISZERO PUSH3 0x398 JUMPI PUSH3 0x397 PUSH3 0x3D4 JUMP JUMPDEST JUMPDEST POP SWAP2 SWAP1 POP JUMP JUMPDEST PUSH3 0x3A9 DUP3 PUSH3 0x446 JUMP JUMPDEST DUP2 ADD DUP2 DUP2 LT PUSH8 0xFFFFFFFFFFFFFFFF DUP3 GT OR ISZERO PUSH3 0x3CB JUMPI PUSH3 0x3CA PUSH3 0x403 JUMP JUMPDEST JUMPDEST DUP1 PUSH1 0x40 MSTORE POP POP POP JUMP JUMPDEST PUSH32 0x4E487B7100000000000000000000000000000000000000000000000000000000 PUSH1 0x0 MSTORE PUSH1 0x22 PUSH1 0x4 MSTORE PUSH1 0x24 PUSH1 0x0 REVERT JUMPDEST PUSH32 0x4E487B7100000000000000000000000000000000000000000000000000000000 PUSH1 0x0 MSTORE PUSH1 0x41 PUSH1 0x4 MSTORE PUSH1 0x24 PUSH1 0x0 REVERT JUMPDEST PUSH1 0x0 DUP1 REVERT JUMPDEST PUSH1 0x0 DUP1 REVERT JUMPDEST PUSH1 0x0 DUP1 REVERT JUMPDEST PUSH1 0x0 DUP1 REVERT JUMPDEST PUSH1 0x0 PUSH1 0x1F NOT PUSH1 0x1F DUP4 ADD AND SWAP1 POP SWAP2 SWAP1 POP JUMP JUMPDEST PUSH3 0x462 DUP2 PUSH3 0x2FE JUMP JUMPDEST DUP2 EQ PUSH3 0x46E JUMPI PUSH1 0x0 DUP1 REVERT JUMPDEST POP JUMP JUMPDEST PUSH2 0x21B6 DUP1 PUSH3 0x481 PUSH1 0x0 CODECOPY PUSH1 0x0 RETURN INVALID PUSH1 0x80 PUSH1 0x40 MSTORE CALLVALUE DUP1 ISZERO PUSH2 0x10 JUMPI PUSH1 0x0 DUP1 REVERT JUMPDEST POP PUSH1 0x4 CALLDATASIZE LT PUSH2 0xA9 JUMPI PUSH1 0x0 CALLDATALOAD PUSH1 0xE0 SHR DUP1 PUSH4 0x5C3E2E41 GT PUSH2 0x71 JUMPI DUP1 PUSH4 0x5C3E2E41 EQ PUSH2 0x152 JUMPI DUP1 PUSH4 0x5E4EFF99 EQ PUSH2 0x170 JUMPI DUP1 PUSH4 0x87813286 EQ PUSH2 0x1A0 JUMPI DUP1 PUSH4 0xAF8D148F EQ PUSH2 0x1BE JUMPI DUP1 PUSH4 0xCA6D56DC EQ PUSH2 0x1DA JUMPI DUP1 PUSH4 0xEAB3780E EQ PUSH2 0x1F6 JUMPI PUSH2 0xA9 JUMP JUMPDEST DUP1 PUSH4 0x7E1C7F7 EQ PUSH2 0xAE JUMPI DUP1 PUSH4 0x17C0CB1C EQ PUSH2 0xDE JUMPI DUP1 PUSH4 0x274EDC3A EQ PUSH2 0xFC JUMPI DUP1 PUSH4 0x4A0DD083 EQ PUSH2 0x118 JUMPI DUP1 PUSH4 0x4CE24B48 EQ PUSH2 0x136 JUMPI JUMPDEST PUSH1 0x0 DUP1 REVERT JUMPDEST PUSH2 0xC8 PUSH1 0x4 DUP1 CALLDATASIZE SUB DUP2 ADD SWAP1 PUSH2 0xC3 SWAP2 SWAP1 PUSH2 0x148C JUMP JUMPDEST PUSH2 0x212 JUMP JUMPDEST PUSH1 0x40 MLOAD PUSH2 0xD5 SWAP2 SWAP1 PUSH2 0x19DC JUMP JUMPDEST PUSH1 0x40 MLOAD DUP1 SWAP2 SUB SWAP1 RETURN JUMPDEST PUSH2 0xE6 PUSH2 0x32A JUMP JUMPDEST PUSH1 0x40 MLOAD PUSH2 0xF3 SWAP2 SWAP1 PUSH2 0x19DC JUMP JUMPDEST PUSH1 0x40 MLOAD DUP1 SWAP2 SUB SWAP1 RETURN JUMPDEST PUSH2 0x116 PUSH1 0x4 DUP1 CALLDATASIZE SUB DUP2 ADD SWAP1 PUSH2 0x111 SWAP2 SWAP1 PUSH2 0x1542 JUMP JUMPDEST PUSH2 0x403 JUMP JUMPDEST STOP JUMPDEST PUSH2 0x120 PUSH2 0x770 JUMP JUMPDEST PUSH1 0x40 MLOAD PUSH2 0x12D SWAP2 SWAP1 PUSH2 0x19BA JUMP JUMPDEST PUSH1 0x40 MLOAD DUP1 SWAP2 SUB SWAP1 RETURN JUMPDEST PUSH2 0x150 PUSH1 0x4 DUP1 CALLDATASIZE SUB DUP2 ADD SWAP1 PUSH2 0x14B SWAP2 SWAP1 PUSH2 0x148C JUMP JUMPDEST PUSH2 0x7FE JUMP JUMPDEST STOP JUMPDEST PUSH2 0x15A PUSH2 0x984 JUMP JUMPDEST PUSH1 0x40 MLOAD PUSH2 0x167 SWAP2 SWAP1 PUSH2 0x19BA JUMP JUMPDEST PUSH1 0x40 MLOAD DUP1 SWAP2 SUB SWAP1 RETURN JUMPDEST PUSH2 0x18A PUSH1 0x4 DUP1 CALLDATASIZE SUB DUP2 ADD SWAP1 PUSH2 0x185 SWAP2 SWAP1 PUSH2 0x1582 JUMP JUMPDEST PUSH2 0xA12 JUMP JUMPDEST PUSH1 0x40 MLOAD PUSH2 0x197 SWAP2 SWAP1 PUSH2 0x1AFE JUMP JUMPDEST PUSH1 0x40 MLOAD DUP1 SWAP2 SUB SWAP1 RETURN JUMPDEST PUSH2 0x1A8 PUSH2 0xAC9 JUMP JUMPDEST PUSH1 0x40 MLOAD PUSH2 0x1B5 SWAP2 SWAP1 PUSH2 0x19DC JUMP JUMPDEST PUSH1 0x40 MLOAD DUP1 SWAP2 SUB SWAP1 RETURN JUMPDEST PUSH2 0x1D8 PUSH1 0x4 DUP1 CALLDATASIZE SUB DUP2 ADD SWAP1 PUSH2 0x1D3 SWAP2 SWAP1 PUSH2 0x14E6 JUMP JUMPDEST PUSH2 0xBA2 JUMP JUMPDEST STOP JUMPDEST PUSH2 0x1F4 PUSH1 0x4 DUP1 CALLDATASIZE SUB DUP2 ADD SWAP1 PUSH2 0x1EF SWAP2 SWAP1 PUSH2 0x148C JUMP JUMPDEST PUSH2 0xD50 JUMP JUMPDEST STOP JUMPDEST PUSH2 0x210 PUSH1 0x4 DUP1 CALLDATASIZE SUB DUP2 ADD SWAP1 PUSH2 0x20B SWAP2 SWAP1 PUSH2 0x14E6 JUMP JUMPDEST PUSH2 0xF09 JUMP JUMPDEST STOP JUMPDEST PUSH1 0x60 PUSH1 0x3 PUSH1 0x0 DUP4 PUSH20 0xFFFFFFFFFFFFFFFFFFFFFFFFFFFFFFFFFFFFFFFF AND PUSH20 0xFFFFFFFFFFFFFFFFFFFFFFFFFFFFFFFFFFFFFFFF AND DUP2 MSTORE PUSH1 0x20 ADD SWAP1 DUP2 MSTORE PUSH1 0x20 ADD PUSH1 0x0 KECCAK256 DUP1 SLOAD DUP1 PUSH1 0x20 MUL PUSH1 0x20 ADD PUSH1 0x40 MLOAD SWAP1 DUP2 ADD PUSH1 0x40 MSTORE DUP1 SWAP3 SWAP2 SWAP1 DUP2 DUP2 MSTORE PUSH1 0x20 ADD PUSH1 0x0 SWAP1 JUMPDEST DUP3 DUP3 LT ISZERO PUSH2 0x31F JUMPI DUP4 DUP3 SWAP1 PUSH1 0x0 MSTORE PUSH1 0x20 PUSH1 0x0 KECCAK256 ADD DUP1 SLOAD PUSH2 0x292 SWAP1 PUSH2 0x1DEE JUMP JUMPDEST DUP1 PUSH1 0x1F ADD PUSH1 0x20 DUP1 SWAP2 DIV MUL PUSH1 0x20 ADD PUSH1 0x40 MLOAD SWAP1 DUP2 ADD PUSH1 0x40 MSTORE DUP1 SWAP3 SWAP2 SWAP1 DUP2 DUP2 MSTORE PUSH1 0x20 ADD DUP3 DUP1 SLOAD PUSH2 0x2BE SWAP1 PUSH2 0x1DEE JUMP JUMPDEST DUP1 ISZERO PUSH2 0x30B JUMPI DUP1 PUSH1 0x1F LT PUSH2 0x2E0 JUMPI PUSH2 0x100 DUP1 DUP4 SLOAD DIV MUL DUP4 MSTORE SWAP2 PUSH1 0x20 ADD SWAP2 PUSH2 0x30B JUMP JUMPDEST DUP3 ADD SWAP2 SWAP1 PUSH1 0x0 MSTORE PUSH1 0x20 PUSH1 0x0 KECCAK256 SWAP1 JUMPDEST DUP2 SLOAD DUP2 MSTORE SWAP1 PUSH1 0x1 ADD SWAP1 PUSH1 0x20 ADD DUP1 DUP4 GT PUSH2 0x2EE JUMPI DUP3 SWAP1 SUB PUSH1 0x1F AND DUP3 ADD SWAP2 JUMPDEST POP POP POP POP POP DUP2 MSTORE PUSH1 0x20 ADD SWAP1 PUSH1 0x1 ADD SWAP1 PUSH2 0x273 JUMP JUMPDEST POP POP POP POP SWAP1 POP SWAP2 SWAP1 POP JUMP JUMPDEST PUSH1 0x60 PUSH1 0x4 DUP1 SLOAD DUP1 PUSH1 0x20 MUL PUSH1 0x20 ADD PUSH1 0x40 MLOAD SWAP1 DUP2 ADD PUSH1 0x40 MSTORE DUP1 SWAP3 SWAP2 SWAP1 DUP2 DUP2 MSTORE PUSH1 0x20 ADD PUSH1 0x0 SWAP1 JUMPDEST DUP3 DUP3 LT ISZERO PUSH2 0x3FA JUMPI DUP4 DUP3 SWAP1 PUSH1 0x0 MSTORE PUSH1 0x20 PUSH1 0x0 KECCAK256 ADD DUP1 SLOAD PUSH2 0x36D SWAP1 PUSH2 0x1DEE JUMP JUMPDEST DUP1 PUSH1 0x1F ADD PUSH1 0x20 DUP1 SWAP2 DIV MUL PUSH1 0x20 ADD PUSH1 0x40 MLOAD SWAP1 DUP2 ADD PUSH1 0x40 MSTORE DUP1 SWAP3 SWAP2 SWAP1 DUP2 DUP2 MSTORE PUSH1 0x20 ADD DUP3 DUP1 SLOAD PUSH2 0x399 SWAP1 PUSH2 0x1DEE JUMP JUMPDEST DUP1 ISZERO PUSH2 0x3E6 JUMPI DUP1 PUSH1 0x1F LT PUSH2 0x3BB JUMPI PUSH2 0x100 DUP1 DUP4 SLOAD DIV MUL DUP4 MSTORE SWAP2 PUSH1 0x20 ADD SWAP2 PUSH2 0x3E6 JUMP JUMPDEST DUP3 ADD SWAP2 SWAP1 PUSH1 0x0 MSTORE PUSH1 0x20 PUSH1 0x0 KECCAK256 SWAP1 JUMPDEST DUP2 SLOAD DUP2 MSTORE SWAP1 PUSH1 0x1 ADD SWAP1 PUSH1 0x20 ADD DUP1 DUP4 GT PUSH2 0x3C9 JUMPI DUP3 SWAP1 SUB PUSH1 0x1F AND DUP3 ADD SWAP2 JUMPDEST POP POP POP POP POP DUP2 MSTORE PUSH1 0x20 ADD SWAP1 PUSH1 0x1 ADD SWAP1 PUSH2 0x34E JUMP JUMPDEST POP POP POP POP SWAP1 POP SWAP1 JUMP JUMPDEST PUSH2 0x489 DUP3 PUSH20 0xFFFFFFFFFFFFFFFFFFFFFFFFFFFFFFFFFFFFFFFF AND PUSH4 0xA74C2BB6 PUSH1 0x40 MLOAD DUP2 PUSH4 0xFFFFFFFF AND PUSH1 0xE0 SHL DUP2 MSTORE PUSH1 0x4 ADD PUSH1 0x20 PUSH1 0x40 MLOAD DUP1 DUP4 SUB DUP2 DUP7 DUP1 EXTCODESIZE ISZERO DUP1 ISZERO PUSH2 0x44C JUMPI PUSH1 0x0 DUP1 REVERT JUMPDEST POP GAS STATICCALL ISZERO DUP1 ISZERO PUSH2 0x460 JUMPI RETURNDATASIZE PUSH1 0x0 DUP1 RETURNDATACOPY RETURNDATASIZE PUSH1 0x0 REVERT JUMPDEST POP POP POP POP PUSH1 0x40 MLOAD RETURNDATASIZE PUSH1 0x1F NOT PUSH1 0x1F DUP3 ADD AND DUP3 ADD DUP1 PUSH1 0x40 MSTORE POP DUP2 ADD SWAP1 PUSH2 0x484 SWAP2 SWAP1 PUSH2 0x14B9 JUMP JUMPDEST PUSH2 0x107C JUMP JUMPDEST POP PUSH2 0x510 DUP2 PUSH20 0xFFFFFFFFFFFFFFFFFFFFFFFFFFFFFFFFFFFFFFFF AND PUSH4 0xA74C2BB6 PUSH1 0x40 MLOAD DUP2 PUSH4 0xFFFFFFFF AND PUSH1 0xE0 SHL DUP2 MSTORE PUSH1 0x4 ADD PUSH1 0x20 PUSH1 0x40 MLOAD DUP1 DUP4 SUB DUP2 DUP7 DUP1 EXTCODESIZE ISZERO DUP1 ISZERO PUSH2 0x4D3 JUMPI PUSH1 0x0 DUP1 REVERT JUMPDEST POP GAS STATICCALL ISZERO DUP1 ISZERO PUSH2 0x4E7 JUMPI RETURNDATASIZE PUSH1 0x0 DUP1 RETURNDATACOPY RETURNDATASIZE PUSH1 0x0 REVERT JUMPDEST POP POP POP POP PUSH1 0x40 MLOAD RETURNDATASIZE PUSH1 0x1F NOT PUSH1 0x1F DUP3 ADD AND DUP3 ADD DUP1 PUSH1 0x40 MSTORE POP DUP2 ADD SWAP1 PUSH2 0x50B SWAP2 SWAP1 PUSH2 0x14B9 JUMP JUMPDEST PUSH2 0x107C JUMP JUMPDEST POP PUSH1 0x9 DUP3 SWAP1 DUP1 PUSH1 0x1 DUP2 SLOAD ADD DUP1 DUP3 SSTORE DUP1 SWAP2 POP POP PUSH1 0x1 SWAP1 SUB SWAP1 PUSH1 0x0 MSTORE PUSH1 0x20 PUSH1 0x0 KECCAK256 ADD PUSH1 0x0 SWAP1 SWAP2 SWAP1 SWAP2 SWAP1 SWAP2 PUSH2 0x100 EXP DUP2 SLOAD DUP2 PUSH20 0xFFFFFFFFFFFFFFFFFFFFFFFFFFFFFFFFFFFFFFFF MUL NOT AND SWAP1 DUP4 PUSH20 0xFFFFFFFFFFFFFFFFFFFFFFFFFFFFFFFFFFFFFFFF AND MUL OR SWAP1 SSTORE POP PUSH1 0x9 DUP2 SWAP1 DUP1 PUSH1 0x1 DUP2 SLOAD ADD DUP1 DUP3 SSTORE DUP1 SWAP2 POP POP PUSH1 0x1 SWAP1 SUB SWAP1 PUSH1 0x0 MSTORE PUSH1 0x20 PUSH1 0x0 KECCAK256 ADD PUSH1 0x0 SWAP1 SWAP2 SWAP1 SWAP2 SWAP1 SWAP2 PUSH2 0x100 EXP DUP2 SLOAD DUP2 PUSH20 0xFFFFFFFFFFFFFFFFFFFFFFFFFFFFFFFFFFFFFFFF MUL NOT AND SWAP1 DUP4 PUSH20 0xFFFFFFFFFFFFFFFFFFFFFFFFFFFFFFFFFFFFFFFF AND MUL OR SWAP1 SSTORE POP PUSH1 0x0 JUMPDEST PUSH1 0x8 DUP1 SLOAD SWAP1 POP DUP2 LT ISZERO PUSH2 0x6A5 JUMPI PUSH1 0x9 PUSH1 0x40 MLOAD PUSH1 0x20 ADD PUSH2 0x5F9 SWAP2 SWAP1 PUSH2 0x1975 JUMP JUMPDEST PUSH1 0x40 MLOAD PUSH1 0x20 DUP2 DUP4 SUB SUB DUP2 MSTORE SWAP1 PUSH1 0x40 MSTORE DUP1 MLOAD SWAP1 PUSH1 0x20 ADD KECCAK256 PUSH1 0x8 DUP3 DUP2 SLOAD DUP2 LT PUSH2 0x623 JUMPI PUSH2 0x622 PUSH2 0x1F41 JUMP JUMPDEST JUMPDEST SWAP1 PUSH1 0x0 MSTORE PUSH1 0x20 PUSH1 0x0 KECCAK256 ADD PUSH1 0x40 MLOAD PUSH1 0x20 ADD PUSH2 0x63D SWAP2 SWAP1 PUSH2 0x1975 JUMP JUMPDEST PUSH1 0x40 MLOAD PUSH1 0x20 DUP2 DUP4 SUB SUB DUP2 MSTORE SWAP1 PUSH1 0x40 MSTORE DUP1 MLOAD SWAP1 PUSH1 0x20 ADD KECCAK256 EQ ISZERO PUSH2 0x694 JUMPI PUSH1 0x40 MLOAD PUSH32 0x8C379A000000000000000000000000000000000000000000000000000000000 DUP2 MSTORE PUSH1 0x4 ADD PUSH2 0x68B SWAP1 PUSH2 0x19FE JUMP JUMPDEST PUSH1 0x40 MLOAD DUP1 SWAP2 SUB SWAP1 REVERT JUMPDEST DUP1 PUSH2 0x69E SWAP1 PUSH2 0x1E6B JUMP JUMPDEST SWAP1 POP PUSH2 0x5DA JUMP JUMPDEST POP PUSH1 0x8 PUSH1 0x9 SWAP1 DUP1 PUSH1 0x1 DUP2 SLOAD ADD DUP1 DUP3 SSTORE DUP1 SWAP2 POP POP PUSH1 0x1 SWAP1 SUB SWAP1 PUSH1 0x0 MSTORE PUSH1 0x20 PUSH1 0x0 KECCAK256 ADD PUSH1 0x0 SWAP1 SWAP2 SWAP1 SWAP2 SWAP1 SWAP2 POP SWAP1 DUP1 SLOAD PUSH2 0x6DD SWAP3 SWAP2 SWAP1 PUSH2 0x121B JUMP JUMPDEST POP PUSH1 0x9 DUP1 SLOAD DUP1 PUSH2 0x6F0 JUMPI PUSH2 0x6EF PUSH2 0x1F12 JUMP JUMPDEST JUMPDEST PUSH1 0x1 SWAP1 SUB DUP2 DUP2 SWAP1 PUSH1 0x0 MSTORE PUSH1 0x20 PUSH1 0x0 KECCAK256 ADD PUSH1 0x0 PUSH2 0x100 EXP DUP2 SLOAD SWAP1 PUSH20 0xFFFFFFFFFFFFFFFFFFFFFFFFFFFFFFFFFFFFFFFF MUL NOT AND SWAP1 SSTORE SWAP1 SSTORE PUSH1 0x9 DUP1 SLOAD DUP1 PUSH2 0x737 JUMPI PUSH2 0x736 PUSH2 0x1F12 JUMP JUMPDEST JUMPDEST PUSH1 0x1 SWAP1 SUB DUP2 DUP2 SWAP1 PUSH1 0x0 MSTORE PUSH1 0x20 PUSH1 0x0 KECCAK256 ADD PUSH1 0x0 PUSH2 0x100 EXP DUP2 SLOAD SWAP1 PUSH20 0xFFFFFFFFFFFFFFFFFFFFFFFFFFFFFFFFFFFFFFFF MUL NOT AND SWAP1 SSTORE SWAP1 SSTORE POP POP JUMP JUMPDEST PUSH1 0x60 PUSH1 0x7 DUP1 SLOAD DUP1 PUSH1 0x20 MUL PUSH1 0x20 ADD PUSH1 0x40 MLOAD SWAP1 DUP2 ADD PUSH1 0x40 MSTORE DUP1 SWAP3 SWAP2 SWAP1 DUP2 DUP2 MSTORE PUSH1 0x20 ADD DUP3 DUP1 SLOAD DUP1 ISZERO PUSH2 0x7F4 JUMPI PUSH1 0x20 MUL DUP3 ADD SWAP2 SWAP1 PUSH1 0x0 MSTORE PUSH1 0x20 PUSH1 0x0 KECCAK256 SWAP1 JUMPDEST DUP2 PUSH1 0x0 SWAP1 SLOAD SWAP1 PUSH2 0x100 EXP SWAP1 DIV PUSH20 0xFFFFFFFFFFFFFFFFFFFFFFFFFFFFFFFFFFFFFFFF AND PUSH20 0xFFFFFFFFFFFFFFFFFFFFFFFFFFFFFFFFFFFFFFFF AND DUP2 MSTORE PUSH1 0x20 ADD SWAP1 PUSH1 0x1 ADD SWAP1 DUP1 DUP4 GT PUSH2 0x7AA JUMPI JUMPDEST POP POP POP POP POP SWAP1 POP SWAP1 JUMP JUMPDEST PUSH1 0x0 PUSH2 0x809 DUP3 PUSH2 0x1163 JUMP JUMPDEST SWAP1 POP PUSH1 0x0 DUP2 EQ PUSH2 0x84E JUMPI PUSH1 0x40 MLOAD PUSH32 0x8C379A000000000000000000000000000000000000000000000000000000000 DUP2 MSTORE PUSH1 0x4 ADD PUSH2 0x845 SWAP1 PUSH2 0x1A1E JUMP JUMPDEST PUSH1 0x40 MLOAD DUP1 SWAP2 SUB SWAP1 REVERT JUMPDEST PUSH1 0x0 JUMPDEST PUSH1 0x6 DUP1 SLOAD SWAP1 POP DUP2 LT ISZERO PUSH2 0x91C JUMPI DUP3 PUSH20 0xFFFFFFFFFFFFFFFFFFFFFFFFFFFFFFFFFFFFFFFF AND PUSH1 0x6 DUP3 DUP2 SLOAD DUP2 LT PUSH2 0x889 JUMPI PUSH2 0x888 PUSH2 0x1F41 JUMP JUMPDEST JUMPDEST SWAP1 PUSH1 0x0 MSTORE PUSH1 0x20 PUSH1 0x0 KECCAK256 ADD PUSH1 0x0 SWAP1 SLOAD SWAP1 PUSH2 0x100 EXP SWAP1 DIV PUSH20 0xFFFFFFFFFFFFFFFFFFFFFFFFFFFFFFFFFFFFFFFF AND PUSH20 0xFFFFFFFFFFFFFFFFFFFFFFFFFFFFFFFFFFFFFFFF AND EQ ISZERO PUSH2 0x90B JUMPI PUSH1 0x40 MLOAD PUSH32 0x8C379A000000000000000000000000000000000000000000000000000000000 DUP2 MSTORE PUSH1 0x4 ADD PUSH2 0x902 SWAP1 PUSH2 0x1A7E JUMP JUMPDEST PUSH1 0x40 MLOAD DUP1 SWAP2 SUB SWAP1 REVERT JUMPDEST DUP1 PUSH2 0x915 SWAP1 PUSH2 0x1E6B JUMP JUMPDEST SWAP1 POP PUSH2 0x851 JUMP JUMPDEST POP PUSH1 0x7 DUP3 SWAP1 DUP1 PUSH1 0x1 DUP2 SLOAD ADD DUP1 DUP3 SSTORE DUP1 SWAP2 POP POP PUSH1 0x1 SWAP1 SUB SWAP1 PUSH1 0x0 MSTORE PUSH1 0x20 PUSH1 0x0 KECCAK256 ADD PUSH1 0x0 SWAP1 SWAP2 SWAP1 SWAP2 SWAP1 SWAP2 PUSH2 0x100 EXP DUP2 SLOAD DUP2 PUSH20 0xFFFFFFFFFFFFFFFFFFFFFFFFFFFFFFFFFFFFFFFF MUL NOT AND SWAP1 DUP4 PUSH20 0xFFFFFFFFFFFFFFFFFFFFFFFFFFFFFFFFFFFFFFFF AND MUL OR SWAP1 SSTORE POP POP POP JUMP JUMPDEST PUSH1 0x60 PUSH1 0x6 DUP1 SLOAD DUP1 PUSH1 0x20 MUL PUSH1 0x20 ADD PUSH1 0x40 MLOAD SWAP1 DUP2 ADD PUSH1 0x40 MSTORE DUP1 SWAP3 SWAP2 SWAP1 DUP2 DUP2 MSTORE PUSH1 0x20 ADD DUP3 DUP1 SLOAD DUP1 ISZERO PUSH2 0xA08 JUMPI PUSH1 0x20 MUL DUP3 ADD SWAP2 SWAP1 PUSH1 0x0 MSTORE PUSH1 0x20 PUSH1 0x0 KECCAK256 SWAP1 JUMPDEST DUP2 PUSH1 0x0 SWAP1 SLOAD SWAP1 PUSH2 0x100 EXP SWAP1 DIV PUSH20 0xFFFFFFFFFFFFFFFFFFFFFFFFFFFFFFFFFFFFFFFF AND PUSH20 0xFFFFFFFFFFFFFFFFFFFFFFFFFFFFFFFFFFFFFFFF AND DUP2 MSTORE PUSH1 0x20 ADD SWAP1 PUSH1 0x1 ADD SWAP1 DUP1 DUP4 GT PUSH2 0x9BE JUMPI JUMPDEST POP POP POP POP POP SWAP1 POP SWAP1 JUMP JUMPDEST PUSH1 0x0 DUP1 PUSH1 0x0 SWAP1 POP JUMPDEST PUSH1 0x5 DUP1 SLOAD SWAP1 POP DUP2 LT ISZERO PUSH2 0xABE JUMPI DUP3 PUSH1 0x40 MLOAD PUSH1 0x20 ADD PUSH2 0xA38 SWAP2 SWAP1 PUSH2 0x198C JUMP JUMPDEST PUSH1 0x40 MLOAD PUSH1 0x20 DUP2 DUP4 SUB SUB DUP2 MSTORE SWAP1 PUSH1 0x40 MSTORE DUP1 MLOAD SWAP1 PUSH1 0x20 ADD KECCAK256 PUSH1 0x5 DUP3 DUP2 SLOAD DUP2 LT PUSH2 0xA62 JUMPI PUSH2 0xA61 PUSH2 0x1F41 JUMP JUMPDEST JUMPDEST SWAP1 PUSH1 0x0 MSTORE PUSH1 0x20 PUSH1 0x0 KECCAK256 ADD PUSH1 0x40 MLOAD PUSH1 0x20 ADD PUSH2 0xA7C SWAP2 SWAP1 PUSH2 0x19A3 JUMP JUMPDEST PUSH1 0x40 MLOAD PUSH1 0x20 DUP2 DUP4 SUB SUB DUP2 MSTORE SWAP1 PUSH1 0x40 MSTORE DUP1 MLOAD SWAP1 PUSH1 0x20 ADD KECCAK256 EQ ISZERO PUSH2 0xAAD JUMPI PUSH1 0x1 DUP2 PUSH2 0xAA5 SWAP2 SWAP1 PUSH2 0x1C66 JUMP JUMPDEST SWAP2 POP POP PUSH2 0xAC4 JUMP JUMPDEST DUP1 PUSH2 0xAB7 SWAP1 PUSH2 0x1E6B JUMP JUMPDEST SWAP1 POP PUSH2 0xA1A JUMP JUMPDEST POP PUSH1 0x0 SWAP1 POP JUMPDEST SWAP2 SWAP1 POP JUMP JUMPDEST PUSH1 0x60 PUSH1 0x5 DUP1 SLOAD DUP1 PUSH1 0x20 MUL PUSH1 0x20 ADD PUSH1 0x40 MLOAD SWAP1 DUP2 ADD PUSH1 0x40 MSTORE DUP1 SWAP3 SWAP2 SWAP1 DUP2 DUP2 MSTORE PUSH1 0x20 ADD PUSH1 0x0 SWAP1 JUMPDEST DUP3 DUP3 LT ISZERO PUSH2 0xB99 JUMPI DUP4 DUP3 SWAP1 PUSH1 0x0 MSTORE PUSH1 0x20 PUSH1 0x0 KECCAK256 ADD DUP1 SLOAD PUSH2 0xB0C SWAP1 PUSH2 0x1DEE JUMP JUMPDEST DUP1 PUSH1 0x1F ADD PUSH1 0x20 DUP1 SWAP2 DIV MUL PUSH1 0x20 ADD PUSH1 0x40 MLOAD SWAP1 DUP2 ADD PUSH1 0x40 MSTORE DUP1 SWAP3 SWAP2 SWAP1 DUP2 DUP2 MSTORE PUSH1 0x20 ADD DUP3 DUP1 SLOAD PUSH2 0xB38 SWAP1 PUSH2 0x1DEE JUMP JUMPDEST DUP1 ISZERO PUSH2 0xB85 JUMPI DUP1 PUSH1 0x1F LT PUSH2 0xB5A JUMPI PUSH2 0x100 DUP1 DUP4 SLOAD DIV MUL DUP4 MSTORE SWAP2 PUSH1 0x20 ADD SWAP2 PUSH2 0xB85 JUMP JUMPDEST DUP3 ADD SWAP2 SWAP1 PUSH1 0x0 MSTORE PUSH1 0x20 PUSH1 0x0 KECCAK256 SWAP1 JUMPDEST DUP2 SLOAD DUP2 MSTORE SWAP1 PUSH1 0x1 ADD SWAP1 PUSH1 0x20 ADD DUP1 DUP4 GT PUSH2 0xB68 JUMPI DUP3 SWAP1 SUB PUSH1 0x1F AND DUP3 ADD SWAP2 JUMPDEST POP POP POP POP POP DUP2 MSTORE PUSH1 0x20 ADD SWAP1 PUSH1 0x1 ADD SWAP1 PUSH2 0xAED JUMP JUMPDEST POP POP POP POP SWAP1 POP SWAP1 JUMP JUMPDEST PUSH1 0x0 PUSH2 0xBAD DUP3 PUSH2 0xA12 JUMP JUMPDEST SWAP1 POP PUSH1 0x0 DUP2 EQ ISZERO PUSH2 0xBF3 JUMPI PUSH1 0x40 MLOAD PUSH32 0x8C379A000000000000000000000000000000000000000000000000000000000 DUP2 MSTORE PUSH1 0x4 ADD PUSH2 0xBEA SWAP1 PUSH2 0x1ABE JUMP JUMPDEST PUSH1 0x40 MLOAD DUP1 SWAP2 SUB SWAP1 REVERT JUMPDEST DUP1 DUP1 PUSH2 0xBFE SWAP1 PUSH2 0x1DC4 JUMP JUMPDEST SWAP2 POP POP PUSH1 0x3 PUSH1 0x0 DUP5 PUSH20 0xFFFFFFFFFFFFFFFFFFFFFFFFFFFFFFFFFFFFFFFF AND PUSH20 0xFFFFFFFFFFFFFFFFFFFFFFFFFFFFFFFFFFFFFFFF AND DUP2 MSTORE PUSH1 0x20 ADD SWAP1 DUP2 MSTORE PUSH1 0x20 ADD PUSH1 0x0 KECCAK256 DUP3 SWAP1 DUP1 PUSH1 0x1 DUP2 SLOAD ADD DUP1 DUP3 SSTORE DUP1 SWAP2 POP POP PUSH1 0x1 SWAP1 SUB SWAP1 PUSH1 0x0 MSTORE PUSH1 0x20 PUSH1 0x0 KECCAK256 ADD PUSH1 0x0 SWAP1 SWAP2 SWAP1 SWAP2 SWAP1 SWAP2 POP SWAP1 DUP1 MLOAD SWAP1 PUSH1 0x20 ADD SWAP1 PUSH2 0xC79 SWAP3 SWAP2 SWAP1 PUSH2 0x126D JUMP JUMPDEST POP PUSH1 0x4 DUP3 SWAP1 DUP1 PUSH1 0x1 DUP2 SLOAD ADD DUP1 DUP3 SSTORE DUP1 SWAP2 POP POP PUSH1 0x1 SWAP1 SUB SWAP1 PUSH1 0x0 MSTORE PUSH1 0x20 PUSH1 0x0 KECCAK256 ADD PUSH1 0x0 SWAP1 SWAP2 SWAP1 SWAP2 SWAP1 SWAP2 POP SWAP1 DUP1 MLOAD SWAP1 PUSH1 0x20 ADD SWAP1 PUSH2 0xCB5 SWAP3 SWAP2 SWAP1 PUSH2 0x126D JUMP JUMPDEST POP PUSH1 0x5 PUSH1 0x1 PUSH1 0x5 DUP1 SLOAD SWAP1 POP PUSH2 0xCCA SWAP2 SWAP1 PUSH2 0x1CBC JUMP JUMPDEST DUP2 SLOAD DUP2 LT PUSH2 0xCDB JUMPI PUSH2 0xCDA PUSH2 0x1F41 JUMP JUMPDEST JUMPDEST SWAP1 PUSH1 0x0 MSTORE PUSH1 0x20 PUSH1 0x0 KECCAK256 ADD PUSH1 0x5 DUP3 DUP2 SLOAD DUP2 LT PUSH2 0xCF9 JUMPI PUSH2 0xCF8 PUSH2 0x1F41 JUMP JUMPDEST JUMPDEST SWAP1 PUSH1 0x0 MSTORE PUSH1 0x20 PUSH1 0x0 KECCAK256 ADD SWAP1 DUP1 SLOAD PUSH2 0xD0F SWAP1 PUSH2 0x1DEE JUMP JUMPDEST PUSH2 0xD1A SWAP3 SWAP2 SWAP1 PUSH2 0x12F3 JUMP JUMPDEST POP PUSH1 0x5 DUP1 SLOAD DUP1 PUSH2 0xD2D JUMPI PUSH2 0xD2C PUSH2 0x1F12 JUMP JUMPDEST JUMPDEST PUSH1 0x1 SWAP1 SUB DUP2 DUP2 SWAP1 PUSH1 0x0 MSTORE PUSH1 0x20 PUSH1 0x0 KECCAK256 ADD PUSH1 0x0 PUSH2 0xD49 SWAP2 SWAP1 PUSH2 0x1380 JUMP JUMPDEST SWAP1 SSTORE POP POP POP JUMP JUMPDEST PUSH1 0x0 PUSH2 0xD5B DUP3 PUSH2 0x1163 JUMP JUMPDEST SWAP1 POP PUSH1 0x0 DUP2 EQ ISZERO PUSH2 0xDA1 JUMPI PUSH1 0x40 MLOAD PUSH32 0x8C379A000000000000000000000000000000000000000000000000000000000 DUP2 MSTORE PUSH1 0x4 ADD PUSH2 0xD98 SWAP1 PUSH2 0x1ADE JUMP JUMPDEST PUSH1 0x40 MLOAD DUP1 SWAP2 SUB SWAP1 REVERT JUMPDEST DUP1 DUP1 PUSH2 0xDAC SWAP1 PUSH2 0x1DC4 JUMP JUMPDEST SWAP2 POP POP PUSH1 0x6 DUP3 SWAP1 DUP1 PUSH1 0x1 DUP2 SLOAD ADD DUP1 DUP3 SSTORE DUP1 SWAP2 POP POP PUSH1 0x1 SWAP1 SUB SWAP1 PUSH1 0x0 MSTORE PUSH1 0x20 PUSH1 0x0 KECCAK256 ADD PUSH1 0x0 SWAP1 SWAP2 SWAP1 SWAP2 SWAP1 SWAP2 PUSH2 0x100 EXP DUP2 SLOAD DUP2 PUSH20 0xFFFFFFFFFFFFFFFFFFFFFFFFFFFFFFFFFFFFFFFF MUL NOT AND SWAP1 DUP4 PUSH20 0xFFFFFFFFFFFFFFFFFFFFFFFFFFFFFFFFFFFFFFFF AND MUL OR SWAP1 SSTORE POP PUSH1 0x7 PUSH1 0x1 PUSH1 0x7 DUP1 SLOAD SWAP1 POP PUSH2 0xE26 SWAP2 SWAP1 PUSH2 0x1CBC JUMP JUMPDEST DUP2 SLOAD DUP2 LT PUSH2 0xE37 JUMPI PUSH2 0xE36 PUSH2 0x1F41 JUMP JUMPDEST JUMPDEST SWAP1 PUSH1 0x0 MSTORE PUSH1 0x20 PUSH1 0x0 KECCAK256 ADD PUSH1 0x0 SWAP1 SLOAD SWAP1 PUSH2 0x100 EXP SWAP1 DIV PUSH20 0xFFFFFFFFFFFFFFFFFFFFFFFFFFFFFFFFFFFFFFFF AND PUSH1 0x7 DUP3 DUP2 SLOAD DUP2 LT PUSH2 0xE76 JUMPI PUSH2 0xE75 PUSH2 0x1F41 JUMP JUMPDEST JUMPDEST SWAP1 PUSH1 0x0 MSTORE PUSH1 0x20 PUSH1 0x0 KECCAK256 ADD PUSH1 0x0 PUSH2 0x100 EXP DUP2 SLOAD DUP2 PUSH20 0xFFFFFFFFFFFFFFFFFFFFFFFFFFFFFFFFFFFFFFFF MUL NOT AND SWAP1 DUP4 PUSH20 0xFFFFFFFFFFFFFFFFFFFFFFFFFFFFFFFFFFFFFFFF AND MUL OR SWAP1 SSTORE POP PUSH1 0x7 DUP1 SLOAD DUP1 PUSH2 0xED0 JUMPI PUSH2 0xECF PUSH2 0x1F12 JUMP JUMPDEST JUMPDEST PUSH1 0x1 SWAP1 SUB DUP2 DUP2 SWAP1 PUSH1 0x0 MSTORE PUSH1 0x20 PUSH1 0x0 KECCAK256 ADD PUSH1 0x0 PUSH2 0x100 EXP DUP2 SLOAD SWAP1 PUSH20 0xFFFFFFFFFFFFFFFFFFFFFFFFFFFFFFFFFFFFFFFF MUL NOT AND SWAP1 SSTORE SWAP1 SSTORE POP POP JUMP JUMPDEST PUSH1 0x0 PUSH2 0xF14 DUP4 PUSH2 0x107C JUMP JUMPDEST SWAP1 POP DUP1 PUSH2 0x1077 JUMPI PUSH1 0x0 PUSH2 0xF26 DUP4 PUSH2 0xA12 JUMP JUMPDEST SWAP1 POP PUSH1 0x0 DUP2 EQ PUSH2 0xF6B JUMPI PUSH1 0x40 MLOAD PUSH32 0x8C379A000000000000000000000000000000000000000000000000000000000 DUP2 MSTORE PUSH1 0x4 ADD PUSH2 0xF62 SWAP1 PUSH2 0x1A5E JUMP JUMPDEST PUSH1 0x40 MLOAD DUP1 SWAP2 SUB SWAP1 REVERT JUMPDEST PUSH1 0x0 JUMPDEST PUSH1 0x4 DUP1 SLOAD SWAP1 POP DUP2 LT ISZERO PUSH2 0x1038 JUMPI DUP4 PUSH1 0x40 MLOAD PUSH1 0x20 ADD PUSH2 0xF8C SWAP2 SWAP1 PUSH2 0x198C JUMP JUMPDEST PUSH1 0x40 MLOAD PUSH1 0x20 DUP2 DUP4 SUB SUB DUP2 MSTORE SWAP1 PUSH1 0x40 MSTORE DUP1 MLOAD SWAP1 PUSH1 0x20 ADD KECCAK256 PUSH1 0x4 DUP3 DUP2 SLOAD DUP2 LT PUSH2 0xFB6 JUMPI PUSH2 0xFB5 PUSH2 0x1F41 JUMP JUMPDEST JUMPDEST SWAP1 PUSH1 0x0 MSTORE PUSH1 0x20 PUSH1 0x0 KECCAK256 ADD PUSH1 0x40 MLOAD PUSH1 0x20 ADD PUSH2 0xFD0 SWAP2 SWAP1 PUSH2 0x19A3 JUMP JUMPDEST PUSH1 0x40 MLOAD PUSH1 0x20 DUP2 DUP4 SUB SUB DUP2 MSTORE SWAP1 PUSH1 0x40 MSTORE DUP1 MLOAD SWAP1 PUSH1 0x20 ADD KECCAK256 EQ ISZERO PUSH2 0x1027 JUMPI PUSH1 0x40 MLOAD PUSH32 0x8C379A000000000000000000000000000000000000000000000000000000000 DUP2 MSTORE PUSH1 0x4 ADD PUSH2 0x101E SWAP1 PUSH2 0x1A3E JUMP JUMPDEST PUSH1 0x40 MLOAD DUP1 SWAP2 SUB SWAP1 REVERT JUMPDEST DUP1 PUSH2 0x1031 SWAP1 PUSH2 0x1E6B JUMP JUMPDEST SWAP1 POP PUSH2 0xF6E JUMP JUMPDEST POP PUSH1 0x5 DUP4 SWAP1 DUP1 PUSH1 0x1 DUP2 SLOAD ADD DUP1 DUP3 SSTORE DUP1 SWAP2 POP POP PUSH1 0x1 SWAP1 SUB SWAP1 PUSH1 0x0 MSTORE PUSH1 0x20 PUSH1 0x0 KECCAK256 ADD PUSH1 0x0 SWAP1 SWAP2 SWAP1 SWAP2 SWAP1 SWAP2 POP SWAP1 DUP1 MLOAD SWAP1 PUSH1 0x20 ADD SWAP1 PUSH2 0x1074 SWAP3 SWAP2 SWAP1 PUSH2 0x126D JUMP JUMPDEST POP POP JUMPDEST POP POP POP JUMP JUMPDEST PUSH1 0x0 PUSH1 0x1 SWAP1 POP PUSH1 0x0 JUMPDEST PUSH1 0x6 DUP1 SLOAD SWAP1 POP DUP2 LT ISZERO PUSH2 0x111C JUMPI DUP3 PUSH20 0xFFFFFFFFFFFFFFFFFFFFFFFFFFFFFFFFFFFFFFFF AND PUSH1 0x6 DUP3 DUP2 SLOAD DUP2 LT PUSH2 0x10BD JUMPI PUSH2 0x10BC PUSH2 0x1F41 JUMP JUMPDEST JUMPDEST SWAP1 PUSH1 0x0 MSTORE PUSH1 0x20 PUSH1 0x0 KECCAK256 ADD PUSH1 0x0 SWAP1 SLOAD SWAP1 PUSH2 0x100 EXP SWAP1 DIV PUSH20 0xFFFFFFFFFFFFFFFFFFFFFFFFFFFFFFFFFFFFFFFF AND PUSH20 0xFFFFFFFFFFFFFFFFFFFFFFFFFFFFFFFFFFFFFFFF AND EQ ISZERO PUSH2 0x1109 JUMPI PUSH1 0x0 SWAP2 POP JUMPDEST DUP1 DUP1 PUSH2 0x1114 SWAP1 PUSH2 0x1E6B JUMP JUMPDEST SWAP2 POP POP PUSH2 0x1085 JUMP JUMPDEST POP DUP1 ISZERO PUSH2 0x115E JUMPI PUSH1 0x40 MLOAD PUSH32 0x8C379A000000000000000000000000000000000000000000000000000000000 DUP2 MSTORE PUSH1 0x4 ADD PUSH2 0x1155 SWAP1 PUSH2 0x1A9E JUMP JUMPDEST PUSH1 0x40 MLOAD DUP1 SWAP2 SUB SWAP1 REVERT JUMPDEST SWAP2 SWAP1 POP JUMP JUMPDEST PUSH1 0x0 DUP1 PUSH1 0x0 SWAP1 POP JUMPDEST PUSH1 0x7 DUP1 SLOAD SWAP1 POP DUP2 LT ISZERO PUSH2 0x1210 JUMPI DUP3 PUSH20 0xFFFFFFFFFFFFFFFFFFFFFFFFFFFFFFFFFFFFFFFF AND PUSH1 0x7 DUP3 DUP2 SLOAD DUP2 LT PUSH2 0x11A3 JUMPI PUSH2 0x11A2 PUSH2 0x1F41 JUMP JUMPDEST JUMPDEST SWAP1 PUSH1 0x0 MSTORE PUSH1 0x20 PUSH1 0x0 KECCAK256 ADD PUSH1 0x0 SWAP1 SLOAD SWAP1 PUSH2 0x100 EXP SWAP1 DIV PUSH20 0xFFFFFFFFFFFFFFFFFFFFFFFFFFFFFFFFFFFFFFFF AND PUSH20 0xFFFFFFFFFFFFFFFFFFFFFFFFFFFFFFFFFFFFFFFF AND EQ ISZERO PUSH2 0x11FF JUMPI PUSH1 0x1 DUP2 PUSH2 0x11F7 SWAP2 SWAP1 PUSH2 0x1C66 JUMP JUMPDEST SWAP2 POP POP PUSH2 0x1216 JUMP JUMPDEST DUP1 PUSH2 0x1209 SWAP1 PUSH2 0x1E6B JUMP JUMPDEST SWAP1 POP PUSH2 0x116B JUMP JUMPDEST POP PUSH1 0x0 SWAP1 POP JUMPDEST SWAP2 SWAP1 POP JUMP JUMPDEST DUP3 DUP1 SLOAD DUP3 DUP3 SSTORE SWAP1 PUSH1 0x0 MSTORE PUSH1 0x20 PUSH1 0x0 KECCAK256 SWAP1 DUP2 ADD SWAP3 DUP3 ISZERO PUSH2 0x125C JUMPI PUSH1 0x0 MSTORE PUSH1 0x20 PUSH1 0x0 KECCAK256 SWAP2 DUP3 ADD JUMPDEST DUP3 DUP2 GT ISZERO PUSH2 0x125B JUMPI DUP3 SLOAD DUP3 SSTORE SWAP2 PUSH1 0x1 ADD SWAP2 SWAP1 PUSH1 0x1 ADD SWAP1 PUSH2 0x1240 JUMP JUMPDEST JUMPDEST POP SWAP1 POP PUSH2 0x1269 SWAP2 SWAP1 PUSH2 0x13C0 JUMP JUMPDEST POP SWAP1 JUMP JUMPDEST DUP3 DUP1 SLOAD PUSH2 0x1279 SWAP1 PUSH2 0x1DEE JUMP JUMPDEST SWAP1 PUSH1 0x0 MSTORE PUSH1 0x20 PUSH1 0x0 KECCAK256 SWAP1 PUSH1 0x1F ADD PUSH1 0x20 SWAP1 DIV DUP2 ADD SWAP3 DUP3 PUSH2 0x129B JUMPI PUSH1 0x0 DUP6 SSTORE PUSH2 0x12E2 JUMP JUMPDEST DUP3 PUSH1 0x1F LT PUSH2 0x12B4 JUMPI DUP1 MLOAD PUSH1 0xFF NOT AND DUP4 DUP1 ADD OR DUP6 SSTORE PUSH2 0x12E2 JUMP JUMPDEST DUP3 DUP1 ADD PUSH1 0x1 ADD DUP6 SSTORE DUP3 ISZERO PUSH2 0x12E2 JUMPI SWAP2 DUP3 ADD JUMPDEST DUP3 DUP2 GT ISZERO PUSH2 0x12E1 JUMPI DUP3 MLOAD DUP3 SSTORE SWAP2 PUSH1 0x20 ADD SWAP2 SWAP1 PUSH1 0x1 ADD SWAP1 PUSH2 0x12C6 JUMP JUMPDEST JUMPDEST POP SWAP1 POP PUSH2 0x12EF SWAP2 SWAP1 PUSH2 0x13C0 JUMP JUMPDEST POP SWAP1 JUMP JUMPDEST DUP3 DUP1 SLOAD PUSH2 0x12FF SWAP1 PUSH2 0x1DEE JUMP JUMPDEST SWAP1 PUSH1 0x0 MSTORE PUSH1 0x20 PUSH1 0x0 KECCAK256 SWAP1 PUSH1 0x1F ADD PUSH1 0x20 SWAP1 DIV DUP2 ADD SWAP3 DUP3 PUSH2 0x1321 JUMPI PUSH1 0x0 DUP6 SSTORE PUSH2 0x136F JUMP JUMPDEST DUP3 PUSH1 0x1F LT PUSH2 0x1332 JUMPI DUP1 SLOAD DUP6 SSTORE PUSH2 0x136F JUMP JUMPDEST DUP3 DUP1 ADD PUSH1 0x1 ADD DUP6 SSTORE DUP3 ISZERO PUSH2 0x136F JUMPI PUSH1 0x0 MSTORE PUSH1 0x20 PUSH1 0x0 KECCAK256 SWAP2 PUSH1 0x1F ADD PUSH1 0x20 SWAP1 DIV DUP3 ADD JUMPDEST DUP3 DUP2 GT ISZERO PUSH2 0x136E JUMPI DUP3 SLOAD DUP3 SSTORE SWAP2 PUSH1 0x1 ADD SWAP2 SWAP1 PUSH1 0x1 ADD SWAP1 PUSH2 0x1353 JUMP JUMPDEST JUMPDEST POP SWAP1 POP PUSH2 0x137C SWAP2 SWAP1 PUSH2 0x13C0 JUMP JUMPDEST POP SWAP1 JUMP JUMPDEST POP DUP1 SLOAD PUSH2 0x138C SWAP1 PUSH2 0x1DEE JUMP JUMPDEST PUSH1 0x0 DUP3 SSTORE DUP1 PUSH1 0x1F LT PUSH2 0x139E JUMPI POP PUSH2 0x13BD JUMP JUMPDEST PUSH1 0x1F ADD PUSH1 0x20 SWAP1 DIV SWAP1 PUSH1 0x0 MSTORE PUSH1 0x20 PUSH1 0x0 KECCAK256 SWAP1 DUP2 ADD SWAP1 PUSH2 0x13BC SWAP2 SWAP1 PUSH2 0x13C0 JUMP JUMPDEST JUMPDEST POP JUMP JUMPDEST JUMPDEST DUP1 DUP3 GT ISZERO PUSH2 0x13D9 JUMPI PUSH1 0x0 DUP2 PUSH1 0x0 SWAP1 SSTORE POP PUSH1 0x1 ADD PUSH2 0x13C1 JUMP JUMPDEST POP SWAP1 JUMP JUMPDEST PUSH1 0x0 PUSH2 0x13F0 PUSH2 0x13EB DUP5 PUSH2 0x1B3E JUMP JUMPDEST PUSH2 0x1B19 JUMP JUMPDEST SWAP1 POP DUP3 DUP2 MSTORE PUSH1 0x20 DUP2 ADD DUP5 DUP5 DUP5 ADD GT ISZERO PUSH2 0x140C JUMPI PUSH2 0x140B PUSH2 0x1FB7 JUMP JUMPDEST JUMPDEST PUSH2 0x1417 DUP5 DUP3 DUP6 PUSH2 0x1D82 JUMP JUMPDEST POP SWAP4 SWAP3 POP POP POP JUMP JUMPDEST PUSH1 0x0 DUP2 CALLDATALOAD SWAP1 POP PUSH2 0x142E DUP2 PUSH2 0x2152 JUMP JUMPDEST SWAP3 SWAP2 POP POP JUMP JUMPDEST PUSH1 0x0 DUP2 MLOAD SWAP1 POP PUSH2 0x1443 DUP2 PUSH2 0x2152 JUMP JUMPDEST SWAP3 SWAP2 POP POP JUMP JUMPDEST PUSH1 0x0 DUP2 CALLDATALOAD SWAP1 POP PUSH2 0x1458 DUP2 PUSH2 0x2169 JUMP JUMPDEST SWAP3 SWAP2 POP POP JUMP JUMPDEST PUSH1 0x0 DUP3 PUSH1 0x1F DUP4 ADD SLT PUSH2 0x1473 JUMPI PUSH2 0x1472 PUSH2 0x1FB2 JUMP JUMPDEST JUMPDEST DUP2 CALLDATALOAD PUSH2 0x1483 DUP5 DUP3 PUSH1 0x20 DUP7 ADD PUSH2 0x13DD JUMP JUMPDEST SWAP2 POP POP SWAP3 SWAP2 POP POP JUMP JUMPDEST PUSH1 0x0 PUSH1 0x20 DUP3 DUP5 SUB SLT ISZERO PUSH2 0x14A2 JUMPI PUSH2 0x14A1 PUSH2 0x1FC1 JUMP JUMPDEST JUMPDEST PUSH1 0x0 PUSH2 0x14B0 DUP5 DUP3 DUP6 ADD PUSH2 0x141F JUMP JUMPDEST SWAP2 POP POP SWAP3 SWAP2 POP POP JUMP JUMPDEST PUSH1 0x0 PUSH1 0x20 DUP3 DUP5 SUB SLT ISZERO PUSH2 0x14CF JUMPI PUSH2 0x14CE PUSH2 0x1FC1 JUMP JUMPDEST JUMPDEST PUSH1 0x0 PUSH2 0x14DD DUP5 DUP3 DUP6 ADD PUSH2 0x1434 JUMP JUMPDEST SWAP2 POP POP SWAP3 SWAP2 POP POP JUMP JUMPDEST PUSH1 0x0 DUP1 PUSH1 0x40 DUP4 DUP6 SUB SLT ISZERO PUSH2 0x14FD JUMPI PUSH2 0x14FC PUSH2 0x1FC1 JUMP JUMPDEST JUMPDEST PUSH1 0x0 PUSH2 0x150B DUP6 DUP3 DUP7 ADD PUSH2 0x141F JUMP JUMPDEST SWAP3 POP POP PUSH1 0x20 DUP4 ADD CALLDATALOAD PUSH8 0xFFFFFFFFFFFFFFFF DUP2 GT ISZERO PUSH2 0x152C JUMPI PUSH2 0x152B PUSH2 0x1FBC JUMP JUMPDEST JUMPDEST PUSH2 0x1538 DUP6 DUP3 DUP7 ADD PUSH2 0x145E JUMP JUMPDEST SWAP2 POP POP SWAP3 POP SWAP3 SWAP1 POP JUMP JUMPDEST PUSH1 0x0 DUP1 PUSH1 0x40 DUP4 DUP6 SUB SLT ISZERO PUSH2 0x1559 JUMPI PUSH2 0x1558 PUSH2 0x1FC1 JUMP JUMPDEST JUMPDEST PUSH1 0x0 PUSH2 0x1567 DUP6 DUP3 DUP7 ADD PUSH2 0x1449 JUMP JUMPDEST SWAP3 POP POP PUSH1 0x20 PUSH2 0x1578 DUP6 DUP3 DUP7 ADD PUSH2 0x1449 JUMP JUMPDEST SWAP2 POP POP SWAP3 POP SWAP3 SWAP1 POP JUMP JUMPDEST PUSH1 0x0 PUSH1 0x20 DUP3 DUP5 SUB SLT ISZERO PUSH2 0x1598 JUMPI PUSH2 0x1597 PUSH2 0x1FC1 JUMP JUMPDEST JUMPDEST PUSH1 0x0 DUP3 ADD CALLDATALOAD PUSH8 0xFFFFFFFFFFFFFFFF DUP2 GT ISZERO PUSH2 0x15B6 JUMPI PUSH2 0x15B5 PUSH2 0x1FBC JUMP JUMPDEST JUMPDEST PUSH2 0x15C2 DUP5 DUP3 DUP6 ADD PUSH2 0x145E JUMP JUMPDEST SWAP2 POP POP SWAP3 SWAP2 POP POP JUMP JUMPDEST PUSH1 0x0 PUSH2 0x15D7 DUP4 DUP4 PUSH2 0x160F JUMP JUMPDEST PUSH1 0x20 DUP4 ADD SWAP1 POP SWAP3 SWAP2 POP POP JUMP JUMPDEST PUSH1 0x0 PUSH2 0x15EF DUP4 DUP4 PUSH2 0x1756 JUMP JUMPDEST PUSH1 0x20 DUP4 ADD SWAP1 POP SWAP3 SWAP2 POP POP JUMP JUMPDEST PUSH1 0x0 PUSH2 0x1607 DUP4 DUP4 PUSH2 0x1765 JUMP JUMPDEST SWAP1 POP SWAP3 SWAP2 POP POP JUMP JUMPDEST PUSH2 0x1618 DUP2 PUSH2 0x1D10 JUMP JUMPDEST DUP3 MSTORE POP POP JUMP JUMPDEST PUSH1 0x0 PUSH2 0x1629 DUP3 PUSH2 0x1BB9 JUMP JUMPDEST PUSH2 0x1633 DUP2 DUP6 PUSH2 0x1C0C JUMP JUMPDEST SWAP4 POP PUSH2 0x163E DUP4 PUSH2 0x1B6F JUMP JUMPDEST DUP1 PUSH1 0x0 JUMPDEST DUP4 DUP2 LT ISZERO PUSH2 0x166F JUMPI DUP2 MLOAD PUSH2 0x1656 DUP9 DUP3 PUSH2 0x15CB JUMP JUMPDEST SWAP8 POP PUSH2 0x1661 DUP4 PUSH2 0x1BE5 JUMP JUMPDEST SWAP3 POP POP PUSH1 0x1 DUP2 ADD SWAP1 POP PUSH2 0x1642 JUMP JUMPDEST POP DUP6 SWAP4 POP POP POP POP SWAP3 SWAP2 POP POP JUMP JUMPDEST PUSH1 0x0 PUSH2 0x1687 DUP3 PUSH2 0x1BC4 JUMP JUMPDEST PUSH2 0x1691 DUP2 DUP6 PUSH2 0x1C1D JUMP JUMPDEST SWAP4 POP PUSH2 0x169C DUP4 PUSH2 0x1B7F JUMP JUMPDEST DUP1 PUSH1 0x0 JUMPDEST DUP4 DUP2 LT ISZERO PUSH2 0x16D4 JUMPI PUSH2 0x16B1 DUP3 PUSH2 0x1F9F JUMP JUMPDEST PUSH2 0x16BB DUP9 DUP3 PUSH2 0x15E3 JUMP JUMPDEST SWAP8 POP PUSH2 0x16C6 DUP4 PUSH2 0x1BF2 JUMP JUMPDEST SWAP3 POP POP PUSH1 0x1 DUP2 ADD SWAP1 POP PUSH2 0x16A0 JUMP JUMPDEST POP DUP6 SWAP4 POP POP POP POP SWAP3 SWAP2 POP POP JUMP JUMPDEST PUSH1 0x0 PUSH2 0x16EC DUP3 PUSH2 0x1BCF JUMP JUMPDEST PUSH2 0x16F6 DUP2 DUP6 PUSH2 0x1C28 JUMP JUMPDEST SWAP4 POP DUP4 PUSH1 0x20 DUP3 MUL DUP6 ADD PUSH2 0x1708 DUP6 PUSH2 0x1B94 JUMP JUMPDEST DUP1 PUSH1 0x0 JUMPDEST DUP6 DUP2 LT ISZERO PUSH2 0x1744 JUMPI DUP5 DUP5 SUB DUP10 MSTORE DUP2 MLOAD PUSH2 0x1725 DUP6 DUP3 PUSH2 0x15FB JUMP JUMPDEST SWAP5 POP PUSH2 0x1730 DUP4 PUSH2 0x1BFF JUMP JUMPDEST SWAP3 POP PUSH1 0x20 DUP11 ADD SWAP10 POP POP PUSH1 0x1 DUP2 ADD SWAP1 POP PUSH2 0x170C JUMP JUMPDEST POP DUP3 SWAP8 POP DUP8 SWAP6 POP POP POP POP POP POP SWAP3 SWAP2 POP POP JUMP JUMPDEST PUSH2 0x175F DUP2 PUSH2 0x1D5E JUMP JUMPDEST DUP3 MSTORE POP POP JUMP JUMPDEST PUSH1 0x0 PUSH2 0x1770 DUP3 PUSH2 0x1BDA JUMP JUMPDEST PUSH2 0x177A DUP2 DUP6 PUSH2 0x1C39 JUMP JUMPDEST SWAP4 POP PUSH2 0x178A DUP2 DUP6 PUSH1 0x20 DUP7 ADD PUSH2 0x1D91 JUMP JUMPDEST PUSH2 0x1793 DUP2 PUSH2 0x1FC6 JUMP JUMPDEST DUP5 ADD SWAP2 POP POP SWAP3 SWAP2 POP POP JUMP JUMPDEST PUSH1 0x0 PUSH2 0x17A9 DUP3 PUSH2 0x1BDA JUMP JUMPDEST PUSH2 0x17B3 DUP2 DUP6 PUSH2 0x1C5B JUMP JUMPDEST SWAP4 POP PUSH2 0x17C3 DUP2 DUP6 PUSH1 0x20 DUP7 ADD PUSH2 0x1D91 JUMP JUMPDEST DUP1 DUP5 ADD SWAP2 POP POP SWAP3 SWAP2 POP POP JUMP JUMPDEST PUSH1 0x0 DUP2 SLOAD PUSH2 0x17DC DUP2 PUSH2 0x1DEE JUMP JUMPDEST PUSH2 0x17E6 DUP2 DUP7 PUSH2 0x1C5B JUMP JUMPDEST SWAP5 POP PUSH1 0x1 DUP3 AND PUSH1 0x0 DUP2 EQ PUSH2 0x1801 JUMPI PUSH1 0x1 DUP2 EQ PUSH2 0x1812 JUMPI PUSH2 0x1845 JUMP JUMPDEST PUSH1 0xFF NOT DUP4 AND DUP7 MSTORE DUP2 DUP7 ADD SWAP4 POP PUSH2 0x1845 JUMP JUMPDEST PUSH2 0x181B DUP6 PUSH2 0x1BA4 JUMP JUMPDEST PUSH1 0x0 JUMPDEST DUP4 DUP2 LT ISZERO PUSH2 0x183D JUMPI DUP2 SLOAD DUP2 DUP10 ADD MSTORE PUSH1 0x1 DUP3 ADD SWAP2 POP PUSH1 0x20 DUP2 ADD SWAP1 POP PUSH2 0x181E JUMP JUMPDEST DUP4 DUP9 ADD SWAP6 POP POP POP JUMPDEST POP POP POP SWAP3 SWAP2 POP POP JUMP JUMPDEST PUSH1 0x0 PUSH2 0x185B PUSH1 0xE DUP4 PUSH2 0x1C4A JUMP JUMPDEST SWAP2 POP PUSH2 0x1866 DUP3 PUSH2 0x1FE4 JUMP JUMPDEST PUSH1 0x20 DUP3 ADD SWAP1 POP SWAP2 SWAP1 POP JUMP JUMPDEST PUSH1 0x0 PUSH2 0x187E PUSH1 0x1D DUP4 PUSH2 0x1C4A JUMP JUMPDEST SWAP2 POP PUSH2 0x1889 DUP3 PUSH2 0x200D JUMP JUMPDEST PUSH1 0x20 DUP3 ADD SWAP1 POP SWAP2 SWAP1 POP JUMP JUMPDEST PUSH1 0x0 PUSH2 0x18A1 PUSH1 0x1A DUP4 PUSH2 0x1C4A JUMP JUMPDEST SWAP2 POP PUSH2 0x18AC DUP3 PUSH2 0x2036 JUMP JUMPDEST PUSH1 0x20 DUP3 ADD SWAP1 POP SWAP2 SWAP1 POP JUMP JUMPDEST PUSH1 0x0 PUSH2 0x18C4 PUSH1 0x22 DUP4 PUSH2 0x1C4A JUMP JUMPDEST SWAP2 POP PUSH2 0x18CF DUP3 PUSH2 0x205F JUMP JUMPDEST PUSH1 0x40 DUP3 ADD SWAP1 POP SWAP2 SWAP1 POP JUMP JUMPDEST PUSH1 0x0 PUSH2 0x18E7 PUSH1 0x16 DUP4 PUSH2 0x1C4A JUMP JUMPDEST SWAP2 POP PUSH2 0x18F2 DUP3 PUSH2 0x20AE JUMP JUMPDEST PUSH1 0x20 DUP3 ADD SWAP1 POP SWAP2 SWAP1 POP JUMP JUMPDEST PUSH1 0x0 PUSH2 0x190A PUSH1 0x12 DUP4 PUSH2 0x1C4A JUMP JUMPDEST SWAP2 POP PUSH2 0x1915 DUP3 PUSH2 0x20D7 JUMP JUMPDEST PUSH1 0x20 DUP3 ADD SWAP1 POP SWAP2 SWAP1 POP JUMP JUMPDEST PUSH1 0x0 PUSH2 0x192D PUSH1 0x1E DUP4 PUSH2 0x1C4A JUMP JUMPDEST SWAP2 POP PUSH2 0x1938 DUP3 PUSH2 0x2100 JUMP JUMPDEST PUSH1 0x20 DUP3 ADD SWAP1 POP SWAP2 SWAP1 POP JUMP JUMPDEST PUSH1 0x0 PUSH2 0x1950 PUSH1 0x19 DUP4 PUSH2 0x1C4A JUMP JUMPDEST SWAP2 POP PUSH2 0x195B DUP3 PUSH2 0x2129 JUMP JUMPDEST PUSH1 0x20 DUP3 ADD SWAP1 POP SWAP2 SWAP1 POP JUMP JUMPDEST PUSH2 0x196F DUP2 PUSH2 0x1D54 JUMP JUMPDEST DUP3 MSTORE POP POP JUMP JUMPDEST PUSH1 0x0 PUSH2 0x1981 DUP3 DUP5 PUSH2 0x167C JUMP JUMPDEST SWAP2 POP DUP2 SWAP1 POP SWAP3 SWAP2 POP POP JUMP JUMPDEST PUSH1 0x0 PUSH2 0x1998 DUP3 DUP5 PUSH2 0x179E JUMP JUMPDEST SWAP2 POP DUP2 SWAP1 POP SWAP3 SWAP2 POP POP JUMP JUMPDEST PUSH1 0x0 PUSH2 0x19AF DUP3 DUP5 PUSH2 0x17CF JUMP JUMPDEST SWAP2 POP DUP2 SWAP1 POP SWAP3 SWAP2 POP POP JUMP JUMPDEST PUSH1 0x0 PUSH1 0x20 DUP3 ADD SWAP1 POP DUP2 DUP2 SUB PUSH1 0x0 DUP4 ADD MSTORE PUSH2 0x19D4 DUP2 DUP5 PUSH2 0x161E JUMP JUMPDEST SWAP1 POP SWAP3 SWAP2 POP POP JUMP JUMPDEST PUSH1 0x0 PUSH1 0x20 DUP3 ADD SWAP1 POP DUP2 DUP2 SUB PUSH1 0x0 DUP4 ADD MSTORE PUSH2 0x19F6 DUP2 DUP5 PUSH2 0x16E1 JUMP JUMPDEST SWAP1 POP SWAP3 SWAP2 POP POP JUMP JUMPDEST PUSH1 0x0 PUSH1 0x20 DUP3 ADD SWAP1 POP DUP2 DUP2 SUB PUSH1 0x0 DUP4 ADD MSTORE PUSH2 0x1A17 DUP2 PUSH2 0x184E JUMP JUMPDEST SWAP1 POP SWAP2 SWAP1 POP JUMP JUMPDEST PUSH1 0x0 PUSH1 0x20 DUP3 ADD SWAP1 POP DUP2 DUP2 SUB PUSH1 0x0 DUP4 ADD MSTORE PUSH2 0x1A37 DUP2 PUSH2 0x1871 JUMP JUMPDEST SWAP1 POP SWAP2 SWAP1 POP JUMP JUMPDEST PUSH1 0x0 PUSH1 0x20 DUP3 ADD SWAP1 POP DUP2 DUP2 SUB PUSH1 0x0 DUP4 ADD MSTORE PUSH2 0x1A57 DUP2 PUSH2 0x1894 JUMP JUMPDEST SWAP1 POP SWAP2 SWAP1 POP JUMP JUMPDEST PUSH1 0x0 PUSH1 0x20 DUP3 ADD SWAP1 POP DUP2 DUP2 SUB PUSH1 0x0 DUP4 ADD MSTORE PUSH2 0x1A77 DUP2 PUSH2 0x18B7 JUMP JUMPDEST SWAP1 POP SWAP2 SWAP1 POP JUMP JUMPDEST PUSH1 0x0 PUSH1 0x20 DUP3 ADD SWAP1 POP DUP2 DUP2 SUB PUSH1 0x0 DUP4 ADD MSTORE PUSH2 0x1A97 DUP2 PUSH2 0x18DA JUMP JUMPDEST SWAP1 POP SWAP2 SWAP1 POP JUMP JUMPDEST PUSH1 0x0 PUSH1 0x20 DUP3 ADD SWAP1 POP DUP2 DUP2 SUB PUSH1 0x0 DUP4 ADD MSTORE PUSH2 0x1AB7 DUP2 PUSH2 0x18FD JUMP JUMPDEST SWAP1 POP SWAP2 SWAP1 POP JUMP JUMPDEST PUSH1 0x0 PUSH1 0x20 DUP3 ADD SWAP1 POP DUP2 DUP2 SUB PUSH1 0x0 DUP4 ADD MSTORE PUSH2 0x1AD7 DUP2 PUSH2 0x1920 JUMP JUMPDEST SWAP1 POP SWAP2 SWAP1 POP JUMP JUMPDEST PUSH1 0x0 PUSH1 0x20 DUP3 ADD SWAP1 POP DUP2 DUP2 SUB PUSH1 0x0 DUP4 ADD MSTORE PUSH2 0x1AF7 DUP2 PUSH2 0x1943 JUMP JUMPDEST SWAP1 POP SWAP2 SWAP1 POP JUMP JUMPDEST PUSH1 0x0 PUSH1 0x20 DUP3 ADD SWAP1 POP PUSH2 0x1B13 PUSH1 0x0 DUP4 ADD DUP5 PUSH2 0x1966 JUMP JUMPDEST SWAP3 SWAP2 POP POP JUMP JUMPDEST PUSH1 0x0 PUSH2 0x1B23 PUSH2 0x1B34 JUMP JUMPDEST SWAP1 POP PUSH2 0x1B2F DUP3 DUP3 PUSH2 0x1E3A JUMP JUMPDEST SWAP2 SWAP1 POP JUMP JUMPDEST PUSH1 0x0 PUSH1 0x40 MLOAD SWAP1 POP SWAP1 JUMP JUMPDEST PUSH1 0x0 PUSH8 0xFFFFFFFFFFFFFFFF DUP3 GT ISZERO PUSH2 0x1B59 JUMPI PUSH2 0x1B58 PUSH2 0x1F70 JUMP JUMPDEST JUMPDEST PUSH2 0x1B62 DUP3 PUSH2 0x1FC6 JUMP JUMPDEST SWAP1 POP PUSH1 0x20 DUP2 ADD SWAP1 POP SWAP2 SWAP1 POP JUMP JUMPDEST PUSH1 0x0 DUP2 SWAP1 POP PUSH1 0x20 DUP3 ADD SWAP1 POP SWAP2 SWAP1 POP JUMP JUMPDEST PUSH1 0x0 DUP2 SWAP1 POP DUP2 PUSH1 0x0 MSTORE PUSH1 0x20 PUSH1 0x0 KECCAK256 SWAP1 POP SWAP2 SWAP1 POP JUMP JUMPDEST PUSH1 0x0 DUP2 SWAP1 POP PUSH1 0x20 DUP3 ADD SWAP1 POP SWAP2 SWAP1 POP JUMP JUMPDEST PUSH1 0x0 DUP2 SWAP1 POP DUP2 PUSH1 0x0 MSTORE PUSH1 0x20 PUSH1 0x0 KECCAK256 SWAP1 POP SWAP2 SWAP1 POP JUMP JUMPDEST PUSH1 0x0 DUP2 MLOAD SWAP1 POP SWAP2 SWAP1 POP JUMP JUMPDEST PUSH1 0x0 DUP2 SLOAD SWAP1 POP SWAP2 SWAP1 POP JUMP JUMPDEST PUSH1 0x0 DUP2 MLOAD SWAP1 POP SWAP2 SWAP1 POP JUMP JUMPDEST PUSH1 0x0 DUP2 MLOAD SWAP1 POP SWAP2 SWAP1 POP JUMP JUMPDEST PUSH1 0x0 PUSH1 0x20 DUP3 ADD SWAP1 POP SWAP2 SWAP1 POP JUMP JUMPDEST PUSH1 0x0 PUSH1 0x1 DUP3 ADD SWAP1 POP SWAP2 SWAP1 POP JUMP JUMPDEST PUSH1 0x0 PUSH1 0x20 DUP3 ADD SWAP1 POP SWAP2 SWAP1 POP JUMP JUMPDEST PUSH1 0x0 DUP3 DUP3 MSTORE PUSH1 0x20 DUP3 ADD SWAP1 POP SWAP3 SWAP2 POP POP JUMP JUMPDEST PUSH1 0x0 DUP2 SWAP1 POP SWAP3 SWAP2 POP POP JUMP JUMPDEST PUSH1 0x0 DUP3 DUP3 MSTORE PUSH1 0x20 DUP3 ADD SWAP1 POP SWAP3 SWAP2 POP POP JUMP JUMPDEST PUSH1 0x0 DUP3 DUP3 MSTORE PUSH1 0x20 DUP3 ADD SWAP1 POP SWAP3 SWAP2 POP POP JUMP JUMPDEST PUSH1 0x0 DUP3 DUP3 MSTORE PUSH1 0x20 DUP3 ADD SWAP1 POP SWAP3 SWAP2 POP POP JUMP JUMPDEST PUSH1 0x0 DUP2 SWAP1 POP SWAP3 SWAP2 POP POP JUMP JUMPDEST PUSH1 0x0 PUSH2 0x1C71 DUP3 PUSH2 0x1D54 JUMP JUMPDEST SWAP2 POP PUSH2 0x1C7C DUP4 PUSH2 0x1D54 JUMP JUMPDEST SWAP3 POP DUP3 PUSH32 0xFFFFFFFFFFFFFFFFFFFFFFFFFFFFFFFFFFFFFFFFFFFFFFFFFFFFFFFFFFFFFFFF SUB DUP3 GT ISZERO PUSH2 0x1CB1 JUMPI PUSH2 0x1CB0 PUSH2 0x1EB4 JUMP JUMPDEST JUMPDEST DUP3 DUP3 ADD SWAP1 POP SWAP3 SWAP2 POP POP JUMP JUMPDEST PUSH1 0x0 PUSH2 0x1CC7 DUP3 PUSH2 0x1D54 JUMP JUMPDEST SWAP2 POP PUSH2 0x1CD2 DUP4 PUSH2 0x1D54 JUMP JUMPDEST SWAP3 POP DUP3 DUP3 LT ISZERO PUSH2 0x1CE5 JUMPI PUSH2 0x1CE4 PUSH2 0x1EB4 JUMP JUMPDEST JUMPDEST DUP3 DUP3 SUB SWAP1 POP SWAP3 SWAP2 POP POP JUMP JUMPDEST PUSH1 0x0 PUSH20 0xFFFFFFFFFFFFFFFFFFFFFFFFFFFFFFFFFFFFFFFF DUP3 AND SWAP1 POP SWAP2 SWAP1 POP JUMP JUMPDEST PUSH1 0x0 PUSH2 0x1D1B DUP3 PUSH2 0x1D34 JUMP JUMPDEST SWAP1 POP SWAP2 SWAP1 POP JUMP JUMPDEST PUSH1 0x0 PUSH2 0x1D2D DUP3 PUSH2 0x1D10 JUMP JUMPDEST SWAP1 POP SWAP2 SWAP1 POP JUMP JUMPDEST PUSH1 0x0 PUSH20 0xFFFFFFFFFFFFFFFFFFFFFFFFFFFFFFFFFFFFFFFF DUP3 AND SWAP1 POP SWAP2 SWAP1 POP JUMP JUMPDEST PUSH1 0x0 DUP2 SWAP1 POP SWAP2 SWAP1 POP JUMP JUMPDEST PUSH1 0x0 PUSH2 0x1D69 DUP3 PUSH2 0x1D70 JUMP JUMPDEST SWAP1 POP SWAP2 SWAP1 POP JUMP JUMPDEST PUSH1 0x0 PUSH2 0x1D7B DUP3 PUSH2 0x1D34 JUMP JUMPDEST SWAP1 POP SWAP2 SWAP1 POP JUMP JUMPDEST DUP3 DUP2 DUP4 CALLDATACOPY PUSH1 0x0 DUP4 DUP4 ADD MSTORE POP POP POP JUMP JUMPDEST PUSH1 0x0 JUMPDEST DUP4 DUP2 LT ISZERO PUSH2 0x1DAF JUMPI DUP1 DUP3 ADD MLOAD DUP2 DUP5 ADD MSTORE PUSH1 0x20 DUP2 ADD SWAP1 POP PUSH2 0x1D94 JUMP JUMPDEST DUP4 DUP2 GT ISZERO PUSH2 0x1DBE JUMPI PUSH1 0x0 DUP5 DUP5 ADD MSTORE JUMPDEST POP POP POP POP JUMP JUMPDEST PUSH1 0x0 PUSH2 0x1DCF DUP3 PUSH2 0x1D54 JUMP JUMPDEST SWAP2 POP PUSH1 0x0 DUP3 EQ ISZERO PUSH2 0x1DE3 JUMPI PUSH2 0x1DE2 PUSH2 0x1EB4 JUMP JUMPDEST JUMPDEST PUSH1 0x1 DUP3 SUB SWAP1 POP SWAP2 SWAP1 POP JUMP JUMPDEST PUSH1 0x0 PUSH1 0x2 DUP3 DIV SWAP1 POP PUSH1 0x1 DUP3 AND DUP1 PUSH2 0x1E06 JUMPI PUSH1 0x7F DUP3 AND SWAP2 POP JUMPDEST PUSH1 0x20 DUP3 LT DUP2 EQ ISZERO PUSH2 0x1E1A JUMPI PUSH2 0x1E19 PUSH2 0x1EE3 JUMP JUMPDEST JUMPDEST POP SWAP2 SWAP1 POP JUMP JUMPDEST PUSH1 0x0 PUSH2 0x1E33 PUSH2 0x1E2E DUP4 PUSH2 0x1FD7 JUMP JUMPDEST PUSH2 0x1CF0 JUMP JUMPDEST SWAP1 POP SWAP2 SWAP1 POP JUMP JUMPDEST PUSH2 0x1E43 DUP3 PUSH2 0x1FC6 JUMP JUMPDEST DUP2 ADD DUP2 DUP2 LT PUSH8 0xFFFFFFFFFFFFFFFF DUP3 GT OR ISZERO PUSH2 0x1E62 JUMPI PUSH2 0x1E61 PUSH2 0x1F70 JUMP JUMPDEST JUMPDEST DUP1 PUSH1 0x40 MSTORE POP POP POP JUMP JUMPDEST PUSH1 0x0 PUSH2 0x1E76 DUP3 PUSH2 0x1D54 JUMP JUMPDEST SWAP2 POP PUSH32 0xFFFFFFFFFFFFFFFFFFFFFFFFFFFFFFFFFFFFFFFFFFFFFFFFFFFFFFFFFFFFFFFF DUP3 EQ ISZERO PUSH2 0x1EA9 JUMPI PUSH2 0x1EA8 PUSH2 0x1EB4 JUMP JUMPDEST JUMPDEST PUSH1 0x1 DUP3 ADD SWAP1 POP SWAP2 SWAP1 POP JUMP JUMPDEST PUSH32 0x4E487B7100000000000000000000000000000000000000000000000000000000 PUSH1 0x0 MSTORE PUSH1 0x11 PUSH1 0x4 MSTORE PUSH1 0x24 PUSH1 0x0 REVERT JUMPDEST PUSH32 0x4E487B7100000000000000000000000000000000000000000000000000000000 PUSH1 0x0 MSTORE PUSH1 0x22 PUSH1 0x4 MSTORE PUSH1 0x24 PUSH1 0x0 REVERT JUMPDEST PUSH32 0x4E487B7100000000000000000000000000000000000000000000000000000000 PUSH1 0x0 MSTORE PUSH1 0x31 PUSH1 0x4 MSTORE PUSH1 0x24 PUSH1 0x0 REVERT JUMPDEST PUSH32 0x4E487B7100000000000000000000000000000000000000000000000000000000 PUSH1 0x0 MSTORE PUSH1 0x32 PUSH1 0x4 MSTORE PUSH1 0x24 PUSH1 0x0 REVERT JUMPDEST PUSH32 0x4E487B7100000000000000000000000000000000000000000000000000000000 PUSH1 0x0 MSTORE PUSH1 0x41 PUSH1 0x4 MSTORE PUSH1 0x24 PUSH1 0x0 REVERT JUMPDEST PUSH1 0x0 PUSH2 0x1FAB DUP3 SLOAD PUSH2 0x1E20 JUMP JUMPDEST SWAP1 POP SWAP2 SWAP1 POP JUMP JUMPDEST PUSH1 0x0 DUP1 REVERT JUMPDEST PUSH1 0x0 DUP1 REVERT JUMPDEST PUSH1 0x0 DUP1 REVERT JUMPDEST PUSH1 0x0 DUP1 REVERT JUMPDEST PUSH1 0x0 PUSH1 0x1F NOT PUSH1 0x1F DUP4 ADD AND SWAP1 POP SWAP2 SWAP1 POP JUMP JUMPDEST PUSH1 0x0 DUP2 PUSH1 0x0 SHR SWAP1 POP SWAP2 SWAP1 POP JUMP JUMPDEST PUSH32 0x616C72656164792073636F726564000000000000000000000000000000000000 PUSH1 0x0 DUP3 ADD MSTORE POP JUMP JUMPDEST PUSH32 0x7573657220616C726561647920696E2077616974696E67206172726179000000 PUSH1 0x0 DUP3 ADD MSTORE POP JUMP JUMPDEST PUSH32 0x69706673206861736820616C726561647920696E206172726179000000000000 PUSH1 0x0 DUP3 ADD MSTORE POP JUMP JUMPDEST PUSH32 0x69706673206861736820616C726561647920696E2077616974696E6720617272 PUSH1 0x0 DUP3 ADD MSTORE PUSH32 0x6179000000000000000000000000000000000000000000000000000000000000 PUSH1 0x20 DUP3 ADD MSTORE POP JUMP JUMPDEST PUSH32 0x796F75206172652070726F6A656374206D656D62657200000000000000000000 PUSH1 0x0 DUP3 ADD MSTORE POP JUMP JUMPDEST PUSH32 0x6E6F742070726F6A656374206D656D6265720000000000000000000000000000 PUSH1 0x0 DUP3 ADD MSTORE POP JUMP JUMPDEST PUSH32 0x697066732068617368206E6F7420696E2077616974696E672061727261790000 PUSH1 0x0 DUP3 ADD MSTORE POP JUMP JUMPDEST PUSH32 0x75736572206E6F7420696E2077616974696E6720617272617900000000000000 PUSH1 0x0 DUP3 ADD MSTORE POP JUMP JUMPDEST PUSH2 0x215B DUP2 PUSH2 0x1D10 JUMP JUMPDEST DUP2 EQ PUSH2 0x2166 JUMPI PUSH1 0x0 DUP1 REVERT JUMPDEST POP JUMP JUMPDEST PUSH2 0x2172 DUP2 PUSH2 0x1D22 JUMP JUMPDEST DUP2 EQ PUSH2 0x217D JUMPI PUSH1 0x0 DUP1 REVERT JUMPDEST POP JUMP INVALID LOG2 PUSH5 0x6970667358 0x22 SLT KECCAK256 SWAP5 PUSH29 0x2CAB9BCE1986B42C56D3F6E33425441027AA516E38FA020CD880CC6F33 0xD PUSH5 0x736F6C6343 STOP ADDMOD MOD STOP CALLER PUSH1 0x80 PUSH1 0x40 MSTORE CALLVALUE DUP1 ISZERO PUSH3 0x11 JUMPI PUSH1 0x0 DUP1 REVERT JUMPDEST POP PUSH1 0x40 MLOAD PUSH3 0xAB0 CODESIZE SUB DUP1 PUSH3 0xAB0 DUP4 CODECOPY DUP2 DUP2 ADD PUSH1 0x40 MSTORE DUP2 ADD SWAP1 PUSH3 0x37 SWAP2 SWAP1 PUSH3 0x1ED JUMP JUMPDEST DUP2 PUSH1 0x0 DUP1 PUSH2 0x100 EXP DUP2 SLOAD DUP2 PUSH20 0xFFFFFFFFFFFFFFFFFFFFFFFFFFFFFFFFFFFFFFFF MUL NOT AND SWAP1 DUP4 PUSH20 0xFFFFFFFFFFFFFFFFFFFFFFFFFFFFFFFFFFFFFFFF AND MUL OR SWAP1 SSTORE POP DUP1 PUSH1 0x1 SWAP1 DUP1 MLOAD SWAP1 PUSH1 0x20 ADD SWAP1 PUSH3 0x8F SWAP3 SWAP2 SWAP1 PUSH3 0xA8 JUMP JUMPDEST POP PUSH1 0x1 PUSH1 0x2 DUP2 SWAP1 SSTORE POP PUSH1 0x1 PUSH1 0x3 DUP2 SWAP1 SSTORE POP POP POP PUSH3 0x425 JUMP JUMPDEST DUP3 DUP1 SLOAD PUSH3 0xB6 SWAP1 PUSH3 0x31C JUMP JUMPDEST SWAP1 PUSH1 0x0 MSTORE PUSH1 0x20 PUSH1 0x0 KECCAK256 SWAP1 PUSH1 0x1F ADD PUSH1 0x20 SWAP1 DIV DUP2 ADD SWAP3 DUP3 PUSH3 0xDA JUMPI PUSH1 0x0 DUP6 SSTORE PUSH3 0x126 JUMP JUMPDEST DUP3 PUSH1 0x1F LT PUSH3 0xF5 JUMPI DUP1 MLOAD PUSH1 0xFF NOT AND DUP4 DUP1 ADD OR DUP6 SSTORE PUSH3 0x126 JUMP JUMPDEST DUP3 DUP1 ADD PUSH1 0x1 ADD DUP6 SSTORE DUP3 ISZERO PUSH3 0x126 JUMPI SWAP2 DUP3 ADD JUMPDEST DUP3 DUP2 GT ISZERO PUSH3 0x125 JUMPI DUP3 MLOAD DUP3 SSTORE SWAP2 PUSH1 0x20 ADD SWAP2 SWAP1 PUSH1 0x1 ADD SWAP1 PUSH3 0x108 JUMP JUMPDEST JUMPDEST POP SWAP1 POP PUSH3 0x135 SWAP2 SWAP1 PUSH3 0x139 JUMP JUMPDEST POP SWAP1 JUMP JUMPDEST JUMPDEST DUP1 DUP3 GT ISZERO PUSH3 0x154 JUMPI PUSH1 0x0 DUP2 PUSH1 0x0 SWAP1 SSTORE POP PUSH1 0x1 ADD PUSH3 0x13A JUMP JUMPDEST POP SWAP1 JUMP JUMPDEST PUSH1 0x0 PUSH3 0x16F PUSH3 0x169 DUP5 PUSH3 0x27C JUMP JUMPDEST PUSH3 0x253 JUMP JUMPDEST SWAP1 POP DUP3 DUP2 MSTORE PUSH1 0x20 DUP2 ADD DUP5 DUP5 DUP5 ADD GT ISZERO PUSH3 0x18E JUMPI PUSH3 0x18D PUSH3 0x3EB JUMP JUMPDEST JUMPDEST PUSH3 0x19B DUP5 DUP3 DUP6 PUSH3 0x2E6 JUMP JUMPDEST POP SWAP4 SWAP3 POP POP POP JUMP JUMPDEST PUSH1 0x0 DUP2 MLOAD SWAP1 POP PUSH3 0x1B4 DUP2 PUSH3 0x40B JUMP JUMPDEST SWAP3 SWAP2 POP POP JUMP JUMPDEST PUSH1 0x0 DUP3 PUSH1 0x1F DUP4 ADD SLT PUSH3 0x1D2 JUMPI PUSH3 0x1D1 PUSH3 0x3E6 JUMP JUMPDEST JUMPDEST DUP2 MLOAD PUSH3 0x1E4 DUP5 DUP3 PUSH1 0x20 DUP7 ADD PUSH3 0x158 JUMP JUMPDEST SWAP2 POP POP SWAP3 SWAP2 POP POP JUMP JUMPDEST PUSH1 0x0 DUP1 PUSH1 0x40 DUP4 DUP6 SUB SLT ISZERO PUSH3 0x207 JUMPI PUSH3 0x206 PUSH3 0x3F5 JUMP JUMPDEST JUMPDEST PUSH1 0x0 PUSH3 0x217 DUP6 DUP3 DUP7 ADD PUSH3 0x1A3 JUMP JUMPDEST SWAP3 POP POP PUSH1 0x20 DUP4 ADD MLOAD PUSH8 0xFFFFFFFFFFFFFFFF DUP2 GT ISZERO PUSH3 0x23B JUMPI PUSH3 0x23A PUSH3 0x3F0 JUMP JUMPDEST JUMPDEST PUSH3 0x249 DUP6 DUP3 DUP7 ADD PUSH3 0x1BA JUMP JUMPDEST SWAP2 POP POP SWAP3 POP SWAP3 SWAP1 POP JUMP JUMPDEST PUSH1 0x0 PUSH3 0x25F PUSH3 0x272 JUMP JUMPDEST SWAP1 POP PUSH3 0x26D DUP3 DUP3 PUSH3 0x352 JUMP JUMPDEST SWAP2 SWAP1 POP JUMP JUMPDEST PUSH1 0x0 PUSH1 0x40 MLOAD SWAP1 POP SWAP1 JUMP JUMPDEST PUSH1 0x0 PUSH8 0xFFFFFFFFFFFFFFFF DUP3 GT ISZERO PUSH3 0x29A JUMPI PUSH3 0x299 PUSH3 0x3B7 JUMP JUMPDEST JUMPDEST PUSH3 0x2A5 DUP3 PUSH3 0x3FA JUMP JUMPDEST SWAP1 POP PUSH1 0x20 DUP2 ADD SWAP1 POP SWAP2 SWAP1 POP JUMP JUMPDEST PUSH1 0x0 PUSH3 0x2BF DUP3 PUSH3 0x2C6 JUMP JUMPDEST SWAP1 POP SWAP2 SWAP1 POP JUMP JUMPDEST PUSH1 0x0 PUSH20 0xFFFFFFFFFFFFFFFFFFFFFFFFFFFFFFFFFFFFFFFF DUP3 AND SWAP1 POP SWAP2 SWAP1 POP JUMP JUMPDEST PUSH1 0x0 JUMPDEST DUP4 DUP2 LT ISZERO PUSH3 0x306 JUMPI DUP1 DUP3 ADD MLOAD DUP2 DUP5 ADD MSTORE PUSH1 0x20 DUP2 ADD SWAP1 POP PUSH3 0x2E9 JUMP JUMPDEST DUP4 DUP2 GT ISZERO PUSH3 0x316 JUMPI PUSH1 0x0 DUP5 DUP5 ADD MSTORE JUMPDEST POP POP POP POP JUMP JUMPDEST PUSH1 0x0 PUSH1 0x2 DUP3 DIV SWAP1 POP PUSH1 0x1 DUP3 AND DUP1 PUSH3 0x335 JUMPI PUSH1 0x7F DUP3 AND SWAP2 POP JUMPDEST PUSH1 0x20 DUP3 LT DUP2 EQ ISZERO PUSH3 0x34C JUMPI PUSH3 0x34B PUSH3 0x388 JUMP JUMPDEST JUMPDEST POP SWAP2 SWAP1 POP JUMP JUMPDEST PUSH3 0x35D DUP3 PUSH3 0x3FA JUMP JUMPDEST DUP2 ADD DUP2 DUP2 LT PUSH8 0xFFFFFFFFFFFFFFFF DUP3 GT OR ISZERO PUSH3 0x37F JUMPI PUSH3 0x37E PUSH3 0x3B7 JUMP JUMPDEST JUMPDEST DUP1 PUSH1 0x40 MSTORE POP POP POP JUMP JUMPDEST PUSH32 0x4E487B7100000000000000000000000000000000000000000000000000000000 PUSH1 0x0 MSTORE PUSH1 0x22 PUSH1 0x4 MSTORE PUSH1 0x24 PUSH1 0x0 REVERT JUMPDEST PUSH32 0x4E487B7100000000000000000000000000000000000000000000000000000000 PUSH1 0x0 MSTORE PUSH1 0x41 PUSH1 0x4 MSTORE PUSH1 0x24 PUSH1 0x0 REVERT JUMPDEST PUSH1 0x0 DUP1 REVERT JUMPDEST PUSH1 0x0 DUP1 REVERT JUMPDEST PUSH1 0x0 DUP1 REVERT JUMPDEST PUSH1 0x0 DUP1 REVERT JUMPDEST PUSH1 0x0 PUSH1 0x1F NOT PUSH1 0x1F DUP4 ADD AND SWAP1 POP SWAP2 SWAP1 POP JUMP JUMPDEST PUSH3 0x416 DUP2 PUSH3 0x2B2 JUMP JUMPDEST DUP2 EQ PUSH3 0x422 JUMPI PUSH1 0x0 DUP1 REVERT JUMPDEST POP JUMP JUMPDEST PUSH2 0x67B DUP1 PUSH3 0x435 PUSH1 0x0 CODECOPY PUSH1 0x0 RETURN INVALID PUSH1 0x80 PUSH1 0x40 MSTORE CALLVALUE DUP1 ISZERO PUSH2 0x10 JUMPI PUSH1 0x0 DUP1 REVERT JUMPDEST POP PUSH1 0x4 CALLDATASIZE LT PUSH2 0x7C JUMPI PUSH1 0x0 CALLDATALOAD PUSH1 0xE0 SHR DUP1 PUSH4 0x2DB9A512 GT PUSH2 0x5B JUMPI DUP1 PUSH4 0x2DB9A512 EQ PUSH2 0xD9 JUMPI DUP1 PUSH4 0xA74C2BB6 EQ PUSH2 0xF7 JUMPI DUP1 PUSH4 0xBE4A92AB EQ PUSH2 0x115 JUMPI DUP1 PUSH4 0xCF91B3B5 EQ PUSH2 0x131 JUMPI PUSH2 0x7C JUMP JUMPDEST DUP1 PUSH3 0xAFFC2F EQ PUSH2 0x81 JUMPI DUP1 PUSH4 0x8571011 EQ PUSH2 0x9D JUMPI DUP1 PUSH4 0x17D7DE7C EQ PUSH2 0xBB JUMPI JUMPDEST PUSH1 0x0 DUP1 REVERT JUMPDEST PUSH2 0x9B PUSH1 0x4 DUP1 CALLDATASIZE SUB DUP2 ADD SWAP1 PUSH2 0x96 SWAP2 SWAP1 PUSH2 0x364 JUMP JUMPDEST PUSH2 0x14D JUMP JUMPDEST STOP JUMPDEST PUSH2 0xA5 PUSH2 0x242 JUMP JUMPDEST PUSH1 0x40 MLOAD PUSH2 0xB2 SWAP2 SWAP1 PUSH2 0x4A8 JUMP JUMPDEST PUSH1 0x40 MLOAD DUP1 SWAP2 SUB SWAP1 RETURN JUMPDEST PUSH2 0xC3 PUSH2 0x24C JUMP JUMPDEST PUSH1 0x40 MLOAD PUSH2 0xD0 SWAP2 SWAP1 PUSH2 0x466 JUMP JUMPDEST PUSH1 0x40 MLOAD DUP1 SWAP2 SUB SWAP1 RETURN JUMPDEST PUSH2 0xE1 PUSH2 0x2DE JUMP JUMPDEST PUSH1 0x40 MLOAD PUSH2 0xEE SWAP2 SWAP1 PUSH2 0x4A8 JUMP JUMPDEST PUSH1 0x40 MLOAD DUP1 SWAP2 SUB SWAP1 RETURN JUMPDEST PUSH2 0xFF PUSH2 0x2E8 JUMP JUMPDEST PUSH1 0x40 MLOAD PUSH2 0x10C SWAP2 SWAP1 PUSH2 0x44B JUMP JUMPDEST PUSH1 0x40 MLOAD DUP1 SWAP2 SUB SWAP1 RETURN JUMPDEST PUSH2 0x12F PUSH1 0x4 DUP1 CALLDATASIZE SUB DUP2 ADD SWAP1 PUSH2 0x12A SWAP2 SWAP1 PUSH2 0x3A4 JUMP JUMPDEST PUSH2 0x311 JUMP JUMPDEST STOP JUMPDEST PUSH2 0x14B PUSH1 0x4 DUP1 CALLDATASIZE SUB DUP2 ADD SWAP1 PUSH2 0x146 SWAP2 SWAP1 PUSH2 0x3A4 JUMP JUMPDEST PUSH2 0x31B JUMP JUMPDEST STOP JUMPDEST DUP2 PUSH20 0xFFFFFFFFFFFFFFFFFFFFFFFFFFFFFFFFFFFFFFFF AND PUSH1 0x0 DUP1 SLOAD SWAP1 PUSH2 0x100 EXP SWAP1 DIV PUSH20 0xFFFFFFFFFFFFFFFFFFFFFFFFFFFFFFFFFFFFFFFF AND PUSH20 0xFFFFFFFFFFFFFFFFFFFFFFFFFFFFFFFFFFFFFFFF AND EQ PUSH2 0x1DB JUMPI PUSH1 0x40 MLOAD PUSH32 0x8C379A000000000000000000000000000000000000000000000000000000000 DUP2 MSTORE PUSH1 0x4 ADD PUSH2 0x1D2 SWAP1 PUSH2 0x488 JUMP JUMPDEST PUSH1 0x40 MLOAD DUP1 SWAP2 SUB SWAP1 REVERT JUMPDEST PUSH1 0x4 DUP2 SWAP1 DUP1 PUSH1 0x1 DUP2 SLOAD ADD DUP1 DUP3 SSTORE DUP1 SWAP2 POP POP PUSH1 0x1 SWAP1 SUB SWAP1 PUSH1 0x0 MSTORE PUSH1 0x20 PUSH1 0x0 KECCAK256 ADD PUSH1 0x0 SWAP1 SWAP2 SWAP1 SWAP2 SWAP1 SWAP2 PUSH2 0x100 EXP DUP2 SLOAD DUP2 PUSH20 0xFFFFFFFFFFFFFFFFFFFFFFFFFFFFFFFFFFFFFFFF MUL NOT AND SWAP1 DUP4 PUSH20 0xFFFFFFFFFFFFFFFFFFFFFFFFFFFFFFFFFFFFFFFF AND MUL OR SWAP1 SSTORE POP POP POP JUMP JUMPDEST PUSH1 0x0 PUSH1 0x3 SLOAD SWAP1 POP SWAP1 JUMP JUMPDEST PUSH1 0x60 PUSH1 0x1 DUP1 SLOAD PUSH2 0x25B SWAP1 PUSH2 0x560 JUMP JUMPDEST DUP1 PUSH1 0x1F ADD PUSH1 0x20 DUP1 SWAP2 DIV MUL PUSH1 0x20 ADD PUSH1 0x40 MLOAD SWAP1 DUP2 ADD PUSH1 0x40 MSTORE DUP1 SWAP3 SWAP2 SWAP1 DUP2 DUP2 MSTORE PUSH1 0x20 ADD DUP3 DUP1 SLOAD PUSH2 0x287 SWAP1 PUSH2 0x560 JUMP JUMPDEST DUP1 ISZERO PUSH2 0x2D4 JUMPI DUP1 PUSH1 0x1F LT PUSH2 0x2A9 JUMPI PUSH2 0x100 DUP1 DUP4 SLOAD DIV MUL DUP4 MSTORE SWAP2 PUSH1 0x20 ADD SWAP2 PUSH2 0x2D4 JUMP JUMPDEST DUP3 ADD SWAP2 SWAP1 PUSH1 0x0 MSTORE PUSH1 0x20 PUSH1 0x0 KECCAK256 SWAP1 JUMPDEST DUP2 SLOAD DUP2 MSTORE SWAP1 PUSH1 0x1 ADD SWAP1 PUSH1 0x20 ADD DUP1 DUP4 GT PUSH2 0x2B7 JUMPI DUP3 SWAP1 SUB PUSH1 0x1F AND DUP3 ADD SWAP2 JUMPDEST POP POP POP POP POP SWAP1 POP SWAP1 JUMP JUMPDEST PUSH1 0x0 PUSH1 0x2 SLOAD SWAP1 POP SWAP1 JUMP JUMPDEST PUSH1 0x0 DUP1 PUSH1 0x0 SWAP1 SLOAD SWAP1 PUSH2 0x100 EXP SWAP1 DIV PUSH20 0xFFFFFFFFFFFFFFFFFFFFFFFFFFFFFFFFFFFFFFFF AND SWAP1 POP SWAP1 JUMP JUMPDEST DUP1 PUSH1 0x3 DUP2 SWAP1 SSTORE POP POP JUMP JUMPDEST DUP1 PUSH1 0x2 DUP2 SWAP1 SSTORE POP POP JUMP JUMPDEST PUSH1 0x0 DUP2 CALLDATALOAD SWAP1 POP PUSH2 0x334 DUP2 PUSH2 0x600 JUMP JUMPDEST SWAP3 SWAP2 POP POP JUMP JUMPDEST PUSH1 0x0 DUP2 CALLDATALOAD SWAP1 POP PUSH2 0x349 DUP2 PUSH2 0x617 JUMP JUMPDEST SWAP3 SWAP2 POP POP JUMP JUMPDEST PUSH1 0x0 DUP2 CALLDATALOAD SWAP1 POP PUSH2 0x35E DUP2 PUSH2 0x62E JUMP JUMPDEST SWAP3 SWAP2 POP POP JUMP JUMPDEST PUSH1 0x0 DUP1 PUSH1 0x40 DUP4 DUP6 SUB SLT ISZERO PUSH2 0x37B JUMPI PUSH2 0x37A PUSH2 0x5C1 JUMP JUMPDEST JUMPDEST PUSH1 0x0 PUSH2 0x389 DUP6 DUP3 DUP7 ADD PUSH2 0x325 JUMP JUMPDEST SWAP3 POP POP PUSH1 0x20 PUSH2 0x39A DUP6 DUP3 DUP7 ADD PUSH2 0x33A JUMP JUMPDEST SWAP2 POP POP SWAP3 POP SWAP3 SWAP1 POP JUMP JUMPDEST PUSH1 0x0 PUSH1 0x20 DUP3 DUP5 SUB SLT ISZERO PUSH2 0x3BA JUMPI PUSH2 0x3B9 PUSH2 0x5C1 JUMP JUMPDEST JUMPDEST PUSH1 0x0 PUSH2 0x3C8 DUP5 DUP3 DUP6 ADD PUSH2 0x34F JUMP JUMPDEST SWAP2 POP POP SWAP3 SWAP2 POP POP JUMP JUMPDEST PUSH2 0x3DA DUP2 PUSH2 0x4DF JUMP JUMPDEST DUP3 MSTORE POP POP JUMP JUMPDEST PUSH1 0x0 PUSH2 0x3EB DUP3 PUSH2 0x4C3 JUMP JUMPDEST PUSH2 0x3F5 DUP2 DUP6 PUSH2 0x4CE JUMP JUMPDEST SWAP4 POP PUSH2 0x405 DUP2 DUP6 PUSH1 0x20 DUP7 ADD PUSH2 0x52D JUMP JUMPDEST PUSH2 0x40E DUP2 PUSH2 0x5C6 JUMP JUMPDEST DUP5 ADD SWAP2 POP POP SWAP3 SWAP2 POP POP JUMP JUMPDEST PUSH1 0x0 PUSH2 0x426 PUSH1 0x10 DUP4 PUSH2 0x4CE JUMP JUMPDEST SWAP2 POP PUSH2 0x431 DUP3 PUSH2 0x5D7 JUMP JUMPDEST PUSH1 0x20 DUP3 ADD SWAP1 POP SWAP2 SWAP1 POP JUMP JUMPDEST PUSH2 0x445 DUP2 PUSH2 0x523 JUMP JUMPDEST DUP3 MSTORE POP POP JUMP JUMPDEST PUSH1 0x0 PUSH1 0x20 DUP3 ADD SWAP1 POP PUSH2 0x460 PUSH1 0x0 DUP4 ADD DUP5 PUSH2 0x3D1 JUMP JUMPDEST SWAP3 SWAP2 POP POP JUMP JUMPDEST PUSH1 0x0 PUSH1 0x20 DUP3 ADD SWAP1 POP DUP2 DUP2 SUB PUSH1 0x0 DUP4 ADD MSTORE PUSH2 0x480 DUP2 DUP5 PUSH2 0x3E0 JUMP JUMPDEST SWAP1 POP SWAP3 SWAP2 POP POP JUMP JUMPDEST PUSH1 0x0 PUSH1 0x20 DUP3 ADD SWAP1 POP DUP2 DUP2 SUB PUSH1 0x0 DUP4 ADD MSTORE PUSH2 0x4A1 DUP2 PUSH2 0x419 JUMP JUMPDEST SWAP1 POP SWAP2 SWAP1 POP JUMP JUMPDEST PUSH1 0x0 PUSH1 0x20 DUP3 ADD SWAP1 POP PUSH2 0x4BD PUSH1 0x0 DUP4 ADD DUP5 PUSH2 0x43C JUMP JUMPDEST SWAP3 SWAP2 POP POP JUMP JUMPDEST PUSH1 0x0 DUP2 MLOAD SWAP1 POP SWAP2 SWAP1 POP JUMP JUMPDEST PUSH1 0x0 DUP3 DUP3 MSTORE PUSH1 0x20 DUP3 ADD SWAP1 POP SWAP3 SWAP2 POP POP JUMP JUMPDEST PUSH1 0x0 PUSH2 0x4EA DUP3 PUSH2 0x503 JUMP JUMPDEST SWAP1 POP SWAP2 SWAP1 POP JUMP JUMPDEST PUSH1 0x0 PUSH2 0x4FC DUP3 PUSH2 0x4DF JUMP JUMPDEST SWAP1 POP SWAP2 SWAP1 POP JUMP JUMPDEST PUSH1 0x0 PUSH20 0xFFFFFFFFFFFFFFFFFFFFFFFFFFFFFFFFFFFFFFFF DUP3 AND SWAP1 POP SWAP2 SWAP1 POP JUMP JUMPDEST PUSH1 0x0 DUP2 SWAP1 POP SWAP2 SWAP1 POP JUMP JUMPDEST PUSH1 0x0 JUMPDEST DUP4 DUP2 LT ISZERO PUSH2 0x54B JUMPI DUP1 DUP3 ADD MLOAD DUP2 DUP5 ADD MSTORE PUSH1 0x20 DUP2 ADD SWAP1 POP PUSH2 0x530 JUMP JUMPDEST DUP4 DUP2 GT ISZERO PUSH2 0x55A JUMPI PUSH1 0x0 DUP5 DUP5 ADD MSTORE JUMPDEST POP POP POP POP JUMP JUMPDEST PUSH1 0x0 PUSH1 0x2 DUP3 DIV SWAP1 POP PUSH1 0x1 DUP3 AND DUP1 PUSH2 0x578 JUMPI PUSH1 0x7F DUP3 AND SWAP2 POP JUMPDEST PUSH1 0x20 DUP3 LT DUP2 EQ ISZERO PUSH2 0x58C JUMPI PUSH2 0x58B PUSH2 0x592 JUMP JUMPDEST JUMPDEST POP SWAP2 SWAP1 POP JUMP JUMPDEST PUSH32 0x4E487B7100000000000000000000000000000000000000000000000000000000 PUSH1 0x0 MSTORE PUSH1 0x22 PUSH1 0x4 MSTORE PUSH1 0x24 PUSH1 0x0 REVERT JUMPDEST PUSH1 0x0 DUP1 REVERT JUMPDEST PUSH1 0x0 PUSH1 0x1F NOT PUSH1 0x1F DUP4 ADD AND SWAP1 POP SWAP2 SWAP1 POP JUMP JUMPDEST PUSH32 0x796F7520617265206E6F74207573657200000000000000000000000000000000 PUSH1 0x0 DUP3 ADD MSTORE POP JUMP JUMPDEST PUSH2 0x609 DUP2 PUSH2 0x4DF JUMP JUMPDEST DUP2 EQ PUSH2 0x614 JUMPI PUSH1 0x0 DUP1 REVERT JUMPDEST POP JUMP JUMPDEST PUSH2 0x620 DUP2 PUSH2 0x4F1 JUMP JUMPDEST DUP2 EQ PUSH2 0x62B JUMPI PUSH1 0x0 DUP1 REVERT JUMPDEST POP JUMP JUMPDEST PUSH2 0x637 DUP2 PUSH2 0x523 JUMP JUMPDEST DUP2 EQ PUSH2 0x642 JUMPI PUSH1 0x0 DUP1 REVERT JUMPDEST POP JUMP INVALID LOG2 PUSH5 0x6970667358 0x22 SLT KECCAK256 SWAP15 CALLCODE DUP9 DUP8 0x28 LOG4 0xA9 STOP DUP12 CALLDATACOPY JUMP SSTORE 0x1F CHAINID TIMESTAMP PUSH8 0x5D8948A3C8B4E6F 0xE0 0xC2 0xA8 OR SWAP11 0xC2 CHAINID 0x21 PUSH5 0x736F6C6343 STOP ADDMOD MOD STOP CALLER LOG2 PUSH5 0x6970667358 0x22 SLT KECCAK256 0xAB PUSH21 0x2265B7DA7B571D9A5707E4D8504DBE206BE4E81554 DUP7 CALL EXTCODEHASH SLT SELFBALANCE CALL 0x1E ADD 0x49 PUSH5 0x736F6C6343 STOP ADDMOD MOD STOP CALLER "
		},
		"gasEstimates": {
			"creation": {
				"codeDepositCost": "4477600",
				"executionCost": "5208",
				"totalCost": "4482808"
			},
			"external": {
				"addMember(address,address)": "infinite",
				"checkProjectRole(address)": "3063",
				"createAndSendEther(string)": "infinite",
				"getMemberArray(address)": "infinite",
				"getMemberWaitingArray(address)": "infinite",
				"getipfsWaitingArray(address)": "infinite",
				"mappingProject(address)": "infinite",
				"mappingUser(address)": "infinite",
				"pushHash(address,address,string)": "infinite",
				"register(string)": "infinite",
				"requestMember(address)": "infinite",
				"sendHash(address,string)": "infinite"
			}
		},
		"methodIdentifiers": {
			"addMember(address,address)": "9d58b15d",
			"checkProjectRole(address)": "7ab9a721",
			"createAndSendEther(string)": "f22fe807",
			"getMemberArray(address)": "f6582333",
			"getMemberWaitingArray(address)": "16e5c415",
			"getipfsWaitingArray(address)": "8089a138",
			"mappingProject(address)": "c07bacf3",
			"mappingUser(address)": "05f9b4dc",
			"pushHash(address,address,string)": "2b97ce73",
			"register(string)": "f2c298be",
			"requestMember(address)": "4ce24b48",
			"sendHash(address,string)": "eab3780e"
		}
	},
	"abi": [
		{
			"anonymous": false,
			"inputs": [
				{
					"indexed": false,
					"internalType": "uint256",
					"name": "_value",
					"type": "uint256"
				}
			],
			"name": "currency",
			"type": "event"
		},
		{
			"anonymous": false,
			"inputs": [
				{
					"indexed": false,
					"internalType": "contract Project",
					"name": "_addr",
					"type": "address"
				}
			],
			"name": "pro",
			"type": "event"
		},
		{
			"inputs": [
				{
					"internalType": "address",
					"name": "_addr",
					"type": "address"
				},
				{
					"internalType": "contract Project",
					"name": "_project",
					"type": "address"
				}
			],
			"name": "addMember",
			"outputs": [],
			"stateMutability": "nonpayable",
			"type": "function"
		},
		{
			"inputs": [
				{
					"internalType": "contract Project",
					"name": "_project",
					"type": "address"
				}
			],
			"name": "checkProjectRole",
			"outputs": [
				{
					"internalType": "bool",
					"name": "",
					"type": "bool"
				}
			],
			"stateMutability": "view",
			"type": "function"
		},
		{
			"inputs": [
				{
					"internalType": "string",
					"name": "_projectName",
					"type": "string"
				}
			],
			"name": "createAndSendEther",
			"outputs": [],
			"stateMutability": "payable",
			"type": "function"
		},
		{
			"inputs": [
				{
					"internalType": "contract Project",
					"name": "_project",
					"type": "address"
				}
			],
			"name": "getMemberArray",
			"outputs": [
				{
					"internalType": "address[]",
					"name": "",
					"type": "address[]"
				}
			],
			"stateMutability": "view",
			"type": "function"
		},
		{
			"inputs": [
				{
					"internalType": "contract Project",
					"name": "_project",
					"type": "address"
				}
			],
			"name": "getMemberWaitingArray",
			"outputs": [
				{
					"internalType": "address[]",
					"name": "",
					"type": "address[]"
				}
			],
			"stateMutability": "view",
			"type": "function"
		},
		{
			"inputs": [
				{
					"internalType": "contract Project",
					"name": "_project",
					"type": "address"
				}
			],
			"name": "getipfsWaitingArray",
			"outputs": [
				{
					"internalType": "string[]",
					"name": "",
					"type": "string[]"
				}
			],
			"stateMutability": "view",
			"type": "function"
		},
		{
			"inputs": [
				{
					"internalType": "address",
					"name": "_addr",
					"type": "address"
				}
			],
			"name": "mappingProject",
			"outputs": [
				{
					"internalType": "contract Project[]",
					"name": "",
					"type": "address[]"
				}
			],
			"stateMutability": "view",
			"type": "function"
		},
		{
			"inputs": [
				{
					"internalType": "address",
					"name": "_addr",
					"type": "address"
				}
			],
			"name": "mappingUser",
			"outputs": [
				{
					"internalType": "contract User",
					"name": "user",
					"type": "address"
				}
			],
			"stateMutability": "view",
			"type": "function"
		},
		{
			"inputs": [
				{
					"internalType": "contract Project",
					"name": "_project",
					"type": "address"
				},
				{
					"internalType": "address",
					"name": "_addr",
					"type": "address"
				},
				{
					"internalType": "string",
					"name": "_ipfsHash",
					"type": "string"
				}
			],
			"name": "pushHash",
			"outputs": [],
			"stateMutability": "nonpayable",
			"type": "function"
		},
		{
			"inputs": [
				{
					"internalType": "string",
					"name": "_name",
					"type": "string"
				}
			],
			"name": "register",
			"outputs": [],
			"stateMutability": "nonpayable",
			"type": "function"
		},
		{
			"inputs": [
				{
					"internalType": "contract Project",
					"name": "_project",
					"type": "address"
				}
			],
			"name": "requestMember",
			"outputs": [],
			"stateMutability": "nonpayable",
			"type": "function"
		},
		{
			"inputs": [
				{
					"internalType": "contract Project",
					"name": "_project",
					"type": "address"
				},
				{
					"internalType": "string",
					"name": "_ipfsHash",
					"type": "string"
				}
			],
			"name": "sendHash",
			"outputs": [],
			"stateMutability": "nonpayable",
			"type": "function"
		}
	]
}