{
	"data": {
		"bytecode": {
			"linkReferences": {},
			"object": "608060405234801561001057600080fd5b50612d6f806100206000396000f3fe6080604052600436106200007a5760003560e01c8063bb29998e1162000055578063bb29998e146200011f578063c07bacf3146200014d578063f22fe8071462000191578063f2c298be14620001b1576200007a565b806305f9b4dc146200007f57806370601bf814620000c35780639d58b15d14620000f1575b600080fd5b3480156200008c57600080fd5b50620000ab6004803603810190620000a5919062000b67565b620001df565b604051620000ba919062000d5b565b60405180910390f35b348015620000d057600080fd5b50620000ef6004803603810190620000e9919062000bcb565b62000247565b005b348015620000fe57600080fd5b506200011d600480360381019062000117919062000bcb565b6200042b565b005b3480156200012c57600080fd5b506200014b600480360381019062000145919062000b67565b620004be565b005b3480156200015a57600080fd5b5062000179600480360381019062000173919062000b67565b620005ad565b60405162000188919062000d3e565b60405180910390f35b620001af6004803603810190620001a9919062000c12565b62000616565b005b348015620001be57600080fd5b50620001dd6004803603810190620001d7919062000c12565b62000969565b005b60008060008373ffffffffffffffffffffffffffffffffffffffff1673ffffffffffffffffffffffffffffffffffffffff16815260200190815260200160002060009054906101000a900473ffffffffffffffffffffffffffffffffffffffff169050919050565b600073ffffffffffffffffffffffffffffffffffffffff166000803373ffffffffffffffffffffffffffffffffffffffff1673ffffffffffffffffffffffffffffffffffffffff16815260200190815260200160002060009054906101000a900473ffffffffffffffffffffffffffffffffffffffff1673ffffffffffffffffffffffffffffffffffffffff1663a74c2bb66040518163ffffffff1660e01b815260040160206040518083038186803b1580156200030457600080fd5b505afa15801562000319573d6000803e3d6000fd5b505050506040513d601f19601f820116820180604052508101906200033f919062000b99565b73ffffffffffffffffffffffffffffffffffffffff161462000398576040517f08c379a00000000000000000000000000000000000000000000000000000000081526004016200038f9062000dd0565b60405180910390fd5b6000620003a583620001df565b90506000620003b483620005ad565b90508073ffffffffffffffffffffffffffffffffffffffff166349be546f836040518263ffffffff1660e01b8152600401620003f1919062000d5b565b600060405180830381600087803b1580156200040c57600080fd5b505af115801562000421573d6000803e3d6000fd5b5050505050505050565b60006200043883620001df565b905060006200044783620005ad565b90508073ffffffffffffffffffffffffffffffffffffffff1663ca6d56dc836040518263ffffffff1660e01b815260040162000484919062000d5b565b600060405180830381600087803b1580156200049f57600080fd5b505af1158015620004b4573d6000803e3d6000fd5b5050505050505050565b60008060008373ffffffffffffffffffffffffffffffffffffffff1673ffffffffffffffffffffffffffffffffffffffff16815260200190815260200160002060009054906101000a900473ffffffffffffffffffffffffffffffffffffffff1690508073ffffffffffffffffffffffffffffffffffffffff166317d7de7c6040518163ffffffff1660e01b815260040160006040518083038186803b1580156200056857600080fd5b505afa1580156200057d573d6000803e3d6000fd5b505050506040513d6000823e3d601f19601f82011682018060405250810190620005a8919062000c63565b505050565b6000600160008373ffffffffffffffffffffffffffffffffffffffff1673ffffffffffffffffffffffffffffffffffffffff16815260200190815260200160002060009054906101000a900473ffffffffffffffffffffffffffffffffffffffff169050919050565b600073ffffffffffffffffffffffffffffffffffffffff166000803373ffffffffffffffffffffffffffffffffffffffff1673ffffffffffffffffffffffffffffffffffffffff16815260200190815260200160002060009054906101000a900473ffffffffffffffffffffffffffffffffffffffff1673ffffffffffffffffffffffffffffffffffffffff1663a74c2bb66040518163ffffffff1660e01b815260040160206040518083038186803b158015620006d357600080fd5b505afa158015620006e8573d6000803e3d6000fd5b505050506040513d601f19601f820116820180604052508101906200070e919062000b99565b73ffffffffffffffffffffffffffffffffffffffff161462000767576040517f08c379a00000000000000000000000000000000000000000000000000000000081526004016200075e9062000dd0565b60405180910390fd5b670de0b6b3a76400003411156200091d576000346000803373ffffffffffffffffffffffffffffffffffffffff1673ffffffffffffffffffffffffffffffffffffffff16815260200190815260200160002060009054906101000a900473ffffffffffffffffffffffffffffffffffffffff1683604051620007e99062000a21565b620007f692919062000d78565b6040518091039082f090508015801562000814573d6000803e3d6000fd5b50905080600160008373ffffffffffffffffffffffffffffffffffffffff166332a2c5d06040518163ffffffff1660e01b815260040160206040518083038186803b1580156200086357600080fd5b505afa15801562000878573d6000803e3d6000fd5b505050506040513d601f19601f820116820180604052508101906200089e919062000b99565b73ffffffffffffffffffffffffffffffffffffffff1673ffffffffffffffffffffffffffffffffffffffff16815260200190815260200160002060006101000a81548173ffffffffffffffffffffffffffffffffffffffff021916908373ffffffffffffffffffffffffffffffffffffffff1602179055505062000966565b3373ffffffffffffffffffffffffffffffffffffffff166108fc349081150290604051600060405180830381858888f1935050505015801562000964573d6000803e3d6000fd5b505b50565b80604051620009789062000a2f565b62000984919062000dac565b604051809103906000f080158015620009a1573d6000803e3d6000fd5b506000803373ffffffffffffffffffffffffffffffffffffffff1673ffffffffffffffffffffffffffffffffffffffff16815260200190815260200160002060006101000a81548173ffffffffffffffffffffffffffffffffffffffff021916908373ffffffffffffffffffffffffffffffffffffffff16021790555050565b6116e6806200100483390190565b61065080620026ea83390190565b600062000a5462000a4e8462000e1b565b62000df2565b90508281526020810184848401111562000a735762000a7262000fa0565b5b62000a8084828562000ef1565b509392505050565b600062000a9f62000a998462000e1b565b62000df2565b90508281526020810184848401111562000abe5762000abd62000fa0565b5b62000acb84828562000f00565b509392505050565b60008135905062000ae48162000fe9565b92915050565b60008151905062000afb8162000fe9565b92915050565b600082601f83011262000b195762000b1862000f9b565b5b813562000b2b84826020860162000a3d565b91505092915050565b600082601f83011262000b4c5762000b4b62000f9b565b5b815162000b5e84826020860162000a88565b91505092915050565b60006020828403121562000b805762000b7f62000faa565b5b600062000b908482850162000ad3565b91505092915050565b60006020828403121562000bb25762000bb162000faa565b5b600062000bc28482850162000aea565b91505092915050565b6000806040838503121562000be55762000be462000faa565b5b600062000bf58582860162000ad3565b925050602062000c088582860162000ad3565b9150509250929050565b60006020828403121562000c2b5762000c2a62000faa565b5b600082013567ffffffffffffffff81111562000c4c5762000c4b62000fa5565b5b62000c5a8482850162000b01565b91505092915050565b60006020828403121562000c7c5762000c7b62000faa565b5b600082015167ffffffffffffffff81111562000c9d5762000c9c62000fa5565b5b62000cab8482850162000b34565b91505092915050565b62000cbf8162000ea1565b82525050565b62000cd08162000ec9565b82525050565b600062000ce38262000e51565b62000cef818562000e5c565b935062000d0181856020860162000f00565b62000d0c8162000faf565b840191505092915050565b600062000d26601a8362000e5c565b915062000d338262000fc0565b602082019050919050565b600060208201905062000d55600083018462000cb4565b92915050565b600060208201905062000d72600083018462000cc5565b92915050565b600060408201905062000d8f600083018562000cc5565b818103602083015262000da3818462000cd6565b90509392505050565b6000602082019050818103600083015262000dc8818462000cd6565b905092915050565b6000602082019050818103600083015262000deb8162000d17565b9050919050565b600062000dfe62000e11565b905062000e0c828262000f36565b919050565b6000604051905090565b600067ffffffffffffffff82111562000e395762000e3862000f6c565b5b62000e448262000faf565b9050602081019050919050565b600081519050919050565b600082825260208201905092915050565b600062000e7a8262000e81565b9050919050565b600073ffffffffffffffffffffffffffffffffffffffff82169050919050565b600062000eae8262000eb5565b9050919050565b600062000ec28262000e81565b9050919050565b600062000ed68262000edd565b9050919050565b600062000eea8262000e81565b9050919050565b82818337600083830152505050565b60005b8381101562000f2057808201518184015260208101905062000f03565b8381111562000f30576000848401525b50505050565b62000f418262000faf565b810181811067ffffffffffffffff8211171562000f635762000f6262000f6c565b5b80604052505050565b7f4e487b7100000000000000000000000000000000000000000000000000000000600052604160045260246000fd5b600080fd5b600080fd5b600080fd5b600080fd5b6000601f19601f8301169050919050565b7f796f7520617265206e6f74207265676973746572656420796574000000000000600082015250565b62000ff48162000e6d565b81146200100057600080fd5b5056fe6080604052604051620016e6380380620016e6833981810160405281019062000029919062000217565b4260038190555030600460006101000a81548173ffffffffffffffffffffffffffffffffffffffff021916908373ffffffffffffffffffffffffffffffffffffffff160217905550816000806101000a81548173ffffffffffffffffffffffffffffffffffffffff021916908373ffffffffffffffffffffffffffffffffffffffff1602179055508060029080519060200190620000c9929190620000d2565b50505062000463565b828054620000e0906200035a565b90600052602060002090601f01602090048101928262000104576000855562000150565b82601f106200011f57805160ff191683800117855562000150565b8280016001018555821562000150579182015b828111156200014f57825182559160200191906001019062000132565b5b5090506200015f919062000163565b5090565b5b808211156200017e57600081600090555060010162000164565b5090565b6000620001996200019384620002a6565b6200027d565b905082815260208101848484011115620001b857620001b762000429565b5b620001c584828562000324565b509392505050565b600081519050620001de8162000449565b92915050565b600082601f830112620001fc57620001fb62000424565b5b81516200020e84826020860162000182565b91505092915050565b6000806040838503121562000231576200023062000433565b5b60006200024185828601620001cd565b925050602083015167ffffffffffffffff8111156200026557620002646200042e565b5b6200027385828601620001e4565b9150509250929050565b6000620002896200029c565b905062000297828262000390565b919050565b6000604051905090565b600067ffffffffffffffff821115620002c457620002c3620003f5565b5b620002cf8262000438565b9050602081019050919050565b6000620002e98262000304565b9050919050565b6000620002fd82620002dc565b9050919050565b600073ffffffffffffffffffffffffffffffffffffffff82169050919050565b60005b838110156200034457808201518184015260208101905062000327565b8381111562000354576000848401525b50505050565b600060028204905060018216806200037357607f821691505b602082108114156200038a5762000389620003c6565b5b50919050565b6200039b8262000438565b810181811067ffffffffffffffff82111715620003bd57620003bc620003f5565b5b80604052505050565b7f4e487b7100000000000000000000000000000000000000000000000000000000600052602260045260246000fd5b7f4e487b7100000000000000000000000000000000000000000000000000000000600052604160045260246000fd5b600080fd5b600080fd5b600080fd5b600080fd5b6000601f19601f8301169050919050565b6200045481620002f0565b81146200046057600080fd5b50565b61127380620004736000396000f3fe608060405234801561001057600080fd5b506004361061007d5760003560e01c80638ea724051161005b5780638ea72405146100da578063af8d148f1461010a578063ca6d56dc14610126578063dfb29935146101425761007d565b806332a2c5d01461008257806349be546f146100a05780638418dde2146100bc575b600080fd5b61008a61015e565b6040516100979190610d92565b60405180910390f35b6100ba60048036038101906100b59190610b3b565b610188565b005b6100c46101ee565b6040516100d19190610dad565b60405180910390f35b6100f460048036038101906100ef9190610b68565b6103d2565b6040516101019190610def565b60405180910390f35b610124600480360381019061011f9190610adf565b610489565b005b610140600480360381019061013b9190610b3b565b6106cb565b005b61015c60048036038101906101579190610b68565b61083c565b005b6000600460009054906101000a900473ffffffffffffffffffffffffffffffffffffffff16905090565b6007819080600181540180825580915050600190039060005260206000200160009091909190916101000a81548173ffffffffffffffffffffffffffffffffffffffff021916908373ffffffffffffffffffffffffffffffffffffffff16021790555050565b606060008054906101000a900473ffffffffffffffffffffffffffffffffffffffff1673ffffffffffffffffffffffffffffffffffffffff1663a74c2bb66040518163ffffffff1660e01b815260040160206040518083038186803b15801561025657600080fd5b505afa15801561026a573d6000803e3d6000fd5b505050506040513d601f19601f8201168201806040525081019061028e9190610ab2565b73ffffffffffffffffffffffffffffffffffffffff163373ffffffffffffffffffffffffffffffffffffffff16146102fb576040517f08c379a00000000000000000000000000000000000000000000000000000000081526004016102f290610dcf565b60405180910390fd5b6006805480602002602001604051908101604052809291908181526020016000905b828210156103c957838290600052602060002001805461033c9061102a565b80601f01602080910402602001604051908101604052809291908181526020018280546103689061102a565b80156103b55780601f1061038a576101008083540402835291602001916103b5565b820191906000526020600020905b81548152906001019060200180831161039857829003601f168201915b50505050508152602001906001019061031d565b50505050905090565b600080600090505b60068054905081101561047e57826040516020016103f89190610d64565b604051602081830303815290604052805190602001206006828154811061042257610421611163565b5b9060005260206000200160405160200161043c9190610d7b565b60405160208183030381529060405280519060200120141561046d576001816104659190610ee6565b915050610484565b806104779061108d565b90506103da565b50600090505b919050565b60008054906101000a900473ffffffffffffffffffffffffffffffffffffffff1673ffffffffffffffffffffffffffffffffffffffff1663a74c2bb66040518163ffffffff1660e01b815260040160206040518083038186803b1580156104ef57600080fd5b505afa158015610503573d6000803e3d6000fd5b505050506040513d601f19601f820116820180604052508101906105279190610ab2565b73ffffffffffffffffffffffffffffffffffffffff163373ffffffffffffffffffffffffffffffffffffffff1614610594576040517f08c379a000000000000000000000000000000000000000000000000000000000815260040161058b90610dcf565b60405180910390fd5b600061059f826103d2565b9050600081146106c65780806105b490611000565b915050600560008473ffffffffffffffffffffffffffffffffffffffff1673ffffffffffffffffffffffffffffffffffffffff1681526020019081526020016000208290806001815401808255809150506001900390600052602060002001600090919091909150908051906020019061062f929190610893565b50600660016006805490506106449190610f3c565b8154811061065557610654611163565b5b906000526020600020016006828154811061067357610672611163565b5b906000526020600020019080546106899061102a565b610694929190610919565b5060068054806106a7576106a6611134565b5b6001900381819060005260206000200160006106c391906109a6565b90555b505050565b60008054906101000a900473ffffffffffffffffffffffffffffffffffffffff1673ffffffffffffffffffffffffffffffffffffffff1663a74c2bb66040518163ffffffff1660e01b815260040160206040518083038186803b15801561073157600080fd5b505afa158015610745573d6000803e3d6000fd5b505050506040513d601f19601f820116820180604052508101906107699190610ab2565b73ffffffffffffffffffffffffffffffffffffffff163373ffffffffffffffffffffffffffffffffffffffff16146107d6576040517f08c379a00000000000000000000000000000000000000000000000000000000081526004016107cd90610dcf565b60405180910390fd5b6001819080600181540180825580915050600190039060005260206000200160009091909190916101000a81548173ffffffffffffffffffffffffffffffffffffffff021916908373ffffffffffffffffffffffffffffffffffffffff16021790555050565b6000610847826103d2565b9050600081141561088f5760068290806001815401808255809150506001900390600052602060002001600090919091909150908051906020019061088d929190610893565b505b5050565b82805461089f9061102a565b90600052602060002090601f0160209004810192826108c15760008555610908565b82601f106108da57805160ff1916838001178555610908565b82800160010185558215610908579182015b828111156109075782518255916020019190600101906108ec565b5b50905061091591906109e6565b5090565b8280546109259061102a565b90600052602060002090601f0160209004810192826109475760008555610995565b82601f106109585780548555610995565b8280016001018555821561099557600052602060002091601f016020900482015b82811115610994578254825591600101919060010190610979565b5b5090506109a291906109e6565b5090565b5080546109b29061102a565b6000825580601f106109c457506109e3565b601f0160209004906000526020600020908101906109e291906109e6565b5b50565b5b808211156109ff5760008160009055506001016109e7565b5090565b6000610a16610a1184610e2f565b610e0a565b905082815260208101848484011115610a3257610a316111c6565b5b610a3d848285610fbe565b509392505050565b600081359050610a548161120f565b92915050565b600081519050610a698161120f565b92915050565b600081359050610a7e81611226565b92915050565b600082601f830112610a9957610a986111c1565b5b8135610aa9848260208601610a03565b91505092915050565b600060208284031215610ac857610ac76111d0565b5b6000610ad684828501610a5a565b91505092915050565b60008060408385031215610af657610af56111d0565b5b6000610b0485828601610a45565b925050602083013567ffffffffffffffff811115610b2557610b246111cb565b5b610b3185828601610a84565b9150509250929050565b600060208284031215610b5157610b506111d0565b5b6000610b5f84828501610a6f565b91505092915050565b600060208284031215610b7e57610b7d6111d0565b5b600082013567ffffffffffffffff811115610b9c57610b9b6111cb565b5b610ba884828501610a84565b91505092915050565b6000610bbd8383610c49565b905092915050565b610bce81610f70565b82525050565b6000610bdf82610e85565b610be98185610ea8565b935083602082028501610bfb85610e60565b8060005b85811015610c375784840389528151610c188582610bb1565b9450610c2383610e9b565b925060208a01995050600181019050610bff565b50829750879550505050505092915050565b6000610c5482610e90565b610c5e8185610eb9565b9350610c6e818560208601610fcd565b610c77816111d5565b840191505092915050565b6000610c8d82610e90565b610c978185610edb565b9350610ca7818560208601610fcd565b80840191505092915050565b60008154610cc08161102a565b610cca8186610edb565b94506001821660008114610ce55760018114610cf657610d29565b60ff19831686528186019350610d29565b610cff85610e70565b60005b83811015610d2157815481890152600182019150602081019050610d02565b838801955050505b50505092915050565b6000610d3f601383610eca565b9150610d4a826111e6565b602082019050919050565b610d5e81610fb4565b82525050565b6000610d708284610c82565b915081905092915050565b6000610d878284610cb3565b915081905092915050565b6000602082019050610da76000830184610bc5565b92915050565b60006020820190508181036000830152610dc78184610bd4565b905092915050565b60006020820190508181036000830152610de881610d32565b9050919050565b6000602082019050610e046000830184610d55565b92915050565b6000610e14610e25565b9050610e20828261105c565b919050565b6000604051905090565b600067ffffffffffffffff821115610e4a57610e49611192565b5b610e53826111d5565b9050602081019050919050565b6000819050602082019050919050565b60008190508160005260206000209050919050565b600081519050919050565b600081519050919050565b6000602082019050919050565b600082825260208201905092915050565b600082825260208201905092915050565b600082825260208201905092915050565b600081905092915050565b6000610ef182610fb4565b9150610efc83610fb4565b9250827fffffffffffffffffffffffffffffffffffffffffffffffffffffffffffffffff03821115610f3157610f306110d6565b5b828201905092915050565b6000610f4782610fb4565b9150610f5283610fb4565b925082821015610f6557610f646110d6565b5b828203905092915050565b6000610f7b82610f94565b9050919050565b6000610f8d82610f70565b9050919050565b600073ffffffffffffffffffffffffffffffffffffffff82169050919050565b6000819050919050565b82818337600083830152505050565b60005b83811015610feb578082015181840152602081019050610fd0565b83811115610ffa576000848401525b50505050565b600061100b82610fb4565b9150600082141561101f5761101e6110d6565b5b600182039050919050565b6000600282049050600182168061104257607f821691505b6020821081141561105657611055611105565b5b50919050565b611065826111d5565b810181811067ffffffffffffffff8211171561108457611083611192565b5b80604052505050565b600061109882610fb4565b91507fffffffffffffffffffffffffffffffffffffffffffffffffffffffffffffffff8214156110cb576110ca6110d6565b5b600182019050919050565b7f4e487b7100000000000000000000000000000000000000000000000000000000600052601160045260246000fd5b7f4e487b7100000000000000000000000000000000000000000000000000000000600052602260045260246000fd5b7f4e487b7100000000000000000000000000000000000000000000000000000000600052603160045260246000fd5b7f4e487b7100000000000000000000000000000000000000000000000000000000600052603260045260246000fd5b7f4e487b7100000000000000000000000000000000000000000000000000000000600052604160045260246000fd5b600080fd5b600080fd5b600080fd5b600080fd5b6000601f19601f8301169050919050565b7f43616c6c6572206973206e6f74206f776e657200000000000000000000000000600082015250565b61121881610f70565b811461122357600080fd5b50565b61122f81610f82565b811461123a57600080fd5b5056fea2646970667358221220d785c5e93c41b9ca0b7f719c257194ba4fc4b50fb61eb4a91cb9d0b15f5e9cb564736f6c63430008060033608060405234801561001057600080fd5b50604051610650380380610650833981810160405281019061003291906101a9565b336000806101000a81548173ffffffffffffffffffffffffffffffffffffffff021916908373ffffffffffffffffffffffffffffffffffffffff1602179055508060019080519060200190610088929190610096565b504260028190555050610361565b8280546100a29061027b565b90600052602060002090601f0160209004810192826100c4576000855561010b565b82601f106100dd57805160ff191683800117855561010b565b8280016001018555821561010b579182015b8281111561010a5782518255916020019190600101906100ef565b5b509050610118919061011c565b5090565b5b8082111561013557600081600090555060010161011d565b5090565b600061014c61014784610217565b6101f2565b90508281526020810184848401111561016857610167610341565b5b610173848285610248565b509392505050565b600082601f8301126101905761018f61033c565b5b81516101a0848260208601610139565b91505092915050565b6000602082840312156101bf576101be61034b565b5b600082015167ffffffffffffffff8111156101dd576101dc610346565b5b6101e98482850161017b565b91505092915050565b60006101fc61020d565b905061020882826102ad565b919050565b6000604051905090565b600067ffffffffffffffff8211156102325761023161030d565b5b61023b82610350565b9050602081019050919050565b60005b8381101561026657808201518184015260208101905061024b565b83811115610275576000848401525b50505050565b6000600282049050600182168061029357607f821691505b602082108114156102a7576102a66102de565b5b50919050565b6102b682610350565b810181811067ffffffffffffffff821117156102d5576102d461030d565b5b80604052505050565b7f4e487b7100000000000000000000000000000000000000000000000000000000600052602260045260246000fd5b7f4e487b7100000000000000000000000000000000000000000000000000000000600052604160045260246000fd5b600080fd5b600080fd5b600080fd5b600080fd5b6000601f19601f8301169050919050565b6102e0806103706000396000f3fe608060405234801561001057600080fd5b50600436106100365760003560e01c806317d7de7c1461003b578063a74c2bb614610059575b600080fd5b610043610077565b6040516100509190610195565b60405180910390f35b610061610109565b60405161006e919061017a565b60405180910390f35b60606001805461008690610238565b80601f01602080910402602001604051908101604052809291908181526020018280546100b290610238565b80156100ff5780601f106100d4576101008083540402835291602001916100ff565b820191906000526020600020905b8154815290600101906020018083116100e257829003601f168201915b5050505050905090565b60008060009054906101000a900473ffffffffffffffffffffffffffffffffffffffff16905090565b61013b816101d3565b82525050565b600061014c826101b7565b61015681856101c2565b9350610166818560208601610205565b61016f81610299565b840191505092915050565b600060208201905061018f6000830184610132565b92915050565b600060208201905081810360008301526101af8184610141565b905092915050565b600081519050919050565b600082825260208201905092915050565b60006101de826101e5565b9050919050565b600073ffffffffffffffffffffffffffffffffffffffff82169050919050565b60005b83811015610223578082015181840152602081019050610208565b83811115610232576000848401525b50505050565b6000600282049050600182168061025057607f821691505b602082108114156102645761026361026a565b5b50919050565b7f4e487b7100000000000000000000000000000000000000000000000000000000600052602260045260246000fd5b6000601f19601f830116905091905056fea2646970667358221220d9446b5a1c201825fe157512a25ac9f91ceebe4fb2fed2eee8ecf531b3c217ca64736f6c63430008060033a264697066735822122019f74ea962137660c5695d43632d90bc65e1ed6d3528c4caa069e3604581c2e064736f6c63430008060033",
			"opcodes": "PUSH1 0x80 PUSH1 0x40 MSTORE CALLVALUE DUP1 ISZERO PUSH2 0x10 JUMPI PUSH1 0x0 DUP1 REVERT JUMPDEST POP PUSH2 0x2D6F DUP1 PUSH2 0x20 PUSH1 0x0 CODECOPY PUSH1 0x0 RETURN INVALID PUSH1 0x80 PUSH1 0x40 MSTORE PUSH1 0x4 CALLDATASIZE LT PUSH3 0x7A JUMPI PUSH1 0x0 CALLDATALOAD PUSH1 0xE0 SHR DUP1 PUSH4 0xBB29998E GT PUSH3 0x55 JUMPI DUP1 PUSH4 0xBB29998E EQ PUSH3 0x11F JUMPI DUP1 PUSH4 0xC07BACF3 EQ PUSH3 0x14D JUMPI DUP1 PUSH4 0xF22FE807 EQ PUSH3 0x191 JUMPI DUP1 PUSH4 0xF2C298BE EQ PUSH3 0x1B1 JUMPI PUSH3 0x7A JUMP JUMPDEST DUP1 PUSH4 0x5F9B4DC EQ PUSH3 0x7F JUMPI DUP1 PUSH4 0x70601BF8 EQ PUSH3 0xC3 JUMPI DUP1 PUSH4 0x9D58B15D EQ PUSH3 0xF1 JUMPI JUMPDEST PUSH1 0x0 DUP1 REVERT JUMPDEST CALLVALUE DUP1 ISZERO PUSH3 0x8C JUMPI PUSH1 0x0 DUP1 REVERT JUMPDEST POP PUSH3 0xAB PUSH1 0x4 DUP1 CALLDATASIZE SUB DUP2 ADD SWAP1 PUSH3 0xA5 SWAP2 SWAP1 PUSH3 0xB67 JUMP JUMPDEST PUSH3 0x1DF JUMP JUMPDEST PUSH1 0x40 MLOAD PUSH3 0xBA SWAP2 SWAP1 PUSH3 0xD5B JUMP JUMPDEST PUSH1 0x40 MLOAD DUP1 SWAP2 SUB SWAP1 RETURN JUMPDEST CALLVALUE DUP1 ISZERO PUSH3 0xD0 JUMPI PUSH1 0x0 DUP1 REVERT JUMPDEST POP PUSH3 0xEF PUSH1 0x4 DUP1 CALLDATASIZE SUB DUP2 ADD SWAP1 PUSH3 0xE9 SWAP2 SWAP1 PUSH3 0xBCB JUMP JUMPDEST PUSH3 0x247 JUMP JUMPDEST STOP JUMPDEST CALLVALUE DUP1 ISZERO PUSH3 0xFE JUMPI PUSH1 0x0 DUP1 REVERT JUMPDEST POP PUSH3 0x11D PUSH1 0x4 DUP1 CALLDATASIZE SUB DUP2 ADD SWAP1 PUSH3 0x117 SWAP2 SWAP1 PUSH3 0xBCB JUMP JUMPDEST PUSH3 0x42B JUMP JUMPDEST STOP JUMPDEST CALLVALUE DUP1 ISZERO PUSH3 0x12C JUMPI PUSH1 0x0 DUP1 REVERT JUMPDEST POP PUSH3 0x14B PUSH1 0x4 DUP1 CALLDATASIZE SUB DUP2 ADD SWAP1 PUSH3 0x145 SWAP2 SWAP1 PUSH3 0xB67 JUMP JUMPDEST PUSH3 0x4BE JUMP JUMPDEST STOP JUMPDEST CALLVALUE DUP1 ISZERO PUSH3 0x15A JUMPI PUSH1 0x0 DUP1 REVERT JUMPDEST POP PUSH3 0x179 PUSH1 0x4 DUP1 CALLDATASIZE SUB DUP2 ADD SWAP1 PUSH3 0x173 SWAP2 SWAP1 PUSH3 0xB67 JUMP JUMPDEST PUSH3 0x5AD JUMP JUMPDEST PUSH1 0x40 MLOAD PUSH3 0x188 SWAP2 SWAP1 PUSH3 0xD3E JUMP JUMPDEST PUSH1 0x40 MLOAD DUP1 SWAP2 SUB SWAP1 RETURN JUMPDEST PUSH3 0x1AF PUSH1 0x4 DUP1 CALLDATASIZE SUB DUP2 ADD SWAP1 PUSH3 0x1A9 SWAP2 SWAP1 PUSH3 0xC12 JUMP JUMPDEST PUSH3 0x616 JUMP JUMPDEST STOP JUMPDEST CALLVALUE DUP1 ISZERO PUSH3 0x1BE JUMPI PUSH1 0x0 DUP1 REVERT JUMPDEST POP PUSH3 0x1DD PUSH1 0x4 DUP1 CALLDATASIZE SUB DUP2 ADD SWAP1 PUSH3 0x1D7 SWAP2 SWAP1 PUSH3 0xC12 JUMP JUMPDEST PUSH3 0x969 JUMP JUMPDEST STOP JUMPDEST PUSH1 0x0 DUP1 PUSH1 0x0 DUP4 PUSH20 0xFFFFFFFFFFFFFFFFFFFFFFFFFFFFFFFFFFFFFFFF AND PUSH20 0xFFFFFFFFFFFFFFFFFFFFFFFFFFFFFFFFFFFFFFFF AND DUP2 MSTORE PUSH1 0x20 ADD SWAP1 DUP2 MSTORE PUSH1 0x20 ADD PUSH1 0x0 KECCAK256 PUSH1 0x0 SWAP1 SLOAD SWAP1 PUSH2 0x100 EXP SWAP1 DIV PUSH20 0xFFFFFFFFFFFFFFFFFFFFFFFFFFFFFFFFFFFFFFFF AND SWAP1 POP SWAP2 SWAP1 POP JUMP JUMPDEST PUSH1 0x0 PUSH20 0xFFFFFFFFFFFFFFFFFFFFFFFFFFFFFFFFFFFFFFFF AND PUSH1 0x0 DUP1 CALLER PUSH20 0xFFFFFFFFFFFFFFFFFFFFFFFFFFFFFFFFFFFFFFFF AND PUSH20 0xFFFFFFFFFFFFFFFFFFFFFFFFFFFFFFFFFFFFFFFF AND DUP2 MSTORE PUSH1 0x20 ADD SWAP1 DUP2 MSTORE PUSH1 0x20 ADD PUSH1 0x0 KECCAK256 PUSH1 0x0 SWAP1 SLOAD SWAP1 PUSH2 0x100 EXP SWAP1 DIV PUSH20 0xFFFFFFFFFFFFFFFFFFFFFFFFFFFFFFFFFFFFFFFF AND PUSH20 0xFFFFFFFFFFFFFFFFFFFFFFFFFFFFFFFFFFFFFFFF AND PUSH4 0xA74C2BB6 PUSH1 0x40 MLOAD DUP2 PUSH4 0xFFFFFFFF AND PUSH1 0xE0 SHL DUP2 MSTORE PUSH1 0x4 ADD PUSH1 0x20 PUSH1 0x40 MLOAD DUP1 DUP4 SUB DUP2 DUP7 DUP1 EXTCODESIZE ISZERO DUP1 ISZERO PUSH3 0x304 JUMPI PUSH1 0x0 DUP1 REVERT JUMPDEST POP GAS STATICCALL ISZERO DUP1 ISZERO PUSH3 0x319 JUMPI RETURNDATASIZE PUSH1 0x0 DUP1 RETURNDATACOPY RETURNDATASIZE PUSH1 0x0 REVERT JUMPDEST POP POP POP POP PUSH1 0x40 MLOAD RETURNDATASIZE PUSH1 0x1F NOT PUSH1 0x1F DUP3 ADD AND DUP3 ADD DUP1 PUSH1 0x40 MSTORE POP DUP2 ADD SWAP1 PUSH3 0x33F SWAP2 SWAP1 PUSH3 0xB99 JUMP JUMPDEST PUSH20 0xFFFFFFFFFFFFFFFFFFFFFFFFFFFFFFFFFFFFFFFF AND EQ PUSH3 0x398 JUMPI PUSH1 0x40 MLOAD PUSH32 0x8C379A000000000000000000000000000000000000000000000000000000000 DUP2 MSTORE PUSH1 0x4 ADD PUSH3 0x38F SWAP1 PUSH3 0xDD0 JUMP JUMPDEST PUSH1 0x40 MLOAD DUP1 SWAP2 SUB SWAP1 REVERT JUMPDEST PUSH1 0x0 PUSH3 0x3A5 DUP4 PUSH3 0x1DF JUMP JUMPDEST SWAP1 POP PUSH1 0x0 PUSH3 0x3B4 DUP4 PUSH3 0x5AD JUMP JUMPDEST SWAP1 POP DUP1 PUSH20 0xFFFFFFFFFFFFFFFFFFFFFFFFFFFFFFFFFFFFFFFF AND PUSH4 0x49BE546F DUP4 PUSH1 0x40 MLOAD DUP3 PUSH4 0xFFFFFFFF AND PUSH1 0xE0 SHL DUP2 MSTORE PUSH1 0x4 ADD PUSH3 0x3F1 SWAP2 SWAP1 PUSH3 0xD5B JUMP JUMPDEST PUSH1 0x0 PUSH1 0x40 MLOAD DUP1 DUP4 SUB DUP2 PUSH1 0x0 DUP8 DUP1 EXTCODESIZE ISZERO DUP1 ISZERO PUSH3 0x40C JUMPI PUSH1 0x0 DUP1 REVERT JUMPDEST POP GAS CALL ISZERO DUP1 ISZERO PUSH3 0x421 JUMPI RETURNDATASIZE PUSH1 0x0 DUP1 RETURNDATACOPY RETURNDATASIZE PUSH1 0x0 REVERT JUMPDEST POP POP POP POP POP POP POP POP JUMP JUMPDEST PUSH1 0x0 PUSH3 0x438 DUP4 PUSH3 0x1DF JUMP JUMPDEST SWAP1 POP PUSH1 0x0 PUSH3 0x447 DUP4 PUSH3 0x5AD JUMP JUMPDEST SWAP1 POP DUP1 PUSH20 0xFFFFFFFFFFFFFFFFFFFFFFFFFFFFFFFFFFFFFFFF AND PUSH4 0xCA6D56DC DUP4 PUSH1 0x40 MLOAD DUP3 PUSH4 0xFFFFFFFF AND PUSH1 0xE0 SHL DUP2 MSTORE PUSH1 0x4 ADD PUSH3 0x484 SWAP2 SWAP1 PUSH3 0xD5B JUMP JUMPDEST PUSH1 0x0 PUSH1 0x40 MLOAD DUP1 DUP4 SUB DUP2 PUSH1 0x0 DUP8 DUP1 EXTCODESIZE ISZERO DUP1 ISZERO PUSH3 0x49F JUMPI PUSH1 0x0 DUP1 REVERT JUMPDEST POP GAS CALL ISZERO DUP1 ISZERO PUSH3 0x4B4 JUMPI RETURNDATASIZE PUSH1 0x0 DUP1 RETURNDATACOPY RETURNDATASIZE PUSH1 0x0 REVERT JUMPDEST POP POP POP POP POP POP POP POP JUMP JUMPDEST PUSH1 0x0 DUP1 PUSH1 0x0 DUP4 PUSH20 0xFFFFFFFFFFFFFFFFFFFFFFFFFFFFFFFFFFFFFFFF AND PUSH20 0xFFFFFFFFFFFFFFFFFFFFFFFFFFFFFFFFFFFFFFFF AND DUP2 MSTORE PUSH1 0x20 ADD SWAP1 DUP2 MSTORE PUSH1 0x20 ADD PUSH1 0x0 KECCAK256 PUSH1 0x0 SWAP1 SLOAD SWAP1 PUSH2 0x100 EXP SWAP1 DIV PUSH20 0xFFFFFFFFFFFFFFFFFFFFFFFFFFFFFFFFFFFFFFFF AND SWAP1 POP DUP1 PUSH20 0xFFFFFFFFFFFFFFFFFFFFFFFFFFFFFFFFFFFFFFFF AND PUSH4 0x17D7DE7C PUSH1 0x40 MLOAD DUP2 PUSH4 0xFFFFFFFF AND PUSH1 0xE0 SHL DUP2 MSTORE PUSH1 0x4 ADD PUSH1 0x0 PUSH1 0x40 MLOAD DUP1 DUP4 SUB DUP2 DUP7 DUP1 EXTCODESIZE ISZERO DUP1 ISZERO PUSH3 0x568 JUMPI PUSH1 0x0 DUP1 REVERT JUMPDEST POP GAS STATICCALL ISZERO DUP1 ISZERO PUSH3 0x57D JUMPI RETURNDATASIZE PUSH1 0x0 DUP1 RETURNDATACOPY RETURNDATASIZE PUSH1 0x0 REVERT JUMPDEST POP POP POP POP PUSH1 0x40 MLOAD RETURNDATASIZE PUSH1 0x0 DUP3 RETURNDATACOPY RETURNDATASIZE PUSH1 0x1F NOT PUSH1 0x1F DUP3 ADD AND DUP3 ADD DUP1 PUSH1 0x40 MSTORE POP DUP2 ADD SWAP1 PUSH3 0x5A8 SWAP2 SWAP1 PUSH3 0xC63 JUMP JUMPDEST POP POP POP JUMP JUMPDEST PUSH1 0x0 PUSH1 0x1 PUSH1 0x0 DUP4 PUSH20 0xFFFFFFFFFFFFFFFFFFFFFFFFFFFFFFFFFFFFFFFF AND PUSH20 0xFFFFFFFFFFFFFFFFFFFFFFFFFFFFFFFFFFFFFFFF AND DUP2 MSTORE PUSH1 0x20 ADD SWAP1 DUP2 MSTORE PUSH1 0x20 ADD PUSH1 0x0 KECCAK256 PUSH1 0x0 SWAP1 SLOAD SWAP1 PUSH2 0x100 EXP SWAP1 DIV PUSH20 0xFFFFFFFFFFFFFFFFFFFFFFFFFFFFFFFFFFFFFFFF AND SWAP1 POP SWAP2 SWAP1 POP JUMP JUMPDEST PUSH1 0x0 PUSH20 0xFFFFFFFFFFFFFFFFFFFFFFFFFFFFFFFFFFFFFFFF AND PUSH1 0x0 DUP1 CALLER PUSH20 0xFFFFFFFFFFFFFFFFFFFFFFFFFFFFFFFFFFFFFFFF AND PUSH20 0xFFFFFFFFFFFFFFFFFFFFFFFFFFFFFFFFFFFFFFFF AND DUP2 MSTORE PUSH1 0x20 ADD SWAP1 DUP2 MSTORE PUSH1 0x20 ADD PUSH1 0x0 KECCAK256 PUSH1 0x0 SWAP1 SLOAD SWAP1 PUSH2 0x100 EXP SWAP1 DIV PUSH20 0xFFFFFFFFFFFFFFFFFFFFFFFFFFFFFFFFFFFFFFFF AND PUSH20 0xFFFFFFFFFFFFFFFFFFFFFFFFFFFFFFFFFFFFFFFF AND PUSH4 0xA74C2BB6 PUSH1 0x40 MLOAD DUP2 PUSH4 0xFFFFFFFF AND PUSH1 0xE0 SHL DUP2 MSTORE PUSH1 0x4 ADD PUSH1 0x20 PUSH1 0x40 MLOAD DUP1 DUP4 SUB DUP2 DUP7 DUP1 EXTCODESIZE ISZERO DUP1 ISZERO PUSH3 0x6D3 JUMPI PUSH1 0x0 DUP1 REVERT JUMPDEST POP GAS STATICCALL ISZERO DUP1 ISZERO PUSH3 0x6E8 JUMPI RETURNDATASIZE PUSH1 0x0 DUP1 RETURNDATACOPY RETURNDATASIZE PUSH1 0x0 REVERT JUMPDEST POP POP POP POP PUSH1 0x40 MLOAD RETURNDATASIZE PUSH1 0x1F NOT PUSH1 0x1F DUP3 ADD AND DUP3 ADD DUP1 PUSH1 0x40 MSTORE POP DUP2 ADD SWAP1 PUSH3 0x70E SWAP2 SWAP1 PUSH3 0xB99 JUMP JUMPDEST PUSH20 0xFFFFFFFFFFFFFFFFFFFFFFFFFFFFFFFFFFFFFFFF AND EQ PUSH3 0x767 JUMPI PUSH1 0x40 MLOAD PUSH32 0x8C379A000000000000000000000000000000000000000000000000000000000 DUP2 MSTORE PUSH1 0x4 ADD PUSH3 0x75E SWAP1 PUSH3 0xDD0 JUMP JUMPDEST PUSH1 0x40 MLOAD DUP1 SWAP2 SUB SWAP1 REVERT JUMPDEST PUSH8 0xDE0B6B3A7640000 CALLVALUE GT ISZERO PUSH3 0x91D JUMPI PUSH1 0x0 CALLVALUE PUSH1 0x0 DUP1 CALLER PUSH20 0xFFFFFFFFFFFFFFFFFFFFFFFFFFFFFFFFFFFFFFFF AND PUSH20 0xFFFFFFFFFFFFFFFFFFFFFFFFFFFFFFFFFFFFFFFF AND DUP2 MSTORE PUSH1 0x20 ADD SWAP1 DUP2 MSTORE PUSH1 0x20 ADD PUSH1 0x0 KECCAK256 PUSH1 0x0 SWAP1 SLOAD SWAP1 PUSH2 0x100 EXP SWAP1 DIV PUSH20 0xFFFFFFFFFFFFFFFFFFFFFFFFFFFFFFFFFFFFFFFF AND DUP4 PUSH1 0x40 MLOAD PUSH3 0x7E9 SWAP1 PUSH3 0xA21 JUMP JUMPDEST PUSH3 0x7F6 SWAP3 SWAP2 SWAP1 PUSH3 0xD78 JUMP JUMPDEST PUSH1 0x40 MLOAD DUP1 SWAP2 SUB SWAP1 DUP3 CREATE SWAP1 POP DUP1 ISZERO DUP1 ISZERO PUSH3 0x814 JUMPI RETURNDATASIZE PUSH1 0x0 DUP1 RETURNDATACOPY RETURNDATASIZE PUSH1 0x0 REVERT JUMPDEST POP SWAP1 POP DUP1 PUSH1 0x1 PUSH1 0x0 DUP4 PUSH20 0xFFFFFFFFFFFFFFFFFFFFFFFFFFFFFFFFFFFFFFFF AND PUSH4 0x32A2C5D0 PUSH1 0x40 MLOAD DUP2 PUSH4 0xFFFFFFFF AND PUSH1 0xE0 SHL DUP2 MSTORE PUSH1 0x4 ADD PUSH1 0x20 PUSH1 0x40 MLOAD DUP1 DUP4 SUB DUP2 DUP7 DUP1 EXTCODESIZE ISZERO DUP1 ISZERO PUSH3 0x863 JUMPI PUSH1 0x0 DUP1 REVERT JUMPDEST POP GAS STATICCALL ISZERO DUP1 ISZERO PUSH3 0x878 JUMPI RETURNDATASIZE PUSH1 0x0 DUP1 RETURNDATACOPY RETURNDATASIZE PUSH1 0x0 REVERT JUMPDEST POP POP POP POP PUSH1 0x40 MLOAD RETURNDATASIZE PUSH1 0x1F NOT PUSH1 0x1F DUP3 ADD AND DUP3 ADD DUP1 PUSH1 0x40 MSTORE POP DUP2 ADD SWAP1 PUSH3 0x89E SWAP2 SWAP1 PUSH3 0xB99 JUMP JUMPDEST PUSH20 0xFFFFFFFFFFFFFFFFFFFFFFFFFFFFFFFFFFFFFFFF AND PUSH20 0xFFFFFFFFFFFFFFFFFFFFFFFFFFFFFFFFFFFFFFFF AND DUP2 MSTORE PUSH1 0x20 ADD SWAP1 DUP2 MSTORE PUSH1 0x20 ADD PUSH1 0x0 KECCAK256 PUSH1 0x0 PUSH2 0x100 EXP DUP2 SLOAD DUP2 PUSH20 0xFFFFFFFFFFFFFFFFFFFFFFFFFFFFFFFFFFFFFFFF MUL NOT AND SWAP1 DUP4 PUSH20 0xFFFFFFFFFFFFFFFFFFFFFFFFFFFFFFFFFFFFFFFF AND MUL OR SWAP1 SSTORE POP POP PUSH3 0x966 JUMP JUMPDEST CALLER PUSH20 0xFFFFFFFFFFFFFFFFFFFFFFFFFFFFFFFFFFFFFFFF AND PUSH2 0x8FC CALLVALUE SWAP1 DUP2 ISZERO MUL SWAP1 PUSH1 0x40 MLOAD PUSH1 0x0 PUSH1 0x40 MLOAD DUP1 DUP4 SUB DUP2 DUP6 DUP9 DUP9 CALL SWAP4 POP POP POP POP ISZERO DUP1 ISZERO PUSH3 0x964 JUMPI RETURNDATASIZE PUSH1 0x0 DUP1 RETURNDATACOPY RETURNDATASIZE PUSH1 0x0 REVERT JUMPDEST POP JUMPDEST POP JUMP JUMPDEST DUP1 PUSH1 0x40 MLOAD PUSH3 0x978 SWAP1 PUSH3 0xA2F JUMP JUMPDEST PUSH3 0x984 SWAP2 SWAP1 PUSH3 0xDAC JUMP JUMPDEST PUSH1 0x40 MLOAD DUP1 SWAP2 SUB SWAP1 PUSH1 0x0 CREATE DUP1 ISZERO DUP1 ISZERO PUSH3 0x9A1 JUMPI RETURNDATASIZE PUSH1 0x0 DUP1 RETURNDATACOPY RETURNDATASIZE PUSH1 0x0 REVERT JUMPDEST POP PUSH1 0x0 DUP1 CALLER PUSH20 0xFFFFFFFFFFFFFFFFFFFFFFFFFFFFFFFFFFFFFFFF AND PUSH20 0xFFFFFFFFFFFFFFFFFFFFFFFFFFFFFFFFFFFFFFFF AND DUP2 MSTORE PUSH1 0x20 ADD SWAP1 DUP2 MSTORE PUSH1 0x20 ADD PUSH1 0x0 KECCAK256 PUSH1 0x0 PUSH2 0x100 EXP DUP2 SLOAD DUP2 PUSH20 0xFFFFFFFFFFFFFFFFFFFFFFFFFFFFFFFFFFFFFFFF MUL NOT AND SWAP1 DUP4 PUSH20 0xFFFFFFFFFFFFFFFFFFFFFFFFFFFFFFFFFFFFFFFF AND MUL OR SWAP1 SSTORE POP POP JUMP JUMPDEST PUSH2 0x16E6 DUP1 PUSH3 0x1004 DUP4 CODECOPY ADD SWAP1 JUMP JUMPDEST PUSH2 0x650 DUP1 PUSH3 0x26EA DUP4 CODECOPY ADD SWAP1 JUMP JUMPDEST PUSH1 0x0 PUSH3 0xA54 PUSH3 0xA4E DUP5 PUSH3 0xE1B JUMP JUMPDEST PUSH3 0xDF2 JUMP JUMPDEST SWAP1 POP DUP3 DUP2 MSTORE PUSH1 0x20 DUP2 ADD DUP5 DUP5 DUP5 ADD GT ISZERO PUSH3 0xA73 JUMPI PUSH3 0xA72 PUSH3 0xFA0 JUMP JUMPDEST JUMPDEST PUSH3 0xA80 DUP5 DUP3 DUP6 PUSH3 0xEF1 JUMP JUMPDEST POP SWAP4 SWAP3 POP POP POP JUMP JUMPDEST PUSH1 0x0 PUSH3 0xA9F PUSH3 0xA99 DUP5 PUSH3 0xE1B JUMP JUMPDEST PUSH3 0xDF2 JUMP JUMPDEST SWAP1 POP DUP3 DUP2 MSTORE PUSH1 0x20 DUP2 ADD DUP5 DUP5 DUP5 ADD GT ISZERO PUSH3 0xABE JUMPI PUSH3 0xABD PUSH3 0xFA0 JUMP JUMPDEST JUMPDEST PUSH3 0xACB DUP5 DUP3 DUP6 PUSH3 0xF00 JUMP JUMPDEST POP SWAP4 SWAP3 POP POP POP JUMP JUMPDEST PUSH1 0x0 DUP2 CALLDATALOAD SWAP1 POP PUSH3 0xAE4 DUP2 PUSH3 0xFE9 JUMP JUMPDEST SWAP3 SWAP2 POP POP JUMP JUMPDEST PUSH1 0x0 DUP2 MLOAD SWAP1 POP PUSH3 0xAFB DUP2 PUSH3 0xFE9 JUMP JUMPDEST SWAP3 SWAP2 POP POP JUMP JUMPDEST PUSH1 0x0 DUP3 PUSH1 0x1F DUP4 ADD SLT PUSH3 0xB19 JUMPI PUSH3 0xB18 PUSH3 0xF9B JUMP JUMPDEST JUMPDEST DUP2 CALLDATALOAD PUSH3 0xB2B DUP5 DUP3 PUSH1 0x20 DUP7 ADD PUSH3 0xA3D JUMP JUMPDEST SWAP2 POP POP SWAP3 SWAP2 POP POP JUMP JUMPDEST PUSH1 0x0 DUP3 PUSH1 0x1F DUP4 ADD SLT PUSH3 0xB4C JUMPI PUSH3 0xB4B PUSH3 0xF9B JUMP JUMPDEST JUMPDEST DUP2 MLOAD PUSH3 0xB5E DUP5 DUP3 PUSH1 0x20 DUP7 ADD PUSH3 0xA88 JUMP JUMPDEST SWAP2 POP POP SWAP3 SWAP2 POP POP JUMP JUMPDEST PUSH1 0x0 PUSH1 0x20 DUP3 DUP5 SUB SLT ISZERO PUSH3 0xB80 JUMPI PUSH3 0xB7F PUSH3 0xFAA JUMP JUMPDEST JUMPDEST PUSH1 0x0 PUSH3 0xB90 DUP5 DUP3 DUP6 ADD PUSH3 0xAD3 JUMP JUMPDEST SWAP2 POP POP SWAP3 SWAP2 POP POP JUMP JUMPDEST PUSH1 0x0 PUSH1 0x20 DUP3 DUP5 SUB SLT ISZERO PUSH3 0xBB2 JUMPI PUSH3 0xBB1 PUSH3 0xFAA JUMP JUMPDEST JUMPDEST PUSH1 0x0 PUSH3 0xBC2 DUP5 DUP3 DUP6 ADD PUSH3 0xAEA JUMP JUMPDEST SWAP2 POP POP SWAP3 SWAP2 POP POP JUMP JUMPDEST PUSH1 0x0 DUP1 PUSH1 0x40 DUP4 DUP6 SUB SLT ISZERO PUSH3 0xBE5 JUMPI PUSH3 0xBE4 PUSH3 0xFAA JUMP JUMPDEST JUMPDEST PUSH1 0x0 PUSH3 0xBF5 DUP6 DUP3 DUP7 ADD PUSH3 0xAD3 JUMP JUMPDEST SWAP3 POP POP PUSH1 0x20 PUSH3 0xC08 DUP6 DUP3 DUP7 ADD PUSH3 0xAD3 JUMP JUMPDEST SWAP2 POP POP SWAP3 POP SWAP3 SWAP1 POP JUMP JUMPDEST PUSH1 0x0 PUSH1 0x20 DUP3 DUP5 SUB SLT ISZERO PUSH3 0xC2B JUMPI PUSH3 0xC2A PUSH3 0xFAA JUMP JUMPDEST JUMPDEST PUSH1 0x0 DUP3 ADD CALLDATALOAD PUSH8 0xFFFFFFFFFFFFFFFF DUP2 GT ISZERO PUSH3 0xC4C JUMPI PUSH3 0xC4B PUSH3 0xFA5 JUMP JUMPDEST JUMPDEST PUSH3 0xC5A DUP5 DUP3 DUP6 ADD PUSH3 0xB01 JUMP JUMPDEST SWAP2 POP POP SWAP3 SWAP2 POP POP JUMP JUMPDEST PUSH1 0x0 PUSH1 0x20 DUP3 DUP5 SUB SLT ISZERO PUSH3 0xC7C JUMPI PUSH3 0xC7B PUSH3 0xFAA JUMP JUMPDEST JUMPDEST PUSH1 0x0 DUP3 ADD MLOAD PUSH8 0xFFFFFFFFFFFFFFFF DUP2 GT ISZERO PUSH3 0xC9D JUMPI PUSH3 0xC9C PUSH3 0xFA5 JUMP JUMPDEST JUMPDEST PUSH3 0xCAB DUP5 DUP3 DUP6 ADD PUSH3 0xB34 JUMP JUMPDEST SWAP2 POP POP SWAP3 SWAP2 POP POP JUMP JUMPDEST PUSH3 0xCBF DUP2 PUSH3 0xEA1 JUMP JUMPDEST DUP3 MSTORE POP POP JUMP JUMPDEST PUSH3 0xCD0 DUP2 PUSH3 0xEC9 JUMP JUMPDEST DUP3 MSTORE POP POP JUMP JUMPDEST PUSH1 0x0 PUSH3 0xCE3 DUP3 PUSH3 0xE51 JUMP JUMPDEST PUSH3 0xCEF DUP2 DUP6 PUSH3 0xE5C JUMP JUMPDEST SWAP4 POP PUSH3 0xD01 DUP2 DUP6 PUSH1 0x20 DUP7 ADD PUSH3 0xF00 JUMP JUMPDEST PUSH3 0xD0C DUP2 PUSH3 0xFAF JUMP JUMPDEST DUP5 ADD SWAP2 POP POP SWAP3 SWAP2 POP POP JUMP JUMPDEST PUSH1 0x0 PUSH3 0xD26 PUSH1 0x1A DUP4 PUSH3 0xE5C JUMP JUMPDEST SWAP2 POP PUSH3 0xD33 DUP3 PUSH3 0xFC0 JUMP JUMPDEST PUSH1 0x20 DUP3 ADD SWAP1 POP SWAP2 SWAP1 POP JUMP JUMPDEST PUSH1 0x0 PUSH1 0x20 DUP3 ADD SWAP1 POP PUSH3 0xD55 PUSH1 0x0 DUP4 ADD DUP5 PUSH3 0xCB4 JUMP JUMPDEST SWAP3 SWAP2 POP POP JUMP JUMPDEST PUSH1 0x0 PUSH1 0x20 DUP3 ADD SWAP1 POP PUSH3 0xD72 PUSH1 0x0 DUP4 ADD DUP5 PUSH3 0xCC5 JUMP JUMPDEST SWAP3 SWAP2 POP POP JUMP JUMPDEST PUSH1 0x0 PUSH1 0x40 DUP3 ADD SWAP1 POP PUSH3 0xD8F PUSH1 0x0 DUP4 ADD DUP6 PUSH3 0xCC5 JUMP JUMPDEST DUP2 DUP2 SUB PUSH1 0x20 DUP4 ADD MSTORE PUSH3 0xDA3 DUP2 DUP5 PUSH3 0xCD6 JUMP JUMPDEST SWAP1 POP SWAP4 SWAP3 POP POP POP JUMP JUMPDEST PUSH1 0x0 PUSH1 0x20 DUP3 ADD SWAP1 POP DUP2 DUP2 SUB PUSH1 0x0 DUP4 ADD MSTORE PUSH3 0xDC8 DUP2 DUP5 PUSH3 0xCD6 JUMP JUMPDEST SWAP1 POP SWAP3 SWAP2 POP POP JUMP JUMPDEST PUSH1 0x0 PUSH1 0x20 DUP3 ADD SWAP1 POP DUP2 DUP2 SUB PUSH1 0x0 DUP4 ADD MSTORE PUSH3 0xDEB DUP2 PUSH3 0xD17 JUMP JUMPDEST SWAP1 POP SWAP2 SWAP1 POP JUMP JUMPDEST PUSH1 0x0 PUSH3 0xDFE PUSH3 0xE11 JUMP JUMPDEST SWAP1 POP PUSH3 0xE0C DUP3 DUP3 PUSH3 0xF36 JUMP JUMPDEST SWAP2 SWAP1 POP JUMP JUMPDEST PUSH1 0x0 PUSH1 0x40 MLOAD SWAP1 POP SWAP1 JUMP JUMPDEST PUSH1 0x0 PUSH8 0xFFFFFFFFFFFFFFFF DUP3 GT ISZERO PUSH3 0xE39 JUMPI PUSH3 0xE38 PUSH3 0xF6C JUMP JUMPDEST JUMPDEST PUSH3 0xE44 DUP3 PUSH3 0xFAF JUMP JUMPDEST SWAP1 POP PUSH1 0x20 DUP2 ADD SWAP1 POP SWAP2 SWAP1 POP JUMP JUMPDEST PUSH1 0x0 DUP2 MLOAD SWAP1 POP SWAP2 SWAP1 POP JUMP JUMPDEST PUSH1 0x0 DUP3 DUP3 MSTORE PUSH1 0x20 DUP3 ADD SWAP1 POP SWAP3 SWAP2 POP POP JUMP JUMPDEST PUSH1 0x0 PUSH3 0xE7A DUP3 PUSH3 0xE81 JUMP JUMPDEST SWAP1 POP SWAP2 SWAP1 POP JUMP JUMPDEST PUSH1 0x0 PUSH20 0xFFFFFFFFFFFFFFFFFFFFFFFFFFFFFFFFFFFFFFFF DUP3 AND SWAP1 POP SWAP2 SWAP1 POP JUMP JUMPDEST PUSH1 0x0 PUSH3 0xEAE DUP3 PUSH3 0xEB5 JUMP JUMPDEST SWAP1 POP SWAP2 SWAP1 POP JUMP JUMPDEST PUSH1 0x0 PUSH3 0xEC2 DUP3 PUSH3 0xE81 JUMP JUMPDEST SWAP1 POP SWAP2 SWAP1 POP JUMP JUMPDEST PUSH1 0x0 PUSH3 0xED6 DUP3 PUSH3 0xEDD JUMP JUMPDEST SWAP1 POP SWAP2 SWAP1 POP JUMP JUMPDEST PUSH1 0x0 PUSH3 0xEEA DUP3 PUSH3 0xE81 JUMP JUMPDEST SWAP1 POP SWAP2 SWAP1 POP JUMP JUMPDEST DUP3 DUP2 DUP4 CALLDATACOPY PUSH1 0x0 DUP4 DUP4 ADD MSTORE POP POP POP JUMP JUMPDEST PUSH1 0x0 JUMPDEST DUP4 DUP2 LT ISZERO PUSH3 0xF20 JUMPI DUP1 DUP3 ADD MLOAD DUP2 DUP5 ADD MSTORE PUSH1 0x20 DUP2 ADD SWAP1 POP PUSH3 0xF03 JUMP JUMPDEST DUP4 DUP2 GT ISZERO PUSH3 0xF30 JUMPI PUSH1 0x0 DUP5 DUP5 ADD MSTORE JUMPDEST POP POP POP POP JUMP JUMPDEST PUSH3 0xF41 DUP3 PUSH3 0xFAF JUMP JUMPDEST DUP2 ADD DUP2 DUP2 LT PUSH8 0xFFFFFFFFFFFFFFFF DUP3 GT OR ISZERO PUSH3 0xF63 JUMPI PUSH3 0xF62 PUSH3 0xF6C JUMP JUMPDEST JUMPDEST DUP1 PUSH1 0x40 MSTORE POP POP POP JUMP JUMPDEST PUSH32 0x4E487B7100000000000000000000000000000000000000000000000000000000 PUSH1 0x0 MSTORE PUSH1 0x41 PUSH1 0x4 MSTORE PUSH1 0x24 PUSH1 0x0 REVERT JUMPDEST PUSH1 0x0 DUP1 REVERT JUMPDEST PUSH1 0x0 DUP1 REVERT JUMPDEST PUSH1 0x0 DUP1 REVERT JUMPDEST PUSH1 0x0 DUP1 REVERT JUMPDEST PUSH1 0x0 PUSH1 0x1F NOT PUSH1 0x1F DUP4 ADD AND SWAP1 POP SWAP2 SWAP1 POP JUMP JUMPDEST PUSH32 0x796F7520617265206E6F74207265676973746572656420796574000000000000 PUSH1 0x0 DUP3 ADD MSTORE POP JUMP JUMPDEST PUSH3 0xFF4 DUP2 PUSH3 0xE6D JUMP JUMPDEST DUP2 EQ PUSH3 0x1000 JUMPI PUSH1 0x0 DUP1 REVERT JUMPDEST POP JUMP INVALID PUSH1 0x80 PUSH1 0x40 MSTORE PUSH1 0x40 MLOAD PUSH3 0x16E6 CODESIZE SUB DUP1 PUSH3 0x16E6 DUP4 CODECOPY DUP2 DUP2 ADD PUSH1 0x40 MSTORE DUP2 ADD SWAP1 PUSH3 0x29 SWAP2 SWAP1 PUSH3 0x217 JUMP JUMPDEST TIMESTAMP PUSH1 0x3 DUP2 SWAP1 SSTORE POP ADDRESS PUSH1 0x4 PUSH1 0x0 PUSH2 0x100 EXP DUP2 SLOAD DUP2 PUSH20 0xFFFFFFFFFFFFFFFFFFFFFFFFFFFFFFFFFFFFFFFF MUL NOT AND SWAP1 DUP4 PUSH20 0xFFFFFFFFFFFFFFFFFFFFFFFFFFFFFFFFFFFFFFFF AND MUL OR SWAP1 SSTORE POP DUP2 PUSH1 0x0 DUP1 PUSH2 0x100 EXP DUP2 SLOAD DUP2 PUSH20 0xFFFFFFFFFFFFFFFFFFFFFFFFFFFFFFFFFFFFFFFF MUL NOT AND SWAP1 DUP4 PUSH20 0xFFFFFFFFFFFFFFFFFFFFFFFFFFFFFFFFFFFFFFFF AND MUL OR SWAP1 SSTORE POP DUP1 PUSH1 0x2 SWAP1 DUP1 MLOAD SWAP1 PUSH1 0x20 ADD SWAP1 PUSH3 0xC9 SWAP3 SWAP2 SWAP1 PUSH3 0xD2 JUMP JUMPDEST POP POP POP PUSH3 0x463 JUMP JUMPDEST DUP3 DUP1 SLOAD PUSH3 0xE0 SWAP1 PUSH3 0x35A JUMP JUMPDEST SWAP1 PUSH1 0x0 MSTORE PUSH1 0x20 PUSH1 0x0 KECCAK256 SWAP1 PUSH1 0x1F ADD PUSH1 0x20 SWAP1 DIV DUP2 ADD SWAP3 DUP3 PUSH3 0x104 JUMPI PUSH1 0x0 DUP6 SSTORE PUSH3 0x150 JUMP JUMPDEST DUP3 PUSH1 0x1F LT PUSH3 0x11F JUMPI DUP1 MLOAD PUSH1 0xFF NOT AND DUP4 DUP1 ADD OR DUP6 SSTORE PUSH3 0x150 JUMP JUMPDEST DUP3 DUP1 ADD PUSH1 0x1 ADD DUP6 SSTORE DUP3 ISZERO PUSH3 0x150 JUMPI SWAP2 DUP3 ADD JUMPDEST DUP3 DUP2 GT ISZERO PUSH3 0x14F JUMPI DUP3 MLOAD DUP3 SSTORE SWAP2 PUSH1 0x20 ADD SWAP2 SWAP1 PUSH1 0x1 ADD SWAP1 PUSH3 0x132 JUMP JUMPDEST JUMPDEST POP SWAP1 POP PUSH3 0x15F SWAP2 SWAP1 PUSH3 0x163 JUMP JUMPDEST POP SWAP1 JUMP JUMPDEST JUMPDEST DUP1 DUP3 GT ISZERO PUSH3 0x17E JUMPI PUSH1 0x0 DUP2 PUSH1 0x0 SWAP1 SSTORE POP PUSH1 0x1 ADD PUSH3 0x164 JUMP JUMPDEST POP SWAP1 JUMP JUMPDEST PUSH1 0x0 PUSH3 0x199 PUSH3 0x193 DUP5 PUSH3 0x2A6 JUMP JUMPDEST PUSH3 0x27D JUMP JUMPDEST SWAP1 POP DUP3 DUP2 MSTORE PUSH1 0x20 DUP2 ADD DUP5 DUP5 DUP5 ADD GT ISZERO PUSH3 0x1B8 JUMPI PUSH3 0x1B7 PUSH3 0x429 JUMP JUMPDEST JUMPDEST PUSH3 0x1C5 DUP5 DUP3 DUP6 PUSH3 0x324 JUMP JUMPDEST POP SWAP4 SWAP3 POP POP POP JUMP JUMPDEST PUSH1 0x0 DUP2 MLOAD SWAP1 POP PUSH3 0x1DE DUP2 PUSH3 0x449 JUMP JUMPDEST SWAP3 SWAP2 POP POP JUMP JUMPDEST PUSH1 0x0 DUP3 PUSH1 0x1F DUP4 ADD SLT PUSH3 0x1FC JUMPI PUSH3 0x1FB PUSH3 0x424 JUMP JUMPDEST JUMPDEST DUP2 MLOAD PUSH3 0x20E DUP5 DUP3 PUSH1 0x20 DUP7 ADD PUSH3 0x182 JUMP JUMPDEST SWAP2 POP POP SWAP3 SWAP2 POP POP JUMP JUMPDEST PUSH1 0x0 DUP1 PUSH1 0x40 DUP4 DUP6 SUB SLT ISZERO PUSH3 0x231 JUMPI PUSH3 0x230 PUSH3 0x433 JUMP JUMPDEST JUMPDEST PUSH1 0x0 PUSH3 0x241 DUP6 DUP3 DUP7 ADD PUSH3 0x1CD JUMP JUMPDEST SWAP3 POP POP PUSH1 0x20 DUP4 ADD MLOAD PUSH8 0xFFFFFFFFFFFFFFFF DUP2 GT ISZERO PUSH3 0x265 JUMPI PUSH3 0x264 PUSH3 0x42E JUMP JUMPDEST JUMPDEST PUSH3 0x273 DUP6 DUP3 DUP7 ADD PUSH3 0x1E4 JUMP JUMPDEST SWAP2 POP POP SWAP3 POP SWAP3 SWAP1 POP JUMP JUMPDEST PUSH1 0x0 PUSH3 0x289 PUSH3 0x29C JUMP JUMPDEST SWAP1 POP PUSH3 0x297 DUP3 DUP3 PUSH3 0x390 JUMP JUMPDEST SWAP2 SWAP1 POP JUMP JUMPDEST PUSH1 0x0 PUSH1 0x40 MLOAD SWAP1 POP SWAP1 JUMP JUMPDEST PUSH1 0x0 PUSH8 0xFFFFFFFFFFFFFFFF DUP3 GT ISZERO PUSH3 0x2C4 JUMPI PUSH3 0x2C3 PUSH3 0x3F5 JUMP JUMPDEST JUMPDEST PUSH3 0x2CF DUP3 PUSH3 0x438 JUMP JUMPDEST SWAP1 POP PUSH1 0x20 DUP2 ADD SWAP1 POP SWAP2 SWAP1 POP JUMP JUMPDEST PUSH1 0x0 PUSH3 0x2E9 DUP3 PUSH3 0x304 JUMP JUMPDEST SWAP1 POP SWAP2 SWAP1 POP JUMP JUMPDEST PUSH1 0x0 PUSH3 0x2FD DUP3 PUSH3 0x2DC JUMP JUMPDEST SWAP1 POP SWAP2 SWAP1 POP JUMP JUMPDEST PUSH1 0x0 PUSH20 0xFFFFFFFFFFFFFFFFFFFFFFFFFFFFFFFFFFFFFFFF DUP3 AND SWAP1 POP SWAP2 SWAP1 POP JUMP JUMPDEST PUSH1 0x0 JUMPDEST DUP4 DUP2 LT ISZERO PUSH3 0x344 JUMPI DUP1 DUP3 ADD MLOAD DUP2 DUP5 ADD MSTORE PUSH1 0x20 DUP2 ADD SWAP1 POP PUSH3 0x327 JUMP JUMPDEST DUP4 DUP2 GT ISZERO PUSH3 0x354 JUMPI PUSH1 0x0 DUP5 DUP5 ADD MSTORE JUMPDEST POP POP POP POP JUMP JUMPDEST PUSH1 0x0 PUSH1 0x2 DUP3 DIV SWAP1 POP PUSH1 0x1 DUP3 AND DUP1 PUSH3 0x373 JUMPI PUSH1 0x7F DUP3 AND SWAP2 POP JUMPDEST PUSH1 0x20 DUP3 LT DUP2 EQ ISZERO PUSH3 0x38A JUMPI PUSH3 0x389 PUSH3 0x3C6 JUMP JUMPDEST JUMPDEST POP SWAP2 SWAP1 POP JUMP JUMPDEST PUSH3 0x39B DUP3 PUSH3 0x438 JUMP JUMPDEST DUP2 ADD DUP2 DUP2 LT PUSH8 0xFFFFFFFFFFFFFFFF DUP3 GT OR ISZERO PUSH3 0x3BD JUMPI PUSH3 0x3BC PUSH3 0x3F5 JUMP JUMPDEST JUMPDEST DUP1 PUSH1 0x40 MSTORE POP POP POP JUMP JUMPDEST PUSH32 0x4E487B7100000000000000000000000000000000000000000000000000000000 PUSH1 0x0 MSTORE PUSH1 0x22 PUSH1 0x4 MSTORE PUSH1 0x24 PUSH1 0x0 REVERT JUMPDEST PUSH32 0x4E487B7100000000000000000000000000000000000000000000000000000000 PUSH1 0x0 MSTORE PUSH1 0x41 PUSH1 0x4 MSTORE PUSH1 0x24 PUSH1 0x0 REVERT JUMPDEST PUSH1 0x0 DUP1 REVERT JUMPDEST PUSH1 0x0 DUP1 REVERT JUMPDEST PUSH1 0x0 DUP1 REVERT JUMPDEST PUSH1 0x0 DUP1 REVERT JUMPDEST PUSH1 0x0 PUSH1 0x1F NOT PUSH1 0x1F DUP4 ADD AND SWAP1 POP SWAP2 SWAP1 POP JUMP JUMPDEST PUSH3 0x454 DUP2 PUSH3 0x2F0 JUMP JUMPDEST DUP2 EQ PUSH3 0x460 JUMPI PUSH1 0x0 DUP1 REVERT JUMPDEST POP JUMP JUMPDEST PUSH2 0x1273 DUP1 PUSH3 0x473 PUSH1 0x0 CODECOPY PUSH1 0x0 RETURN INVALID PUSH1 0x80 PUSH1 0x40 MSTORE CALLVALUE DUP1 ISZERO PUSH2 0x10 JUMPI PUSH1 0x0 DUP1 REVERT JUMPDEST POP PUSH1 0x4 CALLDATASIZE LT PUSH2 0x7D JUMPI PUSH1 0x0 CALLDATALOAD PUSH1 0xE0 SHR DUP1 PUSH4 0x8EA72405 GT PUSH2 0x5B JUMPI DUP1 PUSH4 0x8EA72405 EQ PUSH2 0xDA JUMPI DUP1 PUSH4 0xAF8D148F EQ PUSH2 0x10A JUMPI DUP1 PUSH4 0xCA6D56DC EQ PUSH2 0x126 JUMPI DUP1 PUSH4 0xDFB29935 EQ PUSH2 0x142 JUMPI PUSH2 0x7D JUMP JUMPDEST DUP1 PUSH4 0x32A2C5D0 EQ PUSH2 0x82 JUMPI DUP1 PUSH4 0x49BE546F EQ PUSH2 0xA0 JUMPI DUP1 PUSH4 0x8418DDE2 EQ PUSH2 0xBC JUMPI JUMPDEST PUSH1 0x0 DUP1 REVERT JUMPDEST PUSH2 0x8A PUSH2 0x15E JUMP JUMPDEST PUSH1 0x40 MLOAD PUSH2 0x97 SWAP2 SWAP1 PUSH2 0xD92 JUMP JUMPDEST PUSH1 0x40 MLOAD DUP1 SWAP2 SUB SWAP1 RETURN JUMPDEST PUSH2 0xBA PUSH1 0x4 DUP1 CALLDATASIZE SUB DUP2 ADD SWAP1 PUSH2 0xB5 SWAP2 SWAP1 PUSH2 0xB3B JUMP JUMPDEST PUSH2 0x188 JUMP JUMPDEST STOP JUMPDEST PUSH2 0xC4 PUSH2 0x1EE JUMP JUMPDEST PUSH1 0x40 MLOAD PUSH2 0xD1 SWAP2 SWAP1 PUSH2 0xDAD JUMP JUMPDEST PUSH1 0x40 MLOAD DUP1 SWAP2 SUB SWAP1 RETURN JUMPDEST PUSH2 0xF4 PUSH1 0x4 DUP1 CALLDATASIZE SUB DUP2 ADD SWAP1 PUSH2 0xEF SWAP2 SWAP1 PUSH2 0xB68 JUMP JUMPDEST PUSH2 0x3D2 JUMP JUMPDEST PUSH1 0x40 MLOAD PUSH2 0x101 SWAP2 SWAP1 PUSH2 0xDEF JUMP JUMPDEST PUSH1 0x40 MLOAD DUP1 SWAP2 SUB SWAP1 RETURN JUMPDEST PUSH2 0x124 PUSH1 0x4 DUP1 CALLDATASIZE SUB DUP2 ADD SWAP1 PUSH2 0x11F SWAP2 SWAP1 PUSH2 0xADF JUMP JUMPDEST PUSH2 0x489 JUMP JUMPDEST STOP JUMPDEST PUSH2 0x140 PUSH1 0x4 DUP1 CALLDATASIZE SUB DUP2 ADD SWAP1 PUSH2 0x13B SWAP2 SWAP1 PUSH2 0xB3B JUMP JUMPDEST PUSH2 0x6CB JUMP JUMPDEST STOP JUMPDEST PUSH2 0x15C PUSH1 0x4 DUP1 CALLDATASIZE SUB DUP2 ADD SWAP1 PUSH2 0x157 SWAP2 SWAP1 PUSH2 0xB68 JUMP JUMPDEST PUSH2 0x83C JUMP JUMPDEST STOP JUMPDEST PUSH1 0x0 PUSH1 0x4 PUSH1 0x0 SWAP1 SLOAD SWAP1 PUSH2 0x100 EXP SWAP1 DIV PUSH20 0xFFFFFFFFFFFFFFFFFFFFFFFFFFFFFFFFFFFFFFFF AND SWAP1 POP SWAP1 JUMP JUMPDEST PUSH1 0x7 DUP2 SWAP1 DUP1 PUSH1 0x1 DUP2 SLOAD ADD DUP1 DUP3 SSTORE DUP1 SWAP2 POP POP PUSH1 0x1 SWAP1 SUB SWAP1 PUSH1 0x0 MSTORE PUSH1 0x20 PUSH1 0x0 KECCAK256 ADD PUSH1 0x0 SWAP1 SWAP2 SWAP1 SWAP2 SWAP1 SWAP2 PUSH2 0x100 EXP DUP2 SLOAD DUP2 PUSH20 0xFFFFFFFFFFFFFFFFFFFFFFFFFFFFFFFFFFFFFFFF MUL NOT AND SWAP1 DUP4 PUSH20 0xFFFFFFFFFFFFFFFFFFFFFFFFFFFFFFFFFFFFFFFF AND MUL OR SWAP1 SSTORE POP POP JUMP JUMPDEST PUSH1 0x60 PUSH1 0x0 DUP1 SLOAD SWAP1 PUSH2 0x100 EXP SWAP1 DIV PUSH20 0xFFFFFFFFFFFFFFFFFFFFFFFFFFFFFFFFFFFFFFFF AND PUSH20 0xFFFFFFFFFFFFFFFFFFFFFFFFFFFFFFFFFFFFFFFF AND PUSH4 0xA74C2BB6 PUSH1 0x40 MLOAD DUP2 PUSH4 0xFFFFFFFF AND PUSH1 0xE0 SHL DUP2 MSTORE PUSH1 0x4 ADD PUSH1 0x20 PUSH1 0x40 MLOAD DUP1 DUP4 SUB DUP2 DUP7 DUP1 EXTCODESIZE ISZERO DUP1 ISZERO PUSH2 0x256 JUMPI PUSH1 0x0 DUP1 REVERT JUMPDEST POP GAS STATICCALL ISZERO DUP1 ISZERO PUSH2 0x26A JUMPI RETURNDATASIZE PUSH1 0x0 DUP1 RETURNDATACOPY RETURNDATASIZE PUSH1 0x0 REVERT JUMPDEST POP POP POP POP PUSH1 0x40 MLOAD RETURNDATASIZE PUSH1 0x1F NOT PUSH1 0x1F DUP3 ADD AND DUP3 ADD DUP1 PUSH1 0x40 MSTORE POP DUP2 ADD SWAP1 PUSH2 0x28E SWAP2 SWAP1 PUSH2 0xAB2 JUMP JUMPDEST PUSH20 0xFFFFFFFFFFFFFFFFFFFFFFFFFFFFFFFFFFFFFFFF AND CALLER PUSH20 0xFFFFFFFFFFFFFFFFFFFFFFFFFFFFFFFFFFFFFFFF AND EQ PUSH2 0x2FB JUMPI PUSH1 0x40 MLOAD PUSH32 0x8C379A000000000000000000000000000000000000000000000000000000000 DUP2 MSTORE PUSH1 0x4 ADD PUSH2 0x2F2 SWAP1 PUSH2 0xDCF JUMP JUMPDEST PUSH1 0x40 MLOAD DUP1 SWAP2 SUB SWAP1 REVERT JUMPDEST PUSH1 0x6 DUP1 SLOAD DUP1 PUSH1 0x20 MUL PUSH1 0x20 ADD PUSH1 0x40 MLOAD SWAP1 DUP2 ADD PUSH1 0x40 MSTORE DUP1 SWAP3 SWAP2 SWAP1 DUP2 DUP2 MSTORE PUSH1 0x20 ADD PUSH1 0x0 SWAP1 JUMPDEST DUP3 DUP3 LT ISZERO PUSH2 0x3C9 JUMPI DUP4 DUP3 SWAP1 PUSH1 0x0 MSTORE PUSH1 0x20 PUSH1 0x0 KECCAK256 ADD DUP1 SLOAD PUSH2 0x33C SWAP1 PUSH2 0x102A JUMP JUMPDEST DUP1 PUSH1 0x1F ADD PUSH1 0x20 DUP1 SWAP2 DIV MUL PUSH1 0x20 ADD PUSH1 0x40 MLOAD SWAP1 DUP2 ADD PUSH1 0x40 MSTORE DUP1 SWAP3 SWAP2 SWAP1 DUP2 DUP2 MSTORE PUSH1 0x20 ADD DUP3 DUP1 SLOAD PUSH2 0x368 SWAP1 PUSH2 0x102A JUMP JUMPDEST DUP1 ISZERO PUSH2 0x3B5 JUMPI DUP1 PUSH1 0x1F LT PUSH2 0x38A JUMPI PUSH2 0x100 DUP1 DUP4 SLOAD DIV MUL DUP4 MSTORE SWAP2 PUSH1 0x20 ADD SWAP2 PUSH2 0x3B5 JUMP JUMPDEST DUP3 ADD SWAP2 SWAP1 PUSH1 0x0 MSTORE PUSH1 0x20 PUSH1 0x0 KECCAK256 SWAP1 JUMPDEST DUP2 SLOAD DUP2 MSTORE SWAP1 PUSH1 0x1 ADD SWAP1 PUSH1 0x20 ADD DUP1 DUP4 GT PUSH2 0x398 JUMPI DUP3 SWAP1 SUB PUSH1 0x1F AND DUP3 ADD SWAP2 JUMPDEST POP POP POP POP POP DUP2 MSTORE PUSH1 0x20 ADD SWAP1 PUSH1 0x1 ADD SWAP1 PUSH2 0x31D JUMP JUMPDEST POP POP POP POP SWAP1 POP SWAP1 JUMP JUMPDEST PUSH1 0x0 DUP1 PUSH1 0x0 SWAP1 POP JUMPDEST PUSH1 0x6 DUP1 SLOAD SWAP1 POP DUP2 LT ISZERO PUSH2 0x47E JUMPI DUP3 PUSH1 0x40 MLOAD PUSH1 0x20 ADD PUSH2 0x3F8 SWAP2 SWAP1 PUSH2 0xD64 JUMP JUMPDEST PUSH1 0x40 MLOAD PUSH1 0x20 DUP2 DUP4 SUB SUB DUP2 MSTORE SWAP1 PUSH1 0x40 MSTORE DUP1 MLOAD SWAP1 PUSH1 0x20 ADD KECCAK256 PUSH1 0x6 DUP3 DUP2 SLOAD DUP2 LT PUSH2 0x422 JUMPI PUSH2 0x421 PUSH2 0x1163 JUMP JUMPDEST JUMPDEST SWAP1 PUSH1 0x0 MSTORE PUSH1 0x20 PUSH1 0x0 KECCAK256 ADD PUSH1 0x40 MLOAD PUSH1 0x20 ADD PUSH2 0x43C SWAP2 SWAP1 PUSH2 0xD7B JUMP JUMPDEST PUSH1 0x40 MLOAD PUSH1 0x20 DUP2 DUP4 SUB SUB DUP2 MSTORE SWAP1 PUSH1 0x40 MSTORE DUP1 MLOAD SWAP1 PUSH1 0x20 ADD KECCAK256 EQ ISZERO PUSH2 0x46D JUMPI PUSH1 0x1 DUP2 PUSH2 0x465 SWAP2 SWAP1 PUSH2 0xEE6 JUMP JUMPDEST SWAP2 POP POP PUSH2 0x484 JUMP JUMPDEST DUP1 PUSH2 0x477 SWAP1 PUSH2 0x108D JUMP JUMPDEST SWAP1 POP PUSH2 0x3DA JUMP JUMPDEST POP PUSH1 0x0 SWAP1 POP JUMPDEST SWAP2 SWAP1 POP JUMP JUMPDEST PUSH1 0x0 DUP1 SLOAD SWAP1 PUSH2 0x100 EXP SWAP1 DIV PUSH20 0xFFFFFFFFFFFFFFFFFFFFFFFFFFFFFFFFFFFFFFFF AND PUSH20 0xFFFFFFFFFFFFFFFFFFFFFFFFFFFFFFFFFFFFFFFF AND PUSH4 0xA74C2BB6 PUSH1 0x40 MLOAD DUP2 PUSH4 0xFFFFFFFF AND PUSH1 0xE0 SHL DUP2 MSTORE PUSH1 0x4 ADD PUSH1 0x20 PUSH1 0x40 MLOAD DUP1 DUP4 SUB DUP2 DUP7 DUP1 EXTCODESIZE ISZERO DUP1 ISZERO PUSH2 0x4EF JUMPI PUSH1 0x0 DUP1 REVERT JUMPDEST POP GAS STATICCALL ISZERO DUP1 ISZERO PUSH2 0x503 JUMPI RETURNDATASIZE PUSH1 0x0 DUP1 RETURNDATACOPY RETURNDATASIZE PUSH1 0x0 REVERT JUMPDEST POP POP POP POP PUSH1 0x40 MLOAD RETURNDATASIZE PUSH1 0x1F NOT PUSH1 0x1F DUP3 ADD AND DUP3 ADD DUP1 PUSH1 0x40 MSTORE POP DUP2 ADD SWAP1 PUSH2 0x527 SWAP2 SWAP1 PUSH2 0xAB2 JUMP JUMPDEST PUSH20 0xFFFFFFFFFFFFFFFFFFFFFFFFFFFFFFFFFFFFFFFF AND CALLER PUSH20 0xFFFFFFFFFFFFFFFFFFFFFFFFFFFFFFFFFFFFFFFF AND EQ PUSH2 0x594 JUMPI PUSH1 0x40 MLOAD PUSH32 0x8C379A000000000000000000000000000000000000000000000000000000000 DUP2 MSTORE PUSH1 0x4 ADD PUSH2 0x58B SWAP1 PUSH2 0xDCF JUMP JUMPDEST PUSH1 0x40 MLOAD DUP1 SWAP2 SUB SWAP1 REVERT JUMPDEST PUSH1 0x0 PUSH2 0x59F DUP3 PUSH2 0x3D2 JUMP JUMPDEST SWAP1 POP PUSH1 0x0 DUP2 EQ PUSH2 0x6C6 JUMPI DUP1 DUP1 PUSH2 0x5B4 SWAP1 PUSH2 0x1000 JUMP JUMPDEST SWAP2 POP POP PUSH1 0x5 PUSH1 0x0 DUP5 PUSH20 0xFFFFFFFFFFFFFFFFFFFFFFFFFFFFFFFFFFFFFFFF AND PUSH20 0xFFFFFFFFFFFFFFFFFFFFFFFFFFFFFFFFFFFFFFFF AND DUP2 MSTORE PUSH1 0x20 ADD SWAP1 DUP2 MSTORE PUSH1 0x20 ADD PUSH1 0x0 KECCAK256 DUP3 SWAP1 DUP1 PUSH1 0x1 DUP2 SLOAD ADD DUP1 DUP3 SSTORE DUP1 SWAP2 POP POP PUSH1 0x1 SWAP1 SUB SWAP1 PUSH1 0x0 MSTORE PUSH1 0x20 PUSH1 0x0 KECCAK256 ADD PUSH1 0x0 SWAP1 SWAP2 SWAP1 SWAP2 SWAP1 SWAP2 POP SWAP1 DUP1 MLOAD SWAP1 PUSH1 0x20 ADD SWAP1 PUSH2 0x62F SWAP3 SWAP2 SWAP1 PUSH2 0x893 JUMP JUMPDEST POP PUSH1 0x6 PUSH1 0x1 PUSH1 0x6 DUP1 SLOAD SWAP1 POP PUSH2 0x644 SWAP2 SWAP1 PUSH2 0xF3C JUMP JUMPDEST DUP2 SLOAD DUP2 LT PUSH2 0x655 JUMPI PUSH2 0x654 PUSH2 0x1163 JUMP JUMPDEST JUMPDEST SWAP1 PUSH1 0x0 MSTORE PUSH1 0x20 PUSH1 0x0 KECCAK256 ADD PUSH1 0x6 DUP3 DUP2 SLOAD DUP2 LT PUSH2 0x673 JUMPI PUSH2 0x672 PUSH2 0x1163 JUMP JUMPDEST JUMPDEST SWAP1 PUSH1 0x0 MSTORE PUSH1 0x20 PUSH1 0x0 KECCAK256 ADD SWAP1 DUP1 SLOAD PUSH2 0x689 SWAP1 PUSH2 0x102A JUMP JUMPDEST PUSH2 0x694 SWAP3 SWAP2 SWAP1 PUSH2 0x919 JUMP JUMPDEST POP PUSH1 0x6 DUP1 SLOAD DUP1 PUSH2 0x6A7 JUMPI PUSH2 0x6A6 PUSH2 0x1134 JUMP JUMPDEST JUMPDEST PUSH1 0x1 SWAP1 SUB DUP2 DUP2 SWAP1 PUSH1 0x0 MSTORE PUSH1 0x20 PUSH1 0x0 KECCAK256 ADD PUSH1 0x0 PUSH2 0x6C3 SWAP2 SWAP1 PUSH2 0x9A6 JUMP JUMPDEST SWAP1 SSTORE JUMPDEST POP POP POP JUMP JUMPDEST PUSH1 0x0 DUP1 SLOAD SWAP1 PUSH2 0x100 EXP SWAP1 DIV PUSH20 0xFFFFFFFFFFFFFFFFFFFFFFFFFFFFFFFFFFFFFFFF AND PUSH20 0xFFFFFFFFFFFFFFFFFFFFFFFFFFFFFFFFFFFFFFFF AND PUSH4 0xA74C2BB6 PUSH1 0x40 MLOAD DUP2 PUSH4 0xFFFFFFFF AND PUSH1 0xE0 SHL DUP2 MSTORE PUSH1 0x4 ADD PUSH1 0x20 PUSH1 0x40 MLOAD DUP1 DUP4 SUB DUP2 DUP7 DUP1 EXTCODESIZE ISZERO DUP1 ISZERO PUSH2 0x731 JUMPI PUSH1 0x0 DUP1 REVERT JUMPDEST POP GAS STATICCALL ISZERO DUP1 ISZERO PUSH2 0x745 JUMPI RETURNDATASIZE PUSH1 0x0 DUP1 RETURNDATACOPY RETURNDATASIZE PUSH1 0x0 REVERT JUMPDEST POP POP POP POP PUSH1 0x40 MLOAD RETURNDATASIZE PUSH1 0x1F NOT PUSH1 0x1F DUP3 ADD AND DUP3 ADD DUP1 PUSH1 0x40 MSTORE POP DUP2 ADD SWAP1 PUSH2 0x769 SWAP2 SWAP1 PUSH2 0xAB2 JUMP JUMPDEST PUSH20 0xFFFFFFFFFFFFFFFFFFFFFFFFFFFFFFFFFFFFFFFF AND CALLER PUSH20 0xFFFFFFFFFFFFFFFFFFFFFFFFFFFFFFFFFFFFFFFF AND EQ PUSH2 0x7D6 JUMPI PUSH1 0x40 MLOAD PUSH32 0x8C379A000000000000000000000000000000000000000000000000000000000 DUP2 MSTORE PUSH1 0x4 ADD PUSH2 0x7CD SWAP1 PUSH2 0xDCF JUMP JUMPDEST PUSH1 0x40 MLOAD DUP1 SWAP2 SUB SWAP1 REVERT JUMPDEST PUSH1 0x1 DUP2 SWAP1 DUP1 PUSH1 0x1 DUP2 SLOAD ADD DUP1 DUP3 SSTORE DUP1 SWAP2 POP POP PUSH1 0x1 SWAP1 SUB SWAP1 PUSH1 0x0 MSTORE PUSH1 0x20 PUSH1 0x0 KECCAK256 ADD PUSH1 0x0 SWAP1 SWAP2 SWAP1 SWAP2 SWAP1 SWAP2 PUSH2 0x100 EXP DUP2 SLOAD DUP2 PUSH20 0xFFFFFFFFFFFFFFFFFFFFFFFFFFFFFFFFFFFFFFFF MUL NOT AND SWAP1 DUP4 PUSH20 0xFFFFFFFFFFFFFFFFFFFFFFFFFFFFFFFFFFFFFFFF AND MUL OR SWAP1 SSTORE POP POP JUMP JUMPDEST PUSH1 0x0 PUSH2 0x847 DUP3 PUSH2 0x3D2 JUMP JUMPDEST SWAP1 POP PUSH1 0x0 DUP2 EQ ISZERO PUSH2 0x88F JUMPI PUSH1 0x6 DUP3 SWAP1 DUP1 PUSH1 0x1 DUP2 SLOAD ADD DUP1 DUP3 SSTORE DUP1 SWAP2 POP POP PUSH1 0x1 SWAP1 SUB SWAP1 PUSH1 0x0 MSTORE PUSH1 0x20 PUSH1 0x0 KECCAK256 ADD PUSH1 0x0 SWAP1 SWAP2 SWAP1 SWAP2 SWAP1 SWAP2 POP SWAP1 DUP1 MLOAD SWAP1 PUSH1 0x20 ADD SWAP1 PUSH2 0x88D SWAP3 SWAP2 SWAP1 PUSH2 0x893 JUMP JUMPDEST POP JUMPDEST POP POP JUMP JUMPDEST DUP3 DUP1 SLOAD PUSH2 0x89F SWAP1 PUSH2 0x102A JUMP JUMPDEST SWAP1 PUSH1 0x0 MSTORE PUSH1 0x20 PUSH1 0x0 KECCAK256 SWAP1 PUSH1 0x1F ADD PUSH1 0x20 SWAP1 DIV DUP2 ADD SWAP3 DUP3 PUSH2 0x8C1 JUMPI PUSH1 0x0 DUP6 SSTORE PUSH2 0x908 JUMP JUMPDEST DUP3 PUSH1 0x1F LT PUSH2 0x8DA JUMPI DUP1 MLOAD PUSH1 0xFF NOT AND DUP4 DUP1 ADD OR DUP6 SSTORE PUSH2 0x908 JUMP JUMPDEST DUP3 DUP1 ADD PUSH1 0x1 ADD DUP6 SSTORE DUP3 ISZERO PUSH2 0x908 JUMPI SWAP2 DUP3 ADD JUMPDEST DUP3 DUP2 GT ISZERO PUSH2 0x907 JUMPI DUP3 MLOAD DUP3 SSTORE SWAP2 PUSH1 0x20 ADD SWAP2 SWAP1 PUSH1 0x1 ADD SWAP1 PUSH2 0x8EC JUMP JUMPDEST JUMPDEST POP SWAP1 POP PUSH2 0x915 SWAP2 SWAP1 PUSH2 0x9E6 JUMP JUMPDEST POP SWAP1 JUMP JUMPDEST DUP3 DUP1 SLOAD PUSH2 0x925 SWAP1 PUSH2 0x102A JUMP JUMPDEST SWAP1 PUSH1 0x0 MSTORE PUSH1 0x20 PUSH1 0x0 KECCAK256 SWAP1 PUSH1 0x1F ADD PUSH1 0x20 SWAP1 DIV DUP2 ADD SWAP3 DUP3 PUSH2 0x947 JUMPI PUSH1 0x0 DUP6 SSTORE PUSH2 0x995 JUMP JUMPDEST DUP3 PUSH1 0x1F LT PUSH2 0x958 JUMPI DUP1 SLOAD DUP6 SSTORE PUSH2 0x995 JUMP JUMPDEST DUP3 DUP1 ADD PUSH1 0x1 ADD DUP6 SSTORE DUP3 ISZERO PUSH2 0x995 JUMPI PUSH1 0x0 MSTORE PUSH1 0x20 PUSH1 0x0 KECCAK256 SWAP2 PUSH1 0x1F ADD PUSH1 0x20 SWAP1 DIV DUP3 ADD JUMPDEST DUP3 DUP2 GT ISZERO PUSH2 0x994 JUMPI DUP3 SLOAD DUP3 SSTORE SWAP2 PUSH1 0x1 ADD SWAP2 SWAP1 PUSH1 0x1 ADD SWAP1 PUSH2 0x979 JUMP JUMPDEST JUMPDEST POP SWAP1 POP PUSH2 0x9A2 SWAP2 SWAP1 PUSH2 0x9E6 JUMP JUMPDEST POP SWAP1 JUMP JUMPDEST POP DUP1 SLOAD PUSH2 0x9B2 SWAP1 PUSH2 0x102A JUMP JUMPDEST PUSH1 0x0 DUP3 SSTORE DUP1 PUSH1 0x1F LT PUSH2 0x9C4 JUMPI POP PUSH2 0x9E3 JUMP JUMPDEST PUSH1 0x1F ADD PUSH1 0x20 SWAP1 DIV SWAP1 PUSH1 0x0 MSTORE PUSH1 0x20 PUSH1 0x0 KECCAK256 SWAP1 DUP2 ADD SWAP1 PUSH2 0x9E2 SWAP2 SWAP1 PUSH2 0x9E6 JUMP JUMPDEST JUMPDEST POP JUMP JUMPDEST JUMPDEST DUP1 DUP3 GT ISZERO PUSH2 0x9FF JUMPI PUSH1 0x0 DUP2 PUSH1 0x0 SWAP1 SSTORE POP PUSH1 0x1 ADD PUSH2 0x9E7 JUMP JUMPDEST POP SWAP1 JUMP JUMPDEST PUSH1 0x0 PUSH2 0xA16 PUSH2 0xA11 DUP5 PUSH2 0xE2F JUMP JUMPDEST PUSH2 0xE0A JUMP JUMPDEST SWAP1 POP DUP3 DUP2 MSTORE PUSH1 0x20 DUP2 ADD DUP5 DUP5 DUP5 ADD GT ISZERO PUSH2 0xA32 JUMPI PUSH2 0xA31 PUSH2 0x11C6 JUMP JUMPDEST JUMPDEST PUSH2 0xA3D DUP5 DUP3 DUP6 PUSH2 0xFBE JUMP JUMPDEST POP SWAP4 SWAP3 POP POP POP JUMP JUMPDEST PUSH1 0x0 DUP2 CALLDATALOAD SWAP1 POP PUSH2 0xA54 DUP2 PUSH2 0x120F JUMP JUMPDEST SWAP3 SWAP2 POP POP JUMP JUMPDEST PUSH1 0x0 DUP2 MLOAD SWAP1 POP PUSH2 0xA69 DUP2 PUSH2 0x120F JUMP JUMPDEST SWAP3 SWAP2 POP POP JUMP JUMPDEST PUSH1 0x0 DUP2 CALLDATALOAD SWAP1 POP PUSH2 0xA7E DUP2 PUSH2 0x1226 JUMP JUMPDEST SWAP3 SWAP2 POP POP JUMP JUMPDEST PUSH1 0x0 DUP3 PUSH1 0x1F DUP4 ADD SLT PUSH2 0xA99 JUMPI PUSH2 0xA98 PUSH2 0x11C1 JUMP JUMPDEST JUMPDEST DUP2 CALLDATALOAD PUSH2 0xAA9 DUP5 DUP3 PUSH1 0x20 DUP7 ADD PUSH2 0xA03 JUMP JUMPDEST SWAP2 POP POP SWAP3 SWAP2 POP POP JUMP JUMPDEST PUSH1 0x0 PUSH1 0x20 DUP3 DUP5 SUB SLT ISZERO PUSH2 0xAC8 JUMPI PUSH2 0xAC7 PUSH2 0x11D0 JUMP JUMPDEST JUMPDEST PUSH1 0x0 PUSH2 0xAD6 DUP5 DUP3 DUP6 ADD PUSH2 0xA5A JUMP JUMPDEST SWAP2 POP POP SWAP3 SWAP2 POP POP JUMP JUMPDEST PUSH1 0x0 DUP1 PUSH1 0x40 DUP4 DUP6 SUB SLT ISZERO PUSH2 0xAF6 JUMPI PUSH2 0xAF5 PUSH2 0x11D0 JUMP JUMPDEST JUMPDEST PUSH1 0x0 PUSH2 0xB04 DUP6 DUP3 DUP7 ADD PUSH2 0xA45 JUMP JUMPDEST SWAP3 POP POP PUSH1 0x20 DUP4 ADD CALLDATALOAD PUSH8 0xFFFFFFFFFFFFFFFF DUP2 GT ISZERO PUSH2 0xB25 JUMPI PUSH2 0xB24 PUSH2 0x11CB JUMP JUMPDEST JUMPDEST PUSH2 0xB31 DUP6 DUP3 DUP7 ADD PUSH2 0xA84 JUMP JUMPDEST SWAP2 POP POP SWAP3 POP SWAP3 SWAP1 POP JUMP JUMPDEST PUSH1 0x0 PUSH1 0x20 DUP3 DUP5 SUB SLT ISZERO PUSH2 0xB51 JUMPI PUSH2 0xB50 PUSH2 0x11D0 JUMP JUMPDEST JUMPDEST PUSH1 0x0 PUSH2 0xB5F DUP5 DUP3 DUP6 ADD PUSH2 0xA6F JUMP JUMPDEST SWAP2 POP POP SWAP3 SWAP2 POP POP JUMP JUMPDEST PUSH1 0x0 PUSH1 0x20 DUP3 DUP5 SUB SLT ISZERO PUSH2 0xB7E JUMPI PUSH2 0xB7D PUSH2 0x11D0 JUMP JUMPDEST JUMPDEST PUSH1 0x0 DUP3 ADD CALLDATALOAD PUSH8 0xFFFFFFFFFFFFFFFF DUP2 GT ISZERO PUSH2 0xB9C JUMPI PUSH2 0xB9B PUSH2 0x11CB JUMP JUMPDEST JUMPDEST PUSH2 0xBA8 DUP5 DUP3 DUP6 ADD PUSH2 0xA84 JUMP JUMPDEST SWAP2 POP POP SWAP3 SWAP2 POP POP JUMP JUMPDEST PUSH1 0x0 PUSH2 0xBBD DUP4 DUP4 PUSH2 0xC49 JUMP JUMPDEST SWAP1 POP SWAP3 SWAP2 POP POP JUMP JUMPDEST PUSH2 0xBCE DUP2 PUSH2 0xF70 JUMP JUMPDEST DUP3 MSTORE POP POP JUMP JUMPDEST PUSH1 0x0 PUSH2 0xBDF DUP3 PUSH2 0xE85 JUMP JUMPDEST PUSH2 0xBE9 DUP2 DUP6 PUSH2 0xEA8 JUMP JUMPDEST SWAP4 POP DUP4 PUSH1 0x20 DUP3 MUL DUP6 ADD PUSH2 0xBFB DUP6 PUSH2 0xE60 JUMP JUMPDEST DUP1 PUSH1 0x0 JUMPDEST DUP6 DUP2 LT ISZERO PUSH2 0xC37 JUMPI DUP5 DUP5 SUB DUP10 MSTORE DUP2 MLOAD PUSH2 0xC18 DUP6 DUP3 PUSH2 0xBB1 JUMP JUMPDEST SWAP5 POP PUSH2 0xC23 DUP4 PUSH2 0xE9B JUMP JUMPDEST SWAP3 POP PUSH1 0x20 DUP11 ADD SWAP10 POP POP PUSH1 0x1 DUP2 ADD SWAP1 POP PUSH2 0xBFF JUMP JUMPDEST POP DUP3 SWAP8 POP DUP8 SWAP6 POP POP POP POP POP POP SWAP3 SWAP2 POP POP JUMP JUMPDEST PUSH1 0x0 PUSH2 0xC54 DUP3 PUSH2 0xE90 JUMP JUMPDEST PUSH2 0xC5E DUP2 DUP6 PUSH2 0xEB9 JUMP JUMPDEST SWAP4 POP PUSH2 0xC6E DUP2 DUP6 PUSH1 0x20 DUP7 ADD PUSH2 0xFCD JUMP JUMPDEST PUSH2 0xC77 DUP2 PUSH2 0x11D5 JUMP JUMPDEST DUP5 ADD SWAP2 POP POP SWAP3 SWAP2 POP POP JUMP JUMPDEST PUSH1 0x0 PUSH2 0xC8D DUP3 PUSH2 0xE90 JUMP JUMPDEST PUSH2 0xC97 DUP2 DUP6 PUSH2 0xEDB JUMP JUMPDEST SWAP4 POP PUSH2 0xCA7 DUP2 DUP6 PUSH1 0x20 DUP7 ADD PUSH2 0xFCD JUMP JUMPDEST DUP1 DUP5 ADD SWAP2 POP POP SWAP3 SWAP2 POP POP JUMP JUMPDEST PUSH1 0x0 DUP2 SLOAD PUSH2 0xCC0 DUP2 PUSH2 0x102A JUMP JUMPDEST PUSH2 0xCCA DUP2 DUP7 PUSH2 0xEDB JUMP JUMPDEST SWAP5 POP PUSH1 0x1 DUP3 AND PUSH1 0x0 DUP2 EQ PUSH2 0xCE5 JUMPI PUSH1 0x1 DUP2 EQ PUSH2 0xCF6 JUMPI PUSH2 0xD29 JUMP JUMPDEST PUSH1 0xFF NOT DUP4 AND DUP7 MSTORE DUP2 DUP7 ADD SWAP4 POP PUSH2 0xD29 JUMP JUMPDEST PUSH2 0xCFF DUP6 PUSH2 0xE70 JUMP JUMPDEST PUSH1 0x0 JUMPDEST DUP4 DUP2 LT ISZERO PUSH2 0xD21 JUMPI DUP2 SLOAD DUP2 DUP10 ADD MSTORE PUSH1 0x1 DUP3 ADD SWAP2 POP PUSH1 0x20 DUP2 ADD SWAP1 POP PUSH2 0xD02 JUMP JUMPDEST DUP4 DUP9 ADD SWAP6 POP POP POP JUMPDEST POP POP POP SWAP3 SWAP2 POP POP JUMP JUMPDEST PUSH1 0x0 PUSH2 0xD3F PUSH1 0x13 DUP4 PUSH2 0xECA JUMP JUMPDEST SWAP2 POP PUSH2 0xD4A DUP3 PUSH2 0x11E6 JUMP JUMPDEST PUSH1 0x20 DUP3 ADD SWAP1 POP SWAP2 SWAP1 POP JUMP JUMPDEST PUSH2 0xD5E DUP2 PUSH2 0xFB4 JUMP JUMPDEST DUP3 MSTORE POP POP JUMP JUMPDEST PUSH1 0x0 PUSH2 0xD70 DUP3 DUP5 PUSH2 0xC82 JUMP JUMPDEST SWAP2 POP DUP2 SWAP1 POP SWAP3 SWAP2 POP POP JUMP JUMPDEST PUSH1 0x0 PUSH2 0xD87 DUP3 DUP5 PUSH2 0xCB3 JUMP JUMPDEST SWAP2 POP DUP2 SWAP1 POP SWAP3 SWAP2 POP POP JUMP JUMPDEST PUSH1 0x0 PUSH1 0x20 DUP3 ADD SWAP1 POP PUSH2 0xDA7 PUSH1 0x0 DUP4 ADD DUP5 PUSH2 0xBC5 JUMP JUMPDEST SWAP3 SWAP2 POP POP JUMP JUMPDEST PUSH1 0x0 PUSH1 0x20 DUP3 ADD SWAP1 POP DUP2 DUP2 SUB PUSH1 0x0 DUP4 ADD MSTORE PUSH2 0xDC7 DUP2 DUP5 PUSH2 0xBD4 JUMP JUMPDEST SWAP1 POP SWAP3 SWAP2 POP POP JUMP JUMPDEST PUSH1 0x0 PUSH1 0x20 DUP3 ADD SWAP1 POP DUP2 DUP2 SUB PUSH1 0x0 DUP4 ADD MSTORE PUSH2 0xDE8 DUP2 PUSH2 0xD32 JUMP JUMPDEST SWAP1 POP SWAP2 SWAP1 POP JUMP JUMPDEST PUSH1 0x0 PUSH1 0x20 DUP3 ADD SWAP1 POP PUSH2 0xE04 PUSH1 0x0 DUP4 ADD DUP5 PUSH2 0xD55 JUMP JUMPDEST SWAP3 SWAP2 POP POP JUMP JUMPDEST PUSH1 0x0 PUSH2 0xE14 PUSH2 0xE25 JUMP JUMPDEST SWAP1 POP PUSH2 0xE20 DUP3 DUP3 PUSH2 0x105C JUMP JUMPDEST SWAP2 SWAP1 POP JUMP JUMPDEST PUSH1 0x0 PUSH1 0x40 MLOAD SWAP1 POP SWAP1 JUMP JUMPDEST PUSH1 0x0 PUSH8 0xFFFFFFFFFFFFFFFF DUP3 GT ISZERO PUSH2 0xE4A JUMPI PUSH2 0xE49 PUSH2 0x1192 JUMP JUMPDEST JUMPDEST PUSH2 0xE53 DUP3 PUSH2 0x11D5 JUMP JUMPDEST SWAP1 POP PUSH1 0x20 DUP2 ADD SWAP1 POP SWAP2 SWAP1 POP JUMP JUMPDEST PUSH1 0x0 DUP2 SWAP1 POP PUSH1 0x20 DUP3 ADD SWAP1 POP SWAP2 SWAP1 POP JUMP JUMPDEST PUSH1 0x0 DUP2 SWAP1 POP DUP2 PUSH1 0x0 MSTORE PUSH1 0x20 PUSH1 0x0 KECCAK256 SWAP1 POP SWAP2 SWAP1 POP JUMP JUMPDEST PUSH1 0x0 DUP2 MLOAD SWAP1 POP SWAP2 SWAP1 POP JUMP JUMPDEST PUSH1 0x0 DUP2 MLOAD SWAP1 POP SWAP2 SWAP1 POP JUMP JUMPDEST PUSH1 0x0 PUSH1 0x20 DUP3 ADD SWAP1 POP SWAP2 SWAP1 POP JUMP JUMPDEST PUSH1 0x0 DUP3 DUP3 MSTORE PUSH1 0x20 DUP3 ADD SWAP1 POP SWAP3 SWAP2 POP POP JUMP JUMPDEST PUSH1 0x0 DUP3 DUP3 MSTORE PUSH1 0x20 DUP3 ADD SWAP1 POP SWAP3 SWAP2 POP POP JUMP JUMPDEST PUSH1 0x0 DUP3 DUP3 MSTORE PUSH1 0x20 DUP3 ADD SWAP1 POP SWAP3 SWAP2 POP POP JUMP JUMPDEST PUSH1 0x0 DUP2 SWAP1 POP SWAP3 SWAP2 POP POP JUMP JUMPDEST PUSH1 0x0 PUSH2 0xEF1 DUP3 PUSH2 0xFB4 JUMP JUMPDEST SWAP2 POP PUSH2 0xEFC DUP4 PUSH2 0xFB4 JUMP JUMPDEST SWAP3 POP DUP3 PUSH32 0xFFFFFFFFFFFFFFFFFFFFFFFFFFFFFFFFFFFFFFFFFFFFFFFFFFFFFFFFFFFFFFFF SUB DUP3 GT ISZERO PUSH2 0xF31 JUMPI PUSH2 0xF30 PUSH2 0x10D6 JUMP JUMPDEST JUMPDEST DUP3 DUP3 ADD SWAP1 POP SWAP3 SWAP2 POP POP JUMP JUMPDEST PUSH1 0x0 PUSH2 0xF47 DUP3 PUSH2 0xFB4 JUMP JUMPDEST SWAP2 POP PUSH2 0xF52 DUP4 PUSH2 0xFB4 JUMP JUMPDEST SWAP3 POP DUP3 DUP3 LT ISZERO PUSH2 0xF65 JUMPI PUSH2 0xF64 PUSH2 0x10D6 JUMP JUMPDEST JUMPDEST DUP3 DUP3 SUB SWAP1 POP SWAP3 SWAP2 POP POP JUMP JUMPDEST PUSH1 0x0 PUSH2 0xF7B DUP3 PUSH2 0xF94 JUMP JUMPDEST SWAP1 POP SWAP2 SWAP1 POP JUMP JUMPDEST PUSH1 0x0 PUSH2 0xF8D DUP3 PUSH2 0xF70 JUMP JUMPDEST SWAP1 POP SWAP2 SWAP1 POP JUMP JUMPDEST PUSH1 0x0 PUSH20 0xFFFFFFFFFFFFFFFFFFFFFFFFFFFFFFFFFFFFFFFF DUP3 AND SWAP1 POP SWAP2 SWAP1 POP JUMP JUMPDEST PUSH1 0x0 DUP2 SWAP1 POP SWAP2 SWAP1 POP JUMP JUMPDEST DUP3 DUP2 DUP4 CALLDATACOPY PUSH1 0x0 DUP4 DUP4 ADD MSTORE POP POP POP JUMP JUMPDEST PUSH1 0x0 JUMPDEST DUP4 DUP2 LT ISZERO PUSH2 0xFEB JUMPI DUP1 DUP3 ADD MLOAD DUP2 DUP5 ADD MSTORE PUSH1 0x20 DUP2 ADD SWAP1 POP PUSH2 0xFD0 JUMP JUMPDEST DUP4 DUP2 GT ISZERO PUSH2 0xFFA JUMPI PUSH1 0x0 DUP5 DUP5 ADD MSTORE JUMPDEST POP POP POP POP JUMP JUMPDEST PUSH1 0x0 PUSH2 0x100B DUP3 PUSH2 0xFB4 JUMP JUMPDEST SWAP2 POP PUSH1 0x0 DUP3 EQ ISZERO PUSH2 0x101F JUMPI PUSH2 0x101E PUSH2 0x10D6 JUMP JUMPDEST JUMPDEST PUSH1 0x1 DUP3 SUB SWAP1 POP SWAP2 SWAP1 POP JUMP JUMPDEST PUSH1 0x0 PUSH1 0x2 DUP3 DIV SWAP1 POP PUSH1 0x1 DUP3 AND DUP1 PUSH2 0x1042 JUMPI PUSH1 0x7F DUP3 AND SWAP2 POP JUMPDEST PUSH1 0x20 DUP3 LT DUP2 EQ ISZERO PUSH2 0x1056 JUMPI PUSH2 0x1055 PUSH2 0x1105 JUMP JUMPDEST JUMPDEST POP SWAP2 SWAP1 POP JUMP JUMPDEST PUSH2 0x1065 DUP3 PUSH2 0x11D5 JUMP JUMPDEST DUP2 ADD DUP2 DUP2 LT PUSH8 0xFFFFFFFFFFFFFFFF DUP3 GT OR ISZERO PUSH2 0x1084 JUMPI PUSH2 0x1083 PUSH2 0x1192 JUMP JUMPDEST JUMPDEST DUP1 PUSH1 0x40 MSTORE POP POP POP JUMP JUMPDEST PUSH1 0x0 PUSH2 0x1098 DUP3 PUSH2 0xFB4 JUMP JUMPDEST SWAP2 POP PUSH32 0xFFFFFFFFFFFFFFFFFFFFFFFFFFFFFFFFFFFFFFFFFFFFFFFFFFFFFFFFFFFFFFFF DUP3 EQ ISZERO PUSH2 0x10CB JUMPI PUSH2 0x10CA PUSH2 0x10D6 JUMP JUMPDEST JUMPDEST PUSH1 0x1 DUP3 ADD SWAP1 POP SWAP2 SWAP1 POP JUMP JUMPDEST PUSH32 0x4E487B7100000000000000000000000000000000000000000000000000000000 PUSH1 0x0 MSTORE PUSH1 0x11 PUSH1 0x4 MSTORE PUSH1 0x24 PUSH1 0x0 REVERT JUMPDEST PUSH32 0x4E487B7100000000000000000000000000000000000000000000000000000000 PUSH1 0x0 MSTORE PUSH1 0x22 PUSH1 0x4 MSTORE PUSH1 0x24 PUSH1 0x0 REVERT JUMPDEST PUSH32 0x4E487B7100000000000000000000000000000000000000000000000000000000 PUSH1 0x0 MSTORE PUSH1 0x31 PUSH1 0x4 MSTORE PUSH1 0x24 PUSH1 0x0 REVERT JUMPDEST PUSH32 0x4E487B7100000000000000000000000000000000000000000000000000000000 PUSH1 0x0 MSTORE PUSH1 0x32 PUSH1 0x4 MSTORE PUSH1 0x24 PUSH1 0x0 REVERT JUMPDEST PUSH32 0x4E487B7100000000000000000000000000000000000000000000000000000000 PUSH1 0x0 MSTORE PUSH1 0x41 PUSH1 0x4 MSTORE PUSH1 0x24 PUSH1 0x0 REVERT JUMPDEST PUSH1 0x0 DUP1 REVERT JUMPDEST PUSH1 0x0 DUP1 REVERT JUMPDEST PUSH1 0x0 DUP1 REVERT JUMPDEST PUSH1 0x0 DUP1 REVERT JUMPDEST PUSH1 0x0 PUSH1 0x1F NOT PUSH1 0x1F DUP4 ADD AND SWAP1 POP SWAP2 SWAP1 POP JUMP JUMPDEST PUSH32 0x43616C6C6572206973206E6F74206F776E657200000000000000000000000000 PUSH1 0x0 DUP3 ADD MSTORE POP JUMP JUMPDEST PUSH2 0x1218 DUP2 PUSH2 0xF70 JUMP JUMPDEST DUP2 EQ PUSH2 0x1223 JUMPI PUSH1 0x0 DUP1 REVERT JUMPDEST POP JUMP JUMPDEST PUSH2 0x122F DUP2 PUSH2 0xF82 JUMP JUMPDEST DUP2 EQ PUSH2 0x123A JUMPI PUSH1 0x0 DUP1 REVERT JUMPDEST POP JUMP INVALID LOG2 PUSH5 0x6970667358 0x22 SLT KECCAK256 0xD7 DUP6 0xC5 0xE9 EXTCODECOPY COINBASE 0xB9 0xCA SIGNEXTEND PUSH32 0x719C257194BA4FC4B50FB61EB4A91CB9D0B15F5E9CB564736F6C634300080600 CALLER PUSH1 0x80 PUSH1 0x40 MSTORE CALLVALUE DUP1 ISZERO PUSH2 0x10 JUMPI PUSH1 0x0 DUP1 REVERT JUMPDEST POP PUSH1 0x40 MLOAD PUSH2 0x650 CODESIZE SUB DUP1 PUSH2 0x650 DUP4 CODECOPY DUP2 DUP2 ADD PUSH1 0x40 MSTORE DUP2 ADD SWAP1 PUSH2 0x32 SWAP2 SWAP1 PUSH2 0x1A9 JUMP JUMPDEST CALLER PUSH1 0x0 DUP1 PUSH2 0x100 EXP DUP2 SLOAD DUP2 PUSH20 0xFFFFFFFFFFFFFFFFFFFFFFFFFFFFFFFFFFFFFFFF MUL NOT AND SWAP1 DUP4 PUSH20 0xFFFFFFFFFFFFFFFFFFFFFFFFFFFFFFFFFFFFFFFF AND MUL OR SWAP1 SSTORE POP DUP1 PUSH1 0x1 SWAP1 DUP1 MLOAD SWAP1 PUSH1 0x20 ADD SWAP1 PUSH2 0x88 SWAP3 SWAP2 SWAP1 PUSH2 0x96 JUMP JUMPDEST POP TIMESTAMP PUSH1 0x2 DUP2 SWAP1 SSTORE POP POP PUSH2 0x361 JUMP JUMPDEST DUP3 DUP1 SLOAD PUSH2 0xA2 SWAP1 PUSH2 0x27B JUMP JUMPDEST SWAP1 PUSH1 0x0 MSTORE PUSH1 0x20 PUSH1 0x0 KECCAK256 SWAP1 PUSH1 0x1F ADD PUSH1 0x20 SWAP1 DIV DUP2 ADD SWAP3 DUP3 PUSH2 0xC4 JUMPI PUSH1 0x0 DUP6 SSTORE PUSH2 0x10B JUMP JUMPDEST DUP3 PUSH1 0x1F LT PUSH2 0xDD JUMPI DUP1 MLOAD PUSH1 0xFF NOT AND DUP4 DUP1 ADD OR DUP6 SSTORE PUSH2 0x10B JUMP JUMPDEST DUP3 DUP1 ADD PUSH1 0x1 ADD DUP6 SSTORE DUP3 ISZERO PUSH2 0x10B JUMPI SWAP2 DUP3 ADD JUMPDEST DUP3 DUP2 GT ISZERO PUSH2 0x10A JUMPI DUP3 MLOAD DUP3 SSTORE SWAP2 PUSH1 0x20 ADD SWAP2 SWAP1 PUSH1 0x1 ADD SWAP1 PUSH2 0xEF JUMP JUMPDEST JUMPDEST POP SWAP1 POP PUSH2 0x118 SWAP2 SWAP1 PUSH2 0x11C JUMP JUMPDEST POP SWAP1 JUMP JUMPDEST JUMPDEST DUP1 DUP3 GT ISZERO PUSH2 0x135 JUMPI PUSH1 0x0 DUP2 PUSH1 0x0 SWAP1 SSTORE POP PUSH1 0x1 ADD PUSH2 0x11D JUMP JUMPDEST POP SWAP1 JUMP JUMPDEST PUSH1 0x0 PUSH2 0x14C PUSH2 0x147 DUP5 PUSH2 0x217 JUMP JUMPDEST PUSH2 0x1F2 JUMP JUMPDEST SWAP1 POP DUP3 DUP2 MSTORE PUSH1 0x20 DUP2 ADD DUP5 DUP5 DUP5 ADD GT ISZERO PUSH2 0x168 JUMPI PUSH2 0x167 PUSH2 0x341 JUMP JUMPDEST JUMPDEST PUSH2 0x173 DUP5 DUP3 DUP6 PUSH2 0x248 JUMP JUMPDEST POP SWAP4 SWAP3 POP POP POP JUMP JUMPDEST PUSH1 0x0 DUP3 PUSH1 0x1F DUP4 ADD SLT PUSH2 0x190 JUMPI PUSH2 0x18F PUSH2 0x33C JUMP JUMPDEST JUMPDEST DUP2 MLOAD PUSH2 0x1A0 DUP5 DUP3 PUSH1 0x20 DUP7 ADD PUSH2 0x139 JUMP JUMPDEST SWAP2 POP POP SWAP3 SWAP2 POP POP JUMP JUMPDEST PUSH1 0x0 PUSH1 0x20 DUP3 DUP5 SUB SLT ISZERO PUSH2 0x1BF JUMPI PUSH2 0x1BE PUSH2 0x34B JUMP JUMPDEST JUMPDEST PUSH1 0x0 DUP3 ADD MLOAD PUSH8 0xFFFFFFFFFFFFFFFF DUP2 GT ISZERO PUSH2 0x1DD JUMPI PUSH2 0x1DC PUSH2 0x346 JUMP JUMPDEST JUMPDEST PUSH2 0x1E9 DUP5 DUP3 DUP6 ADD PUSH2 0x17B JUMP JUMPDEST SWAP2 POP POP SWAP3 SWAP2 POP POP JUMP JUMPDEST PUSH1 0x0 PUSH2 0x1FC PUSH2 0x20D JUMP JUMPDEST SWAP1 POP PUSH2 0x208 DUP3 DUP3 PUSH2 0x2AD JUMP JUMPDEST SWAP2 SWAP1 POP JUMP JUMPDEST PUSH1 0x0 PUSH1 0x40 MLOAD SWAP1 POP SWAP1 JUMP JUMPDEST PUSH1 0x0 PUSH8 0xFFFFFFFFFFFFFFFF DUP3 GT ISZERO PUSH2 0x232 JUMPI PUSH2 0x231 PUSH2 0x30D JUMP JUMPDEST JUMPDEST PUSH2 0x23B DUP3 PUSH2 0x350 JUMP JUMPDEST SWAP1 POP PUSH1 0x20 DUP2 ADD SWAP1 POP SWAP2 SWAP1 POP JUMP JUMPDEST PUSH1 0x0 JUMPDEST DUP4 DUP2 LT ISZERO PUSH2 0x266 JUMPI DUP1 DUP3 ADD MLOAD DUP2 DUP5 ADD MSTORE PUSH1 0x20 DUP2 ADD SWAP1 POP PUSH2 0x24B JUMP JUMPDEST DUP4 DUP2 GT ISZERO PUSH2 0x275 JUMPI PUSH1 0x0 DUP5 DUP5 ADD MSTORE JUMPDEST POP POP POP POP JUMP JUMPDEST PUSH1 0x0 PUSH1 0x2 DUP3 DIV SWAP1 POP PUSH1 0x1 DUP3 AND DUP1 PUSH2 0x293 JUMPI PUSH1 0x7F DUP3 AND SWAP2 POP JUMPDEST PUSH1 0x20 DUP3 LT DUP2 EQ ISZERO PUSH2 0x2A7 JUMPI PUSH2 0x2A6 PUSH2 0x2DE JUMP JUMPDEST JUMPDEST POP SWAP2 SWAP1 POP JUMP JUMPDEST PUSH2 0x2B6 DUP3 PUSH2 0x350 JUMP JUMPDEST DUP2 ADD DUP2 DUP2 LT PUSH8 0xFFFFFFFFFFFFFFFF DUP3 GT OR ISZERO PUSH2 0x2D5 JUMPI PUSH2 0x2D4 PUSH2 0x30D JUMP JUMPDEST JUMPDEST DUP1 PUSH1 0x40 MSTORE POP POP POP JUMP JUMPDEST PUSH32 0x4E487B7100000000000000000000000000000000000000000000000000000000 PUSH1 0x0 MSTORE PUSH1 0x22 PUSH1 0x4 MSTORE PUSH1 0x24 PUSH1 0x0 REVERT JUMPDEST PUSH32 0x4E487B7100000000000000000000000000000000000000000000000000000000 PUSH1 0x0 MSTORE PUSH1 0x41 PUSH1 0x4 MSTORE PUSH1 0x24 PUSH1 0x0 REVERT JUMPDEST PUSH1 0x0 DUP1 REVERT JUMPDEST PUSH1 0x0 DUP1 REVERT JUMPDEST PUSH1 0x0 DUP1 REVERT JUMPDEST PUSH1 0x0 DUP1 REVERT JUMPDEST PUSH1 0x0 PUSH1 0x1F NOT PUSH1 0x1F DUP4 ADD AND SWAP1 POP SWAP2 SWAP1 POP JUMP JUMPDEST PUSH2 0x2E0 DUP1 PUSH2 0x370 PUSH1 0x0 CODECOPY PUSH1 0x0 RETURN INVALID PUSH1 0x80 PUSH1 0x40 MSTORE CALLVALUE DUP1 ISZERO PUSH2 0x10 JUMPI PUSH1 0x0 DUP1 REVERT JUMPDEST POP PUSH1 0x4 CALLDATASIZE LT PUSH2 0x36 JUMPI PUSH1 0x0 CALLDATALOAD PUSH1 0xE0 SHR DUP1 PUSH4 0x17D7DE7C EQ PUSH2 0x3B JUMPI DUP1 PUSH4 0xA74C2BB6 EQ PUSH2 0x59 JUMPI JUMPDEST PUSH1 0x0 DUP1 REVERT JUMPDEST PUSH2 0x43 PUSH2 0x77 JUMP JUMPDEST PUSH1 0x40 MLOAD PUSH2 0x50 SWAP2 SWAP1 PUSH2 0x195 JUMP JUMPDEST PUSH1 0x40 MLOAD DUP1 SWAP2 SUB SWAP1 RETURN JUMPDEST PUSH2 0x61 PUSH2 0x109 JUMP JUMPDEST PUSH1 0x40 MLOAD PUSH2 0x6E SWAP2 SWAP1 PUSH2 0x17A JUMP JUMPDEST PUSH1 0x40 MLOAD DUP1 SWAP2 SUB SWAP1 RETURN JUMPDEST PUSH1 0x60 PUSH1 0x1 DUP1 SLOAD PUSH2 0x86 SWAP1 PUSH2 0x238 JUMP JUMPDEST DUP1 PUSH1 0x1F ADD PUSH1 0x20 DUP1 SWAP2 DIV MUL PUSH1 0x20 ADD PUSH1 0x40 MLOAD SWAP1 DUP2 ADD PUSH1 0x40 MSTORE DUP1 SWAP3 SWAP2 SWAP1 DUP2 DUP2 MSTORE PUSH1 0x20 ADD DUP3 DUP1 SLOAD PUSH2 0xB2 SWAP1 PUSH2 0x238 JUMP JUMPDEST DUP1 ISZERO PUSH2 0xFF JUMPI DUP1 PUSH1 0x1F LT PUSH2 0xD4 JUMPI PUSH2 0x100 DUP1 DUP4 SLOAD DIV MUL DUP4 MSTORE SWAP2 PUSH1 0x20 ADD SWAP2 PUSH2 0xFF JUMP JUMPDEST DUP3 ADD SWAP2 SWAP1 PUSH1 0x0 MSTORE PUSH1 0x20 PUSH1 0x0 KECCAK256 SWAP1 JUMPDEST DUP2 SLOAD DUP2 MSTORE SWAP1 PUSH1 0x1 ADD SWAP1 PUSH1 0x20 ADD DUP1 DUP4 GT PUSH2 0xE2 JUMPI DUP3 SWAP1 SUB PUSH1 0x1F AND DUP3 ADD SWAP2 JUMPDEST POP POP POP POP POP SWAP1 POP SWAP1 JUMP JUMPDEST PUSH1 0x0 DUP1 PUSH1 0x0 SWAP1 SLOAD SWAP1 PUSH2 0x100 EXP SWAP1 DIV PUSH20 0xFFFFFFFFFFFFFFFFFFFFFFFFFFFFFFFFFFFFFFFF AND SWAP1 POP SWAP1 JUMP JUMPDEST PUSH2 0x13B DUP2 PUSH2 0x1D3 JUMP JUMPDEST DUP3 MSTORE POP POP JUMP JUMPDEST PUSH1 0x0 PUSH2 0x14C DUP3 PUSH2 0x1B7 JUMP JUMPDEST PUSH2 0x156 DUP2 DUP6 PUSH2 0x1C2 JUMP JUMPDEST SWAP4 POP PUSH2 0x166 DUP2 DUP6 PUSH1 0x20 DUP7 ADD PUSH2 0x205 JUMP JUMPDEST PUSH2 0x16F DUP2 PUSH2 0x299 JUMP JUMPDEST DUP5 ADD SWAP2 POP POP SWAP3 SWAP2 POP POP JUMP JUMPDEST PUSH1 0x0 PUSH1 0x20 DUP3 ADD SWAP1 POP PUSH2 0x18F PUSH1 0x0 DUP4 ADD DUP5 PUSH2 0x132 JUMP JUMPDEST SWAP3 SWAP2 POP POP JUMP JUMPDEST PUSH1 0x0 PUSH1 0x20 DUP3 ADD SWAP1 POP DUP2 DUP2 SUB PUSH1 0x0 DUP4 ADD MSTORE PUSH2 0x1AF DUP2 DUP5 PUSH2 0x141 JUMP JUMPDEST SWAP1 POP SWAP3 SWAP2 POP POP JUMP JUMPDEST PUSH1 0x0 DUP2 MLOAD SWAP1 POP SWAP2 SWAP1 POP JUMP JUMPDEST PUSH1 0x0 DUP3 DUP3 MSTORE PUSH1 0x20 DUP3 ADD SWAP1 POP SWAP3 SWAP2 POP POP JUMP JUMPDEST PUSH1 0x0 PUSH2 0x1DE DUP3 PUSH2 0x1E5 JUMP JUMPDEST SWAP1 POP SWAP2 SWAP1 POP JUMP JUMPDEST PUSH1 0x0 PUSH20 0xFFFFFFFFFFFFFFFFFFFFFFFFFFFFFFFFFFFFFFFF DUP3 AND SWAP1 POP SWAP2 SWAP1 POP JUMP JUMPDEST PUSH1 0x0 JUMPDEST DUP4 DUP2 LT ISZERO PUSH2 0x223 JUMPI DUP1 DUP3 ADD MLOAD DUP2 DUP5 ADD MSTORE PUSH1 0x20 DUP2 ADD SWAP1 POP PUSH2 0x208 JUMP JUMPDEST DUP4 DUP2 GT ISZERO PUSH2 0x232 JUMPI PUSH1 0x0 DUP5 DUP5 ADD MSTORE JUMPDEST POP POP POP POP JUMP JUMPDEST PUSH1 0x0 PUSH1 0x2 DUP3 DIV SWAP1 POP PUSH1 0x1 DUP3 AND DUP1 PUSH2 0x250 JUMPI PUSH1 0x7F DUP3 AND SWAP2 POP JUMPDEST PUSH1 0x20 DUP3 LT DUP2 EQ ISZERO PUSH2 0x264 JUMPI PUSH2 0x263 PUSH2 0x26A JUMP JUMPDEST JUMPDEST POP SWAP2 SWAP1 POP JUMP JUMPDEST PUSH32 0x4E487B7100000000000000000000000000000000000000000000000000000000 PUSH1 0x0 MSTORE PUSH1 0x22 PUSH1 0x4 MSTORE PUSH1 0x24 PUSH1 0x0 REVERT JUMPDEST PUSH1 0x0 PUSH1 0x1F NOT PUSH1 0x1F DUP4 ADD AND SWAP1 POP SWAP2 SWAP1 POP JUMP INVALID LOG2 PUSH5 0x6970667358 0x22 SLT KECCAK256 0xD9 DIFFICULTY PUSH12 0x5A1C201825FE157512A25AC9 0xF9 SHR 0xEE 0xBE 0x4F 0xB2 INVALID 0xD2 0xEE 0xE8 0xEC CREATE2 BALANCE 0xB3 0xC2 OR 0xCA PUSH5 0x736F6C6343 STOP ADDMOD MOD STOP CALLER LOG2 PUSH5 0x6970667358 0x22 SLT KECCAK256 NOT 0xF7 0x4E 0xA9 PUSH3 0x137660 0xC5 PUSH10 0x5D43632D90BC65E1ED6D CALLDATALOAD 0x28 0xC4 0xCA LOG0 PUSH10 0xE3604581C2E064736F6C PUSH4 0x43000806 STOP CALLER "
		},
		"gasEstimates": {
			"creation": {
				"codeDepositCost": "2326200",
				"executionCost": "2493",
				"totalCost": "2328693"
			},
			"external": {
				"addMember(address,address)": "infinite",
				"createAndSendEther(string)": "infinite",
				"mappingProject(address)": "infinite",
				"mappingUser(address)": "infinite",
				"register(string)": "infinite",
				"requestAddMember(address,address)": "infinite",
				"test(address)": "infinite"
			}
		},
		"methodIdentifiers": {
			"addMember(address,address)": "9d58b15d",
			"createAndSendEther(string)": "f22fe807",
			"mappingProject(address)": "c07bacf3",
			"mappingUser(address)": "05f9b4dc",
			"register(string)": "f2c298be",
			"requestAddMember(address,address)": "70601bf8",
			"test(address)": "bb29998e"
		}
	},
	"abi": [
		{
			"inputs": [],
			"stateMutability": "nonpayable",
			"type": "constructor"
		},
		{
			"inputs": [
				{
					"internalType": "address",
					"name": "_user",
					"type": "address"
				},
				{
					"internalType": "address",
					"name": "_project",
					"type": "address"
				}
			],
			"name": "addMember",
			"outputs": [],
			"stateMutability": "nonpayable",
			"type": "function"
		},
		{
			"inputs": [
				{
					"internalType": "string",
					"name": "_projectName",
					"type": "string"
				}
			],
			"name": "createAndSendEther",
			"outputs": [],
			"stateMutability": "payable",
			"type": "function"
		},
		{
			"inputs": [
				{
					"internalType": "address",
					"name": "_addr",
					"type": "address"
				}
			],
			"name": "mappingProject",
			"outputs": [
				{
					"internalType": "contract Project",
					"name": "project",
					"type": "address"
				}
			],
			"stateMutability": "view",
			"type": "function"
		},
		{
			"inputs": [
				{
					"internalType": "address",
					"name": "_addr",
					"type": "address"
				}
			],
			"name": "mappingUser",
			"outputs": [
				{
					"internalType": "contract User",
					"name": "user",
					"type": "address"
				}
			],
			"stateMutability": "view",
			"type": "function"
		},
		{
			"inputs": [
				{
					"internalType": "string",
					"name": "_name",
					"type": "string"
				}
			],
			"name": "register",
			"outputs": [],
			"stateMutability": "nonpayable",
			"type": "function"
		},
		{
			"inputs": [
				{
					"internalType": "address",
					"name": "_user",
					"type": "address"
				},
				{
					"internalType": "address",
					"name": "_project",
					"type": "address"
				}
			],
			"name": "requestAddMember",
			"outputs": [],
			"stateMutability": "nonpayable",
			"type": "function"
		},
		{
			"inputs": [
				{
					"internalType": "address",
					"name": "_addr",
					"type": "address"
				}
			],
			"name": "test",
			"outputs": [],
			"stateMutability": "view",
			"type": "function"
		}
	]
}