{
	"data": {
		"bytecode": {
			"linkReferences": {},
			"object": "608060405260405162002a0e38038062002a0e833981810160405281019062000029919062000239565b816000806101000a81548173ffffffffffffffffffffffffffffffffffffffff021916908373ffffffffffffffffffffffffffffffffffffffff160217905550806001908051906020019062000081929190620000f4565b50426002819055506006829080600181540180825580915050600190039060005260206000200160009091909190916101000a81548173ffffffffffffffffffffffffffffffffffffffff021916908373ffffffffffffffffffffffffffffffffffffffff160217905550505062000471565b828054620001029062000368565b90600052602060002090601f01602090048101928262000126576000855562000172565b82601f106200014157805160ff191683800117855562000172565b8280016001018555821562000172579182015b828111156200017157825182559160200191906001019062000154565b5b50905062000181919062000185565b5090565b5b80821115620001a057600081600090555060010162000186565b5090565b6000620001bb620001b584620002c8565b6200029f565b905082815260208101848484011115620001da57620001d962000437565b5b620001e784828562000332565b509392505050565b600081519050620002008162000457565b92915050565b600082601f8301126200021e576200021d62000432565b5b815162000230848260208601620001a4565b91505092915050565b6000806040838503121562000253576200025262000441565b5b60006200026385828601620001ef565b925050602083015167ffffffffffffffff8111156200028757620002866200043c565b5b620002958582860162000206565b9150509250929050565b6000620002ab620002be565b9050620002b982826200039e565b919050565b6000604051905090565b600067ffffffffffffffff821115620002e657620002e562000403565b5b620002f18262000446565b9050602081019050919050565b60006200030b8262000312565b9050919050565b600073ffffffffffffffffffffffffffffffffffffffff82169050919050565b60005b838110156200035257808201518184015260208101905062000335565b8381111562000362576000848401525b50505050565b600060028204905060018216806200038157607f821691505b60208210811415620003985762000397620003d4565b5b50919050565b620003a98262000446565b810181811067ffffffffffffffff82111715620003cb57620003ca62000403565b5b80604052505050565b7f4e487b7100000000000000000000000000000000000000000000000000000000600052602260045260246000fd5b7f4e487b7100000000000000000000000000000000000000000000000000000000600052604160045260246000fd5b600080fd5b600080fd5b600080fd5b600080fd5b6000601f19601f8301169050919050565b6200046281620002fe565b81146200046e57600080fd5b50565b61258d80620004816000396000f3fe608060405234801561001057600080fd5b50600436106100a95760003560e01c80635c3e2e41116100715780635c3e2e41146101525780635e4eff991461017057806387813286146101a0578063af8d148f146101be578063ca6d56dc146101da578063eab3780e146101f6576100a9565b806307e1c7f7146100ae57806317c0cb1c146100de578063274edc3a146100fc5780634a0dd083146101185780634ce24b4814610136575b600080fd5b6100c860048036038101906100c391906117c8565b610212565b6040516100d59190611d9c565b60405180910390f35b6100e661032a565b6040516100f39190611d9c565b60405180910390f35b610116600480360381019061011191906118ab565b610403565b005b610120610770565b60405161012d9190611d7a565b60405180910390f35b610150600480360381019061014b91906117c8565b6107fe565b005b61015a610984565b6040516101679190611d7a565b60405180910390f35b61018a600480360381019061018591906118eb565b610a12565b6040516101979190611ebe565b60405180910390f35b6101a8610ac9565b6040516101b59190611d9c565b60405180910390f35b6101d860048036038101906101d39190611822565b610ba2565b005b6101f460048036038101906101ef91906117c8565b610d50565b005b610210600480360381019061020b9190611822565b61121b565b005b6060600360008373ffffffffffffffffffffffffffffffffffffffff1673ffffffffffffffffffffffffffffffffffffffff168152602001908152602001600020805480602002602001604051908101604052809291908181526020016000905b8282101561031f578382906000526020600020018054610292906121ae565b80601f01602080910402602001604051908101604052809291908181526020018280546102be906121ae565b801561030b5780601f106102e05761010080835404028352916020019161030b565b820191906000526020600020905b8154815290600101906020018083116102ee57829003601f168201915b505050505081526020019060010190610273565b505050509050919050565b60606004805480602002602001604051908101604052809291908181526020016000905b828210156103fa57838290600052602060002001805461036d906121ae565b80601f0160208091040260200160405190810160405280929190818152602001828054610399906121ae565b80156103e65780601f106103bb576101008083540402835291602001916103e6565b820191906000526020600020905b8154815290600101906020018083116103c957829003601f168201915b50505050508152602001906001019061034e565b50505050905090565b6104898273ffffffffffffffffffffffffffffffffffffffff1663a74c2bb66040518163ffffffff1660e01b815260040160206040518083038186803b15801561044c57600080fd5b505afa158015610460573d6000803e3d6000fd5b505050506040513d601f19601f8201168201806040525081019061048491906117f5565b61138e565b506105108173ffffffffffffffffffffffffffffffffffffffff1663a74c2bb66040518163ffffffff1660e01b815260040160206040518083038186803b1580156104d357600080fd5b505afa1580156104e7573d6000803e3d6000fd5b505050506040513d601f19601f8201168201806040525081019061050b91906117f5565b61138e565b506009829080600181540180825580915050600190039060005260206000200160009091909190916101000a81548173ffffffffffffffffffffffffffffffffffffffff021916908373ffffffffffffffffffffffffffffffffffffffff1602179055506009819080600181540180825580915050600190039060005260206000200160009091909190916101000a81548173ffffffffffffffffffffffffffffffffffffffff021916908373ffffffffffffffffffffffffffffffffffffffff16021790555060005b6008805490508110156106a55760096040516020016105f99190611d1a565b604051602081830303815290604052805190602001206008828154811061062357610622612301565b5b9060005260206000200160405160200161063d9190611d1a565b604051602081830303815290604052805190602001201415610694576040517f08c379a000000000000000000000000000000000000000000000000000000000815260040161068b90611dbe565b60405180910390fd5b8061069e9061222b565b90506105da565b5060086009908060018154018082558091505060019003906000526020600020016000909190919091509080546106dd92919061152d565b5060098054806106f0576106ef6122d2565b5b6001900381819060005260206000200160006101000a81549073ffffffffffffffffffffffffffffffffffffffff021916905590556009805480610737576107366122d2565b5b6001900381819060005260206000200160006101000a81549073ffffffffffffffffffffffffffffffffffffffff021916905590555050565b606060078054806020026020016040519081016040528092919081815260200182805480156107f457602002820191906000526020600020905b8160009054906101000a900473ffffffffffffffffffffffffffffffffffffffff1673ffffffffffffffffffffffffffffffffffffffff16815260200190600101908083116107aa575b5050505050905090565b600061080982611475565b90506000811461084e576040517f08c379a000000000000000000000000000000000000000000000000000000000815260040161084590611dde565b60405180910390fd5b60005b60068054905081101561091c578273ffffffffffffffffffffffffffffffffffffffff166006828154811061088957610888612301565b5b9060005260206000200160009054906101000a900473ffffffffffffffffffffffffffffffffffffffff1673ffffffffffffffffffffffffffffffffffffffff16141561090b576040517f08c379a000000000000000000000000000000000000000000000000000000000815260040161090290611e3e565b60405180910390fd5b806109159061222b565b9050610851565b506007829080600181540180825580915050600190039060005260206000200160009091909190916101000a81548173ffffffffffffffffffffffffffffffffffffffff021916908373ffffffffffffffffffffffffffffffffffffffff1602179055505050565b60606006805480602002602001604051908101604052809291908181526020018280548015610a0857602002820191906000526020600020905b8160009054906101000a900473ffffffffffffffffffffffffffffffffffffffff1673ffffffffffffffffffffffffffffffffffffffff16815260200190600101908083116109be575b5050505050905090565b600080600090505b600580549050811015610abe5782604051602001610a389190611d31565b6040516020818303038152906040528051906020012060058281548110610a6257610a61612301565b5b90600052602060002001604051602001610a7c9190611d48565b604051602081830303815290604052805190602001201415610aad57600181610aa59190612026565b915050610ac4565b80610ab79061222b565b9050610a1a565b50600090505b919050565b60606005805480602002602001604051908101604052809291908181526020016000905b82821015610b99578382906000526020600020018054610b0c906121ae565b80601f0160208091040260200160405190810160405280929190818152602001828054610b38906121ae565b8015610b855780601f10610b5a57610100808354040283529160200191610b85565b820191906000526020600020905b815481529060010190602001808311610b6857829003601f168201915b505050505081526020019060010190610aed565b50505050905090565b6000610bad82610a12565b90506000811415610bf3576040517f08c379a0000000000000000000000000000000000000000000000000000000008152600401610bea90611e7e565b60405180910390fd5b8080610bfe90612184565b915050600360008473ffffffffffffffffffffffffffffffffffffffff1673ffffffffffffffffffffffffffffffffffffffff16815260200190815260200160002082908060018154018082558091505060019003906000526020600020016000909190919091509080519060200190610c7992919061157f565b50600482908060018154018082558091505060019003906000526020600020016000909190919091509080519060200190610cb592919061157f565b5060056001600580549050610cca919061207c565b81548110610cdb57610cda612301565b5b9060005260206000200160058281548110610cf957610cf8612301565b5b90600052602060002001908054610d0f906121ae565b610d1a929190611605565b506005805480610d2d57610d2c6122d2565b5b600190038181906000526020600020016000610d499190611692565b9055505050565b6000610d5b82611475565b90506000811415610da1576040517f08c379a0000000000000000000000000000000000000000000000000000000008152600401610d9890611e9e565b60405180910390fd5b8080610dac90612184565b9150506006829080600181540180825580915050600190039060005260206000200160009091909190916101000a81548173ffffffffffffffffffffffffffffffffffffffff021916908373ffffffffffffffffffffffffffffffffffffffff16021790555060003373ffffffffffffffffffffffffffffffffffffffff166305f9b4dc846040518263ffffffff1660e01b8152600401610e4d9190611d5f565b60206040518083038186803b158015610e6557600080fd5b505afa158015610e79573d6000803e3d6000fd5b505050506040513d601f19601f82011682018060405250810190610e9d919061187e565b905060003373ffffffffffffffffffffffffffffffffffffffff166305f9b4dc60008054906101000a900473ffffffffffffffffffffffffffffffffffffffff166040518263ffffffff1660e01b8152600401610efa9190611d5f565b60206040518083038186803b158015610f1257600080fd5b505afa158015610f26573d6000803e3d6000fd5b505050506040513d601f19601f82011682018060405250810190610f4a919061187e565b905060008173ffffffffffffffffffffffffffffffffffffffff16632db9a5126040518163ffffffff1660e01b815260040160206040518083038186803b158015610f9457600080fd5b505afa158015610fa8573d6000803e3d6000fd5b505050506040513d601f19601f82011682018060405250810190610fcc9190611934565b90508173ffffffffffffffffffffffffffffffffffffffff16637aac861b8473ffffffffffffffffffffffffffffffffffffffff1663085710116040518163ffffffff1660e01b815260040160206040518083038186803b15801561103057600080fd5b505afa158015611044573d6000803e3d6000fd5b505050506040513d601f19601f820116820180604052508101906110689190611934565b6040518263ffffffff1660e01b81526004016110849190611ebe565b600060405180830381600087803b15801561109e57600080fd5b505af11580156110b2573d6000803e3d6000fd5b505050508273ffffffffffffffffffffffffffffffffffffffff16636777d32a826040518263ffffffff1660e01b81526004016110ef9190611ebe565b600060405180830381600087803b15801561110957600080fd5b505af115801561111d573d6000803e3d6000fd5b5050505060076001600780549050611135919061207c565b8154811061114657611145612301565b5b9060005260206000200160009054906101000a900473ffffffffffffffffffffffffffffffffffffffff166007858154811061118557611184612301565b5b9060005260206000200160006101000a81548173ffffffffffffffffffffffffffffffffffffffff021916908373ffffffffffffffffffffffffffffffffffffffff16021790555060078054806111df576111de6122d2565b5b6001900381819060005260206000200160006101000a81549073ffffffffffffffffffffffffffffffffffffffff021916905590555050505050565b60006112268361138e565b90508061138957600061123883610a12565b90506000811461127d576040517f08c379a000000000000000000000000000000000000000000000000000000000815260040161127490611e1e565b60405180910390fd5b60005b60048054905081101561134a578360405160200161129e9190611d31565b60405160208183030381529060405280519060200120600482815481106112c8576112c7612301565b5b906000526020600020016040516020016112e29190611d48565b604051602081830303815290604052805190602001201415611339576040517f08c379a000000000000000000000000000000000000000000000000000000000815260040161133090611dfe565b60405180910390fd5b806113439061222b565b9050611280565b5060058390806001815401808255809150506001900390600052602060002001600090919091909150908051906020019061138692919061157f565b50505b505050565b60006001905060005b60068054905081101561142e578273ffffffffffffffffffffffffffffffffffffffff16600682815481106113cf576113ce612301565b5b9060005260206000200160009054906101000a900473ffffffffffffffffffffffffffffffffffffffff1673ffffffffffffffffffffffffffffffffffffffff16141561141b57600091505b80806114269061222b565b915050611397565b508015611470576040517f08c379a000000000000000000000000000000000000000000000000000000000815260040161146790611e5e565b60405180910390fd5b919050565b600080600090505b600780549050811015611522578273ffffffffffffffffffffffffffffffffffffffff16600782815481106114b5576114b4612301565b5b9060005260206000200160009054906101000a900473ffffffffffffffffffffffffffffffffffffffff1673ffffffffffffffffffffffffffffffffffffffff161415611511576001816115099190612026565b915050611528565b8061151b9061222b565b905061147d565b50600090505b919050565b82805482825590600052602060002090810192821561156e5760005260206000209182015b8281111561156d578254825591600101919060010190611552565b5b50905061157b91906116d2565b5090565b82805461158b906121ae565b90600052602060002090601f0160209004810192826115ad57600085556115f4565b82601f106115c657805160ff19168380011785556115f4565b828001600101855582156115f4579182015b828111156115f35782518255916020019190600101906115d8565b5b50905061160191906116d2565b5090565b828054611611906121ae565b90600052602060002090601f0160209004810192826116335760008555611681565b82601f106116445780548555611681565b8280016001018555821561168157600052602060002091601f016020900482015b82811115611680578254825591600101919060010190611665565b5b50905061168e91906116d2565b5090565b50805461169e906121ae565b6000825580601f106116b057506116cf565b601f0160209004906000526020600020908101906116ce91906116d2565b5b50565b5b808211156116eb5760008160009055506001016116d3565b5090565b60006117026116fd84611efe565b611ed9565b90508281526020810184848401111561171e5761171d612377565b5b611729848285612142565b509392505050565b60008135905061174081612512565b92915050565b60008151905061175581612512565b92915050565b60008135905061176a81612529565b92915050565b60008151905061177f81612529565b92915050565b600082601f83011261179a57611799612372565b5b81356117aa8482602086016116ef565b91505092915050565b6000815190506117c281612540565b92915050565b6000602082840312156117de576117dd612381565b5b60006117ec84828501611731565b91505092915050565b60006020828403121561180b5761180a612381565b5b600061181984828501611746565b91505092915050565b6000806040838503121561183957611838612381565b5b600061184785828601611731565b925050602083013567ffffffffffffffff8111156118685761186761237c565b5b61187485828601611785565b9150509250929050565b60006020828403121561189457611893612381565b5b60006118a284828501611770565b91505092915050565b600080604083850312156118c2576118c1612381565b5b60006118d08582860161175b565b92505060206118e18582860161175b565b9150509250929050565b60006020828403121561190157611900612381565b5b600082013567ffffffffffffffff81111561191f5761191e61237c565b5b61192b84828501611785565b91505092915050565b60006020828403121561194a57611949612381565b5b6000611958848285016117b3565b91505092915050565b600061196d83836119a5565b60208301905092915050565b60006119858383611afb565b60208301905092915050565b600061199d8383611b0a565b905092915050565b6119ae816120d0565b82525050565b6119bd816120d0565b82525050565b60006119ce82611f79565b6119d88185611fcc565b93506119e383611f2f565b8060005b83811015611a145781516119fb8882611961565b9750611a0683611fa5565b9250506001810190506119e7565b5085935050505092915050565b6000611a2c82611f84565b611a368185611fdd565b9350611a4183611f3f565b8060005b83811015611a7957611a568261235f565b611a608882611979565b9750611a6b83611fb2565b925050600181019050611a45565b5085935050505092915050565b6000611a9182611f8f565b611a9b8185611fe8565b935083602082028501611aad85611f54565b8060005b85811015611ae95784840389528151611aca8582611991565b9450611ad583611fbf565b925060208a01995050600181019050611ab1565b50829750879550505050505092915050565b611b048161211e565b82525050565b6000611b1582611f9a565b611b1f8185611ff9565b9350611b2f818560208601612151565b611b3881612386565b840191505092915050565b6000611b4e82611f9a565b611b58818561201b565b9350611b68818560208601612151565b80840191505092915050565b60008154611b81816121ae565b611b8b818661201b565b94506001821660008114611ba65760018114611bb757611bea565b60ff19831686528186019350611bea565b611bc085611f64565b60005b83811015611be257815481890152600182019150602081019050611bc3565b838801955050505b50505092915050565b6000611c00600e8361200a565b9150611c0b826123a4565b602082019050919050565b6000611c23601d8361200a565b9150611c2e826123cd565b602082019050919050565b6000611c46601a8361200a565b9150611c51826123f6565b602082019050919050565b6000611c6960228361200a565b9150611c748261241f565b604082019050919050565b6000611c8c60168361200a565b9150611c978261246e565b602082019050919050565b6000611caf60128361200a565b9150611cba82612497565b602082019050919050565b6000611cd2601e8361200a565b9150611cdd826124c0565b602082019050919050565b6000611cf560198361200a565b9150611d00826124e9565b602082019050919050565b611d1481612114565b82525050565b6000611d268284611a21565b915081905092915050565b6000611d3d8284611b43565b915081905092915050565b6000611d548284611b74565b915081905092915050565b6000602082019050611d7460008301846119b4565b92915050565b60006020820190508181036000830152611d9481846119c3565b905092915050565b60006020820190508181036000830152611db68184611a86565b905092915050565b60006020820190508181036000830152611dd781611bf3565b9050919050565b60006020820190508181036000830152611df781611c16565b9050919050565b60006020820190508181036000830152611e1781611c39565b9050919050565b60006020820190508181036000830152611e3781611c5c565b9050919050565b60006020820190508181036000830152611e5781611c7f565b9050919050565b60006020820190508181036000830152611e7781611ca2565b9050919050565b60006020820190508181036000830152611e9781611cc5565b9050919050565b60006020820190508181036000830152611eb781611ce8565b9050919050565b6000602082019050611ed36000830184611d0b565b92915050565b6000611ee3611ef4565b9050611eef82826121fa565b919050565b6000604051905090565b600067ffffffffffffffff821115611f1957611f18612330565b5b611f2282612386565b9050602081019050919050565b6000819050602082019050919050565b60008190508160005260206000209050919050565b6000819050602082019050919050565b60008190508160005260206000209050919050565b600081519050919050565b600081549050919050565b600081519050919050565b600081519050919050565b6000602082019050919050565b6000600182019050919050565b6000602082019050919050565b600082825260208201905092915050565b600081905092915050565b600082825260208201905092915050565b600082825260208201905092915050565b600082825260208201905092915050565b600081905092915050565b600061203182612114565b915061203c83612114565b9250827fffffffffffffffffffffffffffffffffffffffffffffffffffffffffffffffff0382111561207157612070612274565b5b828201905092915050565b600061208782612114565b915061209283612114565b9250828210156120a5576120a4612274565b5b828203905092915050565b600073ffffffffffffffffffffffffffffffffffffffff82169050919050565b60006120db826120f4565b9050919050565b60006120ed826120d0565b9050919050565b600073ffffffffffffffffffffffffffffffffffffffff82169050919050565b6000819050919050565b600061212982612130565b9050919050565b600061213b826120f4565b9050919050565b82818337600083830152505050565b60005b8381101561216f578082015181840152602081019050612154565b8381111561217e576000848401525b50505050565b600061218f82612114565b915060008214156121a3576121a2612274565b5b600182039050919050565b600060028204905060018216806121c657607f821691505b602082108114156121da576121d96122a3565b5b50919050565b60006121f36121ee83612397565b6120b0565b9050919050565b61220382612386565b810181811067ffffffffffffffff8211171561222257612221612330565b5b80604052505050565b600061223682612114565b91507fffffffffffffffffffffffffffffffffffffffffffffffffffffffffffffffff82141561226957612268612274565b5b600182019050919050565b7f4e487b7100000000000000000000000000000000000000000000000000000000600052601160045260246000fd5b7f4e487b7100000000000000000000000000000000000000000000000000000000600052602260045260246000fd5b7f4e487b7100000000000000000000000000000000000000000000000000000000600052603160045260246000fd5b7f4e487b7100000000000000000000000000000000000000000000000000000000600052603260045260246000fd5b7f4e487b7100000000000000000000000000000000000000000000000000000000600052604160045260246000fd5b600061236b82546121e0565b9050919050565b600080fd5b600080fd5b600080fd5b600080fd5b6000601f19601f8301169050919050565b60008160001c9050919050565b7f616c72656164792073636f726564000000000000000000000000000000000000600082015250565b7f7573657220616c726561647920696e2077616974696e67206172726179000000600082015250565b7f69706673206861736820616c726561647920696e206172726179000000000000600082015250565b7f69706673206861736820616c726561647920696e2077616974696e672061727260008201527f6179000000000000000000000000000000000000000000000000000000000000602082015250565b7f796f75206172652070726f6a656374206d656d62657200000000000000000000600082015250565b7f6e6f742070726f6a656374206d656d6265720000000000000000000000000000600082015250565b7f697066732068617368206e6f7420696e2077616974696e672061727261790000600082015250565b7f75736572206e6f7420696e2077616974696e6720617272617900000000000000600082015250565b61251b816120d0565b811461252657600080fd5b50565b612532816120e2565b811461253d57600080fd5b50565b61254981612114565b811461255457600080fd5b5056fea2646970667358221220694fe7fad48e15a585ccedfc920540630a8783f9724b8ede3b815dd0566d63ba64736f6c63430008060033",
			"opcodes": "PUSH1 0x80 PUSH1 0x40 MSTORE PUSH1 0x40 MLOAD PUSH3 0x2A0E CODESIZE SUB DUP1 PUSH3 0x2A0E DUP4 CODECOPY DUP2 DUP2 ADD PUSH1 0x40 MSTORE DUP2 ADD SWAP1 PUSH3 0x29 SWAP2 SWAP1 PUSH3 0x239 JUMP JUMPDEST DUP2 PUSH1 0x0 DUP1 PUSH2 0x100 EXP DUP2 SLOAD DUP2 PUSH20 0xFFFFFFFFFFFFFFFFFFFFFFFFFFFFFFFFFFFFFFFF MUL NOT AND SWAP1 DUP4 PUSH20 0xFFFFFFFFFFFFFFFFFFFFFFFFFFFFFFFFFFFFFFFF AND MUL OR SWAP1 SSTORE POP DUP1 PUSH1 0x1 SWAP1 DUP1 MLOAD SWAP1 PUSH1 0x20 ADD SWAP1 PUSH3 0x81 SWAP3 SWAP2 SWAP1 PUSH3 0xF4 JUMP JUMPDEST POP TIMESTAMP PUSH1 0x2 DUP2 SWAP1 SSTORE POP PUSH1 0x6 DUP3 SWAP1 DUP1 PUSH1 0x1 DUP2 SLOAD ADD DUP1 DUP3 SSTORE DUP1 SWAP2 POP POP PUSH1 0x1 SWAP1 SUB SWAP1 PUSH1 0x0 MSTORE PUSH1 0x20 PUSH1 0x0 KECCAK256 ADD PUSH1 0x0 SWAP1 SWAP2 SWAP1 SWAP2 SWAP1 SWAP2 PUSH2 0x100 EXP DUP2 SLOAD DUP2 PUSH20 0xFFFFFFFFFFFFFFFFFFFFFFFFFFFFFFFFFFFFFFFF MUL NOT AND SWAP1 DUP4 PUSH20 0xFFFFFFFFFFFFFFFFFFFFFFFFFFFFFFFFFFFFFFFF AND MUL OR SWAP1 SSTORE POP POP POP PUSH3 0x471 JUMP JUMPDEST DUP3 DUP1 SLOAD PUSH3 0x102 SWAP1 PUSH3 0x368 JUMP JUMPDEST SWAP1 PUSH1 0x0 MSTORE PUSH1 0x20 PUSH1 0x0 KECCAK256 SWAP1 PUSH1 0x1F ADD PUSH1 0x20 SWAP1 DIV DUP2 ADD SWAP3 DUP3 PUSH3 0x126 JUMPI PUSH1 0x0 DUP6 SSTORE PUSH3 0x172 JUMP JUMPDEST DUP3 PUSH1 0x1F LT PUSH3 0x141 JUMPI DUP1 MLOAD PUSH1 0xFF NOT AND DUP4 DUP1 ADD OR DUP6 SSTORE PUSH3 0x172 JUMP JUMPDEST DUP3 DUP1 ADD PUSH1 0x1 ADD DUP6 SSTORE DUP3 ISZERO PUSH3 0x172 JUMPI SWAP2 DUP3 ADD JUMPDEST DUP3 DUP2 GT ISZERO PUSH3 0x171 JUMPI DUP3 MLOAD DUP3 SSTORE SWAP2 PUSH1 0x20 ADD SWAP2 SWAP1 PUSH1 0x1 ADD SWAP1 PUSH3 0x154 JUMP JUMPDEST JUMPDEST POP SWAP1 POP PUSH3 0x181 SWAP2 SWAP1 PUSH3 0x185 JUMP JUMPDEST POP SWAP1 JUMP JUMPDEST JUMPDEST DUP1 DUP3 GT ISZERO PUSH3 0x1A0 JUMPI PUSH1 0x0 DUP2 PUSH1 0x0 SWAP1 SSTORE POP PUSH1 0x1 ADD PUSH3 0x186 JUMP JUMPDEST POP SWAP1 JUMP JUMPDEST PUSH1 0x0 PUSH3 0x1BB PUSH3 0x1B5 DUP5 PUSH3 0x2C8 JUMP JUMPDEST PUSH3 0x29F JUMP JUMPDEST SWAP1 POP DUP3 DUP2 MSTORE PUSH1 0x20 DUP2 ADD DUP5 DUP5 DUP5 ADD GT ISZERO PUSH3 0x1DA JUMPI PUSH3 0x1D9 PUSH3 0x437 JUMP JUMPDEST JUMPDEST PUSH3 0x1E7 DUP5 DUP3 DUP6 PUSH3 0x332 JUMP JUMPDEST POP SWAP4 SWAP3 POP POP POP JUMP JUMPDEST PUSH1 0x0 DUP2 MLOAD SWAP1 POP PUSH3 0x200 DUP2 PUSH3 0x457 JUMP JUMPDEST SWAP3 SWAP2 POP POP JUMP JUMPDEST PUSH1 0x0 DUP3 PUSH1 0x1F DUP4 ADD SLT PUSH3 0x21E JUMPI PUSH3 0x21D PUSH3 0x432 JUMP JUMPDEST JUMPDEST DUP2 MLOAD PUSH3 0x230 DUP5 DUP3 PUSH1 0x20 DUP7 ADD PUSH3 0x1A4 JUMP JUMPDEST SWAP2 POP POP SWAP3 SWAP2 POP POP JUMP JUMPDEST PUSH1 0x0 DUP1 PUSH1 0x40 DUP4 DUP6 SUB SLT ISZERO PUSH3 0x253 JUMPI PUSH3 0x252 PUSH3 0x441 JUMP JUMPDEST JUMPDEST PUSH1 0x0 PUSH3 0x263 DUP6 DUP3 DUP7 ADD PUSH3 0x1EF JUMP JUMPDEST SWAP3 POP POP PUSH1 0x20 DUP4 ADD MLOAD PUSH8 0xFFFFFFFFFFFFFFFF DUP2 GT ISZERO PUSH3 0x287 JUMPI PUSH3 0x286 PUSH3 0x43C JUMP JUMPDEST JUMPDEST PUSH3 0x295 DUP6 DUP3 DUP7 ADD PUSH3 0x206 JUMP JUMPDEST SWAP2 POP POP SWAP3 POP SWAP3 SWAP1 POP JUMP JUMPDEST PUSH1 0x0 PUSH3 0x2AB PUSH3 0x2BE JUMP JUMPDEST SWAP1 POP PUSH3 0x2B9 DUP3 DUP3 PUSH3 0x39E JUMP JUMPDEST SWAP2 SWAP1 POP JUMP JUMPDEST PUSH1 0x0 PUSH1 0x40 MLOAD SWAP1 POP SWAP1 JUMP JUMPDEST PUSH1 0x0 PUSH8 0xFFFFFFFFFFFFFFFF DUP3 GT ISZERO PUSH3 0x2E6 JUMPI PUSH3 0x2E5 PUSH3 0x403 JUMP JUMPDEST JUMPDEST PUSH3 0x2F1 DUP3 PUSH3 0x446 JUMP JUMPDEST SWAP1 POP PUSH1 0x20 DUP2 ADD SWAP1 POP SWAP2 SWAP1 POP JUMP JUMPDEST PUSH1 0x0 PUSH3 0x30B DUP3 PUSH3 0x312 JUMP JUMPDEST SWAP1 POP SWAP2 SWAP1 POP JUMP JUMPDEST PUSH1 0x0 PUSH20 0xFFFFFFFFFFFFFFFFFFFFFFFFFFFFFFFFFFFFFFFF DUP3 AND SWAP1 POP SWAP2 SWAP1 POP JUMP JUMPDEST PUSH1 0x0 JUMPDEST DUP4 DUP2 LT ISZERO PUSH3 0x352 JUMPI DUP1 DUP3 ADD MLOAD DUP2 DUP5 ADD MSTORE PUSH1 0x20 DUP2 ADD SWAP1 POP PUSH3 0x335 JUMP JUMPDEST DUP4 DUP2 GT ISZERO PUSH3 0x362 JUMPI PUSH1 0x0 DUP5 DUP5 ADD MSTORE JUMPDEST POP POP POP POP JUMP JUMPDEST PUSH1 0x0 PUSH1 0x2 DUP3 DIV SWAP1 POP PUSH1 0x1 DUP3 AND DUP1 PUSH3 0x381 JUMPI PUSH1 0x7F DUP3 AND SWAP2 POP JUMPDEST PUSH1 0x20 DUP3 LT DUP2 EQ ISZERO PUSH3 0x398 JUMPI PUSH3 0x397 PUSH3 0x3D4 JUMP JUMPDEST JUMPDEST POP SWAP2 SWAP1 POP JUMP JUMPDEST PUSH3 0x3A9 DUP3 PUSH3 0x446 JUMP JUMPDEST DUP2 ADD DUP2 DUP2 LT PUSH8 0xFFFFFFFFFFFFFFFF DUP3 GT OR ISZERO PUSH3 0x3CB JUMPI PUSH3 0x3CA PUSH3 0x403 JUMP JUMPDEST JUMPDEST DUP1 PUSH1 0x40 MSTORE POP POP POP JUMP JUMPDEST PUSH32 0x4E487B7100000000000000000000000000000000000000000000000000000000 PUSH1 0x0 MSTORE PUSH1 0x22 PUSH1 0x4 MSTORE PUSH1 0x24 PUSH1 0x0 REVERT JUMPDEST PUSH32 0x4E487B7100000000000000000000000000000000000000000000000000000000 PUSH1 0x0 MSTORE PUSH1 0x41 PUSH1 0x4 MSTORE PUSH1 0x24 PUSH1 0x0 REVERT JUMPDEST PUSH1 0x0 DUP1 REVERT JUMPDEST PUSH1 0x0 DUP1 REVERT JUMPDEST PUSH1 0x0 DUP1 REVERT JUMPDEST PUSH1 0x0 DUP1 REVERT JUMPDEST PUSH1 0x0 PUSH1 0x1F NOT PUSH1 0x1F DUP4 ADD AND SWAP1 POP SWAP2 SWAP1 POP JUMP JUMPDEST PUSH3 0x462 DUP2 PUSH3 0x2FE JUMP JUMPDEST DUP2 EQ PUSH3 0x46E JUMPI PUSH1 0x0 DUP1 REVERT JUMPDEST POP JUMP JUMPDEST PUSH2 0x258D DUP1 PUSH3 0x481 PUSH1 0x0 CODECOPY PUSH1 0x0 RETURN INVALID PUSH1 0x80 PUSH1 0x40 MSTORE CALLVALUE DUP1 ISZERO PUSH2 0x10 JUMPI PUSH1 0x0 DUP1 REVERT JUMPDEST POP PUSH1 0x4 CALLDATASIZE LT PUSH2 0xA9 JUMPI PUSH1 0x0 CALLDATALOAD PUSH1 0xE0 SHR DUP1 PUSH4 0x5C3E2E41 GT PUSH2 0x71 JUMPI DUP1 PUSH4 0x5C3E2E41 EQ PUSH2 0x152 JUMPI DUP1 PUSH4 0x5E4EFF99 EQ PUSH2 0x170 JUMPI DUP1 PUSH4 0x87813286 EQ PUSH2 0x1A0 JUMPI DUP1 PUSH4 0xAF8D148F EQ PUSH2 0x1BE JUMPI DUP1 PUSH4 0xCA6D56DC EQ PUSH2 0x1DA JUMPI DUP1 PUSH4 0xEAB3780E EQ PUSH2 0x1F6 JUMPI PUSH2 0xA9 JUMP JUMPDEST DUP1 PUSH4 0x7E1C7F7 EQ PUSH2 0xAE JUMPI DUP1 PUSH4 0x17C0CB1C EQ PUSH2 0xDE JUMPI DUP1 PUSH4 0x274EDC3A EQ PUSH2 0xFC JUMPI DUP1 PUSH4 0x4A0DD083 EQ PUSH2 0x118 JUMPI DUP1 PUSH4 0x4CE24B48 EQ PUSH2 0x136 JUMPI JUMPDEST PUSH1 0x0 DUP1 REVERT JUMPDEST PUSH2 0xC8 PUSH1 0x4 DUP1 CALLDATASIZE SUB DUP2 ADD SWAP1 PUSH2 0xC3 SWAP2 SWAP1 PUSH2 0x17C8 JUMP JUMPDEST PUSH2 0x212 JUMP JUMPDEST PUSH1 0x40 MLOAD PUSH2 0xD5 SWAP2 SWAP1 PUSH2 0x1D9C JUMP JUMPDEST PUSH1 0x40 MLOAD DUP1 SWAP2 SUB SWAP1 RETURN JUMPDEST PUSH2 0xE6 PUSH2 0x32A JUMP JUMPDEST PUSH1 0x40 MLOAD PUSH2 0xF3 SWAP2 SWAP1 PUSH2 0x1D9C JUMP JUMPDEST PUSH1 0x40 MLOAD DUP1 SWAP2 SUB SWAP1 RETURN JUMPDEST PUSH2 0x116 PUSH1 0x4 DUP1 CALLDATASIZE SUB DUP2 ADD SWAP1 PUSH2 0x111 SWAP2 SWAP1 PUSH2 0x18AB JUMP JUMPDEST PUSH2 0x403 JUMP JUMPDEST STOP JUMPDEST PUSH2 0x120 PUSH2 0x770 JUMP JUMPDEST PUSH1 0x40 MLOAD PUSH2 0x12D SWAP2 SWAP1 PUSH2 0x1D7A JUMP JUMPDEST PUSH1 0x40 MLOAD DUP1 SWAP2 SUB SWAP1 RETURN JUMPDEST PUSH2 0x150 PUSH1 0x4 DUP1 CALLDATASIZE SUB DUP2 ADD SWAP1 PUSH2 0x14B SWAP2 SWAP1 PUSH2 0x17C8 JUMP JUMPDEST PUSH2 0x7FE JUMP JUMPDEST STOP JUMPDEST PUSH2 0x15A PUSH2 0x984 JUMP JUMPDEST PUSH1 0x40 MLOAD PUSH2 0x167 SWAP2 SWAP1 PUSH2 0x1D7A JUMP JUMPDEST PUSH1 0x40 MLOAD DUP1 SWAP2 SUB SWAP1 RETURN JUMPDEST PUSH2 0x18A PUSH1 0x4 DUP1 CALLDATASIZE SUB DUP2 ADD SWAP1 PUSH2 0x185 SWAP2 SWAP1 PUSH2 0x18EB JUMP JUMPDEST PUSH2 0xA12 JUMP JUMPDEST PUSH1 0x40 MLOAD PUSH2 0x197 SWAP2 SWAP1 PUSH2 0x1EBE JUMP JUMPDEST PUSH1 0x40 MLOAD DUP1 SWAP2 SUB SWAP1 RETURN JUMPDEST PUSH2 0x1A8 PUSH2 0xAC9 JUMP JUMPDEST PUSH1 0x40 MLOAD PUSH2 0x1B5 SWAP2 SWAP1 PUSH2 0x1D9C JUMP JUMPDEST PUSH1 0x40 MLOAD DUP1 SWAP2 SUB SWAP1 RETURN JUMPDEST PUSH2 0x1D8 PUSH1 0x4 DUP1 CALLDATASIZE SUB DUP2 ADD SWAP1 PUSH2 0x1D3 SWAP2 SWAP1 PUSH2 0x1822 JUMP JUMPDEST PUSH2 0xBA2 JUMP JUMPDEST STOP JUMPDEST PUSH2 0x1F4 PUSH1 0x4 DUP1 CALLDATASIZE SUB DUP2 ADD SWAP1 PUSH2 0x1EF SWAP2 SWAP1 PUSH2 0x17C8 JUMP JUMPDEST PUSH2 0xD50 JUMP JUMPDEST STOP JUMPDEST PUSH2 0x210 PUSH1 0x4 DUP1 CALLDATASIZE SUB DUP2 ADD SWAP1 PUSH2 0x20B SWAP2 SWAP1 PUSH2 0x1822 JUMP JUMPDEST PUSH2 0x121B JUMP JUMPDEST STOP JUMPDEST PUSH1 0x60 PUSH1 0x3 PUSH1 0x0 DUP4 PUSH20 0xFFFFFFFFFFFFFFFFFFFFFFFFFFFFFFFFFFFFFFFF AND PUSH20 0xFFFFFFFFFFFFFFFFFFFFFFFFFFFFFFFFFFFFFFFF AND DUP2 MSTORE PUSH1 0x20 ADD SWAP1 DUP2 MSTORE PUSH1 0x20 ADD PUSH1 0x0 KECCAK256 DUP1 SLOAD DUP1 PUSH1 0x20 MUL PUSH1 0x20 ADD PUSH1 0x40 MLOAD SWAP1 DUP2 ADD PUSH1 0x40 MSTORE DUP1 SWAP3 SWAP2 SWAP1 DUP2 DUP2 MSTORE PUSH1 0x20 ADD PUSH1 0x0 SWAP1 JUMPDEST DUP3 DUP3 LT ISZERO PUSH2 0x31F JUMPI DUP4 DUP3 SWAP1 PUSH1 0x0 MSTORE PUSH1 0x20 PUSH1 0x0 KECCAK256 ADD DUP1 SLOAD PUSH2 0x292 SWAP1 PUSH2 0x21AE JUMP JUMPDEST DUP1 PUSH1 0x1F ADD PUSH1 0x20 DUP1 SWAP2 DIV MUL PUSH1 0x20 ADD PUSH1 0x40 MLOAD SWAP1 DUP2 ADD PUSH1 0x40 MSTORE DUP1 SWAP3 SWAP2 SWAP1 DUP2 DUP2 MSTORE PUSH1 0x20 ADD DUP3 DUP1 SLOAD PUSH2 0x2BE SWAP1 PUSH2 0x21AE JUMP JUMPDEST DUP1 ISZERO PUSH2 0x30B JUMPI DUP1 PUSH1 0x1F LT PUSH2 0x2E0 JUMPI PUSH2 0x100 DUP1 DUP4 SLOAD DIV MUL DUP4 MSTORE SWAP2 PUSH1 0x20 ADD SWAP2 PUSH2 0x30B JUMP JUMPDEST DUP3 ADD SWAP2 SWAP1 PUSH1 0x0 MSTORE PUSH1 0x20 PUSH1 0x0 KECCAK256 SWAP1 JUMPDEST DUP2 SLOAD DUP2 MSTORE SWAP1 PUSH1 0x1 ADD SWAP1 PUSH1 0x20 ADD DUP1 DUP4 GT PUSH2 0x2EE JUMPI DUP3 SWAP1 SUB PUSH1 0x1F AND DUP3 ADD SWAP2 JUMPDEST POP POP POP POP POP DUP2 MSTORE PUSH1 0x20 ADD SWAP1 PUSH1 0x1 ADD SWAP1 PUSH2 0x273 JUMP JUMPDEST POP POP POP POP SWAP1 POP SWAP2 SWAP1 POP JUMP JUMPDEST PUSH1 0x60 PUSH1 0x4 DUP1 SLOAD DUP1 PUSH1 0x20 MUL PUSH1 0x20 ADD PUSH1 0x40 MLOAD SWAP1 DUP2 ADD PUSH1 0x40 MSTORE DUP1 SWAP3 SWAP2 SWAP1 DUP2 DUP2 MSTORE PUSH1 0x20 ADD PUSH1 0x0 SWAP1 JUMPDEST DUP3 DUP3 LT ISZERO PUSH2 0x3FA JUMPI DUP4 DUP3 SWAP1 PUSH1 0x0 MSTORE PUSH1 0x20 PUSH1 0x0 KECCAK256 ADD DUP1 SLOAD PUSH2 0x36D SWAP1 PUSH2 0x21AE JUMP JUMPDEST DUP1 PUSH1 0x1F ADD PUSH1 0x20 DUP1 SWAP2 DIV MUL PUSH1 0x20 ADD PUSH1 0x40 MLOAD SWAP1 DUP2 ADD PUSH1 0x40 MSTORE DUP1 SWAP3 SWAP2 SWAP1 DUP2 DUP2 MSTORE PUSH1 0x20 ADD DUP3 DUP1 SLOAD PUSH2 0x399 SWAP1 PUSH2 0x21AE JUMP JUMPDEST DUP1 ISZERO PUSH2 0x3E6 JUMPI DUP1 PUSH1 0x1F LT PUSH2 0x3BB JUMPI PUSH2 0x100 DUP1 DUP4 SLOAD DIV MUL DUP4 MSTORE SWAP2 PUSH1 0x20 ADD SWAP2 PUSH2 0x3E6 JUMP JUMPDEST DUP3 ADD SWAP2 SWAP1 PUSH1 0x0 MSTORE PUSH1 0x20 PUSH1 0x0 KECCAK256 SWAP1 JUMPDEST DUP2 SLOAD DUP2 MSTORE SWAP1 PUSH1 0x1 ADD SWAP1 PUSH1 0x20 ADD DUP1 DUP4 GT PUSH2 0x3C9 JUMPI DUP3 SWAP1 SUB PUSH1 0x1F AND DUP3 ADD SWAP2 JUMPDEST POP POP POP POP POP DUP2 MSTORE PUSH1 0x20 ADD SWAP1 PUSH1 0x1 ADD SWAP1 PUSH2 0x34E JUMP JUMPDEST POP POP POP POP SWAP1 POP SWAP1 JUMP JUMPDEST PUSH2 0x489 DUP3 PUSH20 0xFFFFFFFFFFFFFFFFFFFFFFFFFFFFFFFFFFFFFFFF AND PUSH4 0xA74C2BB6 PUSH1 0x40 MLOAD DUP2 PUSH4 0xFFFFFFFF AND PUSH1 0xE0 SHL DUP2 MSTORE PUSH1 0x4 ADD PUSH1 0x20 PUSH1 0x40 MLOAD DUP1 DUP4 SUB DUP2 DUP7 DUP1 EXTCODESIZE ISZERO DUP1 ISZERO PUSH2 0x44C JUMPI PUSH1 0x0 DUP1 REVERT JUMPDEST POP GAS STATICCALL ISZERO DUP1 ISZERO PUSH2 0x460 JUMPI RETURNDATASIZE PUSH1 0x0 DUP1 RETURNDATACOPY RETURNDATASIZE PUSH1 0x0 REVERT JUMPDEST POP POP POP POP PUSH1 0x40 MLOAD RETURNDATASIZE PUSH1 0x1F NOT PUSH1 0x1F DUP3 ADD AND DUP3 ADD DUP1 PUSH1 0x40 MSTORE POP DUP2 ADD SWAP1 PUSH2 0x484 SWAP2 SWAP1 PUSH2 0x17F5 JUMP JUMPDEST PUSH2 0x138E JUMP JUMPDEST POP PUSH2 0x510 DUP2 PUSH20 0xFFFFFFFFFFFFFFFFFFFFFFFFFFFFFFFFFFFFFFFF AND PUSH4 0xA74C2BB6 PUSH1 0x40 MLOAD DUP2 PUSH4 0xFFFFFFFF AND PUSH1 0xE0 SHL DUP2 MSTORE PUSH1 0x4 ADD PUSH1 0x20 PUSH1 0x40 MLOAD DUP1 DUP4 SUB DUP2 DUP7 DUP1 EXTCODESIZE ISZERO DUP1 ISZERO PUSH2 0x4D3 JUMPI PUSH1 0x0 DUP1 REVERT JUMPDEST POP GAS STATICCALL ISZERO DUP1 ISZERO PUSH2 0x4E7 JUMPI RETURNDATASIZE PUSH1 0x0 DUP1 RETURNDATACOPY RETURNDATASIZE PUSH1 0x0 REVERT JUMPDEST POP POP POP POP PUSH1 0x40 MLOAD RETURNDATASIZE PUSH1 0x1F NOT PUSH1 0x1F DUP3 ADD AND DUP3 ADD DUP1 PUSH1 0x40 MSTORE POP DUP2 ADD SWAP1 PUSH2 0x50B SWAP2 SWAP1 PUSH2 0x17F5 JUMP JUMPDEST PUSH2 0x138E JUMP JUMPDEST POP PUSH1 0x9 DUP3 SWAP1 DUP1 PUSH1 0x1 DUP2 SLOAD ADD DUP1 DUP3 SSTORE DUP1 SWAP2 POP POP PUSH1 0x1 SWAP1 SUB SWAP1 PUSH1 0x0 MSTORE PUSH1 0x20 PUSH1 0x0 KECCAK256 ADD PUSH1 0x0 SWAP1 SWAP2 SWAP1 SWAP2 SWAP1 SWAP2 PUSH2 0x100 EXP DUP2 SLOAD DUP2 PUSH20 0xFFFFFFFFFFFFFFFFFFFFFFFFFFFFFFFFFFFFFFFF MUL NOT AND SWAP1 DUP4 PUSH20 0xFFFFFFFFFFFFFFFFFFFFFFFFFFFFFFFFFFFFFFFF AND MUL OR SWAP1 SSTORE POP PUSH1 0x9 DUP2 SWAP1 DUP1 PUSH1 0x1 DUP2 SLOAD ADD DUP1 DUP3 SSTORE DUP1 SWAP2 POP POP PUSH1 0x1 SWAP1 SUB SWAP1 PUSH1 0x0 MSTORE PUSH1 0x20 PUSH1 0x0 KECCAK256 ADD PUSH1 0x0 SWAP1 SWAP2 SWAP1 SWAP2 SWAP1 SWAP2 PUSH2 0x100 EXP DUP2 SLOAD DUP2 PUSH20 0xFFFFFFFFFFFFFFFFFFFFFFFFFFFFFFFFFFFFFFFF MUL NOT AND SWAP1 DUP4 PUSH20 0xFFFFFFFFFFFFFFFFFFFFFFFFFFFFFFFFFFFFFFFF AND MUL OR SWAP1 SSTORE POP PUSH1 0x0 JUMPDEST PUSH1 0x8 DUP1 SLOAD SWAP1 POP DUP2 LT ISZERO PUSH2 0x6A5 JUMPI PUSH1 0x9 PUSH1 0x40 MLOAD PUSH1 0x20 ADD PUSH2 0x5F9 SWAP2 SWAP1 PUSH2 0x1D1A JUMP JUMPDEST PUSH1 0x40 MLOAD PUSH1 0x20 DUP2 DUP4 SUB SUB DUP2 MSTORE SWAP1 PUSH1 0x40 MSTORE DUP1 MLOAD SWAP1 PUSH1 0x20 ADD KECCAK256 PUSH1 0x8 DUP3 DUP2 SLOAD DUP2 LT PUSH2 0x623 JUMPI PUSH2 0x622 PUSH2 0x2301 JUMP JUMPDEST JUMPDEST SWAP1 PUSH1 0x0 MSTORE PUSH1 0x20 PUSH1 0x0 KECCAK256 ADD PUSH1 0x40 MLOAD PUSH1 0x20 ADD PUSH2 0x63D SWAP2 SWAP1 PUSH2 0x1D1A JUMP JUMPDEST PUSH1 0x40 MLOAD PUSH1 0x20 DUP2 DUP4 SUB SUB DUP2 MSTORE SWAP1 PUSH1 0x40 MSTORE DUP1 MLOAD SWAP1 PUSH1 0x20 ADD KECCAK256 EQ ISZERO PUSH2 0x694 JUMPI PUSH1 0x40 MLOAD PUSH32 0x8C379A000000000000000000000000000000000000000000000000000000000 DUP2 MSTORE PUSH1 0x4 ADD PUSH2 0x68B SWAP1 PUSH2 0x1DBE JUMP JUMPDEST PUSH1 0x40 MLOAD DUP1 SWAP2 SUB SWAP1 REVERT JUMPDEST DUP1 PUSH2 0x69E SWAP1 PUSH2 0x222B JUMP JUMPDEST SWAP1 POP PUSH2 0x5DA JUMP JUMPDEST POP PUSH1 0x8 PUSH1 0x9 SWAP1 DUP1 PUSH1 0x1 DUP2 SLOAD ADD DUP1 DUP3 SSTORE DUP1 SWAP2 POP POP PUSH1 0x1 SWAP1 SUB SWAP1 PUSH1 0x0 MSTORE PUSH1 0x20 PUSH1 0x0 KECCAK256 ADD PUSH1 0x0 SWAP1 SWAP2 SWAP1 SWAP2 SWAP1 SWAP2 POP SWAP1 DUP1 SLOAD PUSH2 0x6DD SWAP3 SWAP2 SWAP1 PUSH2 0x152D JUMP JUMPDEST POP PUSH1 0x9 DUP1 SLOAD DUP1 PUSH2 0x6F0 JUMPI PUSH2 0x6EF PUSH2 0x22D2 JUMP JUMPDEST JUMPDEST PUSH1 0x1 SWAP1 SUB DUP2 DUP2 SWAP1 PUSH1 0x0 MSTORE PUSH1 0x20 PUSH1 0x0 KECCAK256 ADD PUSH1 0x0 PUSH2 0x100 EXP DUP2 SLOAD SWAP1 PUSH20 0xFFFFFFFFFFFFFFFFFFFFFFFFFFFFFFFFFFFFFFFF MUL NOT AND SWAP1 SSTORE SWAP1 SSTORE PUSH1 0x9 DUP1 SLOAD DUP1 PUSH2 0x737 JUMPI PUSH2 0x736 PUSH2 0x22D2 JUMP JUMPDEST JUMPDEST PUSH1 0x1 SWAP1 SUB DUP2 DUP2 SWAP1 PUSH1 0x0 MSTORE PUSH1 0x20 PUSH1 0x0 KECCAK256 ADD PUSH1 0x0 PUSH2 0x100 EXP DUP2 SLOAD SWAP1 PUSH20 0xFFFFFFFFFFFFFFFFFFFFFFFFFFFFFFFFFFFFFFFF MUL NOT AND SWAP1 SSTORE SWAP1 SSTORE POP POP JUMP JUMPDEST PUSH1 0x60 PUSH1 0x7 DUP1 SLOAD DUP1 PUSH1 0x20 MUL PUSH1 0x20 ADD PUSH1 0x40 MLOAD SWAP1 DUP2 ADD PUSH1 0x40 MSTORE DUP1 SWAP3 SWAP2 SWAP1 DUP2 DUP2 MSTORE PUSH1 0x20 ADD DUP3 DUP1 SLOAD DUP1 ISZERO PUSH2 0x7F4 JUMPI PUSH1 0x20 MUL DUP3 ADD SWAP2 SWAP1 PUSH1 0x0 MSTORE PUSH1 0x20 PUSH1 0x0 KECCAK256 SWAP1 JUMPDEST DUP2 PUSH1 0x0 SWAP1 SLOAD SWAP1 PUSH2 0x100 EXP SWAP1 DIV PUSH20 0xFFFFFFFFFFFFFFFFFFFFFFFFFFFFFFFFFFFFFFFF AND PUSH20 0xFFFFFFFFFFFFFFFFFFFFFFFFFFFFFFFFFFFFFFFF AND DUP2 MSTORE PUSH1 0x20 ADD SWAP1 PUSH1 0x1 ADD SWAP1 DUP1 DUP4 GT PUSH2 0x7AA JUMPI JUMPDEST POP POP POP POP POP SWAP1 POP SWAP1 JUMP JUMPDEST PUSH1 0x0 PUSH2 0x809 DUP3 PUSH2 0x1475 JUMP JUMPDEST SWAP1 POP PUSH1 0x0 DUP2 EQ PUSH2 0x84E JUMPI PUSH1 0x40 MLOAD PUSH32 0x8C379A000000000000000000000000000000000000000000000000000000000 DUP2 MSTORE PUSH1 0x4 ADD PUSH2 0x845 SWAP1 PUSH2 0x1DDE JUMP JUMPDEST PUSH1 0x40 MLOAD DUP1 SWAP2 SUB SWAP1 REVERT JUMPDEST PUSH1 0x0 JUMPDEST PUSH1 0x6 DUP1 SLOAD SWAP1 POP DUP2 LT ISZERO PUSH2 0x91C JUMPI DUP3 PUSH20 0xFFFFFFFFFFFFFFFFFFFFFFFFFFFFFFFFFFFFFFFF AND PUSH1 0x6 DUP3 DUP2 SLOAD DUP2 LT PUSH2 0x889 JUMPI PUSH2 0x888 PUSH2 0x2301 JUMP JUMPDEST JUMPDEST SWAP1 PUSH1 0x0 MSTORE PUSH1 0x20 PUSH1 0x0 KECCAK256 ADD PUSH1 0x0 SWAP1 SLOAD SWAP1 PUSH2 0x100 EXP SWAP1 DIV PUSH20 0xFFFFFFFFFFFFFFFFFFFFFFFFFFFFFFFFFFFFFFFF AND PUSH20 0xFFFFFFFFFFFFFFFFFFFFFFFFFFFFFFFFFFFFFFFF AND EQ ISZERO PUSH2 0x90B JUMPI PUSH1 0x40 MLOAD PUSH32 0x8C379A000000000000000000000000000000000000000000000000000000000 DUP2 MSTORE PUSH1 0x4 ADD PUSH2 0x902 SWAP1 PUSH2 0x1E3E JUMP JUMPDEST PUSH1 0x40 MLOAD DUP1 SWAP2 SUB SWAP1 REVERT JUMPDEST DUP1 PUSH2 0x915 SWAP1 PUSH2 0x222B JUMP JUMPDEST SWAP1 POP PUSH2 0x851 JUMP JUMPDEST POP PUSH1 0x7 DUP3 SWAP1 DUP1 PUSH1 0x1 DUP2 SLOAD ADD DUP1 DUP3 SSTORE DUP1 SWAP2 POP POP PUSH1 0x1 SWAP1 SUB SWAP1 PUSH1 0x0 MSTORE PUSH1 0x20 PUSH1 0x0 KECCAK256 ADD PUSH1 0x0 SWAP1 SWAP2 SWAP1 SWAP2 SWAP1 SWAP2 PUSH2 0x100 EXP DUP2 SLOAD DUP2 PUSH20 0xFFFFFFFFFFFFFFFFFFFFFFFFFFFFFFFFFFFFFFFF MUL NOT AND SWAP1 DUP4 PUSH20 0xFFFFFFFFFFFFFFFFFFFFFFFFFFFFFFFFFFFFFFFF AND MUL OR SWAP1 SSTORE POP POP POP JUMP JUMPDEST PUSH1 0x60 PUSH1 0x6 DUP1 SLOAD DUP1 PUSH1 0x20 MUL PUSH1 0x20 ADD PUSH1 0x40 MLOAD SWAP1 DUP2 ADD PUSH1 0x40 MSTORE DUP1 SWAP3 SWAP2 SWAP1 DUP2 DUP2 MSTORE PUSH1 0x20 ADD DUP3 DUP1 SLOAD DUP1 ISZERO PUSH2 0xA08 JUMPI PUSH1 0x20 MUL DUP3 ADD SWAP2 SWAP1 PUSH1 0x0 MSTORE PUSH1 0x20 PUSH1 0x0 KECCAK256 SWAP1 JUMPDEST DUP2 PUSH1 0x0 SWAP1 SLOAD SWAP1 PUSH2 0x100 EXP SWAP1 DIV PUSH20 0xFFFFFFFFFFFFFFFFFFFFFFFFFFFFFFFFFFFFFFFF AND PUSH20 0xFFFFFFFFFFFFFFFFFFFFFFFFFFFFFFFFFFFFFFFF AND DUP2 MSTORE PUSH1 0x20 ADD SWAP1 PUSH1 0x1 ADD SWAP1 DUP1 DUP4 GT PUSH2 0x9BE JUMPI JUMPDEST POP POP POP POP POP SWAP1 POP SWAP1 JUMP JUMPDEST PUSH1 0x0 DUP1 PUSH1 0x0 SWAP1 POP JUMPDEST PUSH1 0x5 DUP1 SLOAD SWAP1 POP DUP2 LT ISZERO PUSH2 0xABE JUMPI DUP3 PUSH1 0x40 MLOAD PUSH1 0x20 ADD PUSH2 0xA38 SWAP2 SWAP1 PUSH2 0x1D31 JUMP JUMPDEST PUSH1 0x40 MLOAD PUSH1 0x20 DUP2 DUP4 SUB SUB DUP2 MSTORE SWAP1 PUSH1 0x40 MSTORE DUP1 MLOAD SWAP1 PUSH1 0x20 ADD KECCAK256 PUSH1 0x5 DUP3 DUP2 SLOAD DUP2 LT PUSH2 0xA62 JUMPI PUSH2 0xA61 PUSH2 0x2301 JUMP JUMPDEST JUMPDEST SWAP1 PUSH1 0x0 MSTORE PUSH1 0x20 PUSH1 0x0 KECCAK256 ADD PUSH1 0x40 MLOAD PUSH1 0x20 ADD PUSH2 0xA7C SWAP2 SWAP1 PUSH2 0x1D48 JUMP JUMPDEST PUSH1 0x40 MLOAD PUSH1 0x20 DUP2 DUP4 SUB SUB DUP2 MSTORE SWAP1 PUSH1 0x40 MSTORE DUP1 MLOAD SWAP1 PUSH1 0x20 ADD KECCAK256 EQ ISZERO PUSH2 0xAAD JUMPI PUSH1 0x1 DUP2 PUSH2 0xAA5 SWAP2 SWAP1 PUSH2 0x2026 JUMP JUMPDEST SWAP2 POP POP PUSH2 0xAC4 JUMP JUMPDEST DUP1 PUSH2 0xAB7 SWAP1 PUSH2 0x222B JUMP JUMPDEST SWAP1 POP PUSH2 0xA1A JUMP JUMPDEST POP PUSH1 0x0 SWAP1 POP JUMPDEST SWAP2 SWAP1 POP JUMP JUMPDEST PUSH1 0x60 PUSH1 0x5 DUP1 SLOAD DUP1 PUSH1 0x20 MUL PUSH1 0x20 ADD PUSH1 0x40 MLOAD SWAP1 DUP2 ADD PUSH1 0x40 MSTORE DUP1 SWAP3 SWAP2 SWAP1 DUP2 DUP2 MSTORE PUSH1 0x20 ADD PUSH1 0x0 SWAP1 JUMPDEST DUP3 DUP3 LT ISZERO PUSH2 0xB99 JUMPI DUP4 DUP3 SWAP1 PUSH1 0x0 MSTORE PUSH1 0x20 PUSH1 0x0 KECCAK256 ADD DUP1 SLOAD PUSH2 0xB0C SWAP1 PUSH2 0x21AE JUMP JUMPDEST DUP1 PUSH1 0x1F ADD PUSH1 0x20 DUP1 SWAP2 DIV MUL PUSH1 0x20 ADD PUSH1 0x40 MLOAD SWAP1 DUP2 ADD PUSH1 0x40 MSTORE DUP1 SWAP3 SWAP2 SWAP1 DUP2 DUP2 MSTORE PUSH1 0x20 ADD DUP3 DUP1 SLOAD PUSH2 0xB38 SWAP1 PUSH2 0x21AE JUMP JUMPDEST DUP1 ISZERO PUSH2 0xB85 JUMPI DUP1 PUSH1 0x1F LT PUSH2 0xB5A JUMPI PUSH2 0x100 DUP1 DUP4 SLOAD DIV MUL DUP4 MSTORE SWAP2 PUSH1 0x20 ADD SWAP2 PUSH2 0xB85 JUMP JUMPDEST DUP3 ADD SWAP2 SWAP1 PUSH1 0x0 MSTORE PUSH1 0x20 PUSH1 0x0 KECCAK256 SWAP1 JUMPDEST DUP2 SLOAD DUP2 MSTORE SWAP1 PUSH1 0x1 ADD SWAP1 PUSH1 0x20 ADD DUP1 DUP4 GT PUSH2 0xB68 JUMPI DUP3 SWAP1 SUB PUSH1 0x1F AND DUP3 ADD SWAP2 JUMPDEST POP POP POP POP POP DUP2 MSTORE PUSH1 0x20 ADD SWAP1 PUSH1 0x1 ADD SWAP1 PUSH2 0xAED JUMP JUMPDEST POP POP POP POP SWAP1 POP SWAP1 JUMP JUMPDEST PUSH1 0x0 PUSH2 0xBAD DUP3 PUSH2 0xA12 JUMP JUMPDEST SWAP1 POP PUSH1 0x0 DUP2 EQ ISZERO PUSH2 0xBF3 JUMPI PUSH1 0x40 MLOAD PUSH32 0x8C379A000000000000000000000000000000000000000000000000000000000 DUP2 MSTORE PUSH1 0x4 ADD PUSH2 0xBEA SWAP1 PUSH2 0x1E7E JUMP JUMPDEST PUSH1 0x40 MLOAD DUP1 SWAP2 SUB SWAP1 REVERT JUMPDEST DUP1 DUP1 PUSH2 0xBFE SWAP1 PUSH2 0x2184 JUMP JUMPDEST SWAP2 POP POP PUSH1 0x3 PUSH1 0x0 DUP5 PUSH20 0xFFFFFFFFFFFFFFFFFFFFFFFFFFFFFFFFFFFFFFFF AND PUSH20 0xFFFFFFFFFFFFFFFFFFFFFFFFFFFFFFFFFFFFFFFF AND DUP2 MSTORE PUSH1 0x20 ADD SWAP1 DUP2 MSTORE PUSH1 0x20 ADD PUSH1 0x0 KECCAK256 DUP3 SWAP1 DUP1 PUSH1 0x1 DUP2 SLOAD ADD DUP1 DUP3 SSTORE DUP1 SWAP2 POP POP PUSH1 0x1 SWAP1 SUB SWAP1 PUSH1 0x0 MSTORE PUSH1 0x20 PUSH1 0x0 KECCAK256 ADD PUSH1 0x0 SWAP1 SWAP2 SWAP1 SWAP2 SWAP1 SWAP2 POP SWAP1 DUP1 MLOAD SWAP1 PUSH1 0x20 ADD SWAP1 PUSH2 0xC79 SWAP3 SWAP2 SWAP1 PUSH2 0x157F JUMP JUMPDEST POP PUSH1 0x4 DUP3 SWAP1 DUP1 PUSH1 0x1 DUP2 SLOAD ADD DUP1 DUP3 SSTORE DUP1 SWAP2 POP POP PUSH1 0x1 SWAP1 SUB SWAP1 PUSH1 0x0 MSTORE PUSH1 0x20 PUSH1 0x0 KECCAK256 ADD PUSH1 0x0 SWAP1 SWAP2 SWAP1 SWAP2 SWAP1 SWAP2 POP SWAP1 DUP1 MLOAD SWAP1 PUSH1 0x20 ADD SWAP1 PUSH2 0xCB5 SWAP3 SWAP2 SWAP1 PUSH2 0x157F JUMP JUMPDEST POP PUSH1 0x5 PUSH1 0x1 PUSH1 0x5 DUP1 SLOAD SWAP1 POP PUSH2 0xCCA SWAP2 SWAP1 PUSH2 0x207C JUMP JUMPDEST DUP2 SLOAD DUP2 LT PUSH2 0xCDB JUMPI PUSH2 0xCDA PUSH2 0x2301 JUMP JUMPDEST JUMPDEST SWAP1 PUSH1 0x0 MSTORE PUSH1 0x20 PUSH1 0x0 KECCAK256 ADD PUSH1 0x5 DUP3 DUP2 SLOAD DUP2 LT PUSH2 0xCF9 JUMPI PUSH2 0xCF8 PUSH2 0x2301 JUMP JUMPDEST JUMPDEST SWAP1 PUSH1 0x0 MSTORE PUSH1 0x20 PUSH1 0x0 KECCAK256 ADD SWAP1 DUP1 SLOAD PUSH2 0xD0F SWAP1 PUSH2 0x21AE JUMP JUMPDEST PUSH2 0xD1A SWAP3 SWAP2 SWAP1 PUSH2 0x1605 JUMP JUMPDEST POP PUSH1 0x5 DUP1 SLOAD DUP1 PUSH2 0xD2D JUMPI PUSH2 0xD2C PUSH2 0x22D2 JUMP JUMPDEST JUMPDEST PUSH1 0x1 SWAP1 SUB DUP2 DUP2 SWAP1 PUSH1 0x0 MSTORE PUSH1 0x20 PUSH1 0x0 KECCAK256 ADD PUSH1 0x0 PUSH2 0xD49 SWAP2 SWAP1 PUSH2 0x1692 JUMP JUMPDEST SWAP1 SSTORE POP POP POP JUMP JUMPDEST PUSH1 0x0 PUSH2 0xD5B DUP3 PUSH2 0x1475 JUMP JUMPDEST SWAP1 POP PUSH1 0x0 DUP2 EQ ISZERO PUSH2 0xDA1 JUMPI PUSH1 0x40 MLOAD PUSH32 0x8C379A000000000000000000000000000000000000000000000000000000000 DUP2 MSTORE PUSH1 0x4 ADD PUSH2 0xD98 SWAP1 PUSH2 0x1E9E JUMP JUMPDEST PUSH1 0x40 MLOAD DUP1 SWAP2 SUB SWAP1 REVERT JUMPDEST DUP1 DUP1 PUSH2 0xDAC SWAP1 PUSH2 0x2184 JUMP JUMPDEST SWAP2 POP POP PUSH1 0x6 DUP3 SWAP1 DUP1 PUSH1 0x1 DUP2 SLOAD ADD DUP1 DUP3 SSTORE DUP1 SWAP2 POP POP PUSH1 0x1 SWAP1 SUB SWAP1 PUSH1 0x0 MSTORE PUSH1 0x20 PUSH1 0x0 KECCAK256 ADD PUSH1 0x0 SWAP1 SWAP2 SWAP1 SWAP2 SWAP1 SWAP2 PUSH2 0x100 EXP DUP2 SLOAD DUP2 PUSH20 0xFFFFFFFFFFFFFFFFFFFFFFFFFFFFFFFFFFFFFFFF MUL NOT AND SWAP1 DUP4 PUSH20 0xFFFFFFFFFFFFFFFFFFFFFFFFFFFFFFFFFFFFFFFF AND MUL OR SWAP1 SSTORE POP PUSH1 0x0 CALLER PUSH20 0xFFFFFFFFFFFFFFFFFFFFFFFFFFFFFFFFFFFFFFFF AND PUSH4 0x5F9B4DC DUP5 PUSH1 0x40 MLOAD DUP3 PUSH4 0xFFFFFFFF AND PUSH1 0xE0 SHL DUP2 MSTORE PUSH1 0x4 ADD PUSH2 0xE4D SWAP2 SWAP1 PUSH2 0x1D5F JUMP JUMPDEST PUSH1 0x20 PUSH1 0x40 MLOAD DUP1 DUP4 SUB DUP2 DUP7 DUP1 EXTCODESIZE ISZERO DUP1 ISZERO PUSH2 0xE65 JUMPI PUSH1 0x0 DUP1 REVERT JUMPDEST POP GAS STATICCALL ISZERO DUP1 ISZERO PUSH2 0xE79 JUMPI RETURNDATASIZE PUSH1 0x0 DUP1 RETURNDATACOPY RETURNDATASIZE PUSH1 0x0 REVERT JUMPDEST POP POP POP POP PUSH1 0x40 MLOAD RETURNDATASIZE PUSH1 0x1F NOT PUSH1 0x1F DUP3 ADD AND DUP3 ADD DUP1 PUSH1 0x40 MSTORE POP DUP2 ADD SWAP1 PUSH2 0xE9D SWAP2 SWAP1 PUSH2 0x187E JUMP JUMPDEST SWAP1 POP PUSH1 0x0 CALLER PUSH20 0xFFFFFFFFFFFFFFFFFFFFFFFFFFFFFFFFFFFFFFFF AND PUSH4 0x5F9B4DC PUSH1 0x0 DUP1 SLOAD SWAP1 PUSH2 0x100 EXP SWAP1 DIV PUSH20 0xFFFFFFFFFFFFFFFFFFFFFFFFFFFFFFFFFFFFFFFF AND PUSH1 0x40 MLOAD DUP3 PUSH4 0xFFFFFFFF AND PUSH1 0xE0 SHL DUP2 MSTORE PUSH1 0x4 ADD PUSH2 0xEFA SWAP2 SWAP1 PUSH2 0x1D5F JUMP JUMPDEST PUSH1 0x20 PUSH1 0x40 MLOAD DUP1 DUP4 SUB DUP2 DUP7 DUP1 EXTCODESIZE ISZERO DUP1 ISZERO PUSH2 0xF12 JUMPI PUSH1 0x0 DUP1 REVERT JUMPDEST POP GAS STATICCALL ISZERO DUP1 ISZERO PUSH2 0xF26 JUMPI RETURNDATASIZE PUSH1 0x0 DUP1 RETURNDATACOPY RETURNDATASIZE PUSH1 0x0 REVERT JUMPDEST POP POP POP POP PUSH1 0x40 MLOAD RETURNDATASIZE PUSH1 0x1F NOT PUSH1 0x1F DUP3 ADD AND DUP3 ADD DUP1 PUSH1 0x40 MSTORE POP DUP2 ADD SWAP1 PUSH2 0xF4A SWAP2 SWAP1 PUSH2 0x187E JUMP JUMPDEST SWAP1 POP PUSH1 0x0 DUP2 PUSH20 0xFFFFFFFFFFFFFFFFFFFFFFFFFFFFFFFFFFFFFFFF AND PUSH4 0x2DB9A512 PUSH1 0x40 MLOAD DUP2 PUSH4 0xFFFFFFFF AND PUSH1 0xE0 SHL DUP2 MSTORE PUSH1 0x4 ADD PUSH1 0x20 PUSH1 0x40 MLOAD DUP1 DUP4 SUB DUP2 DUP7 DUP1 EXTCODESIZE ISZERO DUP1 ISZERO PUSH2 0xF94 JUMPI PUSH1 0x0 DUP1 REVERT JUMPDEST POP GAS STATICCALL ISZERO DUP1 ISZERO PUSH2 0xFA8 JUMPI RETURNDATASIZE PUSH1 0x0 DUP1 RETURNDATACOPY RETURNDATASIZE PUSH1 0x0 REVERT JUMPDEST POP POP POP POP PUSH1 0x40 MLOAD RETURNDATASIZE PUSH1 0x1F NOT PUSH1 0x1F DUP3 ADD AND DUP3 ADD DUP1 PUSH1 0x40 MSTORE POP DUP2 ADD SWAP1 PUSH2 0xFCC SWAP2 SWAP1 PUSH2 0x1934 JUMP JUMPDEST SWAP1 POP DUP2 PUSH20 0xFFFFFFFFFFFFFFFFFFFFFFFFFFFFFFFFFFFFFFFF AND PUSH4 0x7AAC861B DUP5 PUSH20 0xFFFFFFFFFFFFFFFFFFFFFFFFFFFFFFFFFFFFFFFF AND PUSH4 0x8571011 PUSH1 0x40 MLOAD DUP2 PUSH4 0xFFFFFFFF AND PUSH1 0xE0 SHL DUP2 MSTORE PUSH1 0x4 ADD PUSH1 0x20 PUSH1 0x40 MLOAD DUP1 DUP4 SUB DUP2 DUP7 DUP1 EXTCODESIZE ISZERO DUP1 ISZERO PUSH2 0x1030 JUMPI PUSH1 0x0 DUP1 REVERT JUMPDEST POP GAS STATICCALL ISZERO DUP1 ISZERO PUSH2 0x1044 JUMPI RETURNDATASIZE PUSH1 0x0 DUP1 RETURNDATACOPY RETURNDATASIZE PUSH1 0x0 REVERT JUMPDEST POP POP POP POP PUSH1 0x40 MLOAD RETURNDATASIZE PUSH1 0x1F NOT PUSH1 0x1F DUP3 ADD AND DUP3 ADD DUP1 PUSH1 0x40 MSTORE POP DUP2 ADD SWAP1 PUSH2 0x1068 SWAP2 SWAP1 PUSH2 0x1934 JUMP JUMPDEST PUSH1 0x40 MLOAD DUP3 PUSH4 0xFFFFFFFF AND PUSH1 0xE0 SHL DUP2 MSTORE PUSH1 0x4 ADD PUSH2 0x1084 SWAP2 SWAP1 PUSH2 0x1EBE JUMP JUMPDEST PUSH1 0x0 PUSH1 0x40 MLOAD DUP1 DUP4 SUB DUP2 PUSH1 0x0 DUP8 DUP1 EXTCODESIZE ISZERO DUP1 ISZERO PUSH2 0x109E JUMPI PUSH1 0x0 DUP1 REVERT JUMPDEST POP GAS CALL ISZERO DUP1 ISZERO PUSH2 0x10B2 JUMPI RETURNDATASIZE PUSH1 0x0 DUP1 RETURNDATACOPY RETURNDATASIZE PUSH1 0x0 REVERT JUMPDEST POP POP POP POP DUP3 PUSH20 0xFFFFFFFFFFFFFFFFFFFFFFFFFFFFFFFFFFFFFFFF AND PUSH4 0x6777D32A DUP3 PUSH1 0x40 MLOAD DUP3 PUSH4 0xFFFFFFFF AND PUSH1 0xE0 SHL DUP2 MSTORE PUSH1 0x4 ADD PUSH2 0x10EF SWAP2 SWAP1 PUSH2 0x1EBE JUMP JUMPDEST PUSH1 0x0 PUSH1 0x40 MLOAD DUP1 DUP4 SUB DUP2 PUSH1 0x0 DUP8 DUP1 EXTCODESIZE ISZERO DUP1 ISZERO PUSH2 0x1109 JUMPI PUSH1 0x0 DUP1 REVERT JUMPDEST POP GAS CALL ISZERO DUP1 ISZERO PUSH2 0x111D JUMPI RETURNDATASIZE PUSH1 0x0 DUP1 RETURNDATACOPY RETURNDATASIZE PUSH1 0x0 REVERT JUMPDEST POP POP POP POP PUSH1 0x7 PUSH1 0x1 PUSH1 0x7 DUP1 SLOAD SWAP1 POP PUSH2 0x1135 SWAP2 SWAP1 PUSH2 0x207C JUMP JUMPDEST DUP2 SLOAD DUP2 LT PUSH2 0x1146 JUMPI PUSH2 0x1145 PUSH2 0x2301 JUMP JUMPDEST JUMPDEST SWAP1 PUSH1 0x0 MSTORE PUSH1 0x20 PUSH1 0x0 KECCAK256 ADD PUSH1 0x0 SWAP1 SLOAD SWAP1 PUSH2 0x100 EXP SWAP1 DIV PUSH20 0xFFFFFFFFFFFFFFFFFFFFFFFFFFFFFFFFFFFFFFFF AND PUSH1 0x7 DUP6 DUP2 SLOAD DUP2 LT PUSH2 0x1185 JUMPI PUSH2 0x1184 PUSH2 0x2301 JUMP JUMPDEST JUMPDEST SWAP1 PUSH1 0x0 MSTORE PUSH1 0x20 PUSH1 0x0 KECCAK256 ADD PUSH1 0x0 PUSH2 0x100 EXP DUP2 SLOAD DUP2 PUSH20 0xFFFFFFFFFFFFFFFFFFFFFFFFFFFFFFFFFFFFFFFF MUL NOT AND SWAP1 DUP4 PUSH20 0xFFFFFFFFFFFFFFFFFFFFFFFFFFFFFFFFFFFFFFFF AND MUL OR SWAP1 SSTORE POP PUSH1 0x7 DUP1 SLOAD DUP1 PUSH2 0x11DF JUMPI PUSH2 0x11DE PUSH2 0x22D2 JUMP JUMPDEST JUMPDEST PUSH1 0x1 SWAP1 SUB DUP2 DUP2 SWAP1 PUSH1 0x0 MSTORE PUSH1 0x20 PUSH1 0x0 KECCAK256 ADD PUSH1 0x0 PUSH2 0x100 EXP DUP2 SLOAD SWAP1 PUSH20 0xFFFFFFFFFFFFFFFFFFFFFFFFFFFFFFFFFFFFFFFF MUL NOT AND SWAP1 SSTORE SWAP1 SSTORE POP POP POP POP POP JUMP JUMPDEST PUSH1 0x0 PUSH2 0x1226 DUP4 PUSH2 0x138E JUMP JUMPDEST SWAP1 POP DUP1 PUSH2 0x1389 JUMPI PUSH1 0x0 PUSH2 0x1238 DUP4 PUSH2 0xA12 JUMP JUMPDEST SWAP1 POP PUSH1 0x0 DUP2 EQ PUSH2 0x127D JUMPI PUSH1 0x40 MLOAD PUSH32 0x8C379A000000000000000000000000000000000000000000000000000000000 DUP2 MSTORE PUSH1 0x4 ADD PUSH2 0x1274 SWAP1 PUSH2 0x1E1E JUMP JUMPDEST PUSH1 0x40 MLOAD DUP1 SWAP2 SUB SWAP1 REVERT JUMPDEST PUSH1 0x0 JUMPDEST PUSH1 0x4 DUP1 SLOAD SWAP1 POP DUP2 LT ISZERO PUSH2 0x134A JUMPI DUP4 PUSH1 0x40 MLOAD PUSH1 0x20 ADD PUSH2 0x129E SWAP2 SWAP1 PUSH2 0x1D31 JUMP JUMPDEST PUSH1 0x40 MLOAD PUSH1 0x20 DUP2 DUP4 SUB SUB DUP2 MSTORE SWAP1 PUSH1 0x40 MSTORE DUP1 MLOAD SWAP1 PUSH1 0x20 ADD KECCAK256 PUSH1 0x4 DUP3 DUP2 SLOAD DUP2 LT PUSH2 0x12C8 JUMPI PUSH2 0x12C7 PUSH2 0x2301 JUMP JUMPDEST JUMPDEST SWAP1 PUSH1 0x0 MSTORE PUSH1 0x20 PUSH1 0x0 KECCAK256 ADD PUSH1 0x40 MLOAD PUSH1 0x20 ADD PUSH2 0x12E2 SWAP2 SWAP1 PUSH2 0x1D48 JUMP JUMPDEST PUSH1 0x40 MLOAD PUSH1 0x20 DUP2 DUP4 SUB SUB DUP2 MSTORE SWAP1 PUSH1 0x40 MSTORE DUP1 MLOAD SWAP1 PUSH1 0x20 ADD KECCAK256 EQ ISZERO PUSH2 0x1339 JUMPI PUSH1 0x40 MLOAD PUSH32 0x8C379A000000000000000000000000000000000000000000000000000000000 DUP2 MSTORE PUSH1 0x4 ADD PUSH2 0x1330 SWAP1 PUSH2 0x1DFE JUMP JUMPDEST PUSH1 0x40 MLOAD DUP1 SWAP2 SUB SWAP1 REVERT JUMPDEST DUP1 PUSH2 0x1343 SWAP1 PUSH2 0x222B JUMP JUMPDEST SWAP1 POP PUSH2 0x1280 JUMP JUMPDEST POP PUSH1 0x5 DUP4 SWAP1 DUP1 PUSH1 0x1 DUP2 SLOAD ADD DUP1 DUP3 SSTORE DUP1 SWAP2 POP POP PUSH1 0x1 SWAP1 SUB SWAP1 PUSH1 0x0 MSTORE PUSH1 0x20 PUSH1 0x0 KECCAK256 ADD PUSH1 0x0 SWAP1 SWAP2 SWAP1 SWAP2 SWAP1 SWAP2 POP SWAP1 DUP1 MLOAD SWAP1 PUSH1 0x20 ADD SWAP1 PUSH2 0x1386 SWAP3 SWAP2 SWAP1 PUSH2 0x157F JUMP JUMPDEST POP POP JUMPDEST POP POP POP JUMP JUMPDEST PUSH1 0x0 PUSH1 0x1 SWAP1 POP PUSH1 0x0 JUMPDEST PUSH1 0x6 DUP1 SLOAD SWAP1 POP DUP2 LT ISZERO PUSH2 0x142E JUMPI DUP3 PUSH20 0xFFFFFFFFFFFFFFFFFFFFFFFFFFFFFFFFFFFFFFFF AND PUSH1 0x6 DUP3 DUP2 SLOAD DUP2 LT PUSH2 0x13CF JUMPI PUSH2 0x13CE PUSH2 0x2301 JUMP JUMPDEST JUMPDEST SWAP1 PUSH1 0x0 MSTORE PUSH1 0x20 PUSH1 0x0 KECCAK256 ADD PUSH1 0x0 SWAP1 SLOAD SWAP1 PUSH2 0x100 EXP SWAP1 DIV PUSH20 0xFFFFFFFFFFFFFFFFFFFFFFFFFFFFFFFFFFFFFFFF AND PUSH20 0xFFFFFFFFFFFFFFFFFFFFFFFFFFFFFFFFFFFFFFFF AND EQ ISZERO PUSH2 0x141B JUMPI PUSH1 0x0 SWAP2 POP JUMPDEST DUP1 DUP1 PUSH2 0x1426 SWAP1 PUSH2 0x222B JUMP JUMPDEST SWAP2 POP POP PUSH2 0x1397 JUMP JUMPDEST POP DUP1 ISZERO PUSH2 0x1470 JUMPI PUSH1 0x40 MLOAD PUSH32 0x8C379A000000000000000000000000000000000000000000000000000000000 DUP2 MSTORE PUSH1 0x4 ADD PUSH2 0x1467 SWAP1 PUSH2 0x1E5E JUMP JUMPDEST PUSH1 0x40 MLOAD DUP1 SWAP2 SUB SWAP1 REVERT JUMPDEST SWAP2 SWAP1 POP JUMP JUMPDEST PUSH1 0x0 DUP1 PUSH1 0x0 SWAP1 POP JUMPDEST PUSH1 0x7 DUP1 SLOAD SWAP1 POP DUP2 LT ISZERO PUSH2 0x1522 JUMPI DUP3 PUSH20 0xFFFFFFFFFFFFFFFFFFFFFFFFFFFFFFFFFFFFFFFF AND PUSH1 0x7 DUP3 DUP2 SLOAD DUP2 LT PUSH2 0x14B5 JUMPI PUSH2 0x14B4 PUSH2 0x2301 JUMP JUMPDEST JUMPDEST SWAP1 PUSH1 0x0 MSTORE PUSH1 0x20 PUSH1 0x0 KECCAK256 ADD PUSH1 0x0 SWAP1 SLOAD SWAP1 PUSH2 0x100 EXP SWAP1 DIV PUSH20 0xFFFFFFFFFFFFFFFFFFFFFFFFFFFFFFFFFFFFFFFF AND PUSH20 0xFFFFFFFFFFFFFFFFFFFFFFFFFFFFFFFFFFFFFFFF AND EQ ISZERO PUSH2 0x1511 JUMPI PUSH1 0x1 DUP2 PUSH2 0x1509 SWAP2 SWAP1 PUSH2 0x2026 JUMP JUMPDEST SWAP2 POP POP PUSH2 0x1528 JUMP JUMPDEST DUP1 PUSH2 0x151B SWAP1 PUSH2 0x222B JUMP JUMPDEST SWAP1 POP PUSH2 0x147D JUMP JUMPDEST POP PUSH1 0x0 SWAP1 POP JUMPDEST SWAP2 SWAP1 POP JUMP JUMPDEST DUP3 DUP1 SLOAD DUP3 DUP3 SSTORE SWAP1 PUSH1 0x0 MSTORE PUSH1 0x20 PUSH1 0x0 KECCAK256 SWAP1 DUP2 ADD SWAP3 DUP3 ISZERO PUSH2 0x156E JUMPI PUSH1 0x0 MSTORE PUSH1 0x20 PUSH1 0x0 KECCAK256 SWAP2 DUP3 ADD JUMPDEST DUP3 DUP2 GT ISZERO PUSH2 0x156D JUMPI DUP3 SLOAD DUP3 SSTORE SWAP2 PUSH1 0x1 ADD SWAP2 SWAP1 PUSH1 0x1 ADD SWAP1 PUSH2 0x1552 JUMP JUMPDEST JUMPDEST POP SWAP1 POP PUSH2 0x157B SWAP2 SWAP1 PUSH2 0x16D2 JUMP JUMPDEST POP SWAP1 JUMP JUMPDEST DUP3 DUP1 SLOAD PUSH2 0x158B SWAP1 PUSH2 0x21AE JUMP JUMPDEST SWAP1 PUSH1 0x0 MSTORE PUSH1 0x20 PUSH1 0x0 KECCAK256 SWAP1 PUSH1 0x1F ADD PUSH1 0x20 SWAP1 DIV DUP2 ADD SWAP3 DUP3 PUSH2 0x15AD JUMPI PUSH1 0x0 DUP6 SSTORE PUSH2 0x15F4 JUMP JUMPDEST DUP3 PUSH1 0x1F LT PUSH2 0x15C6 JUMPI DUP1 MLOAD PUSH1 0xFF NOT AND DUP4 DUP1 ADD OR DUP6 SSTORE PUSH2 0x15F4 JUMP JUMPDEST DUP3 DUP1 ADD PUSH1 0x1 ADD DUP6 SSTORE DUP3 ISZERO PUSH2 0x15F4 JUMPI SWAP2 DUP3 ADD JUMPDEST DUP3 DUP2 GT ISZERO PUSH2 0x15F3 JUMPI DUP3 MLOAD DUP3 SSTORE SWAP2 PUSH1 0x20 ADD SWAP2 SWAP1 PUSH1 0x1 ADD SWAP1 PUSH2 0x15D8 JUMP JUMPDEST JUMPDEST POP SWAP1 POP PUSH2 0x1601 SWAP2 SWAP1 PUSH2 0x16D2 JUMP JUMPDEST POP SWAP1 JUMP JUMPDEST DUP3 DUP1 SLOAD PUSH2 0x1611 SWAP1 PUSH2 0x21AE JUMP JUMPDEST SWAP1 PUSH1 0x0 MSTORE PUSH1 0x20 PUSH1 0x0 KECCAK256 SWAP1 PUSH1 0x1F ADD PUSH1 0x20 SWAP1 DIV DUP2 ADD SWAP3 DUP3 PUSH2 0x1633 JUMPI PUSH1 0x0 DUP6 SSTORE PUSH2 0x1681 JUMP JUMPDEST DUP3 PUSH1 0x1F LT PUSH2 0x1644 JUMPI DUP1 SLOAD DUP6 SSTORE PUSH2 0x1681 JUMP JUMPDEST DUP3 DUP1 ADD PUSH1 0x1 ADD DUP6 SSTORE DUP3 ISZERO PUSH2 0x1681 JUMPI PUSH1 0x0 MSTORE PUSH1 0x20 PUSH1 0x0 KECCAK256 SWAP2 PUSH1 0x1F ADD PUSH1 0x20 SWAP1 DIV DUP3 ADD JUMPDEST DUP3 DUP2 GT ISZERO PUSH2 0x1680 JUMPI DUP3 SLOAD DUP3 SSTORE SWAP2 PUSH1 0x1 ADD SWAP2 SWAP1 PUSH1 0x1 ADD SWAP1 PUSH2 0x1665 JUMP JUMPDEST JUMPDEST POP SWAP1 POP PUSH2 0x168E SWAP2 SWAP1 PUSH2 0x16D2 JUMP JUMPDEST POP SWAP1 JUMP JUMPDEST POP DUP1 SLOAD PUSH2 0x169E SWAP1 PUSH2 0x21AE JUMP JUMPDEST PUSH1 0x0 DUP3 SSTORE DUP1 PUSH1 0x1F LT PUSH2 0x16B0 JUMPI POP PUSH2 0x16CF JUMP JUMPDEST PUSH1 0x1F ADD PUSH1 0x20 SWAP1 DIV SWAP1 PUSH1 0x0 MSTORE PUSH1 0x20 PUSH1 0x0 KECCAK256 SWAP1 DUP2 ADD SWAP1 PUSH2 0x16CE SWAP2 SWAP1 PUSH2 0x16D2 JUMP JUMPDEST JUMPDEST POP JUMP JUMPDEST JUMPDEST DUP1 DUP3 GT ISZERO PUSH2 0x16EB JUMPI PUSH1 0x0 DUP2 PUSH1 0x0 SWAP1 SSTORE POP PUSH1 0x1 ADD PUSH2 0x16D3 JUMP JUMPDEST POP SWAP1 JUMP JUMPDEST PUSH1 0x0 PUSH2 0x1702 PUSH2 0x16FD DUP5 PUSH2 0x1EFE JUMP JUMPDEST PUSH2 0x1ED9 JUMP JUMPDEST SWAP1 POP DUP3 DUP2 MSTORE PUSH1 0x20 DUP2 ADD DUP5 DUP5 DUP5 ADD GT ISZERO PUSH2 0x171E JUMPI PUSH2 0x171D PUSH2 0x2377 JUMP JUMPDEST JUMPDEST PUSH2 0x1729 DUP5 DUP3 DUP6 PUSH2 0x2142 JUMP JUMPDEST POP SWAP4 SWAP3 POP POP POP JUMP JUMPDEST PUSH1 0x0 DUP2 CALLDATALOAD SWAP1 POP PUSH2 0x1740 DUP2 PUSH2 0x2512 JUMP JUMPDEST SWAP3 SWAP2 POP POP JUMP JUMPDEST PUSH1 0x0 DUP2 MLOAD SWAP1 POP PUSH2 0x1755 DUP2 PUSH2 0x2512 JUMP JUMPDEST SWAP3 SWAP2 POP POP JUMP JUMPDEST PUSH1 0x0 DUP2 CALLDATALOAD SWAP1 POP PUSH2 0x176A DUP2 PUSH2 0x2529 JUMP JUMPDEST SWAP3 SWAP2 POP POP JUMP JUMPDEST PUSH1 0x0 DUP2 MLOAD SWAP1 POP PUSH2 0x177F DUP2 PUSH2 0x2529 JUMP JUMPDEST SWAP3 SWAP2 POP POP JUMP JUMPDEST PUSH1 0x0 DUP3 PUSH1 0x1F DUP4 ADD SLT PUSH2 0x179A JUMPI PUSH2 0x1799 PUSH2 0x2372 JUMP JUMPDEST JUMPDEST DUP2 CALLDATALOAD PUSH2 0x17AA DUP5 DUP3 PUSH1 0x20 DUP7 ADD PUSH2 0x16EF JUMP JUMPDEST SWAP2 POP POP SWAP3 SWAP2 POP POP JUMP JUMPDEST PUSH1 0x0 DUP2 MLOAD SWAP1 POP PUSH2 0x17C2 DUP2 PUSH2 0x2540 JUMP JUMPDEST SWAP3 SWAP2 POP POP JUMP JUMPDEST PUSH1 0x0 PUSH1 0x20 DUP3 DUP5 SUB SLT ISZERO PUSH2 0x17DE JUMPI PUSH2 0x17DD PUSH2 0x2381 JUMP JUMPDEST JUMPDEST PUSH1 0x0 PUSH2 0x17EC DUP5 DUP3 DUP6 ADD PUSH2 0x1731 JUMP JUMPDEST SWAP2 POP POP SWAP3 SWAP2 POP POP JUMP JUMPDEST PUSH1 0x0 PUSH1 0x20 DUP3 DUP5 SUB SLT ISZERO PUSH2 0x180B JUMPI PUSH2 0x180A PUSH2 0x2381 JUMP JUMPDEST JUMPDEST PUSH1 0x0 PUSH2 0x1819 DUP5 DUP3 DUP6 ADD PUSH2 0x1746 JUMP JUMPDEST SWAP2 POP POP SWAP3 SWAP2 POP POP JUMP JUMPDEST PUSH1 0x0 DUP1 PUSH1 0x40 DUP4 DUP6 SUB SLT ISZERO PUSH2 0x1839 JUMPI PUSH2 0x1838 PUSH2 0x2381 JUMP JUMPDEST JUMPDEST PUSH1 0x0 PUSH2 0x1847 DUP6 DUP3 DUP7 ADD PUSH2 0x1731 JUMP JUMPDEST SWAP3 POP POP PUSH1 0x20 DUP4 ADD CALLDATALOAD PUSH8 0xFFFFFFFFFFFFFFFF DUP2 GT ISZERO PUSH2 0x1868 JUMPI PUSH2 0x1867 PUSH2 0x237C JUMP JUMPDEST JUMPDEST PUSH2 0x1874 DUP6 DUP3 DUP7 ADD PUSH2 0x1785 JUMP JUMPDEST SWAP2 POP POP SWAP3 POP SWAP3 SWAP1 POP JUMP JUMPDEST PUSH1 0x0 PUSH1 0x20 DUP3 DUP5 SUB SLT ISZERO PUSH2 0x1894 JUMPI PUSH2 0x1893 PUSH2 0x2381 JUMP JUMPDEST JUMPDEST PUSH1 0x0 PUSH2 0x18A2 DUP5 DUP3 DUP6 ADD PUSH2 0x1770 JUMP JUMPDEST SWAP2 POP POP SWAP3 SWAP2 POP POP JUMP JUMPDEST PUSH1 0x0 DUP1 PUSH1 0x40 DUP4 DUP6 SUB SLT ISZERO PUSH2 0x18C2 JUMPI PUSH2 0x18C1 PUSH2 0x2381 JUMP JUMPDEST JUMPDEST PUSH1 0x0 PUSH2 0x18D0 DUP6 DUP3 DUP7 ADD PUSH2 0x175B JUMP JUMPDEST SWAP3 POP POP PUSH1 0x20 PUSH2 0x18E1 DUP6 DUP3 DUP7 ADD PUSH2 0x175B JUMP JUMPDEST SWAP2 POP POP SWAP3 POP SWAP3 SWAP1 POP JUMP JUMPDEST PUSH1 0x0 PUSH1 0x20 DUP3 DUP5 SUB SLT ISZERO PUSH2 0x1901 JUMPI PUSH2 0x1900 PUSH2 0x2381 JUMP JUMPDEST JUMPDEST PUSH1 0x0 DUP3 ADD CALLDATALOAD PUSH8 0xFFFFFFFFFFFFFFFF DUP2 GT ISZERO PUSH2 0x191F JUMPI PUSH2 0x191E PUSH2 0x237C JUMP JUMPDEST JUMPDEST PUSH2 0x192B DUP5 DUP3 DUP6 ADD PUSH2 0x1785 JUMP JUMPDEST SWAP2 POP POP SWAP3 SWAP2 POP POP JUMP JUMPDEST PUSH1 0x0 PUSH1 0x20 DUP3 DUP5 SUB SLT ISZERO PUSH2 0x194A JUMPI PUSH2 0x1949 PUSH2 0x2381 JUMP JUMPDEST JUMPDEST PUSH1 0x0 PUSH2 0x1958 DUP5 DUP3 DUP6 ADD PUSH2 0x17B3 JUMP JUMPDEST SWAP2 POP POP SWAP3 SWAP2 POP POP JUMP JUMPDEST PUSH1 0x0 PUSH2 0x196D DUP4 DUP4 PUSH2 0x19A5 JUMP JUMPDEST PUSH1 0x20 DUP4 ADD SWAP1 POP SWAP3 SWAP2 POP POP JUMP JUMPDEST PUSH1 0x0 PUSH2 0x1985 DUP4 DUP4 PUSH2 0x1AFB JUMP JUMPDEST PUSH1 0x20 DUP4 ADD SWAP1 POP SWAP3 SWAP2 POP POP JUMP JUMPDEST PUSH1 0x0 PUSH2 0x199D DUP4 DUP4 PUSH2 0x1B0A JUMP JUMPDEST SWAP1 POP SWAP3 SWAP2 POP POP JUMP JUMPDEST PUSH2 0x19AE DUP2 PUSH2 0x20D0 JUMP JUMPDEST DUP3 MSTORE POP POP JUMP JUMPDEST PUSH2 0x19BD DUP2 PUSH2 0x20D0 JUMP JUMPDEST DUP3 MSTORE POP POP JUMP JUMPDEST PUSH1 0x0 PUSH2 0x19CE DUP3 PUSH2 0x1F79 JUMP JUMPDEST PUSH2 0x19D8 DUP2 DUP6 PUSH2 0x1FCC JUMP JUMPDEST SWAP4 POP PUSH2 0x19E3 DUP4 PUSH2 0x1F2F JUMP JUMPDEST DUP1 PUSH1 0x0 JUMPDEST DUP4 DUP2 LT ISZERO PUSH2 0x1A14 JUMPI DUP2 MLOAD PUSH2 0x19FB DUP9 DUP3 PUSH2 0x1961 JUMP JUMPDEST SWAP8 POP PUSH2 0x1A06 DUP4 PUSH2 0x1FA5 JUMP JUMPDEST SWAP3 POP POP PUSH1 0x1 DUP2 ADD SWAP1 POP PUSH2 0x19E7 JUMP JUMPDEST POP DUP6 SWAP4 POP POP POP POP SWAP3 SWAP2 POP POP JUMP JUMPDEST PUSH1 0x0 PUSH2 0x1A2C DUP3 PUSH2 0x1F84 JUMP JUMPDEST PUSH2 0x1A36 DUP2 DUP6 PUSH2 0x1FDD JUMP JUMPDEST SWAP4 POP PUSH2 0x1A41 DUP4 PUSH2 0x1F3F JUMP JUMPDEST DUP1 PUSH1 0x0 JUMPDEST DUP4 DUP2 LT ISZERO PUSH2 0x1A79 JUMPI PUSH2 0x1A56 DUP3 PUSH2 0x235F JUMP JUMPDEST PUSH2 0x1A60 DUP9 DUP3 PUSH2 0x1979 JUMP JUMPDEST SWAP8 POP PUSH2 0x1A6B DUP4 PUSH2 0x1FB2 JUMP JUMPDEST SWAP3 POP POP PUSH1 0x1 DUP2 ADD SWAP1 POP PUSH2 0x1A45 JUMP JUMPDEST POP DUP6 SWAP4 POP POP POP POP SWAP3 SWAP2 POP POP JUMP JUMPDEST PUSH1 0x0 PUSH2 0x1A91 DUP3 PUSH2 0x1F8F JUMP JUMPDEST PUSH2 0x1A9B DUP2 DUP6 PUSH2 0x1FE8 JUMP JUMPDEST SWAP4 POP DUP4 PUSH1 0x20 DUP3 MUL DUP6 ADD PUSH2 0x1AAD DUP6 PUSH2 0x1F54 JUMP JUMPDEST DUP1 PUSH1 0x0 JUMPDEST DUP6 DUP2 LT ISZERO PUSH2 0x1AE9 JUMPI DUP5 DUP5 SUB DUP10 MSTORE DUP2 MLOAD PUSH2 0x1ACA DUP6 DUP3 PUSH2 0x1991 JUMP JUMPDEST SWAP5 POP PUSH2 0x1AD5 DUP4 PUSH2 0x1FBF JUMP JUMPDEST SWAP3 POP PUSH1 0x20 DUP11 ADD SWAP10 POP POP PUSH1 0x1 DUP2 ADD SWAP1 POP PUSH2 0x1AB1 JUMP JUMPDEST POP DUP3 SWAP8 POP DUP8 SWAP6 POP POP POP POP POP POP SWAP3 SWAP2 POP POP JUMP JUMPDEST PUSH2 0x1B04 DUP2 PUSH2 0x211E JUMP JUMPDEST DUP3 MSTORE POP POP JUMP JUMPDEST PUSH1 0x0 PUSH2 0x1B15 DUP3 PUSH2 0x1F9A JUMP JUMPDEST PUSH2 0x1B1F DUP2 DUP6 PUSH2 0x1FF9 JUMP JUMPDEST SWAP4 POP PUSH2 0x1B2F DUP2 DUP6 PUSH1 0x20 DUP7 ADD PUSH2 0x2151 JUMP JUMPDEST PUSH2 0x1B38 DUP2 PUSH2 0x2386 JUMP JUMPDEST DUP5 ADD SWAP2 POP POP SWAP3 SWAP2 POP POP JUMP JUMPDEST PUSH1 0x0 PUSH2 0x1B4E DUP3 PUSH2 0x1F9A JUMP JUMPDEST PUSH2 0x1B58 DUP2 DUP6 PUSH2 0x201B JUMP JUMPDEST SWAP4 POP PUSH2 0x1B68 DUP2 DUP6 PUSH1 0x20 DUP7 ADD PUSH2 0x2151 JUMP JUMPDEST DUP1 DUP5 ADD SWAP2 POP POP SWAP3 SWAP2 POP POP JUMP JUMPDEST PUSH1 0x0 DUP2 SLOAD PUSH2 0x1B81 DUP2 PUSH2 0x21AE JUMP JUMPDEST PUSH2 0x1B8B DUP2 DUP7 PUSH2 0x201B JUMP JUMPDEST SWAP5 POP PUSH1 0x1 DUP3 AND PUSH1 0x0 DUP2 EQ PUSH2 0x1BA6 JUMPI PUSH1 0x1 DUP2 EQ PUSH2 0x1BB7 JUMPI PUSH2 0x1BEA JUMP JUMPDEST PUSH1 0xFF NOT DUP4 AND DUP7 MSTORE DUP2 DUP7 ADD SWAP4 POP PUSH2 0x1BEA JUMP JUMPDEST PUSH2 0x1BC0 DUP6 PUSH2 0x1F64 JUMP JUMPDEST PUSH1 0x0 JUMPDEST DUP4 DUP2 LT ISZERO PUSH2 0x1BE2 JUMPI DUP2 SLOAD DUP2 DUP10 ADD MSTORE PUSH1 0x1 DUP3 ADD SWAP2 POP PUSH1 0x20 DUP2 ADD SWAP1 POP PUSH2 0x1BC3 JUMP JUMPDEST DUP4 DUP9 ADD SWAP6 POP POP POP JUMPDEST POP POP POP SWAP3 SWAP2 POP POP JUMP JUMPDEST PUSH1 0x0 PUSH2 0x1C00 PUSH1 0xE DUP4 PUSH2 0x200A JUMP JUMPDEST SWAP2 POP PUSH2 0x1C0B DUP3 PUSH2 0x23A4 JUMP JUMPDEST PUSH1 0x20 DUP3 ADD SWAP1 POP SWAP2 SWAP1 POP JUMP JUMPDEST PUSH1 0x0 PUSH2 0x1C23 PUSH1 0x1D DUP4 PUSH2 0x200A JUMP JUMPDEST SWAP2 POP PUSH2 0x1C2E DUP3 PUSH2 0x23CD JUMP JUMPDEST PUSH1 0x20 DUP3 ADD SWAP1 POP SWAP2 SWAP1 POP JUMP JUMPDEST PUSH1 0x0 PUSH2 0x1C46 PUSH1 0x1A DUP4 PUSH2 0x200A JUMP JUMPDEST SWAP2 POP PUSH2 0x1C51 DUP3 PUSH2 0x23F6 JUMP JUMPDEST PUSH1 0x20 DUP3 ADD SWAP1 POP SWAP2 SWAP1 POP JUMP JUMPDEST PUSH1 0x0 PUSH2 0x1C69 PUSH1 0x22 DUP4 PUSH2 0x200A JUMP JUMPDEST SWAP2 POP PUSH2 0x1C74 DUP3 PUSH2 0x241F JUMP JUMPDEST PUSH1 0x40 DUP3 ADD SWAP1 POP SWAP2 SWAP1 POP JUMP JUMPDEST PUSH1 0x0 PUSH2 0x1C8C PUSH1 0x16 DUP4 PUSH2 0x200A JUMP JUMPDEST SWAP2 POP PUSH2 0x1C97 DUP3 PUSH2 0x246E JUMP JUMPDEST PUSH1 0x20 DUP3 ADD SWAP1 POP SWAP2 SWAP1 POP JUMP JUMPDEST PUSH1 0x0 PUSH2 0x1CAF PUSH1 0x12 DUP4 PUSH2 0x200A JUMP JUMPDEST SWAP2 POP PUSH2 0x1CBA DUP3 PUSH2 0x2497 JUMP JUMPDEST PUSH1 0x20 DUP3 ADD SWAP1 POP SWAP2 SWAP1 POP JUMP JUMPDEST PUSH1 0x0 PUSH2 0x1CD2 PUSH1 0x1E DUP4 PUSH2 0x200A JUMP JUMPDEST SWAP2 POP PUSH2 0x1CDD DUP3 PUSH2 0x24C0 JUMP JUMPDEST PUSH1 0x20 DUP3 ADD SWAP1 POP SWAP2 SWAP1 POP JUMP JUMPDEST PUSH1 0x0 PUSH2 0x1CF5 PUSH1 0x19 DUP4 PUSH2 0x200A JUMP JUMPDEST SWAP2 POP PUSH2 0x1D00 DUP3 PUSH2 0x24E9 JUMP JUMPDEST PUSH1 0x20 DUP3 ADD SWAP1 POP SWAP2 SWAP1 POP JUMP JUMPDEST PUSH2 0x1D14 DUP2 PUSH2 0x2114 JUMP JUMPDEST DUP3 MSTORE POP POP JUMP JUMPDEST PUSH1 0x0 PUSH2 0x1D26 DUP3 DUP5 PUSH2 0x1A21 JUMP JUMPDEST SWAP2 POP DUP2 SWAP1 POP SWAP3 SWAP2 POP POP JUMP JUMPDEST PUSH1 0x0 PUSH2 0x1D3D DUP3 DUP5 PUSH2 0x1B43 JUMP JUMPDEST SWAP2 POP DUP2 SWAP1 POP SWAP3 SWAP2 POP POP JUMP JUMPDEST PUSH1 0x0 PUSH2 0x1D54 DUP3 DUP5 PUSH2 0x1B74 JUMP JUMPDEST SWAP2 POP DUP2 SWAP1 POP SWAP3 SWAP2 POP POP JUMP JUMPDEST PUSH1 0x0 PUSH1 0x20 DUP3 ADD SWAP1 POP PUSH2 0x1D74 PUSH1 0x0 DUP4 ADD DUP5 PUSH2 0x19B4 JUMP JUMPDEST SWAP3 SWAP2 POP POP JUMP JUMPDEST PUSH1 0x0 PUSH1 0x20 DUP3 ADD SWAP1 POP DUP2 DUP2 SUB PUSH1 0x0 DUP4 ADD MSTORE PUSH2 0x1D94 DUP2 DUP5 PUSH2 0x19C3 JUMP JUMPDEST SWAP1 POP SWAP3 SWAP2 POP POP JUMP JUMPDEST PUSH1 0x0 PUSH1 0x20 DUP3 ADD SWAP1 POP DUP2 DUP2 SUB PUSH1 0x0 DUP4 ADD MSTORE PUSH2 0x1DB6 DUP2 DUP5 PUSH2 0x1A86 JUMP JUMPDEST SWAP1 POP SWAP3 SWAP2 POP POP JUMP JUMPDEST PUSH1 0x0 PUSH1 0x20 DUP3 ADD SWAP1 POP DUP2 DUP2 SUB PUSH1 0x0 DUP4 ADD MSTORE PUSH2 0x1DD7 DUP2 PUSH2 0x1BF3 JUMP JUMPDEST SWAP1 POP SWAP2 SWAP1 POP JUMP JUMPDEST PUSH1 0x0 PUSH1 0x20 DUP3 ADD SWAP1 POP DUP2 DUP2 SUB PUSH1 0x0 DUP4 ADD MSTORE PUSH2 0x1DF7 DUP2 PUSH2 0x1C16 JUMP JUMPDEST SWAP1 POP SWAP2 SWAP1 POP JUMP JUMPDEST PUSH1 0x0 PUSH1 0x20 DUP3 ADD SWAP1 POP DUP2 DUP2 SUB PUSH1 0x0 DUP4 ADD MSTORE PUSH2 0x1E17 DUP2 PUSH2 0x1C39 JUMP JUMPDEST SWAP1 POP SWAP2 SWAP1 POP JUMP JUMPDEST PUSH1 0x0 PUSH1 0x20 DUP3 ADD SWAP1 POP DUP2 DUP2 SUB PUSH1 0x0 DUP4 ADD MSTORE PUSH2 0x1E37 DUP2 PUSH2 0x1C5C JUMP JUMPDEST SWAP1 POP SWAP2 SWAP1 POP JUMP JUMPDEST PUSH1 0x0 PUSH1 0x20 DUP3 ADD SWAP1 POP DUP2 DUP2 SUB PUSH1 0x0 DUP4 ADD MSTORE PUSH2 0x1E57 DUP2 PUSH2 0x1C7F JUMP JUMPDEST SWAP1 POP SWAP2 SWAP1 POP JUMP JUMPDEST PUSH1 0x0 PUSH1 0x20 DUP3 ADD SWAP1 POP DUP2 DUP2 SUB PUSH1 0x0 DUP4 ADD MSTORE PUSH2 0x1E77 DUP2 PUSH2 0x1CA2 JUMP JUMPDEST SWAP1 POP SWAP2 SWAP1 POP JUMP JUMPDEST PUSH1 0x0 PUSH1 0x20 DUP3 ADD SWAP1 POP DUP2 DUP2 SUB PUSH1 0x0 DUP4 ADD MSTORE PUSH2 0x1E97 DUP2 PUSH2 0x1CC5 JUMP JUMPDEST SWAP1 POP SWAP2 SWAP1 POP JUMP JUMPDEST PUSH1 0x0 PUSH1 0x20 DUP3 ADD SWAP1 POP DUP2 DUP2 SUB PUSH1 0x0 DUP4 ADD MSTORE PUSH2 0x1EB7 DUP2 PUSH2 0x1CE8 JUMP JUMPDEST SWAP1 POP SWAP2 SWAP1 POP JUMP JUMPDEST PUSH1 0x0 PUSH1 0x20 DUP3 ADD SWAP1 POP PUSH2 0x1ED3 PUSH1 0x0 DUP4 ADD DUP5 PUSH2 0x1D0B JUMP JUMPDEST SWAP3 SWAP2 POP POP JUMP JUMPDEST PUSH1 0x0 PUSH2 0x1EE3 PUSH2 0x1EF4 JUMP JUMPDEST SWAP1 POP PUSH2 0x1EEF DUP3 DUP3 PUSH2 0x21FA JUMP JUMPDEST SWAP2 SWAP1 POP JUMP JUMPDEST PUSH1 0x0 PUSH1 0x40 MLOAD SWAP1 POP SWAP1 JUMP JUMPDEST PUSH1 0x0 PUSH8 0xFFFFFFFFFFFFFFFF DUP3 GT ISZERO PUSH2 0x1F19 JUMPI PUSH2 0x1F18 PUSH2 0x2330 JUMP JUMPDEST JUMPDEST PUSH2 0x1F22 DUP3 PUSH2 0x2386 JUMP JUMPDEST SWAP1 POP PUSH1 0x20 DUP2 ADD SWAP1 POP SWAP2 SWAP1 POP JUMP JUMPDEST PUSH1 0x0 DUP2 SWAP1 POP PUSH1 0x20 DUP3 ADD SWAP1 POP SWAP2 SWAP1 POP JUMP JUMPDEST PUSH1 0x0 DUP2 SWAP1 POP DUP2 PUSH1 0x0 MSTORE PUSH1 0x20 PUSH1 0x0 KECCAK256 SWAP1 POP SWAP2 SWAP1 POP JUMP JUMPDEST PUSH1 0x0 DUP2 SWAP1 POP PUSH1 0x20 DUP3 ADD SWAP1 POP SWAP2 SWAP1 POP JUMP JUMPDEST PUSH1 0x0 DUP2 SWAP1 POP DUP2 PUSH1 0x0 MSTORE PUSH1 0x20 PUSH1 0x0 KECCAK256 SWAP1 POP SWAP2 SWAP1 POP JUMP JUMPDEST PUSH1 0x0 DUP2 MLOAD SWAP1 POP SWAP2 SWAP1 POP JUMP JUMPDEST PUSH1 0x0 DUP2 SLOAD SWAP1 POP SWAP2 SWAP1 POP JUMP JUMPDEST PUSH1 0x0 DUP2 MLOAD SWAP1 POP SWAP2 SWAP1 POP JUMP JUMPDEST PUSH1 0x0 DUP2 MLOAD SWAP1 POP SWAP2 SWAP1 POP JUMP JUMPDEST PUSH1 0x0 PUSH1 0x20 DUP3 ADD SWAP1 POP SWAP2 SWAP1 POP JUMP JUMPDEST PUSH1 0x0 PUSH1 0x1 DUP3 ADD SWAP1 POP SWAP2 SWAP1 POP JUMP JUMPDEST PUSH1 0x0 PUSH1 0x20 DUP3 ADD SWAP1 POP SWAP2 SWAP1 POP JUMP JUMPDEST PUSH1 0x0 DUP3 DUP3 MSTORE PUSH1 0x20 DUP3 ADD SWAP1 POP SWAP3 SWAP2 POP POP JUMP JUMPDEST PUSH1 0x0 DUP2 SWAP1 POP SWAP3 SWAP2 POP POP JUMP JUMPDEST PUSH1 0x0 DUP3 DUP3 MSTORE PUSH1 0x20 DUP3 ADD SWAP1 POP SWAP3 SWAP2 POP POP JUMP JUMPDEST PUSH1 0x0 DUP3 DUP3 MSTORE PUSH1 0x20 DUP3 ADD SWAP1 POP SWAP3 SWAP2 POP POP JUMP JUMPDEST PUSH1 0x0 DUP3 DUP3 MSTORE PUSH1 0x20 DUP3 ADD SWAP1 POP SWAP3 SWAP2 POP POP JUMP JUMPDEST PUSH1 0x0 DUP2 SWAP1 POP SWAP3 SWAP2 POP POP JUMP JUMPDEST PUSH1 0x0 PUSH2 0x2031 DUP3 PUSH2 0x2114 JUMP JUMPDEST SWAP2 POP PUSH2 0x203C DUP4 PUSH2 0x2114 JUMP JUMPDEST SWAP3 POP DUP3 PUSH32 0xFFFFFFFFFFFFFFFFFFFFFFFFFFFFFFFFFFFFFFFFFFFFFFFFFFFFFFFFFFFFFFFF SUB DUP3 GT ISZERO PUSH2 0x2071 JUMPI PUSH2 0x2070 PUSH2 0x2274 JUMP JUMPDEST JUMPDEST DUP3 DUP3 ADD SWAP1 POP SWAP3 SWAP2 POP POP JUMP JUMPDEST PUSH1 0x0 PUSH2 0x2087 DUP3 PUSH2 0x2114 JUMP JUMPDEST SWAP2 POP PUSH2 0x2092 DUP4 PUSH2 0x2114 JUMP JUMPDEST SWAP3 POP DUP3 DUP3 LT ISZERO PUSH2 0x20A5 JUMPI PUSH2 0x20A4 PUSH2 0x2274 JUMP JUMPDEST JUMPDEST DUP3 DUP3 SUB SWAP1 POP SWAP3 SWAP2 POP POP JUMP JUMPDEST PUSH1 0x0 PUSH20 0xFFFFFFFFFFFFFFFFFFFFFFFFFFFFFFFFFFFFFFFF DUP3 AND SWAP1 POP SWAP2 SWAP1 POP JUMP JUMPDEST PUSH1 0x0 PUSH2 0x20DB DUP3 PUSH2 0x20F4 JUMP JUMPDEST SWAP1 POP SWAP2 SWAP1 POP JUMP JUMPDEST PUSH1 0x0 PUSH2 0x20ED DUP3 PUSH2 0x20D0 JUMP JUMPDEST SWAP1 POP SWAP2 SWAP1 POP JUMP JUMPDEST PUSH1 0x0 PUSH20 0xFFFFFFFFFFFFFFFFFFFFFFFFFFFFFFFFFFFFFFFF DUP3 AND SWAP1 POP SWAP2 SWAP1 POP JUMP JUMPDEST PUSH1 0x0 DUP2 SWAP1 POP SWAP2 SWAP1 POP JUMP JUMPDEST PUSH1 0x0 PUSH2 0x2129 DUP3 PUSH2 0x2130 JUMP JUMPDEST SWAP1 POP SWAP2 SWAP1 POP JUMP JUMPDEST PUSH1 0x0 PUSH2 0x213B DUP3 PUSH2 0x20F4 JUMP JUMPDEST SWAP1 POP SWAP2 SWAP1 POP JUMP JUMPDEST DUP3 DUP2 DUP4 CALLDATACOPY PUSH1 0x0 DUP4 DUP4 ADD MSTORE POP POP POP JUMP JUMPDEST PUSH1 0x0 JUMPDEST DUP4 DUP2 LT ISZERO PUSH2 0x216F JUMPI DUP1 DUP3 ADD MLOAD DUP2 DUP5 ADD MSTORE PUSH1 0x20 DUP2 ADD SWAP1 POP PUSH2 0x2154 JUMP JUMPDEST DUP4 DUP2 GT ISZERO PUSH2 0x217E JUMPI PUSH1 0x0 DUP5 DUP5 ADD MSTORE JUMPDEST POP POP POP POP JUMP JUMPDEST PUSH1 0x0 PUSH2 0x218F DUP3 PUSH2 0x2114 JUMP JUMPDEST SWAP2 POP PUSH1 0x0 DUP3 EQ ISZERO PUSH2 0x21A3 JUMPI PUSH2 0x21A2 PUSH2 0x2274 JUMP JUMPDEST JUMPDEST PUSH1 0x1 DUP3 SUB SWAP1 POP SWAP2 SWAP1 POP JUMP JUMPDEST PUSH1 0x0 PUSH1 0x2 DUP3 DIV SWAP1 POP PUSH1 0x1 DUP3 AND DUP1 PUSH2 0x21C6 JUMPI PUSH1 0x7F DUP3 AND SWAP2 POP JUMPDEST PUSH1 0x20 DUP3 LT DUP2 EQ ISZERO PUSH2 0x21DA JUMPI PUSH2 0x21D9 PUSH2 0x22A3 JUMP JUMPDEST JUMPDEST POP SWAP2 SWAP1 POP JUMP JUMPDEST PUSH1 0x0 PUSH2 0x21F3 PUSH2 0x21EE DUP4 PUSH2 0x2397 JUMP JUMPDEST PUSH2 0x20B0 JUMP JUMPDEST SWAP1 POP SWAP2 SWAP1 POP JUMP JUMPDEST PUSH2 0x2203 DUP3 PUSH2 0x2386 JUMP JUMPDEST DUP2 ADD DUP2 DUP2 LT PUSH8 0xFFFFFFFFFFFFFFFF DUP3 GT OR ISZERO PUSH2 0x2222 JUMPI PUSH2 0x2221 PUSH2 0x2330 JUMP JUMPDEST JUMPDEST DUP1 PUSH1 0x40 MSTORE POP POP POP JUMP JUMPDEST PUSH1 0x0 PUSH2 0x2236 DUP3 PUSH2 0x2114 JUMP JUMPDEST SWAP2 POP PUSH32 0xFFFFFFFFFFFFFFFFFFFFFFFFFFFFFFFFFFFFFFFFFFFFFFFFFFFFFFFFFFFFFFFF DUP3 EQ ISZERO PUSH2 0x2269 JUMPI PUSH2 0x2268 PUSH2 0x2274 JUMP JUMPDEST JUMPDEST PUSH1 0x1 DUP3 ADD SWAP1 POP SWAP2 SWAP1 POP JUMP JUMPDEST PUSH32 0x4E487B7100000000000000000000000000000000000000000000000000000000 PUSH1 0x0 MSTORE PUSH1 0x11 PUSH1 0x4 MSTORE PUSH1 0x24 PUSH1 0x0 REVERT JUMPDEST PUSH32 0x4E487B7100000000000000000000000000000000000000000000000000000000 PUSH1 0x0 MSTORE PUSH1 0x22 PUSH1 0x4 MSTORE PUSH1 0x24 PUSH1 0x0 REVERT JUMPDEST PUSH32 0x4E487B7100000000000000000000000000000000000000000000000000000000 PUSH1 0x0 MSTORE PUSH1 0x31 PUSH1 0x4 MSTORE PUSH1 0x24 PUSH1 0x0 REVERT JUMPDEST PUSH32 0x4E487B7100000000000000000000000000000000000000000000000000000000 PUSH1 0x0 MSTORE PUSH1 0x32 PUSH1 0x4 MSTORE PUSH1 0x24 PUSH1 0x0 REVERT JUMPDEST PUSH32 0x4E487B7100000000000000000000000000000000000000000000000000000000 PUSH1 0x0 MSTORE PUSH1 0x41 PUSH1 0x4 MSTORE PUSH1 0x24 PUSH1 0x0 REVERT JUMPDEST PUSH1 0x0 PUSH2 0x236B DUP3 SLOAD PUSH2 0x21E0 JUMP JUMPDEST SWAP1 POP SWAP2 SWAP1 POP JUMP JUMPDEST PUSH1 0x0 DUP1 REVERT JUMPDEST PUSH1 0x0 DUP1 REVERT JUMPDEST PUSH1 0x0 DUP1 REVERT JUMPDEST PUSH1 0x0 DUP1 REVERT JUMPDEST PUSH1 0x0 PUSH1 0x1F NOT PUSH1 0x1F DUP4 ADD AND SWAP1 POP SWAP2 SWAP1 POP JUMP JUMPDEST PUSH1 0x0 DUP2 PUSH1 0x0 SHR SWAP1 POP SWAP2 SWAP1 POP JUMP JUMPDEST PUSH32 0x616C72656164792073636F726564000000000000000000000000000000000000 PUSH1 0x0 DUP3 ADD MSTORE POP JUMP JUMPDEST PUSH32 0x7573657220616C726561647920696E2077616974696E67206172726179000000 PUSH1 0x0 DUP3 ADD MSTORE POP JUMP JUMPDEST PUSH32 0x69706673206861736820616C726561647920696E206172726179000000000000 PUSH1 0x0 DUP3 ADD MSTORE POP JUMP JUMPDEST PUSH32 0x69706673206861736820616C726561647920696E2077616974696E6720617272 PUSH1 0x0 DUP3 ADD MSTORE PUSH32 0x6179000000000000000000000000000000000000000000000000000000000000 PUSH1 0x20 DUP3 ADD MSTORE POP JUMP JUMPDEST PUSH32 0x796F75206172652070726F6A656374206D656D62657200000000000000000000 PUSH1 0x0 DUP3 ADD MSTORE POP JUMP JUMPDEST PUSH32 0x6E6F742070726F6A656374206D656D6265720000000000000000000000000000 PUSH1 0x0 DUP3 ADD MSTORE POP JUMP JUMPDEST PUSH32 0x697066732068617368206E6F7420696E2077616974696E672061727261790000 PUSH1 0x0 DUP3 ADD MSTORE POP JUMP JUMPDEST PUSH32 0x75736572206E6F7420696E2077616974696E6720617272617900000000000000 PUSH1 0x0 DUP3 ADD MSTORE POP JUMP JUMPDEST PUSH2 0x251B DUP2 PUSH2 0x20D0 JUMP JUMPDEST DUP2 EQ PUSH2 0x2526 JUMPI PUSH1 0x0 DUP1 REVERT JUMPDEST POP JUMP JUMPDEST PUSH2 0x2532 DUP2 PUSH2 0x20E2 JUMP JUMPDEST DUP2 EQ PUSH2 0x253D JUMPI PUSH1 0x0 DUP1 REVERT JUMPDEST POP JUMP JUMPDEST PUSH2 0x2549 DUP2 PUSH2 0x2114 JUMP JUMPDEST DUP2 EQ PUSH2 0x2554 JUMPI PUSH1 0x0 DUP1 REVERT JUMPDEST POP JUMP INVALID LOG2 PUSH5 0x6970667358 0x22 SLT KECCAK256 PUSH10 0x4FE7FAD48E15A585CCED 0xFC SWAP3 SDIV BLOCKHASH PUSH4 0xA8783F9 PUSH19 0x4B8EDE3B815DD0566D63BA64736F6C63430008 MOD STOP CALLER "
		},
		"gasEstimates": {
			"creation": {
				"codeDepositCost": "1922600",
				"executionCost": "infinite",
				"totalCost": "infinite"
			},
			"external": {
				"addMember(address)": "infinite",
				"checkipfsWaitingArray(string)": "infinite",
				"getMemberArray()": "infinite",
				"getMemberWaitingArray()": "infinite",
				"getipfsArray()": "infinite",
				"getipfsMap(address)": "infinite",
				"getipfsWaitingArray()": "infinite",
				"pushHash(address,string)": "infinite",
				"requestMember(address)": "infinite",
				"scoreMember(address,address)": "infinite",
				"sendHash(address,string)": "infinite"
			},
			"internal": {
				"checkMemberWaitingArray(address)": "infinite",
				"onlyMember(address)": "infinite"
			}
		},
		"methodIdentifiers": {
			"addMember(address)": "ca6d56dc",
			"checkipfsWaitingArray(string)": "5e4eff99",
			"getMemberArray()": "5c3e2e41",
			"getMemberWaitingArray()": "4a0dd083",
			"getipfsArray()": "17c0cb1c",
			"getipfsMap(address)": "07e1c7f7",
			"getipfsWaitingArray()": "87813286",
			"pushHash(address,string)": "af8d148f",
			"requestMember(address)": "4ce24b48",
			"scoreMember(address,address)": "274edc3a",
			"sendHash(address,string)": "eab3780e"
		}
	},
	"abi": [
		{
			"inputs": [
				{
					"internalType": "address",
					"name": "_addr",
					"type": "address"
				},
				{
					"internalType": "string",
					"name": "_projectName",
					"type": "string"
				}
			],
			"stateMutability": "payable",
			"type": "constructor"
		},
		{
			"anonymous": false,
			"inputs": [
				{
					"indexed": false,
					"internalType": "uint256",
					"name": "i",
					"type": "uint256"
				}
			],
			"name": "value",
			"type": "event"
		},
		{
			"inputs": [
				{
					"internalType": "address",
					"name": "_addr",
					"type": "address"
				}
			],
			"name": "addMember",
			"outputs": [],
			"stateMutability": "nonpayable",
			"type": "function"
		},
		{
			"inputs": [
				{
					"internalType": "string",
					"name": "_ipfsHash",
					"type": "string"
				}
			],
			"name": "checkipfsWaitingArray",
			"outputs": [
				{
					"internalType": "uint256",
					"name": "",
					"type": "uint256"
				}
			],
			"stateMutability": "view",
			"type": "function"
		},
		{
			"inputs": [],
			"name": "getMemberArray",
			"outputs": [
				{
					"internalType": "address[]",
					"name": "",
					"type": "address[]"
				}
			],
			"stateMutability": "view",
			"type": "function"
		},
		{
			"inputs": [],
			"name": "getMemberWaitingArray",
			"outputs": [
				{
					"internalType": "address[]",
					"name": "",
					"type": "address[]"
				}
			],
			"stateMutability": "view",
			"type": "function"
		},
		{
			"inputs": [],
			"name": "getipfsArray",
			"outputs": [
				{
					"internalType": "string[]",
					"name": "",
					"type": "string[]"
				}
			],
			"stateMutability": "view",
			"type": "function"
		},
		{
			"inputs": [
				{
					"internalType": "address",
					"name": "_addr",
					"type": "address"
				}
			],
			"name": "getipfsMap",
			"outputs": [
				{
					"internalType": "string[]",
					"name": "",
					"type": "string[]"
				}
			],
			"stateMutability": "view",
			"type": "function"
		},
		{
			"inputs": [],
			"name": "getipfsWaitingArray",
			"outputs": [
				{
					"internalType": "string[]",
					"name": "",
					"type": "string[]"
				}
			],
			"stateMutability": "view",
			"type": "function"
		},
		{
			"inputs": [
				{
					"internalType": "address",
					"name": "_addr",
					"type": "address"
				},
				{
					"internalType": "string",
					"name": "_ipfsHash",
					"type": "string"
				}
			],
			"name": "pushHash",
			"outputs": [],
			"stateMutability": "nonpayable",
			"type": "function"
		},
		{
			"inputs": [
				{
					"internalType": "address",
					"name": "_addr",
					"type": "address"
				}
			],
			"name": "requestMember",
			"outputs": [],
			"stateMutability": "nonpayable",
			"type": "function"
		},
		{
			"inputs": [
				{
					"internalType": "contract User",
					"name": "_from",
					"type": "address"
				},
				{
					"internalType": "contract User",
					"name": "_to",
					"type": "address"
				}
			],
			"name": "scoreMember",
			"outputs": [],
			"stateMutability": "nonpayable",
			"type": "function"
		},
		{
			"inputs": [
				{
					"internalType": "address",
					"name": "_addr",
					"type": "address"
				},
				{
					"internalType": "string",
					"name": "_ipfsHash",
					"type": "string"
				}
			],
			"name": "sendHash",
			"outputs": [],
			"stateMutability": "nonpayable",
			"type": "function"
		}
	]
}