{
	"data": {
		"bytecode": {
			"linkReferences": {},
			"object": "608060405260405162002a3138038062002a31833981810160405281019062000029919062000239565b816000806101000a81548173ffffffffffffffffffffffffffffffffffffffff021916908373ffffffffffffffffffffffffffffffffffffffff160217905550806001908051906020019062000081929190620000f4565b50426002819055506006829080600181540180825580915050600190039060005260206000200160009091909190916101000a81548173ffffffffffffffffffffffffffffffffffffffff021916908373ffffffffffffffffffffffffffffffffffffffff160217905550505062000471565b828054620001029062000368565b90600052602060002090601f01602090048101928262000126576000855562000172565b82601f106200014157805160ff191683800117855562000172565b8280016001018555821562000172579182015b828111156200017157825182559160200191906001019062000154565b5b50905062000181919062000185565b5090565b5b80821115620001a057600081600090555060010162000186565b5090565b6000620001bb620001b584620002c8565b6200029f565b905082815260208101848484011115620001da57620001d962000437565b5b620001e784828562000332565b509392505050565b600081519050620002008162000457565b92915050565b600082601f8301126200021e576200021d62000432565b5b815162000230848260208601620001a4565b91505092915050565b6000806040838503121562000253576200025262000441565b5b60006200026385828601620001ef565b925050602083015167ffffffffffffffff8111156200028757620002866200043c565b5b620002958582860162000206565b9150509250929050565b6000620002ab620002be565b9050620002b982826200039e565b919050565b6000604051905090565b600067ffffffffffffffff821115620002e657620002e562000403565b5b620002f18262000446565b9050602081019050919050565b60006200030b8262000312565b9050919050565b600073ffffffffffffffffffffffffffffffffffffffff82169050919050565b60005b838110156200035257808201518184015260208101905062000335565b8381111562000362576000848401525b50505050565b600060028204905060018216806200038157607f821691505b60208210811415620003985762000397620003d4565b5b50919050565b620003a98262000446565b810181811067ffffffffffffffff82111715620003cb57620003ca62000403565b5b80604052505050565b7f4e487b7100000000000000000000000000000000000000000000000000000000600052602260045260246000fd5b7f4e487b7100000000000000000000000000000000000000000000000000000000600052604160045260246000fd5b600080fd5b600080fd5b600080fd5b600080fd5b6000601f19601f8301169050919050565b6200046281620002fe565b81146200046e57600080fd5b50565b6125b080620004816000396000f3fe608060405234801561001057600080fd5b50600436106100a95760003560e01c80635e4eff99116100715780635e4eff991461015457806368add1a01461018457806387813286146101a0578063af8d148f146101be578063ca6d56dc146101da578063eab3780e146101f6576100a9565b806307e1c7f7146100ae57806317c0cb1c146100de5780634a0dd083146100fc5780634ce24b481461011a5780635c3e2e4114610136575b600080fd5b6100c860048036038101906100c391906117d8565b610212565b6040516100d59190611dbf565b60405180910390f35b6100e661032a565b6040516100f39190611dbf565b60405180910390f35b610104610403565b6040516101119190611d9d565b60405180910390f35b610134600480360381019061012f91906117d8565b610491565b005b61013e610617565b60405161014b9190611d9d565b60405180910390f35b61016e6004803603810190610169919061190e565b6106a5565b60405161017b9190611ee1565b60405180910390f35b61019e600480360381019061019991906118bb565b61075c565b005b6101a8610aca565b6040516101b59190611dbf565b60405180910390f35b6101d860048036038101906101d39190611832565b610ba3565b005b6101f460048036038101906101ef91906117d8565b610d51565b005b610210600480360381019061020b9190611832565b611216565b005b6060600360008373ffffffffffffffffffffffffffffffffffffffff1673ffffffffffffffffffffffffffffffffffffffff168152602001908152602001600020805480602002602001604051908101604052809291908181526020016000905b8282101561031f578382906000526020600020018054610292906121d1565b80601f01602080910402602001604051908101604052809291908181526020018280546102be906121d1565b801561030b5780601f106102e05761010080835404028352916020019161030b565b820191906000526020600020905b8154815290600101906020018083116102ee57829003601f168201915b505050505081526020019060010190610273565b505050509050919050565b60606004805480602002602001604051908101604052809291908181526020016000905b828210156103fa57838290600052602060002001805461036d906121d1565b80601f0160208091040260200160405190810160405280929190818152602001828054610399906121d1565b80156103e65780601f106103bb576101008083540402835291602001916103e6565b820191906000526020600020905b8154815290600101906020018083116103c957829003601f168201915b50505050508152602001906001019061034e565b50505050905090565b6060600780548060200260200160405190810160405280929190818152602001828054801561048757602002820191906000526020600020905b8160009054906101000a900473ffffffffffffffffffffffffffffffffffffffff1673ffffffffffffffffffffffffffffffffffffffff168152602001906001019080831161043d575b5050505050905090565b600061049c82611389565b9050600081146104e1576040517f08c379a00000000000000000000000000000000000000000000000000000000081526004016104d890611e01565b60405180910390fd5b60005b6006805490508110156105af578273ffffffffffffffffffffffffffffffffffffffff166006828154811061051c5761051b612324565b5b9060005260206000200160009054906101000a900473ffffffffffffffffffffffffffffffffffffffff1673ffffffffffffffffffffffffffffffffffffffff16141561059e576040517f08c379a000000000000000000000000000000000000000000000000000000000815260040161059590611e61565b60405180910390fd5b806105a89061224e565b90506104e4565b506007829080600181540180825580915050600190039060005260206000200160009091909190916101000a81548173ffffffffffffffffffffffffffffffffffffffff021916908373ffffffffffffffffffffffffffffffffffffffff1602179055505050565b6060600680548060200260200160405190810160405280929190818152602001828054801561069b57602002820191906000526020600020905b8160009054906101000a900473ffffffffffffffffffffffffffffffffffffffff1673ffffffffffffffffffffffffffffffffffffffff1681526020019060010190808311610651575b5050505050905090565b600080600090505b60058054905081101561075157826040516020016106cb9190611d54565b60405160208183030381529060405280519060200120600582815481106106f5576106f4612324565b5b9060005260206000200160405160200161070f9190611d6b565b604051602081830303815290604052805190602001201415610740576001816107389190612049565b915050610757565b8061074a9061224e565b90506106ad565b50600090505b919050565b6107e28373ffffffffffffffffffffffffffffffffffffffff1663a74c2bb66040518163ffffffff1660e01b815260040160206040518083038186803b1580156107a557600080fd5b505afa1580156107b9573d6000803e3d6000fd5b505050506040513d601f19601f820116820180604052508101906107dd9190611805565b611441565b506108698273ffffffffffffffffffffffffffffffffffffffff1663a74c2bb66040518163ffffffff1660e01b815260040160206040518083038186803b15801561082c57600080fd5b505afa158015610840573d6000803e3d6000fd5b505050506040513d601f19601f820116820180604052508101906108649190611805565b611441565b506009839080600181540180825580915050600190039060005260206000200160009091909190916101000a81548173ffffffffffffffffffffffffffffffffffffffff021916908373ffffffffffffffffffffffffffffffffffffffff1602179055506009829080600181540180825580915050600190039060005260206000200160009091909190916101000a81548173ffffffffffffffffffffffffffffffffffffffff021916908373ffffffffffffffffffffffffffffffffffffffff16021790555060005b6008805490508110156109fe5760096040516020016109529190611d3d565b604051602081830303815290604052805190602001206008828154811061097c5761097b612324565b5b906000526020600020016040516020016109969190611d3d565b6040516020818303038152906040528051906020012014156109ed576040517f08c379a00000000000000000000000000000000000000000000000000000000081526004016109e490611de1565b60405180910390fd5b806109f79061224e565b9050610933565b506008600990806001815401808255809150506001900390600052602060002001600090919091909150908054610a36929190611528565b506009805480610a4957610a486122f5565b5b6001900381819060005260206000200160006101000a81549073ffffffffffffffffffffffffffffffffffffffff021916905590556009805480610a9057610a8f6122f5565b5b6001900381819060005260206000200160006101000a81549073ffffffffffffffffffffffffffffffffffffffff02191690559055505050565b60606005805480602002602001604051908101604052809291908181526020016000905b82821015610b9a578382906000526020600020018054610b0d906121d1565b80601f0160208091040260200160405190810160405280929190818152602001828054610b39906121d1565b8015610b865780601f10610b5b57610100808354040283529160200191610b86565b820191906000526020600020905b815481529060010190602001808311610b6957829003601f168201915b505050505081526020019060010190610aee565b50505050905090565b6000610bae826106a5565b90506000811415610bf4576040517f08c379a0000000000000000000000000000000000000000000000000000000008152600401610beb90611ea1565b60405180910390fd5b8080610bff906121a7565b915050600360008473ffffffffffffffffffffffffffffffffffffffff1673ffffffffffffffffffffffffffffffffffffffff16815260200190815260200160002082908060018154018082558091505060019003906000526020600020016000909190919091509080519060200190610c7a92919061157a565b50600482908060018154018082558091505060019003906000526020600020016000909190919091509080519060200190610cb692919061157a565b5060056001600580549050610ccb919061209f565b81548110610cdc57610cdb612324565b5b9060005260206000200160058281548110610cfa57610cf9612324565b5b90600052602060002001908054610d10906121d1565b610d1b929190611600565b506005805480610d2e57610d2d6122f5565b5b600190038181906000526020600020016000610d4a919061168d565b9055505050565b6000610d5c82611389565b90506000811415610da2576040517f08c379a0000000000000000000000000000000000000000000000000000000008152600401610d9990611ec1565b60405180910390fd5b8080610dad906121a7565b9150506006829080600181540180825580915050600190039060005260206000200160009091909190916101000a81548173ffffffffffffffffffffffffffffffffffffffff021916908373ffffffffffffffffffffffffffffffffffffffff16021790555060003373ffffffffffffffffffffffffffffffffffffffff166305f9b4dc846040518263ffffffff1660e01b8152600401610e4e9190611d82565b60206040518083038186803b158015610e6657600080fd5b505afa158015610e7a573d6000803e3d6000fd5b505050506040513d601f19601f82011682018060405250810190610e9e919061188e565b905060003373ffffffffffffffffffffffffffffffffffffffff166305f9b4dc60008054906101000a900473ffffffffffffffffffffffffffffffffffffffff166040518263ffffffff1660e01b8152600401610efb9190611d82565b60206040518083038186803b158015610f1357600080fd5b505afa158015610f27573d6000803e3d6000fd5b505050506040513d601f19601f82011682018060405250810190610f4b919061188e565b90508073ffffffffffffffffffffffffffffffffffffffff16637aac861b8373ffffffffffffffffffffffffffffffffffffffff1663085710116040518163ffffffff1660e01b815260040160206040518083038186803b158015610faf57600080fd5b505afa158015610fc3573d6000803e3d6000fd5b505050506040513d601f19601f82011682018060405250810190610fe79190611957565b6040518263ffffffff1660e01b81526004016110039190611ee1565b600060405180830381600087803b15801561101d57600080fd5b505af1158015611031573d6000803e3d6000fd5b505050508173ffffffffffffffffffffffffffffffffffffffff16636777d32a8273ffffffffffffffffffffffffffffffffffffffff16632db9a5126040518163ffffffff1660e01b815260040160206040518083038186803b15801561109757600080fd5b505afa1580156110ab573d6000803e3d6000fd5b505050506040513d601f19601f820116820180604052508101906110cf9190611957565b6040518263ffffffff1660e01b81526004016110eb9190611ee1565b600060405180830381600087803b15801561110557600080fd5b505af1158015611119573d6000803e3d6000fd5b5050505060076001600780549050611131919061209f565b8154811061114257611141612324565b5b9060005260206000200160009054906101000a900473ffffffffffffffffffffffffffffffffffffffff166007848154811061118157611180612324565b5b9060005260206000200160006101000a81548173ffffffffffffffffffffffffffffffffffffffff021916908373ffffffffffffffffffffffffffffffffffffffff16021790555060078054806111db576111da6122f5565b5b6001900381819060005260206000200160006101000a81549073ffffffffffffffffffffffffffffffffffffffff0219169055905550505050565b600061122183611441565b905080611384576000611233836106a5565b905060008114611278576040517f08c379a000000000000000000000000000000000000000000000000000000000815260040161126f90611e41565b60405180910390fd5b60005b60048054905081101561134557836040516020016112999190611d54565b60405160208183030381529060405280519060200120600482815481106112c3576112c2612324565b5b906000526020600020016040516020016112dd9190611d6b565b604051602081830303815290604052805190602001201415611334576040517f08c379a000000000000000000000000000000000000000000000000000000000815260040161132b90611e21565b60405180910390fd5b8061133e9061224e565b905061127b565b5060058390806001815401808255809150506001900390600052602060002001600090919091909150908051906020019061138192919061157a565b50505b505050565b600080600090505b600780549050811015611436578273ffffffffffffffffffffffffffffffffffffffff16600782815481106113c9576113c8612324565b5b9060005260206000200160009054906101000a900473ffffffffffffffffffffffffffffffffffffffff1673ffffffffffffffffffffffffffffffffffffffff1614156114255760018161141d9190612049565b91505061143c565b8061142f9061224e565b9050611391565b50600090505b919050565b60006001905060005b6006805490508110156114e1578273ffffffffffffffffffffffffffffffffffffffff166006828154811061148257611481612324565b5b9060005260206000200160009054906101000a900473ffffffffffffffffffffffffffffffffffffffff1673ffffffffffffffffffffffffffffffffffffffff1614156114ce57600091505b80806114d99061224e565b91505061144a565b508015611523576040517f08c379a000000000000000000000000000000000000000000000000000000000815260040161151a90611e81565b60405180910390fd5b919050565b8280548282559060005260206000209081019282156115695760005260206000209182015b8281111561156857825482559160010191906001019061154d565b5b50905061157691906116cd565b5090565b828054611586906121d1565b90600052602060002090601f0160209004810192826115a857600085556115ef565b82601f106115c157805160ff19168380011785556115ef565b828001600101855582156115ef579182015b828111156115ee5782518255916020019190600101906115d3565b5b5090506115fc91906116cd565b5090565b82805461160c906121d1565b90600052602060002090601f01602090048101928261162e576000855561167c565b82601f1061163f578054855561167c565b8280016001018555821561167c57600052602060002091601f016020900482015b8281111561167b578254825591600101919060010190611660565b5b50905061168991906116cd565b5090565b508054611699906121d1565b6000825580601f106116ab57506116ca565b601f0160209004906000526020600020908101906116c991906116cd565b5b50565b5b808211156116e65760008160009055506001016116ce565b5090565b60006116fd6116f884611f21565b611efc565b9050828152602081018484840111156117195761171861239a565b5b611724848285612165565b509392505050565b60008135905061173b81612535565b92915050565b60008151905061175081612535565b92915050565b6000813590506117658161254c565b92915050565b60008151905061177a8161254c565b92915050565b600082601f83011261179557611794612395565b5b81356117a58482602086016116ea565b91505092915050565b6000813590506117bd81612563565b92915050565b6000815190506117d281612563565b92915050565b6000602082840312156117ee576117ed6123a4565b5b60006117fc8482850161172c565b91505092915050565b60006020828403121561181b5761181a6123a4565b5b600061182984828501611741565b91505092915050565b60008060408385031215611849576118486123a4565b5b60006118578582860161172c565b925050602083013567ffffffffffffffff8111156118785761187761239f565b5b61188485828601611780565b9150509250929050565b6000602082840312156118a4576118a36123a4565b5b60006118b28482850161176b565b91505092915050565b6000806000606084860312156118d4576118d36123a4565b5b60006118e286828701611756565b93505060206118f386828701611756565b9250506040611904868287016117ae565b9150509250925092565b600060208284031215611924576119236123a4565b5b600082013567ffffffffffffffff8111156119425761194161239f565b5b61194e84828501611780565b91505092915050565b60006020828403121561196d5761196c6123a4565b5b600061197b848285016117c3565b91505092915050565b600061199083836119c8565b60208301905092915050565b60006119a88383611b1e565b60208301905092915050565b60006119c08383611b2d565b905092915050565b6119d1816120f3565b82525050565b6119e0816120f3565b82525050565b60006119f182611f9c565b6119fb8185611fef565b9350611a0683611f52565b8060005b83811015611a37578151611a1e8882611984565b9750611a2983611fc8565b925050600181019050611a0a565b5085935050505092915050565b6000611a4f82611fa7565b611a598185612000565b9350611a6483611f62565b8060005b83811015611a9c57611a7982612382565b611a83888261199c565b9750611a8e83611fd5565b925050600181019050611a68565b5085935050505092915050565b6000611ab482611fb2565b611abe818561200b565b935083602082028501611ad085611f77565b8060005b85811015611b0c5784840389528151611aed85826119b4565b9450611af883611fe2565b925060208a01995050600181019050611ad4565b50829750879550505050505092915050565b611b2781612141565b82525050565b6000611b3882611fbd565b611b42818561201c565b9350611b52818560208601612174565b611b5b816123a9565b840191505092915050565b6000611b7182611fbd565b611b7b818561203e565b9350611b8b818560208601612174565b80840191505092915050565b60008154611ba4816121d1565b611bae818661203e565b94506001821660008114611bc95760018114611bda57611c0d565b60ff19831686528186019350611c0d565b611be385611f87565b60005b83811015611c0557815481890152600182019150602081019050611be6565b838801955050505b50505092915050565b6000611c23600e8361202d565b9150611c2e826123c7565b602082019050919050565b6000611c46601d8361202d565b9150611c51826123f0565b602082019050919050565b6000611c69601a8361202d565b9150611c7482612419565b602082019050919050565b6000611c8c60228361202d565b9150611c9782612442565b604082019050919050565b6000611caf60168361202d565b9150611cba82612491565b602082019050919050565b6000611cd260128361202d565b9150611cdd826124ba565b602082019050919050565b6000611cf5601e8361202d565b9150611d00826124e3565b602082019050919050565b6000611d1860198361202d565b9150611d238261250c565b602082019050919050565b611d3781612137565b82525050565b6000611d498284611a44565b915081905092915050565b6000611d608284611b66565b915081905092915050565b6000611d778284611b97565b915081905092915050565b6000602082019050611d9760008301846119d7565b92915050565b60006020820190508181036000830152611db781846119e6565b905092915050565b60006020820190508181036000830152611dd98184611aa9565b905092915050565b60006020820190508181036000830152611dfa81611c16565b9050919050565b60006020820190508181036000830152611e1a81611c39565b9050919050565b60006020820190508181036000830152611e3a81611c5c565b9050919050565b60006020820190508181036000830152611e5a81611c7f565b9050919050565b60006020820190508181036000830152611e7a81611ca2565b9050919050565b60006020820190508181036000830152611e9a81611cc5565b9050919050565b60006020820190508181036000830152611eba81611ce8565b9050919050565b60006020820190508181036000830152611eda81611d0b565b9050919050565b6000602082019050611ef66000830184611d2e565b92915050565b6000611f06611f17565b9050611f12828261221d565b919050565b6000604051905090565b600067ffffffffffffffff821115611f3c57611f3b612353565b5b611f45826123a9565b9050602081019050919050565b6000819050602082019050919050565b60008190508160005260206000209050919050565b6000819050602082019050919050565b60008190508160005260206000209050919050565b600081519050919050565b600081549050919050565b600081519050919050565b600081519050919050565b6000602082019050919050565b6000600182019050919050565b6000602082019050919050565b600082825260208201905092915050565b600081905092915050565b600082825260208201905092915050565b600082825260208201905092915050565b600082825260208201905092915050565b600081905092915050565b600061205482612137565b915061205f83612137565b9250827fffffffffffffffffffffffffffffffffffffffffffffffffffffffffffffffff0382111561209457612093612297565b5b828201905092915050565b60006120aa82612137565b91506120b583612137565b9250828210156120c8576120c7612297565b5b828203905092915050565b600073ffffffffffffffffffffffffffffffffffffffff82169050919050565b60006120fe82612117565b9050919050565b6000612110826120f3565b9050919050565b600073ffffffffffffffffffffffffffffffffffffffff82169050919050565b6000819050919050565b600061214c82612153565b9050919050565b600061215e82612117565b9050919050565b82818337600083830152505050565b60005b83811015612192578082015181840152602081019050612177565b838111156121a1576000848401525b50505050565b60006121b282612137565b915060008214156121c6576121c5612297565b5b600182039050919050565b600060028204905060018216806121e957607f821691505b602082108114156121fd576121fc6122c6565b5b50919050565b6000612216612211836123ba565b6120d3565b9050919050565b612226826123a9565b810181811067ffffffffffffffff8211171561224557612244612353565b5b80604052505050565b600061225982612137565b91507fffffffffffffffffffffffffffffffffffffffffffffffffffffffffffffffff82141561228c5761228b612297565b5b600182019050919050565b7f4e487b7100000000000000000000000000000000000000000000000000000000600052601160045260246000fd5b7f4e487b7100000000000000000000000000000000000000000000000000000000600052602260045260246000fd5b7f4e487b7100000000000000000000000000000000000000000000000000000000600052603160045260246000fd5b7f4e487b7100000000000000000000000000000000000000000000000000000000600052603260045260246000fd5b7f4e487b7100000000000000000000000000000000000000000000000000000000600052604160045260246000fd5b600061238e8254612203565b9050919050565b600080fd5b600080fd5b600080fd5b600080fd5b6000601f19601f8301169050919050565b60008160001c9050919050565b7f616c72656164792073636f726564000000000000000000000000000000000000600082015250565b7f7573657220616c726561647920696e2077616974696e67206172726179000000600082015250565b7f69706673206861736820616c726561647920696e206172726179000000000000600082015250565b7f69706673206861736820616c726561647920696e2077616974696e672061727260008201527f6179000000000000000000000000000000000000000000000000000000000000602082015250565b7f796f75206172652070726f6a656374206d656d62657200000000000000000000600082015250565b7f6e6f742070726f6a656374206d656d6265720000000000000000000000000000600082015250565b7f697066732068617368206e6f7420696e2077616974696e672061727261790000600082015250565b7f75736572206e6f7420696e2077616974696e6720617272617900000000000000600082015250565b61253e816120f3565b811461254957600080fd5b50565b61255581612105565b811461256057600080fd5b50565b61256c81612137565b811461257757600080fd5b5056fea264697066735822122059a8f331a3de63f3a0d9aff55c14f9f8b62089a02c4b778d8e7152248c94ee0464736f6c63430008060033",
			"opcodes": "PUSH1 0x80 PUSH1 0x40 MSTORE PUSH1 0x40 MLOAD PUSH3 0x2A31 CODESIZE SUB DUP1 PUSH3 0x2A31 DUP4 CODECOPY DUP2 DUP2 ADD PUSH1 0x40 MSTORE DUP2 ADD SWAP1 PUSH3 0x29 SWAP2 SWAP1 PUSH3 0x239 JUMP JUMPDEST DUP2 PUSH1 0x0 DUP1 PUSH2 0x100 EXP DUP2 SLOAD DUP2 PUSH20 0xFFFFFFFFFFFFFFFFFFFFFFFFFFFFFFFFFFFFFFFF MUL NOT AND SWAP1 DUP4 PUSH20 0xFFFFFFFFFFFFFFFFFFFFFFFFFFFFFFFFFFFFFFFF AND MUL OR SWAP1 SSTORE POP DUP1 PUSH1 0x1 SWAP1 DUP1 MLOAD SWAP1 PUSH1 0x20 ADD SWAP1 PUSH3 0x81 SWAP3 SWAP2 SWAP1 PUSH3 0xF4 JUMP JUMPDEST POP TIMESTAMP PUSH1 0x2 DUP2 SWAP1 SSTORE POP PUSH1 0x6 DUP3 SWAP1 DUP1 PUSH1 0x1 DUP2 SLOAD ADD DUP1 DUP3 SSTORE DUP1 SWAP2 POP POP PUSH1 0x1 SWAP1 SUB SWAP1 PUSH1 0x0 MSTORE PUSH1 0x20 PUSH1 0x0 KECCAK256 ADD PUSH1 0x0 SWAP1 SWAP2 SWAP1 SWAP2 SWAP1 SWAP2 PUSH2 0x100 EXP DUP2 SLOAD DUP2 PUSH20 0xFFFFFFFFFFFFFFFFFFFFFFFFFFFFFFFFFFFFFFFF MUL NOT AND SWAP1 DUP4 PUSH20 0xFFFFFFFFFFFFFFFFFFFFFFFFFFFFFFFFFFFFFFFF AND MUL OR SWAP1 SSTORE POP POP POP PUSH3 0x471 JUMP JUMPDEST DUP3 DUP1 SLOAD PUSH3 0x102 SWAP1 PUSH3 0x368 JUMP JUMPDEST SWAP1 PUSH1 0x0 MSTORE PUSH1 0x20 PUSH1 0x0 KECCAK256 SWAP1 PUSH1 0x1F ADD PUSH1 0x20 SWAP1 DIV DUP2 ADD SWAP3 DUP3 PUSH3 0x126 JUMPI PUSH1 0x0 DUP6 SSTORE PUSH3 0x172 JUMP JUMPDEST DUP3 PUSH1 0x1F LT PUSH3 0x141 JUMPI DUP1 MLOAD PUSH1 0xFF NOT AND DUP4 DUP1 ADD OR DUP6 SSTORE PUSH3 0x172 JUMP JUMPDEST DUP3 DUP1 ADD PUSH1 0x1 ADD DUP6 SSTORE DUP3 ISZERO PUSH3 0x172 JUMPI SWAP2 DUP3 ADD JUMPDEST DUP3 DUP2 GT ISZERO PUSH3 0x171 JUMPI DUP3 MLOAD DUP3 SSTORE SWAP2 PUSH1 0x20 ADD SWAP2 SWAP1 PUSH1 0x1 ADD SWAP1 PUSH3 0x154 JUMP JUMPDEST JUMPDEST POP SWAP1 POP PUSH3 0x181 SWAP2 SWAP1 PUSH3 0x185 JUMP JUMPDEST POP SWAP1 JUMP JUMPDEST JUMPDEST DUP1 DUP3 GT ISZERO PUSH3 0x1A0 JUMPI PUSH1 0x0 DUP2 PUSH1 0x0 SWAP1 SSTORE POP PUSH1 0x1 ADD PUSH3 0x186 JUMP JUMPDEST POP SWAP1 JUMP JUMPDEST PUSH1 0x0 PUSH3 0x1BB PUSH3 0x1B5 DUP5 PUSH3 0x2C8 JUMP JUMPDEST PUSH3 0x29F JUMP JUMPDEST SWAP1 POP DUP3 DUP2 MSTORE PUSH1 0x20 DUP2 ADD DUP5 DUP5 DUP5 ADD GT ISZERO PUSH3 0x1DA JUMPI PUSH3 0x1D9 PUSH3 0x437 JUMP JUMPDEST JUMPDEST PUSH3 0x1E7 DUP5 DUP3 DUP6 PUSH3 0x332 JUMP JUMPDEST POP SWAP4 SWAP3 POP POP POP JUMP JUMPDEST PUSH1 0x0 DUP2 MLOAD SWAP1 POP PUSH3 0x200 DUP2 PUSH3 0x457 JUMP JUMPDEST SWAP3 SWAP2 POP POP JUMP JUMPDEST PUSH1 0x0 DUP3 PUSH1 0x1F DUP4 ADD SLT PUSH3 0x21E JUMPI PUSH3 0x21D PUSH3 0x432 JUMP JUMPDEST JUMPDEST DUP2 MLOAD PUSH3 0x230 DUP5 DUP3 PUSH1 0x20 DUP7 ADD PUSH3 0x1A4 JUMP JUMPDEST SWAP2 POP POP SWAP3 SWAP2 POP POP JUMP JUMPDEST PUSH1 0x0 DUP1 PUSH1 0x40 DUP4 DUP6 SUB SLT ISZERO PUSH3 0x253 JUMPI PUSH3 0x252 PUSH3 0x441 JUMP JUMPDEST JUMPDEST PUSH1 0x0 PUSH3 0x263 DUP6 DUP3 DUP7 ADD PUSH3 0x1EF JUMP JUMPDEST SWAP3 POP POP PUSH1 0x20 DUP4 ADD MLOAD PUSH8 0xFFFFFFFFFFFFFFFF DUP2 GT ISZERO PUSH3 0x287 JUMPI PUSH3 0x286 PUSH3 0x43C JUMP JUMPDEST JUMPDEST PUSH3 0x295 DUP6 DUP3 DUP7 ADD PUSH3 0x206 JUMP JUMPDEST SWAP2 POP POP SWAP3 POP SWAP3 SWAP1 POP JUMP JUMPDEST PUSH1 0x0 PUSH3 0x2AB PUSH3 0x2BE JUMP JUMPDEST SWAP1 POP PUSH3 0x2B9 DUP3 DUP3 PUSH3 0x39E JUMP JUMPDEST SWAP2 SWAP1 POP JUMP JUMPDEST PUSH1 0x0 PUSH1 0x40 MLOAD SWAP1 POP SWAP1 JUMP JUMPDEST PUSH1 0x0 PUSH8 0xFFFFFFFFFFFFFFFF DUP3 GT ISZERO PUSH3 0x2E6 JUMPI PUSH3 0x2E5 PUSH3 0x403 JUMP JUMPDEST JUMPDEST PUSH3 0x2F1 DUP3 PUSH3 0x446 JUMP JUMPDEST SWAP1 POP PUSH1 0x20 DUP2 ADD SWAP1 POP SWAP2 SWAP1 POP JUMP JUMPDEST PUSH1 0x0 PUSH3 0x30B DUP3 PUSH3 0x312 JUMP JUMPDEST SWAP1 POP SWAP2 SWAP1 POP JUMP JUMPDEST PUSH1 0x0 PUSH20 0xFFFFFFFFFFFFFFFFFFFFFFFFFFFFFFFFFFFFFFFF DUP3 AND SWAP1 POP SWAP2 SWAP1 POP JUMP JUMPDEST PUSH1 0x0 JUMPDEST DUP4 DUP2 LT ISZERO PUSH3 0x352 JUMPI DUP1 DUP3 ADD MLOAD DUP2 DUP5 ADD MSTORE PUSH1 0x20 DUP2 ADD SWAP1 POP PUSH3 0x335 JUMP JUMPDEST DUP4 DUP2 GT ISZERO PUSH3 0x362 JUMPI PUSH1 0x0 DUP5 DUP5 ADD MSTORE JUMPDEST POP POP POP POP JUMP JUMPDEST PUSH1 0x0 PUSH1 0x2 DUP3 DIV SWAP1 POP PUSH1 0x1 DUP3 AND DUP1 PUSH3 0x381 JUMPI PUSH1 0x7F DUP3 AND SWAP2 POP JUMPDEST PUSH1 0x20 DUP3 LT DUP2 EQ ISZERO PUSH3 0x398 JUMPI PUSH3 0x397 PUSH3 0x3D4 JUMP JUMPDEST JUMPDEST POP SWAP2 SWAP1 POP JUMP JUMPDEST PUSH3 0x3A9 DUP3 PUSH3 0x446 JUMP JUMPDEST DUP2 ADD DUP2 DUP2 LT PUSH8 0xFFFFFFFFFFFFFFFF DUP3 GT OR ISZERO PUSH3 0x3CB JUMPI PUSH3 0x3CA PUSH3 0x403 JUMP JUMPDEST JUMPDEST DUP1 PUSH1 0x40 MSTORE POP POP POP JUMP JUMPDEST PUSH32 0x4E487B7100000000000000000000000000000000000000000000000000000000 PUSH1 0x0 MSTORE PUSH1 0x22 PUSH1 0x4 MSTORE PUSH1 0x24 PUSH1 0x0 REVERT JUMPDEST PUSH32 0x4E487B7100000000000000000000000000000000000000000000000000000000 PUSH1 0x0 MSTORE PUSH1 0x41 PUSH1 0x4 MSTORE PUSH1 0x24 PUSH1 0x0 REVERT JUMPDEST PUSH1 0x0 DUP1 REVERT JUMPDEST PUSH1 0x0 DUP1 REVERT JUMPDEST PUSH1 0x0 DUP1 REVERT JUMPDEST PUSH1 0x0 DUP1 REVERT JUMPDEST PUSH1 0x0 PUSH1 0x1F NOT PUSH1 0x1F DUP4 ADD AND SWAP1 POP SWAP2 SWAP1 POP JUMP JUMPDEST PUSH3 0x462 DUP2 PUSH3 0x2FE JUMP JUMPDEST DUP2 EQ PUSH3 0x46E JUMPI PUSH1 0x0 DUP1 REVERT JUMPDEST POP JUMP JUMPDEST PUSH2 0x25B0 DUP1 PUSH3 0x481 PUSH1 0x0 CODECOPY PUSH1 0x0 RETURN INVALID PUSH1 0x80 PUSH1 0x40 MSTORE CALLVALUE DUP1 ISZERO PUSH2 0x10 JUMPI PUSH1 0x0 DUP1 REVERT JUMPDEST POP PUSH1 0x4 CALLDATASIZE LT PUSH2 0xA9 JUMPI PUSH1 0x0 CALLDATALOAD PUSH1 0xE0 SHR DUP1 PUSH4 0x5E4EFF99 GT PUSH2 0x71 JUMPI DUP1 PUSH4 0x5E4EFF99 EQ PUSH2 0x154 JUMPI DUP1 PUSH4 0x68ADD1A0 EQ PUSH2 0x184 JUMPI DUP1 PUSH4 0x87813286 EQ PUSH2 0x1A0 JUMPI DUP1 PUSH4 0xAF8D148F EQ PUSH2 0x1BE JUMPI DUP1 PUSH4 0xCA6D56DC EQ PUSH2 0x1DA JUMPI DUP1 PUSH4 0xEAB3780E EQ PUSH2 0x1F6 JUMPI PUSH2 0xA9 JUMP JUMPDEST DUP1 PUSH4 0x7E1C7F7 EQ PUSH2 0xAE JUMPI DUP1 PUSH4 0x17C0CB1C EQ PUSH2 0xDE JUMPI DUP1 PUSH4 0x4A0DD083 EQ PUSH2 0xFC JUMPI DUP1 PUSH4 0x4CE24B48 EQ PUSH2 0x11A JUMPI DUP1 PUSH4 0x5C3E2E41 EQ PUSH2 0x136 JUMPI JUMPDEST PUSH1 0x0 DUP1 REVERT JUMPDEST PUSH2 0xC8 PUSH1 0x4 DUP1 CALLDATASIZE SUB DUP2 ADD SWAP1 PUSH2 0xC3 SWAP2 SWAP1 PUSH2 0x17D8 JUMP JUMPDEST PUSH2 0x212 JUMP JUMPDEST PUSH1 0x40 MLOAD PUSH2 0xD5 SWAP2 SWAP1 PUSH2 0x1DBF JUMP JUMPDEST PUSH1 0x40 MLOAD DUP1 SWAP2 SUB SWAP1 RETURN JUMPDEST PUSH2 0xE6 PUSH2 0x32A JUMP JUMPDEST PUSH1 0x40 MLOAD PUSH2 0xF3 SWAP2 SWAP1 PUSH2 0x1DBF JUMP JUMPDEST PUSH1 0x40 MLOAD DUP1 SWAP2 SUB SWAP1 RETURN JUMPDEST PUSH2 0x104 PUSH2 0x403 JUMP JUMPDEST PUSH1 0x40 MLOAD PUSH2 0x111 SWAP2 SWAP1 PUSH2 0x1D9D JUMP JUMPDEST PUSH1 0x40 MLOAD DUP1 SWAP2 SUB SWAP1 RETURN JUMPDEST PUSH2 0x134 PUSH1 0x4 DUP1 CALLDATASIZE SUB DUP2 ADD SWAP1 PUSH2 0x12F SWAP2 SWAP1 PUSH2 0x17D8 JUMP JUMPDEST PUSH2 0x491 JUMP JUMPDEST STOP JUMPDEST PUSH2 0x13E PUSH2 0x617 JUMP JUMPDEST PUSH1 0x40 MLOAD PUSH2 0x14B SWAP2 SWAP1 PUSH2 0x1D9D JUMP JUMPDEST PUSH1 0x40 MLOAD DUP1 SWAP2 SUB SWAP1 RETURN JUMPDEST PUSH2 0x16E PUSH1 0x4 DUP1 CALLDATASIZE SUB DUP2 ADD SWAP1 PUSH2 0x169 SWAP2 SWAP1 PUSH2 0x190E JUMP JUMPDEST PUSH2 0x6A5 JUMP JUMPDEST PUSH1 0x40 MLOAD PUSH2 0x17B SWAP2 SWAP1 PUSH2 0x1EE1 JUMP JUMPDEST PUSH1 0x40 MLOAD DUP1 SWAP2 SUB SWAP1 RETURN JUMPDEST PUSH2 0x19E PUSH1 0x4 DUP1 CALLDATASIZE SUB DUP2 ADD SWAP1 PUSH2 0x199 SWAP2 SWAP1 PUSH2 0x18BB JUMP JUMPDEST PUSH2 0x75C JUMP JUMPDEST STOP JUMPDEST PUSH2 0x1A8 PUSH2 0xACA JUMP JUMPDEST PUSH1 0x40 MLOAD PUSH2 0x1B5 SWAP2 SWAP1 PUSH2 0x1DBF JUMP JUMPDEST PUSH1 0x40 MLOAD DUP1 SWAP2 SUB SWAP1 RETURN JUMPDEST PUSH2 0x1D8 PUSH1 0x4 DUP1 CALLDATASIZE SUB DUP2 ADD SWAP1 PUSH2 0x1D3 SWAP2 SWAP1 PUSH2 0x1832 JUMP JUMPDEST PUSH2 0xBA3 JUMP JUMPDEST STOP JUMPDEST PUSH2 0x1F4 PUSH1 0x4 DUP1 CALLDATASIZE SUB DUP2 ADD SWAP1 PUSH2 0x1EF SWAP2 SWAP1 PUSH2 0x17D8 JUMP JUMPDEST PUSH2 0xD51 JUMP JUMPDEST STOP JUMPDEST PUSH2 0x210 PUSH1 0x4 DUP1 CALLDATASIZE SUB DUP2 ADD SWAP1 PUSH2 0x20B SWAP2 SWAP1 PUSH2 0x1832 JUMP JUMPDEST PUSH2 0x1216 JUMP JUMPDEST STOP JUMPDEST PUSH1 0x60 PUSH1 0x3 PUSH1 0x0 DUP4 PUSH20 0xFFFFFFFFFFFFFFFFFFFFFFFFFFFFFFFFFFFFFFFF AND PUSH20 0xFFFFFFFFFFFFFFFFFFFFFFFFFFFFFFFFFFFFFFFF AND DUP2 MSTORE PUSH1 0x20 ADD SWAP1 DUP2 MSTORE PUSH1 0x20 ADD PUSH1 0x0 KECCAK256 DUP1 SLOAD DUP1 PUSH1 0x20 MUL PUSH1 0x20 ADD PUSH1 0x40 MLOAD SWAP1 DUP2 ADD PUSH1 0x40 MSTORE DUP1 SWAP3 SWAP2 SWAP1 DUP2 DUP2 MSTORE PUSH1 0x20 ADD PUSH1 0x0 SWAP1 JUMPDEST DUP3 DUP3 LT ISZERO PUSH2 0x31F JUMPI DUP4 DUP3 SWAP1 PUSH1 0x0 MSTORE PUSH1 0x20 PUSH1 0x0 KECCAK256 ADD DUP1 SLOAD PUSH2 0x292 SWAP1 PUSH2 0x21D1 JUMP JUMPDEST DUP1 PUSH1 0x1F ADD PUSH1 0x20 DUP1 SWAP2 DIV MUL PUSH1 0x20 ADD PUSH1 0x40 MLOAD SWAP1 DUP2 ADD PUSH1 0x40 MSTORE DUP1 SWAP3 SWAP2 SWAP1 DUP2 DUP2 MSTORE PUSH1 0x20 ADD DUP3 DUP1 SLOAD PUSH2 0x2BE SWAP1 PUSH2 0x21D1 JUMP JUMPDEST DUP1 ISZERO PUSH2 0x30B JUMPI DUP1 PUSH1 0x1F LT PUSH2 0x2E0 JUMPI PUSH2 0x100 DUP1 DUP4 SLOAD DIV MUL DUP4 MSTORE SWAP2 PUSH1 0x20 ADD SWAP2 PUSH2 0x30B JUMP JUMPDEST DUP3 ADD SWAP2 SWAP1 PUSH1 0x0 MSTORE PUSH1 0x20 PUSH1 0x0 KECCAK256 SWAP1 JUMPDEST DUP2 SLOAD DUP2 MSTORE SWAP1 PUSH1 0x1 ADD SWAP1 PUSH1 0x20 ADD DUP1 DUP4 GT PUSH2 0x2EE JUMPI DUP3 SWAP1 SUB PUSH1 0x1F AND DUP3 ADD SWAP2 JUMPDEST POP POP POP POP POP DUP2 MSTORE PUSH1 0x20 ADD SWAP1 PUSH1 0x1 ADD SWAP1 PUSH2 0x273 JUMP JUMPDEST POP POP POP POP SWAP1 POP SWAP2 SWAP1 POP JUMP JUMPDEST PUSH1 0x60 PUSH1 0x4 DUP1 SLOAD DUP1 PUSH1 0x20 MUL PUSH1 0x20 ADD PUSH1 0x40 MLOAD SWAP1 DUP2 ADD PUSH1 0x40 MSTORE DUP1 SWAP3 SWAP2 SWAP1 DUP2 DUP2 MSTORE PUSH1 0x20 ADD PUSH1 0x0 SWAP1 JUMPDEST DUP3 DUP3 LT ISZERO PUSH2 0x3FA JUMPI DUP4 DUP3 SWAP1 PUSH1 0x0 MSTORE PUSH1 0x20 PUSH1 0x0 KECCAK256 ADD DUP1 SLOAD PUSH2 0x36D SWAP1 PUSH2 0x21D1 JUMP JUMPDEST DUP1 PUSH1 0x1F ADD PUSH1 0x20 DUP1 SWAP2 DIV MUL PUSH1 0x20 ADD PUSH1 0x40 MLOAD SWAP1 DUP2 ADD PUSH1 0x40 MSTORE DUP1 SWAP3 SWAP2 SWAP1 DUP2 DUP2 MSTORE PUSH1 0x20 ADD DUP3 DUP1 SLOAD PUSH2 0x399 SWAP1 PUSH2 0x21D1 JUMP JUMPDEST DUP1 ISZERO PUSH2 0x3E6 JUMPI DUP1 PUSH1 0x1F LT PUSH2 0x3BB JUMPI PUSH2 0x100 DUP1 DUP4 SLOAD DIV MUL DUP4 MSTORE SWAP2 PUSH1 0x20 ADD SWAP2 PUSH2 0x3E6 JUMP JUMPDEST DUP3 ADD SWAP2 SWAP1 PUSH1 0x0 MSTORE PUSH1 0x20 PUSH1 0x0 KECCAK256 SWAP1 JUMPDEST DUP2 SLOAD DUP2 MSTORE SWAP1 PUSH1 0x1 ADD SWAP1 PUSH1 0x20 ADD DUP1 DUP4 GT PUSH2 0x3C9 JUMPI DUP3 SWAP1 SUB PUSH1 0x1F AND DUP3 ADD SWAP2 JUMPDEST POP POP POP POP POP DUP2 MSTORE PUSH1 0x20 ADD SWAP1 PUSH1 0x1 ADD SWAP1 PUSH2 0x34E JUMP JUMPDEST POP POP POP POP SWAP1 POP SWAP1 JUMP JUMPDEST PUSH1 0x60 PUSH1 0x7 DUP1 SLOAD DUP1 PUSH1 0x20 MUL PUSH1 0x20 ADD PUSH1 0x40 MLOAD SWAP1 DUP2 ADD PUSH1 0x40 MSTORE DUP1 SWAP3 SWAP2 SWAP1 DUP2 DUP2 MSTORE PUSH1 0x20 ADD DUP3 DUP1 SLOAD DUP1 ISZERO PUSH2 0x487 JUMPI PUSH1 0x20 MUL DUP3 ADD SWAP2 SWAP1 PUSH1 0x0 MSTORE PUSH1 0x20 PUSH1 0x0 KECCAK256 SWAP1 JUMPDEST DUP2 PUSH1 0x0 SWAP1 SLOAD SWAP1 PUSH2 0x100 EXP SWAP1 DIV PUSH20 0xFFFFFFFFFFFFFFFFFFFFFFFFFFFFFFFFFFFFFFFF AND PUSH20 0xFFFFFFFFFFFFFFFFFFFFFFFFFFFFFFFFFFFFFFFF AND DUP2 MSTORE PUSH1 0x20 ADD SWAP1 PUSH1 0x1 ADD SWAP1 DUP1 DUP4 GT PUSH2 0x43D JUMPI JUMPDEST POP POP POP POP POP SWAP1 POP SWAP1 JUMP JUMPDEST PUSH1 0x0 PUSH2 0x49C DUP3 PUSH2 0x1389 JUMP JUMPDEST SWAP1 POP PUSH1 0x0 DUP2 EQ PUSH2 0x4E1 JUMPI PUSH1 0x40 MLOAD PUSH32 0x8C379A000000000000000000000000000000000000000000000000000000000 DUP2 MSTORE PUSH1 0x4 ADD PUSH2 0x4D8 SWAP1 PUSH2 0x1E01 JUMP JUMPDEST PUSH1 0x40 MLOAD DUP1 SWAP2 SUB SWAP1 REVERT JUMPDEST PUSH1 0x0 JUMPDEST PUSH1 0x6 DUP1 SLOAD SWAP1 POP DUP2 LT ISZERO PUSH2 0x5AF JUMPI DUP3 PUSH20 0xFFFFFFFFFFFFFFFFFFFFFFFFFFFFFFFFFFFFFFFF AND PUSH1 0x6 DUP3 DUP2 SLOAD DUP2 LT PUSH2 0x51C JUMPI PUSH2 0x51B PUSH2 0x2324 JUMP JUMPDEST JUMPDEST SWAP1 PUSH1 0x0 MSTORE PUSH1 0x20 PUSH1 0x0 KECCAK256 ADD PUSH1 0x0 SWAP1 SLOAD SWAP1 PUSH2 0x100 EXP SWAP1 DIV PUSH20 0xFFFFFFFFFFFFFFFFFFFFFFFFFFFFFFFFFFFFFFFF AND PUSH20 0xFFFFFFFFFFFFFFFFFFFFFFFFFFFFFFFFFFFFFFFF AND EQ ISZERO PUSH2 0x59E JUMPI PUSH1 0x40 MLOAD PUSH32 0x8C379A000000000000000000000000000000000000000000000000000000000 DUP2 MSTORE PUSH1 0x4 ADD PUSH2 0x595 SWAP1 PUSH2 0x1E61 JUMP JUMPDEST PUSH1 0x40 MLOAD DUP1 SWAP2 SUB SWAP1 REVERT JUMPDEST DUP1 PUSH2 0x5A8 SWAP1 PUSH2 0x224E JUMP JUMPDEST SWAP1 POP PUSH2 0x4E4 JUMP JUMPDEST POP PUSH1 0x7 DUP3 SWAP1 DUP1 PUSH1 0x1 DUP2 SLOAD ADD DUP1 DUP3 SSTORE DUP1 SWAP2 POP POP PUSH1 0x1 SWAP1 SUB SWAP1 PUSH1 0x0 MSTORE PUSH1 0x20 PUSH1 0x0 KECCAK256 ADD PUSH1 0x0 SWAP1 SWAP2 SWAP1 SWAP2 SWAP1 SWAP2 PUSH2 0x100 EXP DUP2 SLOAD DUP2 PUSH20 0xFFFFFFFFFFFFFFFFFFFFFFFFFFFFFFFFFFFFFFFF MUL NOT AND SWAP1 DUP4 PUSH20 0xFFFFFFFFFFFFFFFFFFFFFFFFFFFFFFFFFFFFFFFF AND MUL OR SWAP1 SSTORE POP POP POP JUMP JUMPDEST PUSH1 0x60 PUSH1 0x6 DUP1 SLOAD DUP1 PUSH1 0x20 MUL PUSH1 0x20 ADD PUSH1 0x40 MLOAD SWAP1 DUP2 ADD PUSH1 0x40 MSTORE DUP1 SWAP3 SWAP2 SWAP1 DUP2 DUP2 MSTORE PUSH1 0x20 ADD DUP3 DUP1 SLOAD DUP1 ISZERO PUSH2 0x69B JUMPI PUSH1 0x20 MUL DUP3 ADD SWAP2 SWAP1 PUSH1 0x0 MSTORE PUSH1 0x20 PUSH1 0x0 KECCAK256 SWAP1 JUMPDEST DUP2 PUSH1 0x0 SWAP1 SLOAD SWAP1 PUSH2 0x100 EXP SWAP1 DIV PUSH20 0xFFFFFFFFFFFFFFFFFFFFFFFFFFFFFFFFFFFFFFFF AND PUSH20 0xFFFFFFFFFFFFFFFFFFFFFFFFFFFFFFFFFFFFFFFF AND DUP2 MSTORE PUSH1 0x20 ADD SWAP1 PUSH1 0x1 ADD SWAP1 DUP1 DUP4 GT PUSH2 0x651 JUMPI JUMPDEST POP POP POP POP POP SWAP1 POP SWAP1 JUMP JUMPDEST PUSH1 0x0 DUP1 PUSH1 0x0 SWAP1 POP JUMPDEST PUSH1 0x5 DUP1 SLOAD SWAP1 POP DUP2 LT ISZERO PUSH2 0x751 JUMPI DUP3 PUSH1 0x40 MLOAD PUSH1 0x20 ADD PUSH2 0x6CB SWAP2 SWAP1 PUSH2 0x1D54 JUMP JUMPDEST PUSH1 0x40 MLOAD PUSH1 0x20 DUP2 DUP4 SUB SUB DUP2 MSTORE SWAP1 PUSH1 0x40 MSTORE DUP1 MLOAD SWAP1 PUSH1 0x20 ADD KECCAK256 PUSH1 0x5 DUP3 DUP2 SLOAD DUP2 LT PUSH2 0x6F5 JUMPI PUSH2 0x6F4 PUSH2 0x2324 JUMP JUMPDEST JUMPDEST SWAP1 PUSH1 0x0 MSTORE PUSH1 0x20 PUSH1 0x0 KECCAK256 ADD PUSH1 0x40 MLOAD PUSH1 0x20 ADD PUSH2 0x70F SWAP2 SWAP1 PUSH2 0x1D6B JUMP JUMPDEST PUSH1 0x40 MLOAD PUSH1 0x20 DUP2 DUP4 SUB SUB DUP2 MSTORE SWAP1 PUSH1 0x40 MSTORE DUP1 MLOAD SWAP1 PUSH1 0x20 ADD KECCAK256 EQ ISZERO PUSH2 0x740 JUMPI PUSH1 0x1 DUP2 PUSH2 0x738 SWAP2 SWAP1 PUSH2 0x2049 JUMP JUMPDEST SWAP2 POP POP PUSH2 0x757 JUMP JUMPDEST DUP1 PUSH2 0x74A SWAP1 PUSH2 0x224E JUMP JUMPDEST SWAP1 POP PUSH2 0x6AD JUMP JUMPDEST POP PUSH1 0x0 SWAP1 POP JUMPDEST SWAP2 SWAP1 POP JUMP JUMPDEST PUSH2 0x7E2 DUP4 PUSH20 0xFFFFFFFFFFFFFFFFFFFFFFFFFFFFFFFFFFFFFFFF AND PUSH4 0xA74C2BB6 PUSH1 0x40 MLOAD DUP2 PUSH4 0xFFFFFFFF AND PUSH1 0xE0 SHL DUP2 MSTORE PUSH1 0x4 ADD PUSH1 0x20 PUSH1 0x40 MLOAD DUP1 DUP4 SUB DUP2 DUP7 DUP1 EXTCODESIZE ISZERO DUP1 ISZERO PUSH2 0x7A5 JUMPI PUSH1 0x0 DUP1 REVERT JUMPDEST POP GAS STATICCALL ISZERO DUP1 ISZERO PUSH2 0x7B9 JUMPI RETURNDATASIZE PUSH1 0x0 DUP1 RETURNDATACOPY RETURNDATASIZE PUSH1 0x0 REVERT JUMPDEST POP POP POP POP PUSH1 0x40 MLOAD RETURNDATASIZE PUSH1 0x1F NOT PUSH1 0x1F DUP3 ADD AND DUP3 ADD DUP1 PUSH1 0x40 MSTORE POP DUP2 ADD SWAP1 PUSH2 0x7DD SWAP2 SWAP1 PUSH2 0x1805 JUMP JUMPDEST PUSH2 0x1441 JUMP JUMPDEST POP PUSH2 0x869 DUP3 PUSH20 0xFFFFFFFFFFFFFFFFFFFFFFFFFFFFFFFFFFFFFFFF AND PUSH4 0xA74C2BB6 PUSH1 0x40 MLOAD DUP2 PUSH4 0xFFFFFFFF AND PUSH1 0xE0 SHL DUP2 MSTORE PUSH1 0x4 ADD PUSH1 0x20 PUSH1 0x40 MLOAD DUP1 DUP4 SUB DUP2 DUP7 DUP1 EXTCODESIZE ISZERO DUP1 ISZERO PUSH2 0x82C JUMPI PUSH1 0x0 DUP1 REVERT JUMPDEST POP GAS STATICCALL ISZERO DUP1 ISZERO PUSH2 0x840 JUMPI RETURNDATASIZE PUSH1 0x0 DUP1 RETURNDATACOPY RETURNDATASIZE PUSH1 0x0 REVERT JUMPDEST POP POP POP POP PUSH1 0x40 MLOAD RETURNDATASIZE PUSH1 0x1F NOT PUSH1 0x1F DUP3 ADD AND DUP3 ADD DUP1 PUSH1 0x40 MSTORE POP DUP2 ADD SWAP1 PUSH2 0x864 SWAP2 SWAP1 PUSH2 0x1805 JUMP JUMPDEST PUSH2 0x1441 JUMP JUMPDEST POP PUSH1 0x9 DUP4 SWAP1 DUP1 PUSH1 0x1 DUP2 SLOAD ADD DUP1 DUP3 SSTORE DUP1 SWAP2 POP POP PUSH1 0x1 SWAP1 SUB SWAP1 PUSH1 0x0 MSTORE PUSH1 0x20 PUSH1 0x0 KECCAK256 ADD PUSH1 0x0 SWAP1 SWAP2 SWAP1 SWAP2 SWAP1 SWAP2 PUSH2 0x100 EXP DUP2 SLOAD DUP2 PUSH20 0xFFFFFFFFFFFFFFFFFFFFFFFFFFFFFFFFFFFFFFFF MUL NOT AND SWAP1 DUP4 PUSH20 0xFFFFFFFFFFFFFFFFFFFFFFFFFFFFFFFFFFFFFFFF AND MUL OR SWAP1 SSTORE POP PUSH1 0x9 DUP3 SWAP1 DUP1 PUSH1 0x1 DUP2 SLOAD ADD DUP1 DUP3 SSTORE DUP1 SWAP2 POP POP PUSH1 0x1 SWAP1 SUB SWAP1 PUSH1 0x0 MSTORE PUSH1 0x20 PUSH1 0x0 KECCAK256 ADD PUSH1 0x0 SWAP1 SWAP2 SWAP1 SWAP2 SWAP1 SWAP2 PUSH2 0x100 EXP DUP2 SLOAD DUP2 PUSH20 0xFFFFFFFFFFFFFFFFFFFFFFFFFFFFFFFFFFFFFFFF MUL NOT AND SWAP1 DUP4 PUSH20 0xFFFFFFFFFFFFFFFFFFFFFFFFFFFFFFFFFFFFFFFF AND MUL OR SWAP1 SSTORE POP PUSH1 0x0 JUMPDEST PUSH1 0x8 DUP1 SLOAD SWAP1 POP DUP2 LT ISZERO PUSH2 0x9FE JUMPI PUSH1 0x9 PUSH1 0x40 MLOAD PUSH1 0x20 ADD PUSH2 0x952 SWAP2 SWAP1 PUSH2 0x1D3D JUMP JUMPDEST PUSH1 0x40 MLOAD PUSH1 0x20 DUP2 DUP4 SUB SUB DUP2 MSTORE SWAP1 PUSH1 0x40 MSTORE DUP1 MLOAD SWAP1 PUSH1 0x20 ADD KECCAK256 PUSH1 0x8 DUP3 DUP2 SLOAD DUP2 LT PUSH2 0x97C JUMPI PUSH2 0x97B PUSH2 0x2324 JUMP JUMPDEST JUMPDEST SWAP1 PUSH1 0x0 MSTORE PUSH1 0x20 PUSH1 0x0 KECCAK256 ADD PUSH1 0x40 MLOAD PUSH1 0x20 ADD PUSH2 0x996 SWAP2 SWAP1 PUSH2 0x1D3D JUMP JUMPDEST PUSH1 0x40 MLOAD PUSH1 0x20 DUP2 DUP4 SUB SUB DUP2 MSTORE SWAP1 PUSH1 0x40 MSTORE DUP1 MLOAD SWAP1 PUSH1 0x20 ADD KECCAK256 EQ ISZERO PUSH2 0x9ED JUMPI PUSH1 0x40 MLOAD PUSH32 0x8C379A000000000000000000000000000000000000000000000000000000000 DUP2 MSTORE PUSH1 0x4 ADD PUSH2 0x9E4 SWAP1 PUSH2 0x1DE1 JUMP JUMPDEST PUSH1 0x40 MLOAD DUP1 SWAP2 SUB SWAP1 REVERT JUMPDEST DUP1 PUSH2 0x9F7 SWAP1 PUSH2 0x224E JUMP JUMPDEST SWAP1 POP PUSH2 0x933 JUMP JUMPDEST POP PUSH1 0x8 PUSH1 0x9 SWAP1 DUP1 PUSH1 0x1 DUP2 SLOAD ADD DUP1 DUP3 SSTORE DUP1 SWAP2 POP POP PUSH1 0x1 SWAP1 SUB SWAP1 PUSH1 0x0 MSTORE PUSH1 0x20 PUSH1 0x0 KECCAK256 ADD PUSH1 0x0 SWAP1 SWAP2 SWAP1 SWAP2 SWAP1 SWAP2 POP SWAP1 DUP1 SLOAD PUSH2 0xA36 SWAP3 SWAP2 SWAP1 PUSH2 0x1528 JUMP JUMPDEST POP PUSH1 0x9 DUP1 SLOAD DUP1 PUSH2 0xA49 JUMPI PUSH2 0xA48 PUSH2 0x22F5 JUMP JUMPDEST JUMPDEST PUSH1 0x1 SWAP1 SUB DUP2 DUP2 SWAP1 PUSH1 0x0 MSTORE PUSH1 0x20 PUSH1 0x0 KECCAK256 ADD PUSH1 0x0 PUSH2 0x100 EXP DUP2 SLOAD SWAP1 PUSH20 0xFFFFFFFFFFFFFFFFFFFFFFFFFFFFFFFFFFFFFFFF MUL NOT AND SWAP1 SSTORE SWAP1 SSTORE PUSH1 0x9 DUP1 SLOAD DUP1 PUSH2 0xA90 JUMPI PUSH2 0xA8F PUSH2 0x22F5 JUMP JUMPDEST JUMPDEST PUSH1 0x1 SWAP1 SUB DUP2 DUP2 SWAP1 PUSH1 0x0 MSTORE PUSH1 0x20 PUSH1 0x0 KECCAK256 ADD PUSH1 0x0 PUSH2 0x100 EXP DUP2 SLOAD SWAP1 PUSH20 0xFFFFFFFFFFFFFFFFFFFFFFFFFFFFFFFFFFFFFFFF MUL NOT AND SWAP1 SSTORE SWAP1 SSTORE POP POP POP JUMP JUMPDEST PUSH1 0x60 PUSH1 0x5 DUP1 SLOAD DUP1 PUSH1 0x20 MUL PUSH1 0x20 ADD PUSH1 0x40 MLOAD SWAP1 DUP2 ADD PUSH1 0x40 MSTORE DUP1 SWAP3 SWAP2 SWAP1 DUP2 DUP2 MSTORE PUSH1 0x20 ADD PUSH1 0x0 SWAP1 JUMPDEST DUP3 DUP3 LT ISZERO PUSH2 0xB9A JUMPI DUP4 DUP3 SWAP1 PUSH1 0x0 MSTORE PUSH1 0x20 PUSH1 0x0 KECCAK256 ADD DUP1 SLOAD PUSH2 0xB0D SWAP1 PUSH2 0x21D1 JUMP JUMPDEST DUP1 PUSH1 0x1F ADD PUSH1 0x20 DUP1 SWAP2 DIV MUL PUSH1 0x20 ADD PUSH1 0x40 MLOAD SWAP1 DUP2 ADD PUSH1 0x40 MSTORE DUP1 SWAP3 SWAP2 SWAP1 DUP2 DUP2 MSTORE PUSH1 0x20 ADD DUP3 DUP1 SLOAD PUSH2 0xB39 SWAP1 PUSH2 0x21D1 JUMP JUMPDEST DUP1 ISZERO PUSH2 0xB86 JUMPI DUP1 PUSH1 0x1F LT PUSH2 0xB5B JUMPI PUSH2 0x100 DUP1 DUP4 SLOAD DIV MUL DUP4 MSTORE SWAP2 PUSH1 0x20 ADD SWAP2 PUSH2 0xB86 JUMP JUMPDEST DUP3 ADD SWAP2 SWAP1 PUSH1 0x0 MSTORE PUSH1 0x20 PUSH1 0x0 KECCAK256 SWAP1 JUMPDEST DUP2 SLOAD DUP2 MSTORE SWAP1 PUSH1 0x1 ADD SWAP1 PUSH1 0x20 ADD DUP1 DUP4 GT PUSH2 0xB69 JUMPI DUP3 SWAP1 SUB PUSH1 0x1F AND DUP3 ADD SWAP2 JUMPDEST POP POP POP POP POP DUP2 MSTORE PUSH1 0x20 ADD SWAP1 PUSH1 0x1 ADD SWAP1 PUSH2 0xAEE JUMP JUMPDEST POP POP POP POP SWAP1 POP SWAP1 JUMP JUMPDEST PUSH1 0x0 PUSH2 0xBAE DUP3 PUSH2 0x6A5 JUMP JUMPDEST SWAP1 POP PUSH1 0x0 DUP2 EQ ISZERO PUSH2 0xBF4 JUMPI PUSH1 0x40 MLOAD PUSH32 0x8C379A000000000000000000000000000000000000000000000000000000000 DUP2 MSTORE PUSH1 0x4 ADD PUSH2 0xBEB SWAP1 PUSH2 0x1EA1 JUMP JUMPDEST PUSH1 0x40 MLOAD DUP1 SWAP2 SUB SWAP1 REVERT JUMPDEST DUP1 DUP1 PUSH2 0xBFF SWAP1 PUSH2 0x21A7 JUMP JUMPDEST SWAP2 POP POP PUSH1 0x3 PUSH1 0x0 DUP5 PUSH20 0xFFFFFFFFFFFFFFFFFFFFFFFFFFFFFFFFFFFFFFFF AND PUSH20 0xFFFFFFFFFFFFFFFFFFFFFFFFFFFFFFFFFFFFFFFF AND DUP2 MSTORE PUSH1 0x20 ADD SWAP1 DUP2 MSTORE PUSH1 0x20 ADD PUSH1 0x0 KECCAK256 DUP3 SWAP1 DUP1 PUSH1 0x1 DUP2 SLOAD ADD DUP1 DUP3 SSTORE DUP1 SWAP2 POP POP PUSH1 0x1 SWAP1 SUB SWAP1 PUSH1 0x0 MSTORE PUSH1 0x20 PUSH1 0x0 KECCAK256 ADD PUSH1 0x0 SWAP1 SWAP2 SWAP1 SWAP2 SWAP1 SWAP2 POP SWAP1 DUP1 MLOAD SWAP1 PUSH1 0x20 ADD SWAP1 PUSH2 0xC7A SWAP3 SWAP2 SWAP1 PUSH2 0x157A JUMP JUMPDEST POP PUSH1 0x4 DUP3 SWAP1 DUP1 PUSH1 0x1 DUP2 SLOAD ADD DUP1 DUP3 SSTORE DUP1 SWAP2 POP POP PUSH1 0x1 SWAP1 SUB SWAP1 PUSH1 0x0 MSTORE PUSH1 0x20 PUSH1 0x0 KECCAK256 ADD PUSH1 0x0 SWAP1 SWAP2 SWAP1 SWAP2 SWAP1 SWAP2 POP SWAP1 DUP1 MLOAD SWAP1 PUSH1 0x20 ADD SWAP1 PUSH2 0xCB6 SWAP3 SWAP2 SWAP1 PUSH2 0x157A JUMP JUMPDEST POP PUSH1 0x5 PUSH1 0x1 PUSH1 0x5 DUP1 SLOAD SWAP1 POP PUSH2 0xCCB SWAP2 SWAP1 PUSH2 0x209F JUMP JUMPDEST DUP2 SLOAD DUP2 LT PUSH2 0xCDC JUMPI PUSH2 0xCDB PUSH2 0x2324 JUMP JUMPDEST JUMPDEST SWAP1 PUSH1 0x0 MSTORE PUSH1 0x20 PUSH1 0x0 KECCAK256 ADD PUSH1 0x5 DUP3 DUP2 SLOAD DUP2 LT PUSH2 0xCFA JUMPI PUSH2 0xCF9 PUSH2 0x2324 JUMP JUMPDEST JUMPDEST SWAP1 PUSH1 0x0 MSTORE PUSH1 0x20 PUSH1 0x0 KECCAK256 ADD SWAP1 DUP1 SLOAD PUSH2 0xD10 SWAP1 PUSH2 0x21D1 JUMP JUMPDEST PUSH2 0xD1B SWAP3 SWAP2 SWAP1 PUSH2 0x1600 JUMP JUMPDEST POP PUSH1 0x5 DUP1 SLOAD DUP1 PUSH2 0xD2E JUMPI PUSH2 0xD2D PUSH2 0x22F5 JUMP JUMPDEST JUMPDEST PUSH1 0x1 SWAP1 SUB DUP2 DUP2 SWAP1 PUSH1 0x0 MSTORE PUSH1 0x20 PUSH1 0x0 KECCAK256 ADD PUSH1 0x0 PUSH2 0xD4A SWAP2 SWAP1 PUSH2 0x168D JUMP JUMPDEST SWAP1 SSTORE POP POP POP JUMP JUMPDEST PUSH1 0x0 PUSH2 0xD5C DUP3 PUSH2 0x1389 JUMP JUMPDEST SWAP1 POP PUSH1 0x0 DUP2 EQ ISZERO PUSH2 0xDA2 JUMPI PUSH1 0x40 MLOAD PUSH32 0x8C379A000000000000000000000000000000000000000000000000000000000 DUP2 MSTORE PUSH1 0x4 ADD PUSH2 0xD99 SWAP1 PUSH2 0x1EC1 JUMP JUMPDEST PUSH1 0x40 MLOAD DUP1 SWAP2 SUB SWAP1 REVERT JUMPDEST DUP1 DUP1 PUSH2 0xDAD SWAP1 PUSH2 0x21A7 JUMP JUMPDEST SWAP2 POP POP PUSH1 0x6 DUP3 SWAP1 DUP1 PUSH1 0x1 DUP2 SLOAD ADD DUP1 DUP3 SSTORE DUP1 SWAP2 POP POP PUSH1 0x1 SWAP1 SUB SWAP1 PUSH1 0x0 MSTORE PUSH1 0x20 PUSH1 0x0 KECCAK256 ADD PUSH1 0x0 SWAP1 SWAP2 SWAP1 SWAP2 SWAP1 SWAP2 PUSH2 0x100 EXP DUP2 SLOAD DUP2 PUSH20 0xFFFFFFFFFFFFFFFFFFFFFFFFFFFFFFFFFFFFFFFF MUL NOT AND SWAP1 DUP4 PUSH20 0xFFFFFFFFFFFFFFFFFFFFFFFFFFFFFFFFFFFFFFFF AND MUL OR SWAP1 SSTORE POP PUSH1 0x0 CALLER PUSH20 0xFFFFFFFFFFFFFFFFFFFFFFFFFFFFFFFFFFFFFFFF AND PUSH4 0x5F9B4DC DUP5 PUSH1 0x40 MLOAD DUP3 PUSH4 0xFFFFFFFF AND PUSH1 0xE0 SHL DUP2 MSTORE PUSH1 0x4 ADD PUSH2 0xE4E SWAP2 SWAP1 PUSH2 0x1D82 JUMP JUMPDEST PUSH1 0x20 PUSH1 0x40 MLOAD DUP1 DUP4 SUB DUP2 DUP7 DUP1 EXTCODESIZE ISZERO DUP1 ISZERO PUSH2 0xE66 JUMPI PUSH1 0x0 DUP1 REVERT JUMPDEST POP GAS STATICCALL ISZERO DUP1 ISZERO PUSH2 0xE7A JUMPI RETURNDATASIZE PUSH1 0x0 DUP1 RETURNDATACOPY RETURNDATASIZE PUSH1 0x0 REVERT JUMPDEST POP POP POP POP PUSH1 0x40 MLOAD RETURNDATASIZE PUSH1 0x1F NOT PUSH1 0x1F DUP3 ADD AND DUP3 ADD DUP1 PUSH1 0x40 MSTORE POP DUP2 ADD SWAP1 PUSH2 0xE9E SWAP2 SWAP1 PUSH2 0x188E JUMP JUMPDEST SWAP1 POP PUSH1 0x0 CALLER PUSH20 0xFFFFFFFFFFFFFFFFFFFFFFFFFFFFFFFFFFFFFFFF AND PUSH4 0x5F9B4DC PUSH1 0x0 DUP1 SLOAD SWAP1 PUSH2 0x100 EXP SWAP1 DIV PUSH20 0xFFFFFFFFFFFFFFFFFFFFFFFFFFFFFFFFFFFFFFFF AND PUSH1 0x40 MLOAD DUP3 PUSH4 0xFFFFFFFF AND PUSH1 0xE0 SHL DUP2 MSTORE PUSH1 0x4 ADD PUSH2 0xEFB SWAP2 SWAP1 PUSH2 0x1D82 JUMP JUMPDEST PUSH1 0x20 PUSH1 0x40 MLOAD DUP1 DUP4 SUB DUP2 DUP7 DUP1 EXTCODESIZE ISZERO DUP1 ISZERO PUSH2 0xF13 JUMPI PUSH1 0x0 DUP1 REVERT JUMPDEST POP GAS STATICCALL ISZERO DUP1 ISZERO PUSH2 0xF27 JUMPI RETURNDATASIZE PUSH1 0x0 DUP1 RETURNDATACOPY RETURNDATASIZE PUSH1 0x0 REVERT JUMPDEST POP POP POP POP PUSH1 0x40 MLOAD RETURNDATASIZE PUSH1 0x1F NOT PUSH1 0x1F DUP3 ADD AND DUP3 ADD DUP1 PUSH1 0x40 MSTORE POP DUP2 ADD SWAP1 PUSH2 0xF4B SWAP2 SWAP1 PUSH2 0x188E JUMP JUMPDEST SWAP1 POP DUP1 PUSH20 0xFFFFFFFFFFFFFFFFFFFFFFFFFFFFFFFFFFFFFFFF AND PUSH4 0x7AAC861B DUP4 PUSH20 0xFFFFFFFFFFFFFFFFFFFFFFFFFFFFFFFFFFFFFFFF AND PUSH4 0x8571011 PUSH1 0x40 MLOAD DUP2 PUSH4 0xFFFFFFFF AND PUSH1 0xE0 SHL DUP2 MSTORE PUSH1 0x4 ADD PUSH1 0x20 PUSH1 0x40 MLOAD DUP1 DUP4 SUB DUP2 DUP7 DUP1 EXTCODESIZE ISZERO DUP1 ISZERO PUSH2 0xFAF JUMPI PUSH1 0x0 DUP1 REVERT JUMPDEST POP GAS STATICCALL ISZERO DUP1 ISZERO PUSH2 0xFC3 JUMPI RETURNDATASIZE PUSH1 0x0 DUP1 RETURNDATACOPY RETURNDATASIZE PUSH1 0x0 REVERT JUMPDEST POP POP POP POP PUSH1 0x40 MLOAD RETURNDATASIZE PUSH1 0x1F NOT PUSH1 0x1F DUP3 ADD AND DUP3 ADD DUP1 PUSH1 0x40 MSTORE POP DUP2 ADD SWAP1 PUSH2 0xFE7 SWAP2 SWAP1 PUSH2 0x1957 JUMP JUMPDEST PUSH1 0x40 MLOAD DUP3 PUSH4 0xFFFFFFFF AND PUSH1 0xE0 SHL DUP2 MSTORE PUSH1 0x4 ADD PUSH2 0x1003 SWAP2 SWAP1 PUSH2 0x1EE1 JUMP JUMPDEST PUSH1 0x0 PUSH1 0x40 MLOAD DUP1 DUP4 SUB DUP2 PUSH1 0x0 DUP8 DUP1 EXTCODESIZE ISZERO DUP1 ISZERO PUSH2 0x101D JUMPI PUSH1 0x0 DUP1 REVERT JUMPDEST POP GAS CALL ISZERO DUP1 ISZERO PUSH2 0x1031 JUMPI RETURNDATASIZE PUSH1 0x0 DUP1 RETURNDATACOPY RETURNDATASIZE PUSH1 0x0 REVERT JUMPDEST POP POP POP POP DUP2 PUSH20 0xFFFFFFFFFFFFFFFFFFFFFFFFFFFFFFFFFFFFFFFF AND PUSH4 0x6777D32A DUP3 PUSH20 0xFFFFFFFFFFFFFFFFFFFFFFFFFFFFFFFFFFFFFFFF AND PUSH4 0x2DB9A512 PUSH1 0x40 MLOAD DUP2 PUSH4 0xFFFFFFFF AND PUSH1 0xE0 SHL DUP2 MSTORE PUSH1 0x4 ADD PUSH1 0x20 PUSH1 0x40 MLOAD DUP1 DUP4 SUB DUP2 DUP7 DUP1 EXTCODESIZE ISZERO DUP1 ISZERO PUSH2 0x1097 JUMPI PUSH1 0x0 DUP1 REVERT JUMPDEST POP GAS STATICCALL ISZERO DUP1 ISZERO PUSH2 0x10AB JUMPI RETURNDATASIZE PUSH1 0x0 DUP1 RETURNDATACOPY RETURNDATASIZE PUSH1 0x0 REVERT JUMPDEST POP POP POP POP PUSH1 0x40 MLOAD RETURNDATASIZE PUSH1 0x1F NOT PUSH1 0x1F DUP3 ADD AND DUP3 ADD DUP1 PUSH1 0x40 MSTORE POP DUP2 ADD SWAP1 PUSH2 0x10CF SWAP2 SWAP1 PUSH2 0x1957 JUMP JUMPDEST PUSH1 0x40 MLOAD DUP3 PUSH4 0xFFFFFFFF AND PUSH1 0xE0 SHL DUP2 MSTORE PUSH1 0x4 ADD PUSH2 0x10EB SWAP2 SWAP1 PUSH2 0x1EE1 JUMP JUMPDEST PUSH1 0x0 PUSH1 0x40 MLOAD DUP1 DUP4 SUB DUP2 PUSH1 0x0 DUP8 DUP1 EXTCODESIZE ISZERO DUP1 ISZERO PUSH2 0x1105 JUMPI PUSH1 0x0 DUP1 REVERT JUMPDEST POP GAS CALL ISZERO DUP1 ISZERO PUSH2 0x1119 JUMPI RETURNDATASIZE PUSH1 0x0 DUP1 RETURNDATACOPY RETURNDATASIZE PUSH1 0x0 REVERT JUMPDEST POP POP POP POP PUSH1 0x7 PUSH1 0x1 PUSH1 0x7 DUP1 SLOAD SWAP1 POP PUSH2 0x1131 SWAP2 SWAP1 PUSH2 0x209F JUMP JUMPDEST DUP2 SLOAD DUP2 LT PUSH2 0x1142 JUMPI PUSH2 0x1141 PUSH2 0x2324 JUMP JUMPDEST JUMPDEST SWAP1 PUSH1 0x0 MSTORE PUSH1 0x20 PUSH1 0x0 KECCAK256 ADD PUSH1 0x0 SWAP1 SLOAD SWAP1 PUSH2 0x100 EXP SWAP1 DIV PUSH20 0xFFFFFFFFFFFFFFFFFFFFFFFFFFFFFFFFFFFFFFFF AND PUSH1 0x7 DUP5 DUP2 SLOAD DUP2 LT PUSH2 0x1181 JUMPI PUSH2 0x1180 PUSH2 0x2324 JUMP JUMPDEST JUMPDEST SWAP1 PUSH1 0x0 MSTORE PUSH1 0x20 PUSH1 0x0 KECCAK256 ADD PUSH1 0x0 PUSH2 0x100 EXP DUP2 SLOAD DUP2 PUSH20 0xFFFFFFFFFFFFFFFFFFFFFFFFFFFFFFFFFFFFFFFF MUL NOT AND SWAP1 DUP4 PUSH20 0xFFFFFFFFFFFFFFFFFFFFFFFFFFFFFFFFFFFFFFFF AND MUL OR SWAP1 SSTORE POP PUSH1 0x7 DUP1 SLOAD DUP1 PUSH2 0x11DB JUMPI PUSH2 0x11DA PUSH2 0x22F5 JUMP JUMPDEST JUMPDEST PUSH1 0x1 SWAP1 SUB DUP2 DUP2 SWAP1 PUSH1 0x0 MSTORE PUSH1 0x20 PUSH1 0x0 KECCAK256 ADD PUSH1 0x0 PUSH2 0x100 EXP DUP2 SLOAD SWAP1 PUSH20 0xFFFFFFFFFFFFFFFFFFFFFFFFFFFFFFFFFFFFFFFF MUL NOT AND SWAP1 SSTORE SWAP1 SSTORE POP POP POP POP JUMP JUMPDEST PUSH1 0x0 PUSH2 0x1221 DUP4 PUSH2 0x1441 JUMP JUMPDEST SWAP1 POP DUP1 PUSH2 0x1384 JUMPI PUSH1 0x0 PUSH2 0x1233 DUP4 PUSH2 0x6A5 JUMP JUMPDEST SWAP1 POP PUSH1 0x0 DUP2 EQ PUSH2 0x1278 JUMPI PUSH1 0x40 MLOAD PUSH32 0x8C379A000000000000000000000000000000000000000000000000000000000 DUP2 MSTORE PUSH1 0x4 ADD PUSH2 0x126F SWAP1 PUSH2 0x1E41 JUMP JUMPDEST PUSH1 0x40 MLOAD DUP1 SWAP2 SUB SWAP1 REVERT JUMPDEST PUSH1 0x0 JUMPDEST PUSH1 0x4 DUP1 SLOAD SWAP1 POP DUP2 LT ISZERO PUSH2 0x1345 JUMPI DUP4 PUSH1 0x40 MLOAD PUSH1 0x20 ADD PUSH2 0x1299 SWAP2 SWAP1 PUSH2 0x1D54 JUMP JUMPDEST PUSH1 0x40 MLOAD PUSH1 0x20 DUP2 DUP4 SUB SUB DUP2 MSTORE SWAP1 PUSH1 0x40 MSTORE DUP1 MLOAD SWAP1 PUSH1 0x20 ADD KECCAK256 PUSH1 0x4 DUP3 DUP2 SLOAD DUP2 LT PUSH2 0x12C3 JUMPI PUSH2 0x12C2 PUSH2 0x2324 JUMP JUMPDEST JUMPDEST SWAP1 PUSH1 0x0 MSTORE PUSH1 0x20 PUSH1 0x0 KECCAK256 ADD PUSH1 0x40 MLOAD PUSH1 0x20 ADD PUSH2 0x12DD SWAP2 SWAP1 PUSH2 0x1D6B JUMP JUMPDEST PUSH1 0x40 MLOAD PUSH1 0x20 DUP2 DUP4 SUB SUB DUP2 MSTORE SWAP1 PUSH1 0x40 MSTORE DUP1 MLOAD SWAP1 PUSH1 0x20 ADD KECCAK256 EQ ISZERO PUSH2 0x1334 JUMPI PUSH1 0x40 MLOAD PUSH32 0x8C379A000000000000000000000000000000000000000000000000000000000 DUP2 MSTORE PUSH1 0x4 ADD PUSH2 0x132B SWAP1 PUSH2 0x1E21 JUMP JUMPDEST PUSH1 0x40 MLOAD DUP1 SWAP2 SUB SWAP1 REVERT JUMPDEST DUP1 PUSH2 0x133E SWAP1 PUSH2 0x224E JUMP JUMPDEST SWAP1 POP PUSH2 0x127B JUMP JUMPDEST POP PUSH1 0x5 DUP4 SWAP1 DUP1 PUSH1 0x1 DUP2 SLOAD ADD DUP1 DUP3 SSTORE DUP1 SWAP2 POP POP PUSH1 0x1 SWAP1 SUB SWAP1 PUSH1 0x0 MSTORE PUSH1 0x20 PUSH1 0x0 KECCAK256 ADD PUSH1 0x0 SWAP1 SWAP2 SWAP1 SWAP2 SWAP1 SWAP2 POP SWAP1 DUP1 MLOAD SWAP1 PUSH1 0x20 ADD SWAP1 PUSH2 0x1381 SWAP3 SWAP2 SWAP1 PUSH2 0x157A JUMP JUMPDEST POP POP JUMPDEST POP POP POP JUMP JUMPDEST PUSH1 0x0 DUP1 PUSH1 0x0 SWAP1 POP JUMPDEST PUSH1 0x7 DUP1 SLOAD SWAP1 POP DUP2 LT ISZERO PUSH2 0x1436 JUMPI DUP3 PUSH20 0xFFFFFFFFFFFFFFFFFFFFFFFFFFFFFFFFFFFFFFFF AND PUSH1 0x7 DUP3 DUP2 SLOAD DUP2 LT PUSH2 0x13C9 JUMPI PUSH2 0x13C8 PUSH2 0x2324 JUMP JUMPDEST JUMPDEST SWAP1 PUSH1 0x0 MSTORE PUSH1 0x20 PUSH1 0x0 KECCAK256 ADD PUSH1 0x0 SWAP1 SLOAD SWAP1 PUSH2 0x100 EXP SWAP1 DIV PUSH20 0xFFFFFFFFFFFFFFFFFFFFFFFFFFFFFFFFFFFFFFFF AND PUSH20 0xFFFFFFFFFFFFFFFFFFFFFFFFFFFFFFFFFFFFFFFF AND EQ ISZERO PUSH2 0x1425 JUMPI PUSH1 0x1 DUP2 PUSH2 0x141D SWAP2 SWAP1 PUSH2 0x2049 JUMP JUMPDEST SWAP2 POP POP PUSH2 0x143C JUMP JUMPDEST DUP1 PUSH2 0x142F SWAP1 PUSH2 0x224E JUMP JUMPDEST SWAP1 POP PUSH2 0x1391 JUMP JUMPDEST POP PUSH1 0x0 SWAP1 POP JUMPDEST SWAP2 SWAP1 POP JUMP JUMPDEST PUSH1 0x0 PUSH1 0x1 SWAP1 POP PUSH1 0x0 JUMPDEST PUSH1 0x6 DUP1 SLOAD SWAP1 POP DUP2 LT ISZERO PUSH2 0x14E1 JUMPI DUP3 PUSH20 0xFFFFFFFFFFFFFFFFFFFFFFFFFFFFFFFFFFFFFFFF AND PUSH1 0x6 DUP3 DUP2 SLOAD DUP2 LT PUSH2 0x1482 JUMPI PUSH2 0x1481 PUSH2 0x2324 JUMP JUMPDEST JUMPDEST SWAP1 PUSH1 0x0 MSTORE PUSH1 0x20 PUSH1 0x0 KECCAK256 ADD PUSH1 0x0 SWAP1 SLOAD SWAP1 PUSH2 0x100 EXP SWAP1 DIV PUSH20 0xFFFFFFFFFFFFFFFFFFFFFFFFFFFFFFFFFFFFFFFF AND PUSH20 0xFFFFFFFFFFFFFFFFFFFFFFFFFFFFFFFFFFFFFFFF AND EQ ISZERO PUSH2 0x14CE JUMPI PUSH1 0x0 SWAP2 POP JUMPDEST DUP1 DUP1 PUSH2 0x14D9 SWAP1 PUSH2 0x224E JUMP JUMPDEST SWAP2 POP POP PUSH2 0x144A JUMP JUMPDEST POP DUP1 ISZERO PUSH2 0x1523 JUMPI PUSH1 0x40 MLOAD PUSH32 0x8C379A000000000000000000000000000000000000000000000000000000000 DUP2 MSTORE PUSH1 0x4 ADD PUSH2 0x151A SWAP1 PUSH2 0x1E81 JUMP JUMPDEST PUSH1 0x40 MLOAD DUP1 SWAP2 SUB SWAP1 REVERT JUMPDEST SWAP2 SWAP1 POP JUMP JUMPDEST DUP3 DUP1 SLOAD DUP3 DUP3 SSTORE SWAP1 PUSH1 0x0 MSTORE PUSH1 0x20 PUSH1 0x0 KECCAK256 SWAP1 DUP2 ADD SWAP3 DUP3 ISZERO PUSH2 0x1569 JUMPI PUSH1 0x0 MSTORE PUSH1 0x20 PUSH1 0x0 KECCAK256 SWAP2 DUP3 ADD JUMPDEST DUP3 DUP2 GT ISZERO PUSH2 0x1568 JUMPI DUP3 SLOAD DUP3 SSTORE SWAP2 PUSH1 0x1 ADD SWAP2 SWAP1 PUSH1 0x1 ADD SWAP1 PUSH2 0x154D JUMP JUMPDEST JUMPDEST POP SWAP1 POP PUSH2 0x1576 SWAP2 SWAP1 PUSH2 0x16CD JUMP JUMPDEST POP SWAP1 JUMP JUMPDEST DUP3 DUP1 SLOAD PUSH2 0x1586 SWAP1 PUSH2 0x21D1 JUMP JUMPDEST SWAP1 PUSH1 0x0 MSTORE PUSH1 0x20 PUSH1 0x0 KECCAK256 SWAP1 PUSH1 0x1F ADD PUSH1 0x20 SWAP1 DIV DUP2 ADD SWAP3 DUP3 PUSH2 0x15A8 JUMPI PUSH1 0x0 DUP6 SSTORE PUSH2 0x15EF JUMP JUMPDEST DUP3 PUSH1 0x1F LT PUSH2 0x15C1 JUMPI DUP1 MLOAD PUSH1 0xFF NOT AND DUP4 DUP1 ADD OR DUP6 SSTORE PUSH2 0x15EF JUMP JUMPDEST DUP3 DUP1 ADD PUSH1 0x1 ADD DUP6 SSTORE DUP3 ISZERO PUSH2 0x15EF JUMPI SWAP2 DUP3 ADD JUMPDEST DUP3 DUP2 GT ISZERO PUSH2 0x15EE JUMPI DUP3 MLOAD DUP3 SSTORE SWAP2 PUSH1 0x20 ADD SWAP2 SWAP1 PUSH1 0x1 ADD SWAP1 PUSH2 0x15D3 JUMP JUMPDEST JUMPDEST POP SWAP1 POP PUSH2 0x15FC SWAP2 SWAP1 PUSH2 0x16CD JUMP JUMPDEST POP SWAP1 JUMP JUMPDEST DUP3 DUP1 SLOAD PUSH2 0x160C SWAP1 PUSH2 0x21D1 JUMP JUMPDEST SWAP1 PUSH1 0x0 MSTORE PUSH1 0x20 PUSH1 0x0 KECCAK256 SWAP1 PUSH1 0x1F ADD PUSH1 0x20 SWAP1 DIV DUP2 ADD SWAP3 DUP3 PUSH2 0x162E JUMPI PUSH1 0x0 DUP6 SSTORE PUSH2 0x167C JUMP JUMPDEST DUP3 PUSH1 0x1F LT PUSH2 0x163F JUMPI DUP1 SLOAD DUP6 SSTORE PUSH2 0x167C JUMP JUMPDEST DUP3 DUP1 ADD PUSH1 0x1 ADD DUP6 SSTORE DUP3 ISZERO PUSH2 0x167C JUMPI PUSH1 0x0 MSTORE PUSH1 0x20 PUSH1 0x0 KECCAK256 SWAP2 PUSH1 0x1F ADD PUSH1 0x20 SWAP1 DIV DUP3 ADD JUMPDEST DUP3 DUP2 GT ISZERO PUSH2 0x167B JUMPI DUP3 SLOAD DUP3 SSTORE SWAP2 PUSH1 0x1 ADD SWAP2 SWAP1 PUSH1 0x1 ADD SWAP1 PUSH2 0x1660 JUMP JUMPDEST JUMPDEST POP SWAP1 POP PUSH2 0x1689 SWAP2 SWAP1 PUSH2 0x16CD JUMP JUMPDEST POP SWAP1 JUMP JUMPDEST POP DUP1 SLOAD PUSH2 0x1699 SWAP1 PUSH2 0x21D1 JUMP JUMPDEST PUSH1 0x0 DUP3 SSTORE DUP1 PUSH1 0x1F LT PUSH2 0x16AB JUMPI POP PUSH2 0x16CA JUMP JUMPDEST PUSH1 0x1F ADD PUSH1 0x20 SWAP1 DIV SWAP1 PUSH1 0x0 MSTORE PUSH1 0x20 PUSH1 0x0 KECCAK256 SWAP1 DUP2 ADD SWAP1 PUSH2 0x16C9 SWAP2 SWAP1 PUSH2 0x16CD JUMP JUMPDEST JUMPDEST POP JUMP JUMPDEST JUMPDEST DUP1 DUP3 GT ISZERO PUSH2 0x16E6 JUMPI PUSH1 0x0 DUP2 PUSH1 0x0 SWAP1 SSTORE POP PUSH1 0x1 ADD PUSH2 0x16CE JUMP JUMPDEST POP SWAP1 JUMP JUMPDEST PUSH1 0x0 PUSH2 0x16FD PUSH2 0x16F8 DUP5 PUSH2 0x1F21 JUMP JUMPDEST PUSH2 0x1EFC JUMP JUMPDEST SWAP1 POP DUP3 DUP2 MSTORE PUSH1 0x20 DUP2 ADD DUP5 DUP5 DUP5 ADD GT ISZERO PUSH2 0x1719 JUMPI PUSH2 0x1718 PUSH2 0x239A JUMP JUMPDEST JUMPDEST PUSH2 0x1724 DUP5 DUP3 DUP6 PUSH2 0x2165 JUMP JUMPDEST POP SWAP4 SWAP3 POP POP POP JUMP JUMPDEST PUSH1 0x0 DUP2 CALLDATALOAD SWAP1 POP PUSH2 0x173B DUP2 PUSH2 0x2535 JUMP JUMPDEST SWAP3 SWAP2 POP POP JUMP JUMPDEST PUSH1 0x0 DUP2 MLOAD SWAP1 POP PUSH2 0x1750 DUP2 PUSH2 0x2535 JUMP JUMPDEST SWAP3 SWAP2 POP POP JUMP JUMPDEST PUSH1 0x0 DUP2 CALLDATALOAD SWAP1 POP PUSH2 0x1765 DUP2 PUSH2 0x254C JUMP JUMPDEST SWAP3 SWAP2 POP POP JUMP JUMPDEST PUSH1 0x0 DUP2 MLOAD SWAP1 POP PUSH2 0x177A DUP2 PUSH2 0x254C JUMP JUMPDEST SWAP3 SWAP2 POP POP JUMP JUMPDEST PUSH1 0x0 DUP3 PUSH1 0x1F DUP4 ADD SLT PUSH2 0x1795 JUMPI PUSH2 0x1794 PUSH2 0x2395 JUMP JUMPDEST JUMPDEST DUP2 CALLDATALOAD PUSH2 0x17A5 DUP5 DUP3 PUSH1 0x20 DUP7 ADD PUSH2 0x16EA JUMP JUMPDEST SWAP2 POP POP SWAP3 SWAP2 POP POP JUMP JUMPDEST PUSH1 0x0 DUP2 CALLDATALOAD SWAP1 POP PUSH2 0x17BD DUP2 PUSH2 0x2563 JUMP JUMPDEST SWAP3 SWAP2 POP POP JUMP JUMPDEST PUSH1 0x0 DUP2 MLOAD SWAP1 POP PUSH2 0x17D2 DUP2 PUSH2 0x2563 JUMP JUMPDEST SWAP3 SWAP2 POP POP JUMP JUMPDEST PUSH1 0x0 PUSH1 0x20 DUP3 DUP5 SUB SLT ISZERO PUSH2 0x17EE JUMPI PUSH2 0x17ED PUSH2 0x23A4 JUMP JUMPDEST JUMPDEST PUSH1 0x0 PUSH2 0x17FC DUP5 DUP3 DUP6 ADD PUSH2 0x172C JUMP JUMPDEST SWAP2 POP POP SWAP3 SWAP2 POP POP JUMP JUMPDEST PUSH1 0x0 PUSH1 0x20 DUP3 DUP5 SUB SLT ISZERO PUSH2 0x181B JUMPI PUSH2 0x181A PUSH2 0x23A4 JUMP JUMPDEST JUMPDEST PUSH1 0x0 PUSH2 0x1829 DUP5 DUP3 DUP6 ADD PUSH2 0x1741 JUMP JUMPDEST SWAP2 POP POP SWAP3 SWAP2 POP POP JUMP JUMPDEST PUSH1 0x0 DUP1 PUSH1 0x40 DUP4 DUP6 SUB SLT ISZERO PUSH2 0x1849 JUMPI PUSH2 0x1848 PUSH2 0x23A4 JUMP JUMPDEST JUMPDEST PUSH1 0x0 PUSH2 0x1857 DUP6 DUP3 DUP7 ADD PUSH2 0x172C JUMP JUMPDEST SWAP3 POP POP PUSH1 0x20 DUP4 ADD CALLDATALOAD PUSH8 0xFFFFFFFFFFFFFFFF DUP2 GT ISZERO PUSH2 0x1878 JUMPI PUSH2 0x1877 PUSH2 0x239F JUMP JUMPDEST JUMPDEST PUSH2 0x1884 DUP6 DUP3 DUP7 ADD PUSH2 0x1780 JUMP JUMPDEST SWAP2 POP POP SWAP3 POP SWAP3 SWAP1 POP JUMP JUMPDEST PUSH1 0x0 PUSH1 0x20 DUP3 DUP5 SUB SLT ISZERO PUSH2 0x18A4 JUMPI PUSH2 0x18A3 PUSH2 0x23A4 JUMP JUMPDEST JUMPDEST PUSH1 0x0 PUSH2 0x18B2 DUP5 DUP3 DUP6 ADD PUSH2 0x176B JUMP JUMPDEST SWAP2 POP POP SWAP3 SWAP2 POP POP JUMP JUMPDEST PUSH1 0x0 DUP1 PUSH1 0x0 PUSH1 0x60 DUP5 DUP7 SUB SLT ISZERO PUSH2 0x18D4 JUMPI PUSH2 0x18D3 PUSH2 0x23A4 JUMP JUMPDEST JUMPDEST PUSH1 0x0 PUSH2 0x18E2 DUP7 DUP3 DUP8 ADD PUSH2 0x1756 JUMP JUMPDEST SWAP4 POP POP PUSH1 0x20 PUSH2 0x18F3 DUP7 DUP3 DUP8 ADD PUSH2 0x1756 JUMP JUMPDEST SWAP3 POP POP PUSH1 0x40 PUSH2 0x1904 DUP7 DUP3 DUP8 ADD PUSH2 0x17AE JUMP JUMPDEST SWAP2 POP POP SWAP3 POP SWAP3 POP SWAP3 JUMP JUMPDEST PUSH1 0x0 PUSH1 0x20 DUP3 DUP5 SUB SLT ISZERO PUSH2 0x1924 JUMPI PUSH2 0x1923 PUSH2 0x23A4 JUMP JUMPDEST JUMPDEST PUSH1 0x0 DUP3 ADD CALLDATALOAD PUSH8 0xFFFFFFFFFFFFFFFF DUP2 GT ISZERO PUSH2 0x1942 JUMPI PUSH2 0x1941 PUSH2 0x239F JUMP JUMPDEST JUMPDEST PUSH2 0x194E DUP5 DUP3 DUP6 ADD PUSH2 0x1780 JUMP JUMPDEST SWAP2 POP POP SWAP3 SWAP2 POP POP JUMP JUMPDEST PUSH1 0x0 PUSH1 0x20 DUP3 DUP5 SUB SLT ISZERO PUSH2 0x196D JUMPI PUSH2 0x196C PUSH2 0x23A4 JUMP JUMPDEST JUMPDEST PUSH1 0x0 PUSH2 0x197B DUP5 DUP3 DUP6 ADD PUSH2 0x17C3 JUMP JUMPDEST SWAP2 POP POP SWAP3 SWAP2 POP POP JUMP JUMPDEST PUSH1 0x0 PUSH2 0x1990 DUP4 DUP4 PUSH2 0x19C8 JUMP JUMPDEST PUSH1 0x20 DUP4 ADD SWAP1 POP SWAP3 SWAP2 POP POP JUMP JUMPDEST PUSH1 0x0 PUSH2 0x19A8 DUP4 DUP4 PUSH2 0x1B1E JUMP JUMPDEST PUSH1 0x20 DUP4 ADD SWAP1 POP SWAP3 SWAP2 POP POP JUMP JUMPDEST PUSH1 0x0 PUSH2 0x19C0 DUP4 DUP4 PUSH2 0x1B2D JUMP JUMPDEST SWAP1 POP SWAP3 SWAP2 POP POP JUMP JUMPDEST PUSH2 0x19D1 DUP2 PUSH2 0x20F3 JUMP JUMPDEST DUP3 MSTORE POP POP JUMP JUMPDEST PUSH2 0x19E0 DUP2 PUSH2 0x20F3 JUMP JUMPDEST DUP3 MSTORE POP POP JUMP JUMPDEST PUSH1 0x0 PUSH2 0x19F1 DUP3 PUSH2 0x1F9C JUMP JUMPDEST PUSH2 0x19FB DUP2 DUP6 PUSH2 0x1FEF JUMP JUMPDEST SWAP4 POP PUSH2 0x1A06 DUP4 PUSH2 0x1F52 JUMP JUMPDEST DUP1 PUSH1 0x0 JUMPDEST DUP4 DUP2 LT ISZERO PUSH2 0x1A37 JUMPI DUP2 MLOAD PUSH2 0x1A1E DUP9 DUP3 PUSH2 0x1984 JUMP JUMPDEST SWAP8 POP PUSH2 0x1A29 DUP4 PUSH2 0x1FC8 JUMP JUMPDEST SWAP3 POP POP PUSH1 0x1 DUP2 ADD SWAP1 POP PUSH2 0x1A0A JUMP JUMPDEST POP DUP6 SWAP4 POP POP POP POP SWAP3 SWAP2 POP POP JUMP JUMPDEST PUSH1 0x0 PUSH2 0x1A4F DUP3 PUSH2 0x1FA7 JUMP JUMPDEST PUSH2 0x1A59 DUP2 DUP6 PUSH2 0x2000 JUMP JUMPDEST SWAP4 POP PUSH2 0x1A64 DUP4 PUSH2 0x1F62 JUMP JUMPDEST DUP1 PUSH1 0x0 JUMPDEST DUP4 DUP2 LT ISZERO PUSH2 0x1A9C JUMPI PUSH2 0x1A79 DUP3 PUSH2 0x2382 JUMP JUMPDEST PUSH2 0x1A83 DUP9 DUP3 PUSH2 0x199C JUMP JUMPDEST SWAP8 POP PUSH2 0x1A8E DUP4 PUSH2 0x1FD5 JUMP JUMPDEST SWAP3 POP POP PUSH1 0x1 DUP2 ADD SWAP1 POP PUSH2 0x1A68 JUMP JUMPDEST POP DUP6 SWAP4 POP POP POP POP SWAP3 SWAP2 POP POP JUMP JUMPDEST PUSH1 0x0 PUSH2 0x1AB4 DUP3 PUSH2 0x1FB2 JUMP JUMPDEST PUSH2 0x1ABE DUP2 DUP6 PUSH2 0x200B JUMP JUMPDEST SWAP4 POP DUP4 PUSH1 0x20 DUP3 MUL DUP6 ADD PUSH2 0x1AD0 DUP6 PUSH2 0x1F77 JUMP JUMPDEST DUP1 PUSH1 0x0 JUMPDEST DUP6 DUP2 LT ISZERO PUSH2 0x1B0C JUMPI DUP5 DUP5 SUB DUP10 MSTORE DUP2 MLOAD PUSH2 0x1AED DUP6 DUP3 PUSH2 0x19B4 JUMP JUMPDEST SWAP5 POP PUSH2 0x1AF8 DUP4 PUSH2 0x1FE2 JUMP JUMPDEST SWAP3 POP PUSH1 0x20 DUP11 ADD SWAP10 POP POP PUSH1 0x1 DUP2 ADD SWAP1 POP PUSH2 0x1AD4 JUMP JUMPDEST POP DUP3 SWAP8 POP DUP8 SWAP6 POP POP POP POP POP POP SWAP3 SWAP2 POP POP JUMP JUMPDEST PUSH2 0x1B27 DUP2 PUSH2 0x2141 JUMP JUMPDEST DUP3 MSTORE POP POP JUMP JUMPDEST PUSH1 0x0 PUSH2 0x1B38 DUP3 PUSH2 0x1FBD JUMP JUMPDEST PUSH2 0x1B42 DUP2 DUP6 PUSH2 0x201C JUMP JUMPDEST SWAP4 POP PUSH2 0x1B52 DUP2 DUP6 PUSH1 0x20 DUP7 ADD PUSH2 0x2174 JUMP JUMPDEST PUSH2 0x1B5B DUP2 PUSH2 0x23A9 JUMP JUMPDEST DUP5 ADD SWAP2 POP POP SWAP3 SWAP2 POP POP JUMP JUMPDEST PUSH1 0x0 PUSH2 0x1B71 DUP3 PUSH2 0x1FBD JUMP JUMPDEST PUSH2 0x1B7B DUP2 DUP6 PUSH2 0x203E JUMP JUMPDEST SWAP4 POP PUSH2 0x1B8B DUP2 DUP6 PUSH1 0x20 DUP7 ADD PUSH2 0x2174 JUMP JUMPDEST DUP1 DUP5 ADD SWAP2 POP POP SWAP3 SWAP2 POP POP JUMP JUMPDEST PUSH1 0x0 DUP2 SLOAD PUSH2 0x1BA4 DUP2 PUSH2 0x21D1 JUMP JUMPDEST PUSH2 0x1BAE DUP2 DUP7 PUSH2 0x203E JUMP JUMPDEST SWAP5 POP PUSH1 0x1 DUP3 AND PUSH1 0x0 DUP2 EQ PUSH2 0x1BC9 JUMPI PUSH1 0x1 DUP2 EQ PUSH2 0x1BDA JUMPI PUSH2 0x1C0D JUMP JUMPDEST PUSH1 0xFF NOT DUP4 AND DUP7 MSTORE DUP2 DUP7 ADD SWAP4 POP PUSH2 0x1C0D JUMP JUMPDEST PUSH2 0x1BE3 DUP6 PUSH2 0x1F87 JUMP JUMPDEST PUSH1 0x0 JUMPDEST DUP4 DUP2 LT ISZERO PUSH2 0x1C05 JUMPI DUP2 SLOAD DUP2 DUP10 ADD MSTORE PUSH1 0x1 DUP3 ADD SWAP2 POP PUSH1 0x20 DUP2 ADD SWAP1 POP PUSH2 0x1BE6 JUMP JUMPDEST DUP4 DUP9 ADD SWAP6 POP POP POP JUMPDEST POP POP POP SWAP3 SWAP2 POP POP JUMP JUMPDEST PUSH1 0x0 PUSH2 0x1C23 PUSH1 0xE DUP4 PUSH2 0x202D JUMP JUMPDEST SWAP2 POP PUSH2 0x1C2E DUP3 PUSH2 0x23C7 JUMP JUMPDEST PUSH1 0x20 DUP3 ADD SWAP1 POP SWAP2 SWAP1 POP JUMP JUMPDEST PUSH1 0x0 PUSH2 0x1C46 PUSH1 0x1D DUP4 PUSH2 0x202D JUMP JUMPDEST SWAP2 POP PUSH2 0x1C51 DUP3 PUSH2 0x23F0 JUMP JUMPDEST PUSH1 0x20 DUP3 ADD SWAP1 POP SWAP2 SWAP1 POP JUMP JUMPDEST PUSH1 0x0 PUSH2 0x1C69 PUSH1 0x1A DUP4 PUSH2 0x202D JUMP JUMPDEST SWAP2 POP PUSH2 0x1C74 DUP3 PUSH2 0x2419 JUMP JUMPDEST PUSH1 0x20 DUP3 ADD SWAP1 POP SWAP2 SWAP1 POP JUMP JUMPDEST PUSH1 0x0 PUSH2 0x1C8C PUSH1 0x22 DUP4 PUSH2 0x202D JUMP JUMPDEST SWAP2 POP PUSH2 0x1C97 DUP3 PUSH2 0x2442 JUMP JUMPDEST PUSH1 0x40 DUP3 ADD SWAP1 POP SWAP2 SWAP1 POP JUMP JUMPDEST PUSH1 0x0 PUSH2 0x1CAF PUSH1 0x16 DUP4 PUSH2 0x202D JUMP JUMPDEST SWAP2 POP PUSH2 0x1CBA DUP3 PUSH2 0x2491 JUMP JUMPDEST PUSH1 0x20 DUP3 ADD SWAP1 POP SWAP2 SWAP1 POP JUMP JUMPDEST PUSH1 0x0 PUSH2 0x1CD2 PUSH1 0x12 DUP4 PUSH2 0x202D JUMP JUMPDEST SWAP2 POP PUSH2 0x1CDD DUP3 PUSH2 0x24BA JUMP JUMPDEST PUSH1 0x20 DUP3 ADD SWAP1 POP SWAP2 SWAP1 POP JUMP JUMPDEST PUSH1 0x0 PUSH2 0x1CF5 PUSH1 0x1E DUP4 PUSH2 0x202D JUMP JUMPDEST SWAP2 POP PUSH2 0x1D00 DUP3 PUSH2 0x24E3 JUMP JUMPDEST PUSH1 0x20 DUP3 ADD SWAP1 POP SWAP2 SWAP1 POP JUMP JUMPDEST PUSH1 0x0 PUSH2 0x1D18 PUSH1 0x19 DUP4 PUSH2 0x202D JUMP JUMPDEST SWAP2 POP PUSH2 0x1D23 DUP3 PUSH2 0x250C JUMP JUMPDEST PUSH1 0x20 DUP3 ADD SWAP1 POP SWAP2 SWAP1 POP JUMP JUMPDEST PUSH2 0x1D37 DUP2 PUSH2 0x2137 JUMP JUMPDEST DUP3 MSTORE POP POP JUMP JUMPDEST PUSH1 0x0 PUSH2 0x1D49 DUP3 DUP5 PUSH2 0x1A44 JUMP JUMPDEST SWAP2 POP DUP2 SWAP1 POP SWAP3 SWAP2 POP POP JUMP JUMPDEST PUSH1 0x0 PUSH2 0x1D60 DUP3 DUP5 PUSH2 0x1B66 JUMP JUMPDEST SWAP2 POP DUP2 SWAP1 POP SWAP3 SWAP2 POP POP JUMP JUMPDEST PUSH1 0x0 PUSH2 0x1D77 DUP3 DUP5 PUSH2 0x1B97 JUMP JUMPDEST SWAP2 POP DUP2 SWAP1 POP SWAP3 SWAP2 POP POP JUMP JUMPDEST PUSH1 0x0 PUSH1 0x20 DUP3 ADD SWAP1 POP PUSH2 0x1D97 PUSH1 0x0 DUP4 ADD DUP5 PUSH2 0x19D7 JUMP JUMPDEST SWAP3 SWAP2 POP POP JUMP JUMPDEST PUSH1 0x0 PUSH1 0x20 DUP3 ADD SWAP1 POP DUP2 DUP2 SUB PUSH1 0x0 DUP4 ADD MSTORE PUSH2 0x1DB7 DUP2 DUP5 PUSH2 0x19E6 JUMP JUMPDEST SWAP1 POP SWAP3 SWAP2 POP POP JUMP JUMPDEST PUSH1 0x0 PUSH1 0x20 DUP3 ADD SWAP1 POP DUP2 DUP2 SUB PUSH1 0x0 DUP4 ADD MSTORE PUSH2 0x1DD9 DUP2 DUP5 PUSH2 0x1AA9 JUMP JUMPDEST SWAP1 POP SWAP3 SWAP2 POP POP JUMP JUMPDEST PUSH1 0x0 PUSH1 0x20 DUP3 ADD SWAP1 POP DUP2 DUP2 SUB PUSH1 0x0 DUP4 ADD MSTORE PUSH2 0x1DFA DUP2 PUSH2 0x1C16 JUMP JUMPDEST SWAP1 POP SWAP2 SWAP1 POP JUMP JUMPDEST PUSH1 0x0 PUSH1 0x20 DUP3 ADD SWAP1 POP DUP2 DUP2 SUB PUSH1 0x0 DUP4 ADD MSTORE PUSH2 0x1E1A DUP2 PUSH2 0x1C39 JUMP JUMPDEST SWAP1 POP SWAP2 SWAP1 POP JUMP JUMPDEST PUSH1 0x0 PUSH1 0x20 DUP3 ADD SWAP1 POP DUP2 DUP2 SUB PUSH1 0x0 DUP4 ADD MSTORE PUSH2 0x1E3A DUP2 PUSH2 0x1C5C JUMP JUMPDEST SWAP1 POP SWAP2 SWAP1 POP JUMP JUMPDEST PUSH1 0x0 PUSH1 0x20 DUP3 ADD SWAP1 POP DUP2 DUP2 SUB PUSH1 0x0 DUP4 ADD MSTORE PUSH2 0x1E5A DUP2 PUSH2 0x1C7F JUMP JUMPDEST SWAP1 POP SWAP2 SWAP1 POP JUMP JUMPDEST PUSH1 0x0 PUSH1 0x20 DUP3 ADD SWAP1 POP DUP2 DUP2 SUB PUSH1 0x0 DUP4 ADD MSTORE PUSH2 0x1E7A DUP2 PUSH2 0x1CA2 JUMP JUMPDEST SWAP1 POP SWAP2 SWAP1 POP JUMP JUMPDEST PUSH1 0x0 PUSH1 0x20 DUP3 ADD SWAP1 POP DUP2 DUP2 SUB PUSH1 0x0 DUP4 ADD MSTORE PUSH2 0x1E9A DUP2 PUSH2 0x1CC5 JUMP JUMPDEST SWAP1 POP SWAP2 SWAP1 POP JUMP JUMPDEST PUSH1 0x0 PUSH1 0x20 DUP3 ADD SWAP1 POP DUP2 DUP2 SUB PUSH1 0x0 DUP4 ADD MSTORE PUSH2 0x1EBA DUP2 PUSH2 0x1CE8 JUMP JUMPDEST SWAP1 POP SWAP2 SWAP1 POP JUMP JUMPDEST PUSH1 0x0 PUSH1 0x20 DUP3 ADD SWAP1 POP DUP2 DUP2 SUB PUSH1 0x0 DUP4 ADD MSTORE PUSH2 0x1EDA DUP2 PUSH2 0x1D0B JUMP JUMPDEST SWAP1 POP SWAP2 SWAP1 POP JUMP JUMPDEST PUSH1 0x0 PUSH1 0x20 DUP3 ADD SWAP1 POP PUSH2 0x1EF6 PUSH1 0x0 DUP4 ADD DUP5 PUSH2 0x1D2E JUMP JUMPDEST SWAP3 SWAP2 POP POP JUMP JUMPDEST PUSH1 0x0 PUSH2 0x1F06 PUSH2 0x1F17 JUMP JUMPDEST SWAP1 POP PUSH2 0x1F12 DUP3 DUP3 PUSH2 0x221D JUMP JUMPDEST SWAP2 SWAP1 POP JUMP JUMPDEST PUSH1 0x0 PUSH1 0x40 MLOAD SWAP1 POP SWAP1 JUMP JUMPDEST PUSH1 0x0 PUSH8 0xFFFFFFFFFFFFFFFF DUP3 GT ISZERO PUSH2 0x1F3C JUMPI PUSH2 0x1F3B PUSH2 0x2353 JUMP JUMPDEST JUMPDEST PUSH2 0x1F45 DUP3 PUSH2 0x23A9 JUMP JUMPDEST SWAP1 POP PUSH1 0x20 DUP2 ADD SWAP1 POP SWAP2 SWAP1 POP JUMP JUMPDEST PUSH1 0x0 DUP2 SWAP1 POP PUSH1 0x20 DUP3 ADD SWAP1 POP SWAP2 SWAP1 POP JUMP JUMPDEST PUSH1 0x0 DUP2 SWAP1 POP DUP2 PUSH1 0x0 MSTORE PUSH1 0x20 PUSH1 0x0 KECCAK256 SWAP1 POP SWAP2 SWAP1 POP JUMP JUMPDEST PUSH1 0x0 DUP2 SWAP1 POP PUSH1 0x20 DUP3 ADD SWAP1 POP SWAP2 SWAP1 POP JUMP JUMPDEST PUSH1 0x0 DUP2 SWAP1 POP DUP2 PUSH1 0x0 MSTORE PUSH1 0x20 PUSH1 0x0 KECCAK256 SWAP1 POP SWAP2 SWAP1 POP JUMP JUMPDEST PUSH1 0x0 DUP2 MLOAD SWAP1 POP SWAP2 SWAP1 POP JUMP JUMPDEST PUSH1 0x0 DUP2 SLOAD SWAP1 POP SWAP2 SWAP1 POP JUMP JUMPDEST PUSH1 0x0 DUP2 MLOAD SWAP1 POP SWAP2 SWAP1 POP JUMP JUMPDEST PUSH1 0x0 DUP2 MLOAD SWAP1 POP SWAP2 SWAP1 POP JUMP JUMPDEST PUSH1 0x0 PUSH1 0x20 DUP3 ADD SWAP1 POP SWAP2 SWAP1 POP JUMP JUMPDEST PUSH1 0x0 PUSH1 0x1 DUP3 ADD SWAP1 POP SWAP2 SWAP1 POP JUMP JUMPDEST PUSH1 0x0 PUSH1 0x20 DUP3 ADD SWAP1 POP SWAP2 SWAP1 POP JUMP JUMPDEST PUSH1 0x0 DUP3 DUP3 MSTORE PUSH1 0x20 DUP3 ADD SWAP1 POP SWAP3 SWAP2 POP POP JUMP JUMPDEST PUSH1 0x0 DUP2 SWAP1 POP SWAP3 SWAP2 POP POP JUMP JUMPDEST PUSH1 0x0 DUP3 DUP3 MSTORE PUSH1 0x20 DUP3 ADD SWAP1 POP SWAP3 SWAP2 POP POP JUMP JUMPDEST PUSH1 0x0 DUP3 DUP3 MSTORE PUSH1 0x20 DUP3 ADD SWAP1 POP SWAP3 SWAP2 POP POP JUMP JUMPDEST PUSH1 0x0 DUP3 DUP3 MSTORE PUSH1 0x20 DUP3 ADD SWAP1 POP SWAP3 SWAP2 POP POP JUMP JUMPDEST PUSH1 0x0 DUP2 SWAP1 POP SWAP3 SWAP2 POP POP JUMP JUMPDEST PUSH1 0x0 PUSH2 0x2054 DUP3 PUSH2 0x2137 JUMP JUMPDEST SWAP2 POP PUSH2 0x205F DUP4 PUSH2 0x2137 JUMP JUMPDEST SWAP3 POP DUP3 PUSH32 0xFFFFFFFFFFFFFFFFFFFFFFFFFFFFFFFFFFFFFFFFFFFFFFFFFFFFFFFFFFFFFFFF SUB DUP3 GT ISZERO PUSH2 0x2094 JUMPI PUSH2 0x2093 PUSH2 0x2297 JUMP JUMPDEST JUMPDEST DUP3 DUP3 ADD SWAP1 POP SWAP3 SWAP2 POP POP JUMP JUMPDEST PUSH1 0x0 PUSH2 0x20AA DUP3 PUSH2 0x2137 JUMP JUMPDEST SWAP2 POP PUSH2 0x20B5 DUP4 PUSH2 0x2137 JUMP JUMPDEST SWAP3 POP DUP3 DUP3 LT ISZERO PUSH2 0x20C8 JUMPI PUSH2 0x20C7 PUSH2 0x2297 JUMP JUMPDEST JUMPDEST DUP3 DUP3 SUB SWAP1 POP SWAP3 SWAP2 POP POP JUMP JUMPDEST PUSH1 0x0 PUSH20 0xFFFFFFFFFFFFFFFFFFFFFFFFFFFFFFFFFFFFFFFF DUP3 AND SWAP1 POP SWAP2 SWAP1 POP JUMP JUMPDEST PUSH1 0x0 PUSH2 0x20FE DUP3 PUSH2 0x2117 JUMP JUMPDEST SWAP1 POP SWAP2 SWAP1 POP JUMP JUMPDEST PUSH1 0x0 PUSH2 0x2110 DUP3 PUSH2 0x20F3 JUMP JUMPDEST SWAP1 POP SWAP2 SWAP1 POP JUMP JUMPDEST PUSH1 0x0 PUSH20 0xFFFFFFFFFFFFFFFFFFFFFFFFFFFFFFFFFFFFFFFF DUP3 AND SWAP1 POP SWAP2 SWAP1 POP JUMP JUMPDEST PUSH1 0x0 DUP2 SWAP1 POP SWAP2 SWAP1 POP JUMP JUMPDEST PUSH1 0x0 PUSH2 0x214C DUP3 PUSH2 0x2153 JUMP JUMPDEST SWAP1 POP SWAP2 SWAP1 POP JUMP JUMPDEST PUSH1 0x0 PUSH2 0x215E DUP3 PUSH2 0x2117 JUMP JUMPDEST SWAP1 POP SWAP2 SWAP1 POP JUMP JUMPDEST DUP3 DUP2 DUP4 CALLDATACOPY PUSH1 0x0 DUP4 DUP4 ADD MSTORE POP POP POP JUMP JUMPDEST PUSH1 0x0 JUMPDEST DUP4 DUP2 LT ISZERO PUSH2 0x2192 JUMPI DUP1 DUP3 ADD MLOAD DUP2 DUP5 ADD MSTORE PUSH1 0x20 DUP2 ADD SWAP1 POP PUSH2 0x2177 JUMP JUMPDEST DUP4 DUP2 GT ISZERO PUSH2 0x21A1 JUMPI PUSH1 0x0 DUP5 DUP5 ADD MSTORE JUMPDEST POP POP POP POP JUMP JUMPDEST PUSH1 0x0 PUSH2 0x21B2 DUP3 PUSH2 0x2137 JUMP JUMPDEST SWAP2 POP PUSH1 0x0 DUP3 EQ ISZERO PUSH2 0x21C6 JUMPI PUSH2 0x21C5 PUSH2 0x2297 JUMP JUMPDEST JUMPDEST PUSH1 0x1 DUP3 SUB SWAP1 POP SWAP2 SWAP1 POP JUMP JUMPDEST PUSH1 0x0 PUSH1 0x2 DUP3 DIV SWAP1 POP PUSH1 0x1 DUP3 AND DUP1 PUSH2 0x21E9 JUMPI PUSH1 0x7F DUP3 AND SWAP2 POP JUMPDEST PUSH1 0x20 DUP3 LT DUP2 EQ ISZERO PUSH2 0x21FD JUMPI PUSH2 0x21FC PUSH2 0x22C6 JUMP JUMPDEST JUMPDEST POP SWAP2 SWAP1 POP JUMP JUMPDEST PUSH1 0x0 PUSH2 0x2216 PUSH2 0x2211 DUP4 PUSH2 0x23BA JUMP JUMPDEST PUSH2 0x20D3 JUMP JUMPDEST SWAP1 POP SWAP2 SWAP1 POP JUMP JUMPDEST PUSH2 0x2226 DUP3 PUSH2 0x23A9 JUMP JUMPDEST DUP2 ADD DUP2 DUP2 LT PUSH8 0xFFFFFFFFFFFFFFFF DUP3 GT OR ISZERO PUSH2 0x2245 JUMPI PUSH2 0x2244 PUSH2 0x2353 JUMP JUMPDEST JUMPDEST DUP1 PUSH1 0x40 MSTORE POP POP POP JUMP JUMPDEST PUSH1 0x0 PUSH2 0x2259 DUP3 PUSH2 0x2137 JUMP JUMPDEST SWAP2 POP PUSH32 0xFFFFFFFFFFFFFFFFFFFFFFFFFFFFFFFFFFFFFFFFFFFFFFFFFFFFFFFFFFFFFFFF DUP3 EQ ISZERO PUSH2 0x228C JUMPI PUSH2 0x228B PUSH2 0x2297 JUMP JUMPDEST JUMPDEST PUSH1 0x1 DUP3 ADD SWAP1 POP SWAP2 SWAP1 POP JUMP JUMPDEST PUSH32 0x4E487B7100000000000000000000000000000000000000000000000000000000 PUSH1 0x0 MSTORE PUSH1 0x11 PUSH1 0x4 MSTORE PUSH1 0x24 PUSH1 0x0 REVERT JUMPDEST PUSH32 0x4E487B7100000000000000000000000000000000000000000000000000000000 PUSH1 0x0 MSTORE PUSH1 0x22 PUSH1 0x4 MSTORE PUSH1 0x24 PUSH1 0x0 REVERT JUMPDEST PUSH32 0x4E487B7100000000000000000000000000000000000000000000000000000000 PUSH1 0x0 MSTORE PUSH1 0x31 PUSH1 0x4 MSTORE PUSH1 0x24 PUSH1 0x0 REVERT JUMPDEST PUSH32 0x4E487B7100000000000000000000000000000000000000000000000000000000 PUSH1 0x0 MSTORE PUSH1 0x32 PUSH1 0x4 MSTORE PUSH1 0x24 PUSH1 0x0 REVERT JUMPDEST PUSH32 0x4E487B7100000000000000000000000000000000000000000000000000000000 PUSH1 0x0 MSTORE PUSH1 0x41 PUSH1 0x4 MSTORE PUSH1 0x24 PUSH1 0x0 REVERT JUMPDEST PUSH1 0x0 PUSH2 0x238E DUP3 SLOAD PUSH2 0x2203 JUMP JUMPDEST SWAP1 POP SWAP2 SWAP1 POP JUMP JUMPDEST PUSH1 0x0 DUP1 REVERT JUMPDEST PUSH1 0x0 DUP1 REVERT JUMPDEST PUSH1 0x0 DUP1 REVERT JUMPDEST PUSH1 0x0 DUP1 REVERT JUMPDEST PUSH1 0x0 PUSH1 0x1F NOT PUSH1 0x1F DUP4 ADD AND SWAP1 POP SWAP2 SWAP1 POP JUMP JUMPDEST PUSH1 0x0 DUP2 PUSH1 0x0 SHR SWAP1 POP SWAP2 SWAP1 POP JUMP JUMPDEST PUSH32 0x616C72656164792073636F726564000000000000000000000000000000000000 PUSH1 0x0 DUP3 ADD MSTORE POP JUMP JUMPDEST PUSH32 0x7573657220616C726561647920696E2077616974696E67206172726179000000 PUSH1 0x0 DUP3 ADD MSTORE POP JUMP JUMPDEST PUSH32 0x69706673206861736820616C726561647920696E206172726179000000000000 PUSH1 0x0 DUP3 ADD MSTORE POP JUMP JUMPDEST PUSH32 0x69706673206861736820616C726561647920696E2077616974696E6720617272 PUSH1 0x0 DUP3 ADD MSTORE PUSH32 0x6179000000000000000000000000000000000000000000000000000000000000 PUSH1 0x20 DUP3 ADD MSTORE POP JUMP JUMPDEST PUSH32 0x796F75206172652070726F6A656374206D656D62657200000000000000000000 PUSH1 0x0 DUP3 ADD MSTORE POP JUMP JUMPDEST PUSH32 0x6E6F742070726F6A656374206D656D6265720000000000000000000000000000 PUSH1 0x0 DUP3 ADD MSTORE POP JUMP JUMPDEST PUSH32 0x697066732068617368206E6F7420696E2077616974696E672061727261790000 PUSH1 0x0 DUP3 ADD MSTORE POP JUMP JUMPDEST PUSH32 0x75736572206E6F7420696E2077616974696E6720617272617900000000000000 PUSH1 0x0 DUP3 ADD MSTORE POP JUMP JUMPDEST PUSH2 0x253E DUP2 PUSH2 0x20F3 JUMP JUMPDEST DUP2 EQ PUSH2 0x2549 JUMPI PUSH1 0x0 DUP1 REVERT JUMPDEST POP JUMP JUMPDEST PUSH2 0x2555 DUP2 PUSH2 0x2105 JUMP JUMPDEST DUP2 EQ PUSH2 0x2560 JUMPI PUSH1 0x0 DUP1 REVERT JUMPDEST POP JUMP JUMPDEST PUSH2 0x256C DUP2 PUSH2 0x2137 JUMP JUMPDEST DUP2 EQ PUSH2 0x2577 JUMPI PUSH1 0x0 DUP1 REVERT JUMPDEST POP JUMP INVALID LOG2 PUSH5 0x6970667358 0x22 SLT KECCAK256 MSIZE 0xA8 RETURN BALANCE LOG3 0xDE PUSH4 0xF3A0D9AF CREATE2 0x5C EQ 0xF9 0xF8 0xB6 KECCAK256 DUP10 LOG0 0x2C 0x4B PUSH24 0x8D8E7152248C94EE0464736F6C6343000806003300000000 "
		},
		"gasEstimates": {
			"creation": {
				"codeDepositCost": "1929600",
				"executionCost": "infinite",
				"totalCost": "infinite"
			},
			"external": {
				"addMember(address)": "infinite",
				"checkipfsWaitingArray(string)": "infinite",
				"getMemberArray()": "infinite",
				"getMemberWaitingArray()": "infinite",
				"getipfsArray()": "infinite",
				"getipfsMap(address)": "infinite",
				"getipfsWaitingArray()": "infinite",
				"pushHash(address,string)": "infinite",
				"requestMember(address)": "infinite",
				"scoreMember(address,address,uint256)": "infinite",
				"sendHash(address,string)": "infinite"
			},
			"internal": {
				"checkMemberWaitingArray(address)": "infinite",
				"onlyMember(address)": "infinite"
			}
		},
		"methodIdentifiers": {
			"addMember(address)": "ca6d56dc",
			"checkipfsWaitingArray(string)": "5e4eff99",
			"getMemberArray()": "5c3e2e41",
			"getMemberWaitingArray()": "4a0dd083",
			"getipfsArray()": "17c0cb1c",
			"getipfsMap(address)": "07e1c7f7",
			"getipfsWaitingArray()": "87813286",
			"pushHash(address,string)": "af8d148f",
			"requestMember(address)": "4ce24b48",
			"scoreMember(address,address,uint256)": "68add1a0",
			"sendHash(address,string)": "eab3780e"
		}
	},
	"abi": [
		{
			"inputs": [
				{
					"internalType": "address",
					"name": "_addr",
					"type": "address"
				},
				{
					"internalType": "string",
					"name": "_projectName",
					"type": "string"
				}
			],
			"stateMutability": "payable",
			"type": "constructor"
		},
		{
			"anonymous": false,
			"inputs": [
				{
					"indexed": false,
					"internalType": "uint256",
					"name": "i",
					"type": "uint256"
				}
			],
			"name": "value",
			"type": "event"
		},
		{
			"inputs": [
				{
					"internalType": "address",
					"name": "_addr",
					"type": "address"
				}
			],
			"name": "addMember",
			"outputs": [],
			"stateMutability": "nonpayable",
			"type": "function"
		},
		{
			"inputs": [
				{
					"internalType": "string",
					"name": "_ipfsHash",
					"type": "string"
				}
			],
			"name": "checkipfsWaitingArray",
			"outputs": [
				{
					"internalType": "uint256",
					"name": "",
					"type": "uint256"
				}
			],
			"stateMutability": "view",
			"type": "function"
		},
		{
			"inputs": [],
			"name": "getMemberArray",
			"outputs": [
				{
					"internalType": "address[]",
					"name": "",
					"type": "address[]"
				}
			],
			"stateMutability": "view",
			"type": "function"
		},
		{
			"inputs": [],
			"name": "getMemberWaitingArray",
			"outputs": [
				{
					"internalType": "address[]",
					"name": "",
					"type": "address[]"
				}
			],
			"stateMutability": "view",
			"type": "function"
		},
		{
			"inputs": [],
			"name": "getipfsArray",
			"outputs": [
				{
					"internalType": "string[]",
					"name": "",
					"type": "string[]"
				}
			],
			"stateMutability": "view",
			"type": "function"
		},
		{
			"inputs": [
				{
					"internalType": "address",
					"name": "_addr",
					"type": "address"
				}
			],
			"name": "getipfsMap",
			"outputs": [
				{
					"internalType": "string[]",
					"name": "",
					"type": "string[]"
				}
			],
			"stateMutability": "view",
			"type": "function"
		},
		{
			"inputs": [],
			"name": "getipfsWaitingArray",
			"outputs": [
				{
					"internalType": "string[]",
					"name": "",
					"type": "string[]"
				}
			],
			"stateMutability": "view",
			"type": "function"
		},
		{
			"inputs": [
				{
					"internalType": "address",
					"name": "_addr",
					"type": "address"
				},
				{
					"internalType": "string",
					"name": "_ipfsHash",
					"type": "string"
				}
			],
			"name": "pushHash",
			"outputs": [],
			"stateMutability": "nonpayable",
			"type": "function"
		},
		{
			"inputs": [
				{
					"internalType": "address",
					"name": "_addr",
					"type": "address"
				}
			],
			"name": "requestMember",
			"outputs": [],
			"stateMutability": "nonpayable",
			"type": "function"
		},
		{
			"inputs": [
				{
					"internalType": "contract User",
					"name": "_from",
					"type": "address"
				},
				{
					"internalType": "contract User",
					"name": "_to",
					"type": "address"
				},
				{
					"internalType": "uint256",
					"name": "_score",
					"type": "uint256"
				}
			],
			"name": "scoreMember",
			"outputs": [],
			"stateMutability": "nonpayable",
			"type": "function"
		},
		{
			"inputs": [
				{
					"internalType": "address",
					"name": "_addr",
					"type": "address"
				},
				{
					"internalType": "string",
					"name": "_ipfsHash",
					"type": "string"
				}
			],
			"name": "sendHash",
			"outputs": [],
			"stateMutability": "nonpayable",
			"type": "function"
		}
	]
}