{
	"data": {
		"bytecode": {
			"linkReferences": {},
			"object": "60806040523480156200001157600080fd5b5060405162000b5938038062000b598339818101604052810190620000379190620001ed565b816000806101000a81548173ffffffffffffffffffffffffffffffffffffffff021916908373ffffffffffffffffffffffffffffffffffffffff16021790555080600190805190602001906200008f929190620000a8565b5060016002819055506001600381905550505062000425565b828054620000b6906200031c565b90600052602060002090601f016020900481019282620000da576000855562000126565b82601f10620000f557805160ff191683800117855562000126565b8280016001018555821562000126579182015b828111156200012557825182559160200191906001019062000108565b5b50905062000135919062000139565b5090565b5b80821115620001545760008160009055506001016200013a565b5090565b60006200016f62000169846200027c565b62000253565b9050828152602081018484840111156200018e576200018d620003eb565b5b6200019b848285620002e6565b509392505050565b600081519050620001b4816200040b565b92915050565b600082601f830112620001d257620001d1620003e6565b5b8151620001e484826020860162000158565b91505092915050565b60008060408385031215620002075762000206620003f5565b5b60006200021785828601620001a3565b925050602083015167ffffffffffffffff8111156200023b576200023a620003f0565b5b6200024985828601620001ba565b9150509250929050565b60006200025f62000272565b90506200026d828262000352565b919050565b6000604051905090565b600067ffffffffffffffff8211156200029a5762000299620003b7565b5b620002a582620003fa565b9050602081019050919050565b6000620002bf82620002c6565b9050919050565b600073ffffffffffffffffffffffffffffffffffffffff82169050919050565b60005b8381101562000306578082015181840152602081019050620002e9565b8381111562000316576000848401525b50505050565b600060028204905060018216806200033557607f821691505b602082108114156200034c576200034b62000388565b5b50919050565b6200035d82620003fa565b810181811067ffffffffffffffff821117156200037f576200037e620003b7565b5b80604052505050565b7f4e487b7100000000000000000000000000000000000000000000000000000000600052602260045260246000fd5b7f4e487b7100000000000000000000000000000000000000000000000000000000600052604160045260246000fd5b600080fd5b600080fd5b600080fd5b600080fd5b6000601f19601f8301169050919050565b6200041681620002b2565b81146200042257600080fd5b50565b61072480620004356000396000f3fe608060405234801561001057600080fd5b506004361061007c5760003560e01c80632db9a5121161005b5780632db9a512146100d95780636777d32a146100f75780637aac861b14610113578063a74c2bb61461012f5761007c565b8062affc2f14610081578063085710111461009d57806317d7de7c146100bb575b600080fd5b61009b60048036038101906100969190610388565b61014d565b005b6100a5610242565b6040516100b291906104cc565b60405180910390f35b6100c361024c565b6040516100d0919061048a565b60405180910390f35b6100e16102de565b6040516100ee91906104cc565b60405180910390f35b610111600480360381019061010c91906103c8565b6102e8565b005b61012d600480360381019061012891906103c8565b610304565b005b610137610320565b604051610144919061046f565b60405180910390f35b8173ffffffffffffffffffffffffffffffffffffffff1660008054906101000a900473ffffffffffffffffffffffffffffffffffffffff1673ffffffffffffffffffffffffffffffffffffffff16146101db576040517f08c379a00000000000000000000000000000000000000000000000000000000081526004016101d2906104ac565b60405180910390fd5b6004819080600181540180825580915050600190039060005260206000200160009091909190916101000a81548173ffffffffffffffffffffffffffffffffffffffff021916908373ffffffffffffffffffffffffffffffffffffffff1602179055505050565b6000600354905090565b60606001805461025b906105da565b80601f0160208091040260200160405190810160405280929190818152602001828054610287906105da565b80156102d45780601f106102a9576101008083540402835291602001916102d4565b820191906000526020600020905b8154815290600101906020018083116102b757829003601f168201915b5050505050905090565b6000600254905090565b80600360008282546102fa9190610503565b9250508190555050565b80600260008282546103169190610503565b9250508190555050565b60008060009054906101000a900473ffffffffffffffffffffffffffffffffffffffff16905090565b600081359050610358816106a9565b92915050565b60008135905061036d816106c0565b92915050565b600081359050610382816106d7565b92915050565b6000806040838503121561039f5761039e61066a565b5b60006103ad85828601610349565b92505060206103be8582860161035e565b9150509250929050565b6000602082840312156103de576103dd61066a565b5b60006103ec84828501610373565b91505092915050565b6103fe81610559565b82525050565b600061040f826104e7565b61041981856104f2565b93506104298185602086016105a7565b6104328161066f565b840191505092915050565b600061044a6010836104f2565b915061045582610680565b602082019050919050565b6104698161059d565b82525050565b600060208201905061048460008301846103f5565b92915050565b600060208201905081810360008301526104a48184610404565b905092915050565b600060208201905081810360008301526104c58161043d565b9050919050565b60006020820190506104e16000830184610460565b92915050565b600081519050919050565b600082825260208201905092915050565b600061050e8261059d565b91506105198361059d565b9250827fffffffffffffffffffffffffffffffffffffffffffffffffffffffffffffffff0382111561054e5761054d61060c565b5b828201905092915050565b60006105648261057d565b9050919050565b600061057682610559565b9050919050565b600073ffffffffffffffffffffffffffffffffffffffff82169050919050565b6000819050919050565b60005b838110156105c55780820151818401526020810190506105aa565b838111156105d4576000848401525b50505050565b600060028204905060018216806105f257607f821691505b602082108114156106065761060561063b565b5b50919050565b7f4e487b7100000000000000000000000000000000000000000000000000000000600052601160045260246000fd5b7f4e487b7100000000000000000000000000000000000000000000000000000000600052602260045260246000fd5b600080fd5b6000601f19601f8301169050919050565b7f796f7520617265206e6f74207573657200000000000000000000000000000000600082015250565b6106b281610559565b81146106bd57600080fd5b50565b6106c98161056b565b81146106d457600080fd5b50565b6106e08161059d565b81146106eb57600080fd5b5056fea264697066735822122056b49c64b45c1a5d8909c4f3e4e0d1be08ac95041087bbe6cd694974ff781f3964736f6c63430008060033",
			"opcodes": "PUSH1 0x80 PUSH1 0x40 MSTORE CALLVALUE DUP1 ISZERO PUSH3 0x11 JUMPI PUSH1 0x0 DUP1 REVERT JUMPDEST POP PUSH1 0x40 MLOAD PUSH3 0xB59 CODESIZE SUB DUP1 PUSH3 0xB59 DUP4 CODECOPY DUP2 DUP2 ADD PUSH1 0x40 MSTORE DUP2 ADD SWAP1 PUSH3 0x37 SWAP2 SWAP1 PUSH3 0x1ED JUMP JUMPDEST DUP2 PUSH1 0x0 DUP1 PUSH2 0x100 EXP DUP2 SLOAD DUP2 PUSH20 0xFFFFFFFFFFFFFFFFFFFFFFFFFFFFFFFFFFFFFFFF MUL NOT AND SWAP1 DUP4 PUSH20 0xFFFFFFFFFFFFFFFFFFFFFFFFFFFFFFFFFFFFFFFF AND MUL OR SWAP1 SSTORE POP DUP1 PUSH1 0x1 SWAP1 DUP1 MLOAD SWAP1 PUSH1 0x20 ADD SWAP1 PUSH3 0x8F SWAP3 SWAP2 SWAP1 PUSH3 0xA8 JUMP JUMPDEST POP PUSH1 0x1 PUSH1 0x2 DUP2 SWAP1 SSTORE POP PUSH1 0x1 PUSH1 0x3 DUP2 SWAP1 SSTORE POP POP POP PUSH3 0x425 JUMP JUMPDEST DUP3 DUP1 SLOAD PUSH3 0xB6 SWAP1 PUSH3 0x31C JUMP JUMPDEST SWAP1 PUSH1 0x0 MSTORE PUSH1 0x20 PUSH1 0x0 KECCAK256 SWAP1 PUSH1 0x1F ADD PUSH1 0x20 SWAP1 DIV DUP2 ADD SWAP3 DUP3 PUSH3 0xDA JUMPI PUSH1 0x0 DUP6 SSTORE PUSH3 0x126 JUMP JUMPDEST DUP3 PUSH1 0x1F LT PUSH3 0xF5 JUMPI DUP1 MLOAD PUSH1 0xFF NOT AND DUP4 DUP1 ADD OR DUP6 SSTORE PUSH3 0x126 JUMP JUMPDEST DUP3 DUP1 ADD PUSH1 0x1 ADD DUP6 SSTORE DUP3 ISZERO PUSH3 0x126 JUMPI SWAP2 DUP3 ADD JUMPDEST DUP3 DUP2 GT ISZERO PUSH3 0x125 JUMPI DUP3 MLOAD DUP3 SSTORE SWAP2 PUSH1 0x20 ADD SWAP2 SWAP1 PUSH1 0x1 ADD SWAP1 PUSH3 0x108 JUMP JUMPDEST JUMPDEST POP SWAP1 POP PUSH3 0x135 SWAP2 SWAP1 PUSH3 0x139 JUMP JUMPDEST POP SWAP1 JUMP JUMPDEST JUMPDEST DUP1 DUP3 GT ISZERO PUSH3 0x154 JUMPI PUSH1 0x0 DUP2 PUSH1 0x0 SWAP1 SSTORE POP PUSH1 0x1 ADD PUSH3 0x13A JUMP JUMPDEST POP SWAP1 JUMP JUMPDEST PUSH1 0x0 PUSH3 0x16F PUSH3 0x169 DUP5 PUSH3 0x27C JUMP JUMPDEST PUSH3 0x253 JUMP JUMPDEST SWAP1 POP DUP3 DUP2 MSTORE PUSH1 0x20 DUP2 ADD DUP5 DUP5 DUP5 ADD GT ISZERO PUSH3 0x18E JUMPI PUSH3 0x18D PUSH3 0x3EB JUMP JUMPDEST JUMPDEST PUSH3 0x19B DUP5 DUP3 DUP6 PUSH3 0x2E6 JUMP JUMPDEST POP SWAP4 SWAP3 POP POP POP JUMP JUMPDEST PUSH1 0x0 DUP2 MLOAD SWAP1 POP PUSH3 0x1B4 DUP2 PUSH3 0x40B JUMP JUMPDEST SWAP3 SWAP2 POP POP JUMP JUMPDEST PUSH1 0x0 DUP3 PUSH1 0x1F DUP4 ADD SLT PUSH3 0x1D2 JUMPI PUSH3 0x1D1 PUSH3 0x3E6 JUMP JUMPDEST JUMPDEST DUP2 MLOAD PUSH3 0x1E4 DUP5 DUP3 PUSH1 0x20 DUP7 ADD PUSH3 0x158 JUMP JUMPDEST SWAP2 POP POP SWAP3 SWAP2 POP POP JUMP JUMPDEST PUSH1 0x0 DUP1 PUSH1 0x40 DUP4 DUP6 SUB SLT ISZERO PUSH3 0x207 JUMPI PUSH3 0x206 PUSH3 0x3F5 JUMP JUMPDEST JUMPDEST PUSH1 0x0 PUSH3 0x217 DUP6 DUP3 DUP7 ADD PUSH3 0x1A3 JUMP JUMPDEST SWAP3 POP POP PUSH1 0x20 DUP4 ADD MLOAD PUSH8 0xFFFFFFFFFFFFFFFF DUP2 GT ISZERO PUSH3 0x23B JUMPI PUSH3 0x23A PUSH3 0x3F0 JUMP JUMPDEST JUMPDEST PUSH3 0x249 DUP6 DUP3 DUP7 ADD PUSH3 0x1BA JUMP JUMPDEST SWAP2 POP POP SWAP3 POP SWAP3 SWAP1 POP JUMP JUMPDEST PUSH1 0x0 PUSH3 0x25F PUSH3 0x272 JUMP JUMPDEST SWAP1 POP PUSH3 0x26D DUP3 DUP3 PUSH3 0x352 JUMP JUMPDEST SWAP2 SWAP1 POP JUMP JUMPDEST PUSH1 0x0 PUSH1 0x40 MLOAD SWAP1 POP SWAP1 JUMP JUMPDEST PUSH1 0x0 PUSH8 0xFFFFFFFFFFFFFFFF DUP3 GT ISZERO PUSH3 0x29A JUMPI PUSH3 0x299 PUSH3 0x3B7 JUMP JUMPDEST JUMPDEST PUSH3 0x2A5 DUP3 PUSH3 0x3FA JUMP JUMPDEST SWAP1 POP PUSH1 0x20 DUP2 ADD SWAP1 POP SWAP2 SWAP1 POP JUMP JUMPDEST PUSH1 0x0 PUSH3 0x2BF DUP3 PUSH3 0x2C6 JUMP JUMPDEST SWAP1 POP SWAP2 SWAP1 POP JUMP JUMPDEST PUSH1 0x0 PUSH20 0xFFFFFFFFFFFFFFFFFFFFFFFFFFFFFFFFFFFFFFFF DUP3 AND SWAP1 POP SWAP2 SWAP1 POP JUMP JUMPDEST PUSH1 0x0 JUMPDEST DUP4 DUP2 LT ISZERO PUSH3 0x306 JUMPI DUP1 DUP3 ADD MLOAD DUP2 DUP5 ADD MSTORE PUSH1 0x20 DUP2 ADD SWAP1 POP PUSH3 0x2E9 JUMP JUMPDEST DUP4 DUP2 GT ISZERO PUSH3 0x316 JUMPI PUSH1 0x0 DUP5 DUP5 ADD MSTORE JUMPDEST POP POP POP POP JUMP JUMPDEST PUSH1 0x0 PUSH1 0x2 DUP3 DIV SWAP1 POP PUSH1 0x1 DUP3 AND DUP1 PUSH3 0x335 JUMPI PUSH1 0x7F DUP3 AND SWAP2 POP JUMPDEST PUSH1 0x20 DUP3 LT DUP2 EQ ISZERO PUSH3 0x34C JUMPI PUSH3 0x34B PUSH3 0x388 JUMP JUMPDEST JUMPDEST POP SWAP2 SWAP1 POP JUMP JUMPDEST PUSH3 0x35D DUP3 PUSH3 0x3FA JUMP JUMPDEST DUP2 ADD DUP2 DUP2 LT PUSH8 0xFFFFFFFFFFFFFFFF DUP3 GT OR ISZERO PUSH3 0x37F JUMPI PUSH3 0x37E PUSH3 0x3B7 JUMP JUMPDEST JUMPDEST DUP1 PUSH1 0x40 MSTORE POP POP POP JUMP JUMPDEST PUSH32 0x4E487B7100000000000000000000000000000000000000000000000000000000 PUSH1 0x0 MSTORE PUSH1 0x22 PUSH1 0x4 MSTORE PUSH1 0x24 PUSH1 0x0 REVERT JUMPDEST PUSH32 0x4E487B7100000000000000000000000000000000000000000000000000000000 PUSH1 0x0 MSTORE PUSH1 0x41 PUSH1 0x4 MSTORE PUSH1 0x24 PUSH1 0x0 REVERT JUMPDEST PUSH1 0x0 DUP1 REVERT JUMPDEST PUSH1 0x0 DUP1 REVERT JUMPDEST PUSH1 0x0 DUP1 REVERT JUMPDEST PUSH1 0x0 DUP1 REVERT JUMPDEST PUSH1 0x0 PUSH1 0x1F NOT PUSH1 0x1F DUP4 ADD AND SWAP1 POP SWAP2 SWAP1 POP JUMP JUMPDEST PUSH3 0x416 DUP2 PUSH3 0x2B2 JUMP JUMPDEST DUP2 EQ PUSH3 0x422 JUMPI PUSH1 0x0 DUP1 REVERT JUMPDEST POP JUMP JUMPDEST PUSH2 0x724 DUP1 PUSH3 0x435 PUSH1 0x0 CODECOPY PUSH1 0x0 RETURN INVALID PUSH1 0x80 PUSH1 0x40 MSTORE CALLVALUE DUP1 ISZERO PUSH2 0x10 JUMPI PUSH1 0x0 DUP1 REVERT JUMPDEST POP PUSH1 0x4 CALLDATASIZE LT PUSH2 0x7C JUMPI PUSH1 0x0 CALLDATALOAD PUSH1 0xE0 SHR DUP1 PUSH4 0x2DB9A512 GT PUSH2 0x5B JUMPI DUP1 PUSH4 0x2DB9A512 EQ PUSH2 0xD9 JUMPI DUP1 PUSH4 0x6777D32A EQ PUSH2 0xF7 JUMPI DUP1 PUSH4 0x7AAC861B EQ PUSH2 0x113 JUMPI DUP1 PUSH4 0xA74C2BB6 EQ PUSH2 0x12F JUMPI PUSH2 0x7C JUMP JUMPDEST DUP1 PUSH3 0xAFFC2F EQ PUSH2 0x81 JUMPI DUP1 PUSH4 0x8571011 EQ PUSH2 0x9D JUMPI DUP1 PUSH4 0x17D7DE7C EQ PUSH2 0xBB JUMPI JUMPDEST PUSH1 0x0 DUP1 REVERT JUMPDEST PUSH2 0x9B PUSH1 0x4 DUP1 CALLDATASIZE SUB DUP2 ADD SWAP1 PUSH2 0x96 SWAP2 SWAP1 PUSH2 0x388 JUMP JUMPDEST PUSH2 0x14D JUMP JUMPDEST STOP JUMPDEST PUSH2 0xA5 PUSH2 0x242 JUMP JUMPDEST PUSH1 0x40 MLOAD PUSH2 0xB2 SWAP2 SWAP1 PUSH2 0x4CC JUMP JUMPDEST PUSH1 0x40 MLOAD DUP1 SWAP2 SUB SWAP1 RETURN JUMPDEST PUSH2 0xC3 PUSH2 0x24C JUMP JUMPDEST PUSH1 0x40 MLOAD PUSH2 0xD0 SWAP2 SWAP1 PUSH2 0x48A JUMP JUMPDEST PUSH1 0x40 MLOAD DUP1 SWAP2 SUB SWAP1 RETURN JUMPDEST PUSH2 0xE1 PUSH2 0x2DE JUMP JUMPDEST PUSH1 0x40 MLOAD PUSH2 0xEE SWAP2 SWAP1 PUSH2 0x4CC JUMP JUMPDEST PUSH1 0x40 MLOAD DUP1 SWAP2 SUB SWAP1 RETURN JUMPDEST PUSH2 0x111 PUSH1 0x4 DUP1 CALLDATASIZE SUB DUP2 ADD SWAP1 PUSH2 0x10C SWAP2 SWAP1 PUSH2 0x3C8 JUMP JUMPDEST PUSH2 0x2E8 JUMP JUMPDEST STOP JUMPDEST PUSH2 0x12D PUSH1 0x4 DUP1 CALLDATASIZE SUB DUP2 ADD SWAP1 PUSH2 0x128 SWAP2 SWAP1 PUSH2 0x3C8 JUMP JUMPDEST PUSH2 0x304 JUMP JUMPDEST STOP JUMPDEST PUSH2 0x137 PUSH2 0x320 JUMP JUMPDEST PUSH1 0x40 MLOAD PUSH2 0x144 SWAP2 SWAP1 PUSH2 0x46F JUMP JUMPDEST PUSH1 0x40 MLOAD DUP1 SWAP2 SUB SWAP1 RETURN JUMPDEST DUP2 PUSH20 0xFFFFFFFFFFFFFFFFFFFFFFFFFFFFFFFFFFFFFFFF AND PUSH1 0x0 DUP1 SLOAD SWAP1 PUSH2 0x100 EXP SWAP1 DIV PUSH20 0xFFFFFFFFFFFFFFFFFFFFFFFFFFFFFFFFFFFFFFFF AND PUSH20 0xFFFFFFFFFFFFFFFFFFFFFFFFFFFFFFFFFFFFFFFF AND EQ PUSH2 0x1DB JUMPI PUSH1 0x40 MLOAD PUSH32 0x8C379A000000000000000000000000000000000000000000000000000000000 DUP2 MSTORE PUSH1 0x4 ADD PUSH2 0x1D2 SWAP1 PUSH2 0x4AC JUMP JUMPDEST PUSH1 0x40 MLOAD DUP1 SWAP2 SUB SWAP1 REVERT JUMPDEST PUSH1 0x4 DUP2 SWAP1 DUP1 PUSH1 0x1 DUP2 SLOAD ADD DUP1 DUP3 SSTORE DUP1 SWAP2 POP POP PUSH1 0x1 SWAP1 SUB SWAP1 PUSH1 0x0 MSTORE PUSH1 0x20 PUSH1 0x0 KECCAK256 ADD PUSH1 0x0 SWAP1 SWAP2 SWAP1 SWAP2 SWAP1 SWAP2 PUSH2 0x100 EXP DUP2 SLOAD DUP2 PUSH20 0xFFFFFFFFFFFFFFFFFFFFFFFFFFFFFFFFFFFFFFFF MUL NOT AND SWAP1 DUP4 PUSH20 0xFFFFFFFFFFFFFFFFFFFFFFFFFFFFFFFFFFFFFFFF AND MUL OR SWAP1 SSTORE POP POP POP JUMP JUMPDEST PUSH1 0x0 PUSH1 0x3 SLOAD SWAP1 POP SWAP1 JUMP JUMPDEST PUSH1 0x60 PUSH1 0x1 DUP1 SLOAD PUSH2 0x25B SWAP1 PUSH2 0x5DA JUMP JUMPDEST DUP1 PUSH1 0x1F ADD PUSH1 0x20 DUP1 SWAP2 DIV MUL PUSH1 0x20 ADD PUSH1 0x40 MLOAD SWAP1 DUP2 ADD PUSH1 0x40 MSTORE DUP1 SWAP3 SWAP2 SWAP1 DUP2 DUP2 MSTORE PUSH1 0x20 ADD DUP3 DUP1 SLOAD PUSH2 0x287 SWAP1 PUSH2 0x5DA JUMP JUMPDEST DUP1 ISZERO PUSH2 0x2D4 JUMPI DUP1 PUSH1 0x1F LT PUSH2 0x2A9 JUMPI PUSH2 0x100 DUP1 DUP4 SLOAD DIV MUL DUP4 MSTORE SWAP2 PUSH1 0x20 ADD SWAP2 PUSH2 0x2D4 JUMP JUMPDEST DUP3 ADD SWAP2 SWAP1 PUSH1 0x0 MSTORE PUSH1 0x20 PUSH1 0x0 KECCAK256 SWAP1 JUMPDEST DUP2 SLOAD DUP2 MSTORE SWAP1 PUSH1 0x1 ADD SWAP1 PUSH1 0x20 ADD DUP1 DUP4 GT PUSH2 0x2B7 JUMPI DUP3 SWAP1 SUB PUSH1 0x1F AND DUP3 ADD SWAP2 JUMPDEST POP POP POP POP POP SWAP1 POP SWAP1 JUMP JUMPDEST PUSH1 0x0 PUSH1 0x2 SLOAD SWAP1 POP SWAP1 JUMP JUMPDEST DUP1 PUSH1 0x3 PUSH1 0x0 DUP3 DUP3 SLOAD PUSH2 0x2FA SWAP2 SWAP1 PUSH2 0x503 JUMP JUMPDEST SWAP3 POP POP DUP2 SWAP1 SSTORE POP POP JUMP JUMPDEST DUP1 PUSH1 0x2 PUSH1 0x0 DUP3 DUP3 SLOAD PUSH2 0x316 SWAP2 SWAP1 PUSH2 0x503 JUMP JUMPDEST SWAP3 POP POP DUP2 SWAP1 SSTORE POP POP JUMP JUMPDEST PUSH1 0x0 DUP1 PUSH1 0x0 SWAP1 SLOAD SWAP1 PUSH2 0x100 EXP SWAP1 DIV PUSH20 0xFFFFFFFFFFFFFFFFFFFFFFFFFFFFFFFFFFFFFFFF AND SWAP1 POP SWAP1 JUMP JUMPDEST PUSH1 0x0 DUP2 CALLDATALOAD SWAP1 POP PUSH2 0x358 DUP2 PUSH2 0x6A9 JUMP JUMPDEST SWAP3 SWAP2 POP POP JUMP JUMPDEST PUSH1 0x0 DUP2 CALLDATALOAD SWAP1 POP PUSH2 0x36D DUP2 PUSH2 0x6C0 JUMP JUMPDEST SWAP3 SWAP2 POP POP JUMP JUMPDEST PUSH1 0x0 DUP2 CALLDATALOAD SWAP1 POP PUSH2 0x382 DUP2 PUSH2 0x6D7 JUMP JUMPDEST SWAP3 SWAP2 POP POP JUMP JUMPDEST PUSH1 0x0 DUP1 PUSH1 0x40 DUP4 DUP6 SUB SLT ISZERO PUSH2 0x39F JUMPI PUSH2 0x39E PUSH2 0x66A JUMP JUMPDEST JUMPDEST PUSH1 0x0 PUSH2 0x3AD DUP6 DUP3 DUP7 ADD PUSH2 0x349 JUMP JUMPDEST SWAP3 POP POP PUSH1 0x20 PUSH2 0x3BE DUP6 DUP3 DUP7 ADD PUSH2 0x35E JUMP JUMPDEST SWAP2 POP POP SWAP3 POP SWAP3 SWAP1 POP JUMP JUMPDEST PUSH1 0x0 PUSH1 0x20 DUP3 DUP5 SUB SLT ISZERO PUSH2 0x3DE JUMPI PUSH2 0x3DD PUSH2 0x66A JUMP JUMPDEST JUMPDEST PUSH1 0x0 PUSH2 0x3EC DUP5 DUP3 DUP6 ADD PUSH2 0x373 JUMP JUMPDEST SWAP2 POP POP SWAP3 SWAP2 POP POP JUMP JUMPDEST PUSH2 0x3FE DUP2 PUSH2 0x559 JUMP JUMPDEST DUP3 MSTORE POP POP JUMP JUMPDEST PUSH1 0x0 PUSH2 0x40F DUP3 PUSH2 0x4E7 JUMP JUMPDEST PUSH2 0x419 DUP2 DUP6 PUSH2 0x4F2 JUMP JUMPDEST SWAP4 POP PUSH2 0x429 DUP2 DUP6 PUSH1 0x20 DUP7 ADD PUSH2 0x5A7 JUMP JUMPDEST PUSH2 0x432 DUP2 PUSH2 0x66F JUMP JUMPDEST DUP5 ADD SWAP2 POP POP SWAP3 SWAP2 POP POP JUMP JUMPDEST PUSH1 0x0 PUSH2 0x44A PUSH1 0x10 DUP4 PUSH2 0x4F2 JUMP JUMPDEST SWAP2 POP PUSH2 0x455 DUP3 PUSH2 0x680 JUMP JUMPDEST PUSH1 0x20 DUP3 ADD SWAP1 POP SWAP2 SWAP1 POP JUMP JUMPDEST PUSH2 0x469 DUP2 PUSH2 0x59D JUMP JUMPDEST DUP3 MSTORE POP POP JUMP JUMPDEST PUSH1 0x0 PUSH1 0x20 DUP3 ADD SWAP1 POP PUSH2 0x484 PUSH1 0x0 DUP4 ADD DUP5 PUSH2 0x3F5 JUMP JUMPDEST SWAP3 SWAP2 POP POP JUMP JUMPDEST PUSH1 0x0 PUSH1 0x20 DUP3 ADD SWAP1 POP DUP2 DUP2 SUB PUSH1 0x0 DUP4 ADD MSTORE PUSH2 0x4A4 DUP2 DUP5 PUSH2 0x404 JUMP JUMPDEST SWAP1 POP SWAP3 SWAP2 POP POP JUMP JUMPDEST PUSH1 0x0 PUSH1 0x20 DUP3 ADD SWAP1 POP DUP2 DUP2 SUB PUSH1 0x0 DUP4 ADD MSTORE PUSH2 0x4C5 DUP2 PUSH2 0x43D JUMP JUMPDEST SWAP1 POP SWAP2 SWAP1 POP JUMP JUMPDEST PUSH1 0x0 PUSH1 0x20 DUP3 ADD SWAP1 POP PUSH2 0x4E1 PUSH1 0x0 DUP4 ADD DUP5 PUSH2 0x460 JUMP JUMPDEST SWAP3 SWAP2 POP POP JUMP JUMPDEST PUSH1 0x0 DUP2 MLOAD SWAP1 POP SWAP2 SWAP1 POP JUMP JUMPDEST PUSH1 0x0 DUP3 DUP3 MSTORE PUSH1 0x20 DUP3 ADD SWAP1 POP SWAP3 SWAP2 POP POP JUMP JUMPDEST PUSH1 0x0 PUSH2 0x50E DUP3 PUSH2 0x59D JUMP JUMPDEST SWAP2 POP PUSH2 0x519 DUP4 PUSH2 0x59D JUMP JUMPDEST SWAP3 POP DUP3 PUSH32 0xFFFFFFFFFFFFFFFFFFFFFFFFFFFFFFFFFFFFFFFFFFFFFFFFFFFFFFFFFFFFFFFF SUB DUP3 GT ISZERO PUSH2 0x54E JUMPI PUSH2 0x54D PUSH2 0x60C JUMP JUMPDEST JUMPDEST DUP3 DUP3 ADD SWAP1 POP SWAP3 SWAP2 POP POP JUMP JUMPDEST PUSH1 0x0 PUSH2 0x564 DUP3 PUSH2 0x57D JUMP JUMPDEST SWAP1 POP SWAP2 SWAP1 POP JUMP JUMPDEST PUSH1 0x0 PUSH2 0x576 DUP3 PUSH2 0x559 JUMP JUMPDEST SWAP1 POP SWAP2 SWAP1 POP JUMP JUMPDEST PUSH1 0x0 PUSH20 0xFFFFFFFFFFFFFFFFFFFFFFFFFFFFFFFFFFFFFFFF DUP3 AND SWAP1 POP SWAP2 SWAP1 POP JUMP JUMPDEST PUSH1 0x0 DUP2 SWAP1 POP SWAP2 SWAP1 POP JUMP JUMPDEST PUSH1 0x0 JUMPDEST DUP4 DUP2 LT ISZERO PUSH2 0x5C5 JUMPI DUP1 DUP3 ADD MLOAD DUP2 DUP5 ADD MSTORE PUSH1 0x20 DUP2 ADD SWAP1 POP PUSH2 0x5AA JUMP JUMPDEST DUP4 DUP2 GT ISZERO PUSH2 0x5D4 JUMPI PUSH1 0x0 DUP5 DUP5 ADD MSTORE JUMPDEST POP POP POP POP JUMP JUMPDEST PUSH1 0x0 PUSH1 0x2 DUP3 DIV SWAP1 POP PUSH1 0x1 DUP3 AND DUP1 PUSH2 0x5F2 JUMPI PUSH1 0x7F DUP3 AND SWAP2 POP JUMPDEST PUSH1 0x20 DUP3 LT DUP2 EQ ISZERO PUSH2 0x606 JUMPI PUSH2 0x605 PUSH2 0x63B JUMP JUMPDEST JUMPDEST POP SWAP2 SWAP1 POP JUMP JUMPDEST PUSH32 0x4E487B7100000000000000000000000000000000000000000000000000000000 PUSH1 0x0 MSTORE PUSH1 0x11 PUSH1 0x4 MSTORE PUSH1 0x24 PUSH1 0x0 REVERT JUMPDEST PUSH32 0x4E487B7100000000000000000000000000000000000000000000000000000000 PUSH1 0x0 MSTORE PUSH1 0x22 PUSH1 0x4 MSTORE PUSH1 0x24 PUSH1 0x0 REVERT JUMPDEST PUSH1 0x0 DUP1 REVERT JUMPDEST PUSH1 0x0 PUSH1 0x1F NOT PUSH1 0x1F DUP4 ADD AND SWAP1 POP SWAP2 SWAP1 POP JUMP JUMPDEST PUSH32 0x796F7520617265206E6F74207573657200000000000000000000000000000000 PUSH1 0x0 DUP3 ADD MSTORE POP JUMP JUMPDEST PUSH2 0x6B2 DUP2 PUSH2 0x559 JUMP JUMPDEST DUP2 EQ PUSH2 0x6BD JUMPI PUSH1 0x0 DUP1 REVERT JUMPDEST POP JUMP JUMPDEST PUSH2 0x6C9 DUP2 PUSH2 0x56B JUMP JUMPDEST DUP2 EQ PUSH2 0x6D4 JUMPI PUSH1 0x0 DUP1 REVERT JUMPDEST POP JUMP JUMPDEST PUSH2 0x6E0 DUP2 PUSH2 0x59D JUMP JUMPDEST DUP2 EQ PUSH2 0x6EB JUMPI PUSH1 0x0 DUP1 REVERT JUMPDEST POP JUMP INVALID LOG2 PUSH5 0x6970667358 0x22 SLT KECCAK256 JUMP 0xB4 SWAP13 PUSH5 0xB45C1A5D89 MULMOD 0xC4 RETURN 0xE4 0xE0 0xD1 0xBE ADDMOD 0xAC SWAP6 DIV LT DUP8 0xBB 0xE6 0xCD PUSH10 0x4974FF781F3964736F6C PUSH4 0x43000806 STOP CALLER "
		},
		"gasEstimates": {
			"creation": {
				"codeDepositCost": "365600",
				"executionCost": "infinite",
				"totalCost": "infinite"
			},
			"external": {
				"addAuth(uint256)": "infinite",
				"addHub(uint256)": "infinite",
				"addProject(address,address)": "infinite",
				"getAddr()": "2588",
				"getAuth()": "2460",
				"getHub()": "2437",
				"getName()": "infinite"
			}
		},
		"methodIdentifiers": {
			"addAuth(uint256)": "6777d32a",
			"addHub(uint256)": "7aac861b",
			"addProject(address,address)": "00affc2f",
			"getAddr()": "a74c2bb6",
			"getAuth()": "08571011",
			"getHub()": "2db9a512",
			"getName()": "17d7de7c"
		}
	},
	"abi": [
		{
			"inputs": [
				{
					"internalType": "address",
					"name": "_addr",
					"type": "address"
				},
				{
					"internalType": "string",
					"name": "_name",
					"type": "string"
				}
			],
			"stateMutability": "nonpayable",
			"type": "constructor"
		},
		{
			"inputs": [
				{
					"internalType": "uint256",
					"name": "_hub",
					"type": "uint256"
				}
			],
			"name": "addAuth",
			"outputs": [],
			"stateMutability": "nonpayable",
			"type": "function"
		},
		{
			"inputs": [
				{
					"internalType": "uint256",
					"name": "_auth",
					"type": "uint256"
				}
			],
			"name": "addHub",
			"outputs": [],
			"stateMutability": "nonpayable",
			"type": "function"
		},
		{
			"inputs": [
				{
					"internalType": "address",
					"name": "_addr",
					"type": "address"
				},
				{
					"internalType": "contract Project",
					"name": "_project",
					"type": "address"
				}
			],
			"name": "addProject",
			"outputs": [],
			"stateMutability": "nonpayable",
			"type": "function"
		},
		{
			"inputs": [],
			"name": "getAddr",
			"outputs": [
				{
					"internalType": "address",
					"name": "",
					"type": "address"
				}
			],
			"stateMutability": "view",
			"type": "function"
		},
		{
			"inputs": [],
			"name": "getAuth",
			"outputs": [
				{
					"internalType": "uint256",
					"name": "",
					"type": "uint256"
				}
			],
			"stateMutability": "view",
			"type": "function"
		},
		{
			"inputs": [],
			"name": "getHub",
			"outputs": [
				{
					"internalType": "uint256",
					"name": "",
					"type": "uint256"
				}
			],
			"stateMutability": "view",
			"type": "function"
		},
		{
			"inputs": [],
			"name": "getName",
			"outputs": [
				{
					"internalType": "string",
					"name": "",
					"type": "string"
				}
			],
			"stateMutability": "view",
			"type": "function"
		}
	]
}